:020000040801F1
:10000000C8950120A5040108C9AD01083D8101087A
:10001000A5AD010859390108710802080000000067
:10002000000000000000000000000000750301084F
:10003000854B0108000000002D040108910401080F
:10004000BF040108AFAE0108BF040108BF040108E6
:10005000BF040108BF040108394D01085F4D0108C4
:10006000BF040108694D0108734D0108BF04010870
:10007000BF040108BF040108BF040108BF04010850
:10008000BF040108BF040108BF040108BF04010840
:10009000BF040108BF040108BF040108BF04010830
:1000A000FDDF01081DE001080DE00108BF040108A3
:1000B000BF040108BF040108BF040108BF04010810
:1000C000BF040108BF040108BF040108BF04010800
:1000D000D9B60108F9E90108BF04010871EA01086D
:1000E000434D0108BF040108BF040108BF04010813
:1000F000BF040108BF040108BF040108BF040108D0
:10010000BF04010881B30108BF040108BF0401084E
:10011000BF040108BF040108BF040108BF040108AF
:10012000BF040108BF040108AD480108C148010827
:10013000BF040108BF040108BF040108BF0401088F
:10014000BF040108BF040108BF040108BF0401087F
:10015000BF040108D5480108E948010881EB0108FE
:10016000BF040108BF040108BF040108BF0401085F
:10017000BF040108BF040108BF040108000000001B
:10018000BF040108BF04010800F002F800F09DF868
:100190000AA090E8000C82448344AAF10107DA45E2
:1001A00001D100F092F8AFF2090EBAE80F0013F097
:1001B000010F18BFFB1A43F001031847FC9A010016
:1001C0001C9B01000A444FF0000C10F8013B13F097
:1001D000070408BF10F8014B1D1108BF10F8015BA0
:1001E000641E05D010F8016B641E01F8016BF9D193
:1001F00013F0080F1EBF10F8014BAD1C0C1B09D1EA
:100200006D1E58BF01F801CBFAD505E014F8016B5B
:1002100001F8016B6D1EF9D59142D6D370470000ED
:100220000023002400250026103A28BF78C1FBD8FF
:10023000520728BF30C148BF0B607047662918F0CD
:10024000C286652918F0BF86672918F0BC86612927
:1002500018F0BB86692900F04D82642900F04A82BB
:10026000752900F047826F2900F0DE82782900F0BE
:1002700003830368DB0928BF41F08001632901F093
:10028000B484732901F0B984E32901F0C484002007
:1002900070471FB518F08DFE9DE8030001F0E6FEE3
:1002A00001F0C7FE04000020002118F0B9FC401C3A
:1002B00060600020002118F09DFCE06001F086FDE8
:1002C0001FBD10B501F0FAFD10BD02F0EDFA1146A8
:1002D000FFF7DFFF0FB400F00BF80FBC14F00AFFBC
:1002E00000F07AFE03B4FFF7ECFF03BC02F0D6FA8D
:1002F00004B016F0ADF90448002116F0CDFA16F05E
:10030000B9F900F069FE0000DC92020880F3098868
:100310007047EFF309807047684680F30988044806
:100320000078C00714BF0220032080F314887047B0
:100330009C920208DFF818C0EFF305831B0618BF74
:100340006047EFF31483DB0708BF604700DF7047A7
:10035000956E0208DFF818C0EFF305831B0618BF7F
:100360006047EFF31483DB0708BF604700DF704787
:1003700045710208EFF30980816911F8021CE1BBA5
:1003800090E80F1010B5E047BDE81040EFF3098C7E
:100390008CE80700214B93E80600914208BF7047A4
:1003A00041B91EF0100F16D11D49086820F0010058
:1003B000086010E01EF0100F06BF2CED108A01201F
:1003C000002081F825002CE9F00FC1F828C00CB4FA
:1003D00017F0C8FA0CBC1A60D2F828C0BCE8F00FBD
:1003E00092F8250000280EBF6FF0020E6FF0120E7B
:1003F000BCEC108A8CF30988704710B5094A126862
:10040000914209D8084C54F8214090E80F10A047B9
:10041000EFF3098C8CE80F0010BD000034060020BB
:1004200034EF00E0803801088038010810B517F07B
:100430005DF9BDE81040154B93E80600914208BFF6
:100440007047EFF3098C1EF0100F06BF2CED108AD9
:100450000120002081F825002CE9F00FC1F828C008
:100460000CB417F07FFA0CBC1A60D2F828C0BCE8B4
:10047000F00F92F8250000280EBF6FF0020E6FF00B
:10048000120EBCEC108A8CF30988704734060020E9
:1004900010B517F02FFBCCE710B516F091FA17F056
:1004A00029FBC6E70948804709480047FEE7FEE701
:1004B000FEE7FEE7FEE7FEE7FEE7FEE7FEE7FEE714
:1004C00004480549054A064B7047000099DF0108BA
:1004D00089010108A8860120C8950120C88D012046
:1004E000C88D0120004870478880012053EA020C23
:1004F00000F069802DE9F04B4FF00006002B1FBF84
:10050000B3FA83F503FA05F424FA05F65E4012BF48
:100510001643B2FA82F502FA05F4C5F120051EBFB2
:1005200022FA05FC44EA0C04203556EA044C4FEA52
:10053000144418BF641C4FF000084FF000099042AB
:1005400071EB030C39D3002919BFB1FA81F701FA15
:1005500007F6B0FA80F700FA07F6C7F120071EBFCA
:1005600020FA07FC46EA0C062037B6FBF4FCA7EBA2
:100570000507103F07F01F0BCBF120060CFA0BFB11
:100580002CFA06F644BFB3460026202FA4BF5E46D1
:100590004FF0000B5BEA060C08BF4FF0010B19EBA4
:1005A0000B09ABFB027C48EB0608C01B06FB02CC28
:1005B0000BFB03CC71EB0C01C1E70B460246414635
:1005C0004846BDE8F08B13B54FF000004FF0000136
:1005D000AFF30080BDE81C40704700000FB4044931
:1005E00010B503AA029802F0ADF910BC5DF814FB37
:1005F0003C8101200FB4014610B504AA039802F013
:10060000A1F910BC5DF814FB0FB41CB5074B06AA8A
:100610007B4469460090059801F0C5FA00206946C0
:1006200001F0D4FA1CBC5DF814FB0000B915000001
:1006300070B5044685690068C10601D5302600E022
:100640002026C00707D070BDD4E90121304690476D
:10065000206A401C20626D1EF6D570BD70B5044640
:1006600085690078C00707D170BDD4E90121202039
:100670009047206A401C20626D1EF6D570BD096847
:100680004A0501D540B27047C905FCD500B2704794
:1006900009684A0501D5C0B27047C905FCD580B2CA
:1006A000704770B50C460546012A05D028788006AB
:1006B00000D5EA69002302E0012305E05B1C9342B8
:1006C00002D2E05C0028F9D1A869E618C01AA86136
:1006D000286A184428622846FFF7AAFF04E0D5E9F3
:1006E000012114F8010B9047B442F8D32846FFF7D4
:1006F000B5FF70BD2DE9F04106460024106875294C
:10070000314616A510D0FFF7BAFF002802DA4042A2
:1007100013A507E031688A0701D512A502E0490751
:1007200004D511A5012401E0FFF7B2FF00210A2240
:1007300006F1240709E0B0FBF2FCB0FBF2F302FB88
:100740001C00303078541846491C0028F3D1234649
:100750002A463046BDE8F04100F03CBE00000000F3
:100760002D0000002B000000200000002DE9FF5F9D
:1007700015468A460446DFF8AC80F8440027D8E9DD
:1007800000103E46CDE9001010E03AF816106A4617
:1007900002A801F0FFFB411C07D02178890603D590
:1007A000E269391891420DD80744761C20788006FA
:1007B00002D5E069B84205DDAE42E6DB3AF8160044
:1007C0000028E2D1A069C01BA0612046FFF730FFDE
:1007D000D8E90010CDE90010002017E03AF8181011
:1007E0006A4602A801F0D6FBB0F1FF3F81460BD06C
:1007F00000250DF1080B05E0D4E901211BF80500E7
:1008000090476D1C4D45F7D308F10100B04280467A
:10081000E4DB206A384420622046FFF71FFFBDE872
:10082000FF9F0000A692010070B5044621461068A3
:10083000FFF72EFF002104F1240505E000F0070278
:100840003032C0086A54491C0028F7D120680023C0
:1008500007A2050707D5800600D421B1E06901236E
:1008600004A2401EE0612046BDE8704000F0B2BD29
:10087000000000003000000070B504460D4621461F
:100880001068FFF705FF2188090502D50F4A7A4451
:1008900002E00E4A7A440E32002104F1240305E0FE
:1008A00000F00F060009965D5E54491C0028F7D140
:1008B00020780023000704D5702D02D009B102234F
:1008C00011322046BDE8704000F084BD9A910100CD
:1008D0002DE9F05F894604464FF0000ADFF874B155
:1008E000FB44C0F820A02046E1688847002874D067
:1008F000252806D0D4E901219047206A401C2062B7
:10090000F1E700265F462046E16888472028054633
:1009100007DB312D05D2781910F8200C08B10643F9
:10092000F1E7B00701D526F00406C4F81CA00027A3
:10093000C4F818A02A2D09D0284611F00EF938B3B2
:1009400004EB8708303DC8F8185019E059F8041B2B
:10095000204604EB87029161E1688847012F054634
:1009600018D1E069002820DA26F020061DE0D8F82A
:10097000180000EB800005EB40003038C8F8180084
:100980002046E1688847054611F0E7F80028EED1D7
:10099000012F0AD02E2D08D12046E16888477F1C00
:1009A0000546022F46F02006C4DBA069002803DAC2
:1009B000404246F00106A061F00701D026F0100683
:1009C0006C2D0BD0682D09D04C2D39D06A2D35D027
:1009D000742D35D07A2D33D016E038E0E1682F46FB
:1009E00020468847B842054609D16C2F26D04FF4DF
:1009F0008060E168064320468847054604E06C2F86
:100A00001AD04FF4807006430DB3A5F141001928A8
:100A100002D8203546F400664A462946204626601C
:100A20004E46FFF70BFC80B101280BD0F61D26F0D7
:100A3000070000F1080956E74020E4E78020D8E7E6
:100A40000020D6E706F104094DE7284652E7206A60
:100A5000BDE8F09F709101000FB400B589B00CA9FA
:100A60006A4600910B9902F047F909B05DF814FB52
:100A70002DE9FF5F1D464FF0FF3B91464FF0000808
:100A80005F46D5E90146A96901987F1C8847296A14
:100A9000824688470028F6D1BAF1FF3F0CD0002EDD
:100AA00024F4C06419DD600614D5BAF12B0F09D007
:100AB000BAF12D0F0ED103E0584604B0BDE8F09F07
:100AC00044F48064A96901987F1C8847761E824699
:100AD000002E02DDBAF1300F03D0B9F1000F26D09D
:100AE00032E0A969761E01987F1C44F4007488479F
:100AF000002E824605DDBAF1780F06D0BAF1580F04
:100B000003D0B9F1000F10D01EE0B9F1000F02D0F0
:100B1000B9F1100F18D1A969761E01987F1C24F431
:100B2000007488478246102002E0082000E00A2076
:100B3000814609E0A96908FB0908761E01987F1C17
:100B400044F4007488478246002E05DD494650462D
:100B500001F06DF80028EDDAE96901988847A005F1
:100B600002D46FF00100A8E7E00725D1600613D595
:100B7000600502D5C8F1000000E0404629680A1D62
:100B80002A600968220501D5087015E0220701D501
:100B9000088011E008600FE02868011D29600068E6
:100BA000210502D580F8008006E0210702D5A0F8D3
:100BB000008001E0C0F8008038467EE770B5064648
:100BC00000F06FFB0468054630460A22002101F060
:100BD0003CF82C6070BD00002DE9F041044616463B
:100BE0000D464769007B80072ED0384611F01AF871
:100BF00050BB3EB3012E02D0022E25D104E0204688
:100C000000F066F805441DE0384610F0F6FFE16894
:100C1000002841F01001E16005DA204601F04EF8AD
:100C20000120BDE8F081C9030BD56268E16A9142F9
:100C300000D81146A26911442269891A814200DD57
:100C400008460544002D01DA0220EAE7E16A6068FF
:100C5000E268814206D29103E06203D522F40031BA
:100C600041F01002A6690027AE4213DCE16A81421E
:100C700001D90B4600E0034603EB060C2369ACEBFD
:100C8000030CAC4506DD814201D98C4600E0844668
:100C90009C4505D1A760276042F02000A5620DE0C9
:100CA000AD1BE669AE1B8142A66000D90846C01A9A
:100CB000281A20605819606022F02000034908407B
:100CC000E060002084F84870ABE70000BFCFD7FF9A
:100CD00010B50146C268900703D0900607D5886A10
:100CE0000AE000F0DEFA01210160881E10BD8B6968
:100CF000486818440B69C01A91F848301BB191F844
:100D00004910401A10BD1103FCD50028FADD401E21
:100D100010BD01F04BB82DE9F04704464FF0000933
:100D20004FF0FF37C568D4E90486A80707D02046EE
:100D300000F0F8FF304610F04BFF002802DA38468A
:100D4000BDE8F087280502D5404600F02CFB4C2179
:100D5000204600F03CFA206D20F001002065484656
:100D6000EEE770B5044600F14C05284610F0FCFE95
:100D70002046FFF7ADFF0446284610F01BFF204633
:100D800070BD000070B505460A4E304610F0ECFE0E
:100D900005F14C04204610F0E7FE2846FFF7BBFFA4
:100DA0000546204610F006FF304610F003FF2846A7
:100DB00070BD0000680600202DE9F04116460F4680
:100DC000054600F14C04204610F0CEFE324639466E
:100DD0002846FFF701FF0546204610F0EBFE2846A7
:100DE000BDE8F08170B5044600F14C05284610F0CE
:100DF000BBFE207B00F04004284610F0DBFE2046BE
:100E000070BD00002DE9F041044600F14C07384662
:100E100010F0AAFEE068810712D0800601D5A66A0C
:100E200004E0A169606808442169461A204600F080
:100E300079FF0022054631462046FFF7CDFE00E04F
:100E40000025384610F0B6FE2846BDE8F0812DE9B1
:100E5000F04118B1BDE8F041FFF7D4BF0B4E0025BB
:100E6000304610F081FE0A4C6F1E07E02046FFF767
:100E7000C9FF00B13D46206D20F00104002CF5D1E2
:100E8000304610F097FE2846DFE700006806002095
:100E9000E88001202DE9F04716468846814602F198
:100EA0004C07384610F060FE3046FFF734FF18F864
:100EB000010B61280AD0722802D077283FD102E0C6
:100EC0000125002405E00225042402E0082448F25C
:100ED000020518F8010B2B2806D0622809D018F853
:100EE000010C74280AD00BE045F0030544F002041D
:100EF000EFE745F0040544F00104EAE744F010048C
:100F00004846214610F0A0FE411C18D00021316156
:100F100071604FF40071F560F1617061200704D5D4
:100F2000304602220021FFF757FE306D40F00100ED
:100F30003065384610F03EFE3046BDE8F0870026AA
:100F4000F7E72DE9F04115460E460746204C2046AE
:100F500010F00AFE2A4631463846FFF79BFF054649
:100F6000204610F027FE2846BDE8F0812DE9F0412B
:100F70000E468046164D284610F0F6FD154C206DA5
:100F8000C10704D0410804D020F00104F7E722464D
:100F900012E0542000F0CCF9070017D0206D47F084
:100FA0000101084354212065384600F010F907F18B
:100FB0004C0010F0E9FD3A4631464046FFF76AFF23
:100FC0000446284610F0F6FD2046CDE70024F8E759
:100FD00068060020E880012010B50446AFF30080C9
:100FE0002046BDE81040FFF77DB90000014A00F03F
:100FF000F1BF00006406002030B505460B462A46C6
:1010000013F8014B12F8010B08B1A042F8D01CB143
:10101000002802D06D1CF1E7284630BD2DE9F041D3
:10102000054690460E460020044600E0641C4445F8
:101030000BD2285D00F0C1F90746305D00F0BDF924
:10104000381A02D1295D0029F0D1BDE8F08110B530
:10105000431C02E010F8011B71B18107FAD14FF077
:10106000013202C88C1A8C4314EAC211F9D0C01A9A
:101070000A0603D0C01E10BDC01A10BD0A0401D05C
:10108000801E10BD0902FCD0401E10BD032A40F294
:10109000308010F0030C00F0158011F8013BBCF11A
:1010A000020F624498BF11F801CB00F8013B38BF32
:1010B00011F8013BA2F1040298BF00F801CB38BF40
:1010C00000F8013B11F0030300F02580083AC0F05E
:1010D000088051F8043B083A51F804CBA0E8081006
:1010E000F5E7121D5CBF51F8043B40F8043BAFF339
:1010F0000080D20724BF11F8013B11F801CB48BF93
:1011000011F8012B24BF00F8013B00F801CB48BFC8
:1011100000F8012B704710B5203AC0F00B80B1E801
:101120001850203AA0E81850B1E81850A0E818501C
:10113000BFF4F5AF5FEA027C24BFB1E81850A0E825
:10114000185044BF18C918C0BDE810405FEA827C3F
:1011500024BF51F8043B40F8043B08BF7047D20756
:1011600028BF31F8023B48BF11F8012B28BF20F8F7
:10117000023B48BF00F8012B704702F0FF0343EA2F
:10118000032242EA024200F002B84FF000020429B2
:10119000C0F0128010F0030C00F01B80CCF1040CA6
:1011A000BCF1020F18BF00F8012BA8BF20F8022BDA
:1011B000A1EB0C0100F00DB85FEAC17C24BF00F880
:1011C000012B00F8012B48BF00F8012B70474FF0AE
:1011D000000200B5134694469646203922BFA0E887
:1011E0000C50A0E80C50B1F12001BFF4F7AF090793
:1011F00028BFA0E80C5048BF0CC05DF804EB890084
:1012000028BF40F8042B08BF704748BF20F8022BC6
:1012100011F0804F18BF00F8012B70474FF0013CD0
:1012200050F8042B51F8043B9A4221D1A2EB0C0355
:10123000934313EACC1317D150F8042B51F8043B15
:101240009A4215D1A2EB0C03934313EACC130BD1B2
:1012500050F8042B51F8043B9A4209D1A2EB0C033D
:10126000934313EACC13DBD04FF00000704700BF6C
:10127000D01A01BAB1FA81F101F0180122FA01F095
:10128000CB40C1F12001DBB2C0B2C01A2CFA01F38D
:10129000D11A914311EAC311E6D1704770477047E4
:1012A000704710F021BC0B3020F0070070472DE98B
:1012B000F04117460E460446FFF7F5FFA0420546EB
:1012C00033D9002F1CBF06F10C0010F04DFC304646
:1012D0007468F4B12168A94217D305F1080291425C
:1012E0003CBF6168416007D3626861194A60226847
:1012F000521B0A6041602560002F1CBF06F10C00E4
:1013000010F058FC201DBDE8F08120466468002CD8
:10131000E0D12946304600F095FE0028D7D1002FB5
:101320001CBF06F10C0010F045FC0020BDE8F08168
:1013300010B5044600F078FE01682046BDE8104074
:101340000122B4E770B516460D46041F002808BFF9
:1013500070BD002E1CBF05F10C0010F005FC2B46E3
:101360005868002818BFA04238BF0346F8D3196850
:10137000CA18A24218BF5C6003D122681C461144FF
:10138000196021680A19824218BF606004D142685E
:101390006260006808442060002E1CBF05F10C004C
:1013A00010F008FC70BD10B5044600F03DFE016869
:1013B0002046BDE810400122C4E710B5044600F005
:1013C0002BFE0068005DC00602D504F1200010BDB0
:1013D000204610BD2DE9F0470D4699469246044639
:1013E00000F124080168880604D5E06921F01001A5
:1013F000216000E00120A84201DD471B00E000273A
:10140000A1697A1902EB0900081AA0612078C006C8
:1014100002D42046FFF70CF9002608E0D4E90121A8
:101420001AF806009047206A401C761C20624E4540
:10143000F4DB2078C0060AD52046FFF7F9F806E06D
:10144000D4E9012130209047206A401C2062381ED8
:10145000A7F10107F4DC07E0D4E9012118F8050041
:101460009047206A401C2062281EA5F10105F3DC8C
:101470002046FFF7F3F82078000602D50220BDE8E9
:10148000F0870120FBE770472DE9FF4F0C461E4611
:101490004FF0FF378BB0D2E90001DDF860800A9091
:1014A0008A46C1F30A5505B93D46002108464FF06A
:1014B0000000BAF1000F00F4400005DA00EB8000F4
:1014C0004FF4400101EA50004FEA9059B9F1010F81
:1014D00000DDB9460A9850EA4A000ED044F6105092
:1014E000A5F2FF3545432F14B8F1000F1ED0754209
:1014F000291E1EDDC9F100021CE0B8F1010F4FF0FA
:10150000000001D0302103E0F24305E02154401CEB
:10151000B042FBDB30460022002121540B99C1F878
:101520000880C1E900200FB0BDE8F08FBD1B6D1C25
:10153000DEE74A4600DA694206A800F0BBFE06ABC9
:1015400093E8070003AB83E8070050460A9901F0CF
:10155000DBFD8DE80700A0F500501F3800900398D0
:10156000002D09DD42F21F014A46084403A90390F9
:10157000684602F03AF808E0A0F500504A461F38E5
:1015800003A90390684602F044F88DE807000004C0
:10159000000C03D04FF0FF30410800E01046B8F1D6
:1015A000000F03D00022009215461EE0751E05D4E0
:1015B00000F094FD303262556D1EF9D5B34601221C
:1015C000084302D000227F1C04E02078302801D19B
:1015D00000227F1E002A099786D01DE0112D07DA10
:1015E00000F07CFD303262556D1C50EA0102F5D1ED
:1015F000084302D00098C8B10EE00021681E05E043
:10160000235C625C63542254401E491C8142F7DB18
:10161000AB46A81B401E0990002004F80B000B9855
:10162000099AC0F80880C0E9002B7CE711264FF02A
:10163000000859E72DE9F04F88460446D21D22F0F4
:10164000070191B0D1E90001CDE90A0110F092F84B
:1016500002460B98C00F01D02D2007E020688107BB
:1016600001D52B2002E0202101EAC000032A0990C5
:1016700001D0072A05DB03464146204600F074FDF1
:101680000BE12078800601D5E06900E00620B8F182
:10169000650F814606D0B8F1660F18D0B8F1670F14
:1016A00070D131E00020B9F1110F009001DB11235E
:1016B00001E009F101030AAA01A90CA8FFF7E4FE61
:1016C000DDE90C70002609F10105834647E00120A1
:1016D0004B4600904FF000470AAA01A90CA8FFF75B
:1016E000D3FEDDE90DB00C995D46002610B909F175
:1016F00001000D18B9EB050003D4C0F1FF3609F164
:101700000105A5EB09002BE0B9F1010F01DA4FF05B
:1017100001090020B9F1110F0090484601DD1123A5
:1017200000E003460AAA01A90CA8FFF7ADFEDDE917
:101730000C704D4600268346207800070AD4AB453E
:1017400000DA5D4601A8012D04DD411911F8011CE4
:10175000302907D04F4502DA17F1040F04DA0120CF
:1017600082460FE06D1EEEE7002F02DCED1B3E44CB
:1017700003E0781CA84200DD7D1CB81B00F1010AC3
:101780004FF000472078000703D4AA4501DB4FF053
:10179000FF3A0021B7F1004F0DF143088DF84310D7
:1017A00024D002202B23002F01DA7F422D230A218F
:1017B000021EA0F1010000DC5FB197FBF1FC97FB7A
:1017C000F1F201FB1C7C17460CF1300C08F801CD3E
:1017D000EEE7A8F1010003702188090501D5452134
:1017E00000E06521A0F1010800F8011C09980FA98B
:1017F000A1EB0807FF1D00B10120411901EBEA70C0
:10180000A1693844081A401EA0612078C00602D49D
:101810002046FEF70DFF099828B1D4E90121904731
:10182000206A401C20622078C00622D52046FEF7A0
:10183000FFFE1EE0002E04DBB34502DD01A8805D43
:1018400000E03020D4E901219047206A401C20624A
:10185000761CAAF101005FEA000A0AD100F0E9FB58
:10186000C0680168405CD4E901219047206A401CAF
:101870002062281EA5F10105DCDC07E0D4E9012186
:1018800018F8010B9047206A401C2062381EA7F10F
:101890000107F3DC2046FEF7E1FE032011B043E62A
:1018A0002DE9F04F04460D46D21D22F0070089B005
:1018B000D0E90097484639460FF05CFF0246F80F22
:1018C00001D02D2307E02068810701D52B2302E0FA
:1018D000202101EAC0038DF820300BB1012000E087
:1018E0000020032A824601D0072A04DB294620462D
:1018F00000F03AFC3FE12078800601D40D2500E09D
:10190000E569C7F30A560D2D49DA00214FEA175B46
:1019100008464FF00000002F00F4400007DA00EB0B
:1019200080004FF4400100EBD07001EA60008115A7
:10193000012901DD4FF0FF3100224FEA850CBCF197
:10194000180F06D31346ACF118004FF08052C24076
:1019500003E04FF4801323FA0CF30CF10C0CBCF1F0
:10196000200F04D3ACF1200C09FA0CF001E007FAC7
:101970000CF000294FF0004801DD18B90FE00ED13E
:1019800040450CD319EB02095F4121B9404502D112
:101990009F4329EA0209BBEB175F00D0761C208821
:1019A000000502D57B48784402E07A48784419382B
:1019B00008AA302302F80A30037C0AF10101002E44
:1019C0000AF1020A53546A4602DC4FF0300101E08A
:1019D0004FF031014FF001088DF8001002D0A6F24F
:1019E000FF3603E059EA470100D06B4E002D02DCC0
:1019F0002178090704D54FF002082E218DF8011037
:101A0000C44600210BE0C7F303433F01C35C491CFC
:101A10006D1E02F80830052908F1010801DA002DD1
:101A2000F1DC00210CE000EB1973491C1B786D1EE2
:101A3000082902F808304FEA091908F1010801DA0B
:101A4000002DF0DC21688B0602D516E0A8F1010814
:101A5000E04505DD02EB080313F8013C302BF5D01F
:101A6000B8F1000F09DD02EB080313F8013C2E2B3F
:101A700003D1090701D4A8F10108002D05DD3E219D
:101A800002F808106D1E08F10108407C002E02F8D3
:101A9000080008F1010804DA2D20764202F8080057
:101AA00002E02B2002F808000A214FF47A708642E7
:101AB00008F101080BDB96FBF0F3303302F8083035
:101AC00096FBF0F308F1010800FB136601E0642EB9
:101AD0000CDB642096FBF0F3303302F8083096FB01
:101AE000F0F308F1010800FB136601E00A2E06DBA3
:101AF00096FBF1F0303002F8080008F1010896FB7F
:101B0000F1F001FB1060303002F80800A16908F123
:101B1000010808EB050202EB0A00081AA061207810
:101B2000C00602D42046FEF783FD216A08AE01EB11
:101B30000A00206204E0D4E9012116F8010B904765
:101B4000BAF1010AF7D22078C00602D52046FEF786
:101B50006FFD6E4609E016F8010B3E280FD0D4E960
:101B600001219047206A401C2062B8F10108F2D29E
:101B70002046FEF773FD09B00320BDE8F08F206A10
:101B80002844206203E0D4E90121302090476D1EF3
:101B9000EBD3F8E7CE80010002FCFFFF01694A1C8D
:101BA00002610878704700B58FB0CDE9013100219E
:101BB000059105497944CDE9031011466846FEF7C1
:101BC00087FE0FB000BD0000E5FFFFFF0A6802F8C6
:101BD000010B0A60704710B5436913B1AFF3008081
:101BE00001E0FEF75EFD012010BD127800F1240136
:101BF0000A7000224A700122EDE711684FF0FF32AF
:101C0000E9E710B5436913B1AFF3008001E0FEF7D7
:101C1000ADFD012010BD128800F124018284002254
:101C2000C2840122EDE711684FF0FF32E9E73A285C
:101C300000D2303820F02002412A01D3A2F137002F
:101C4000884201D34FF0FF3070472DE9F0479146AD
:101C50000F4680460446002614F8015B2DB100F0C3
:101C6000DBF90068405DC007F6D12B2D02D02D2D89
:101C700018D0641E4A463946204600F0CBFA27B1F8
:101C80003968A14201D1C7F800804FF00204710504
:101C90000BD54042002803DDFFF703FB0460A007DB
:101CA000BDE8F08746F48066E4E70028F8DAFFF73D
:101CB000F8FA04606FF00040F2E70000C16821F418
:101CC000001141F08001C160002181600160704716
:101CD0002DE9F047814614460E464FF0FF38324852
:101CE000D5685769054209D03846A16910F00BF84C
:101CF000002811DB2C48C0430540E5602B463246E6
:101D00004946384610F019F8A16920F00042B21A8D
:101D100011440028A16103D02046FFF7CFFF4046C1
:101D2000BDE8F08770B504460569C06A61688842FD
:101D300000D80846E16821F42011E160C90312D5FA
:101D4000A84208D02246411B2846FFF7C1FF10B128
:101D50004FF0FF3070BD0020E562C4E90150E0683B
:101D600020F48030E060002070BD10B50446C068EB
:101D700020F02000E060A16AA06988420DD02046D2
:101D8000FFF7D0FFE06820F4405040F01000E06022
:101D9000A06AA0612069E062606044F24001E068EE
:101DA0008843E06010BD00001000020070B50446DA
:101DB00000F14C0528460FF0D7FE204611F066FFD3
:101DC000044628460FF0F6FE204670BD10B5654863
:101DD0005421FFF7FCF964485421FFF7F8F96348F0
:101DE0005421FFF7F4F962485E49624A624B016090
:101DF0005D4810605D4A1A60431C0B65511C01650B
:101E00000120106557484C300FF0BEFE56484C304C
:101E10000FF0BAFE55484C300FF0B6FE57480FF0A1
:101E2000B3FE58484F4A56A17844FFF78AF820B9C4
:101E3000544878440A3800F00BFD54484A4A52A1ED
:101E40007844FFF77EF820B9504878440A3800F00B
:101E5000FFFC4F48454A4CA17844FFF772F820B97F
:101E60004B4878440A3800F0F3FC40233D48DC003E
:101E70000021224600F0B8FC20B142487844543892
:101E800000F0E6FC384822464023002100F0ACFC7C
:101E900020B13E487844543800F0DAFC33482246FA
:101EA0001023002100F0A0FC002806D03848784418
:101EB000BDE81040563800F0CBBC10BD2B482DE9D2
:101EC000F041006D2D4E20F0010430460FF04CFE25
:101ED000244D4C3528460FF047FE2248FEF71BFFE5
:101EE00028460FF067FE2846AFF300801E4D4C35A4
:101EF00028460FF039FE1C48FEF70DFF28460FF06C
:101F000059FE2846AFF30080184D4C3528460FF097
:101F10002BFE1648FEF7FFFE28460FF04BFE284624
:101F2000AFF3008014E0206D20F0010504F14C00B7
:101F300007460FF019FE2046FEF7EDFE38460FF07B
:101F400039FE3846AFF300802046FFF72CFA2C46C6
:101F5000002CE8D130460FF02DFE0848AFF300808A
:101F6000BDE8F081E88001203C81012090810120C2
:101F7000580600205C06002060060020680600204D
:101F800072000000D476010077000000C3760100E3
:101F9000B376010070B516460C46054600F03CF8D5
:101FA000036893F80101012806D0FF2C0FD8185DB3
:101FB00068B101202C7070BDD3F80701324621466C
:101FC00003F2071303442846BDE8704018474FF05A
:101FD000FF3070BD2DE9F04115460E46040002D1D8
:101FE0002C6804B90BA4204600F049FC0444207876
:101FF00070B127463146384600F031FC0444207861
:1020000010B1002004F8010B38462C60BDE8F081C7
:102010000027F9E70000000010B500F00AF8001DE5
:1020200010BD00BFFD6B010010B5FEF75BFA083074
:1020300010BD10B5FEF756FA203010BD704770473E
:102040007047704738B504460A4600206946AFF32A
:102050000080002808BF38BD02460099204600F0E5
:1020600048FC012038BD012001F004B8F8B5AFF3F9
:102070000080054600200C46102000BF0646A81927
:10208000A0420DD9324669460020AFF30080070018
:1020900008BF00F0EFFF0098A04218BF0546C41922
:1020A000FFF7C2FF05600746F01D20F00700461944
:1020B000284600F00AF8B44208BFF8BDA21B31461A
:1020C0003868BDE8F84000F014BC00210160C0E9A8
:1020D00001100C300FF058BD1020704730B5B0F132
:1020E0000A024FEA900E71F100034EEA817EB0EBD6
:1020F0000E0061EB91014FEA101E4EEA017E10EBDB
:102100000E0041EB11114FEA102E4EEA016E10EB5A
:102110000E0041EB11214FEA104E4EEA014E10EB3A
:102120000E0041EB1141401841F100014FEAD0008F
:1021300040EA41704FEAD10110EB80054FEA81047B
:1021400044EA907444EB01046D1944EB0404521BFF
:10215000A3414FF0000348BF0A3200D530BD401CF8
:1021600041F1000130BD00002DE9F0411F46044659
:1021700003260168072A01F4006004DB08B116A5F4
:1021800005E016A503E008B115A500E015A521F0AE
:1021900010002060A069C01EA0610FB1401EA061A8
:1021A0002046FEF745FA4FB1D4E901213846904761
:1021B000206A401C2062C01C206206E0206AFAE708
:1021C000D4E9012115F8010B9047761EF8D220467C
:1021D000FEF744FABDE8F0814E414E006E616E009C
:1021E000494E4600696E660002681144137801602A
:1021F00018467047D16005497944516104497944D2
:10220000116200211161114600F0BCBBEDFFFFFF20
:102210002F0700002DE9F05F824615468B46002708
:102220000AF10104B9460078302801D09DB113E0CD
:1022300014F8010B0127782803D0582801D045B1A4
:102240000AE00DB1102D07D1002714F8010B10255D
:1022500002E0082500E00A250026B0460EE005FB56
:10226000080005FB06F101271FFA80F801EB104674
:10227000B6F5803F00D3B94614F8010B2946FFF7A5
:10228000D6FC0028EBDABBF1000F05D00FB1641EBD
:1022900000E05446CBF80040B9F1000F06D0FFF73C
:1022A00000F802210160C81EBDE8F09F48EA064020
:1022B000FAE700002DE9F047814616468AB0334818
:1022C00078440DC88DE80D0030487844801C03AC7C
:1022D0000DC884E80D0041F69B300844372190FB7F
:1022E000F1F290FBF1F5A5F1800501FB12041B3C16
:1022F00002D56442012000E00020DFF890A0804673
:102300000027FA44AAF1BE0A0DE0E00709D03246E0
:10231000684607EB47010AEB810101F07AF98DE885
:10232000070064107F1C002CEFD1184F7F44AC3F96
:1023300018E0E80714D007EB04100DF1180A90E834
:102340000E008AE80E00C068F04201D1981908908A
:10235000324606A903A801F05CF903AB83E8070045
:102360006D10641C002DE4D132466946B8F1000FAF
:1023700003A802D001F039F901E001F04AF9C9E9F6
:102380000001C9F808200AB0BDE8F08744780100D0
:10239000704710B54FF0FF34C1688A020FD5036B48
:1023A00042689A420BD1014690F82520104600F071
:1023B000C3FC401C01D1204610BD002010BD11F00F
:1023C000C00FF8D1026941689142F4D90268491EF0
:1023D000521CC0E90021F0E770B50D4601461446D5
:1023E000D36850692A460FF065FC002807DA411CC3
:1023F00007D0E16820F0004041F48041E160281AF4
:1024000070BD2046FFF75AFC4FF0FF3070BDC16829
:102410000022026021F4805141F0400111F4C06FAC
:10242000C16001D08260704702694168891AC2693F
:10243000891A816070472DE9F0470446C06840F46E
:102440008000E060010312D520F40020E0608106E6
:1024500006D4E26A61688A4200D80A46511A2160AD
:1024600040F40010E06094F82500BDE8F08720F407
:102470000010E060800602D52046FFF776FCE06899
:1024800042F281014FF0FF390140012903D020467B
:10249000FFF714FCB6E02168002600290ADAC943D8
:1024A00040F480502160C4E902606068411C6160B2
:1024B0000078DAE744F2400108420CD020F4A04052
:1024C00040F040002660E06021696068401AE169E0
:1024D000401AA06096E0216991B9C00310D4E06968
:1024E000FEF726FF2061B0B1E06840F4006010F410
:1024F000407FE06002D140F48070E060206960605D
:10250000E068D4F814A0C1061AD5C0030ED5204641
:10251000FFF708FC14E004F1240020610120E061D1
:10252000E06820F4407040F48060E6E7216960686C
:10253000401AA169014450460FF0E5FB0028A6DBD4
:10254000E068C0032AD56168E06A884200D808467E
:102550002169451AE069471B1BD02046D4F8188032
:10256000FFF7E0FB08EB05015046C4F818800FF0B8
:10257000CAFB00288BDBE06840F40030E06000021A
:1025800002D5A0692844A061E1692069C91B4518EA
:102590000DE02046FFF7C6FBE769F5E725696168AE
:1025A000D4E90607491BE56208446560A061E0685C
:1025B00020F0100010F4C06FE06002D0204600F060
:1025C0000BFDE06840F48050C4E90260000205D5CC
:1025D0002069E06260606FF0010046E722463946FC
:1025E0002846FFF7F9FE411C0CD02918E16258B1CA
:1025F000401E2060681C6060E06840F40030E060CD
:10260000287832E7484630E765602046FFF7FFFE4E
:10261000F8E72DE9F04705460C46C86820F420107D
:1026200040F48000C860800602D50846FFF79DFB95
:10263000E06841F282014FF0FF390140022903D0E6
:102640002046FFF73BFBB5E000F42041B1F5004F19
:102650000FD1C00306D56168E06A884200D80846F9
:10266000606006E02069E062606060690FF0C5FAB2
:10267000A061A0680022EEB200280DDAE1688B05A7
:102680000AD4C043A06041F490302260E0606068EA
:10269000411C61600670A5E0E0689046226040F44D
:1026A0000050E060206968BB60690FF0BBFA012749
:1026B00004F12405A0B1A08910F4407F08D0E0699E
:1026C000FEF736FE206118B1E06840F4006016E0C5
:1026D000E7612561E06820F4407040F480600EE01E
:1026E000E069FEF725FE00282061F1D0E06840F4A3
:1026F000006010F4407FE06002D140F48070E06040
:1027000020696060E06825696FF0010AC1051FD586
:102710006168E06A884200D80846411B04D022461E
:102720002846FFF7D5FAF0BBE068010203D5E56261
:10273000C4E9015854E0691CE1626160E16940F458
:102740008030491EC4E9021030462E70BDE8F08783
:10275000010202D500F480320AE06068411C616029
:102760000670E0680A2E40F48030E06006D0002257
:10277000E16A6068814203D90B4602E00122F7E773
:102780000346A7895B1B7F0503D4E7699F4200DDF1
:10279000E2B1814200D80146E5620F1AC4E901584E
:1027A000002B09DD00E005E0224619462846FFF728
:1027B0008FFA08B14846C9E747B1A069E56265608C
:1027C000C01BA061E06840F01000E060E06800021B
:1027D00008D56168A069E562491B08446560A0618D
:1027E0005046B3E73046B1E72DE9F04704461E46B0
:1027F00090460D46C7684C3081460FF0B5F9B807D2
:1028000014D0780212D44046B8F5807F09D0B0F5D4
:10281000007F06D0B8F5806F08D1012604F12405A9
:1028200006E0701E6FF07F41884201D3012409E069
:102830002561E6616560E06820F4706040EA0800A8
:10284000E060002448460FF0B5F92046BDE8F08767
:1028500010B500F0F5FBBDE8104000F0EBBB30B563
:1028600003461D781DB10A4603E0AC4201D1181A97
:1028700030BD12F8014B002CF7D15B1CF1E730B5ED
:1028800003461D783DB10A4612F8014B1CB1AC421B
:10289000FAD15B1CF5E7181A30BD00000149182079
:1028A000ABBEFEE7260002007546FDF71BFEAE46F6
:1028B00005006946534620F00700854618B020B54C
:1028C000FDF7FEFDBDE820404FF000064FF0000789
:1028D0004FF000084FF0000B21F00701AC46ACE8C8
:1028E000C009ACE8C009ACE8C009ACE8C0098D4635
:1028F000704730B404468C464368002B18BF6345CC
:1029000038BF1846F8D303681844604507D0C81C80
:1029100020F0070000F1040CACEB0100121A214674
:10292000CCF8002030BC00220CF10400FEF70ABDF8
:1029300010B50446FFF770FB0068005D00F0010071
:1029400010BD00002DE9F04114460D46074601F187
:102950004C0630460FF008F9094B7B4422462946C5
:102960003846FFF720F90446287B000601D54FF0D2
:10297000FF3430460FF01EF92046BDE8F08100001C
:10298000D11501002DE9F34F4FF0000A0C465646D1
:102990008DB001200C9001F10C000B9062690B9836
:1029A00001219047051E2DD0252D2CD0216A884766
:1029B000C0B162690B9801219047216A88470028BD
:1029C000F7D16269411E0B98904700E0761CA1691F
:1029D0000D988847216A88470028F7D1E1690D984A
:1029E0008847DBE7A1690D988847A842074601D1CF
:1029F000761CD3E7E1690D9888477F1C02D1BAF1B4
:102A0000000F6FD06BE162690B9800273D46394695
:102A100090472A2804D162690B980121904701252B
:102A2000DFF8D08262690B9801219047A0F1300154
:102A30000A290AD24745E5DC07EB870100EB41078D
:102A4000303FDFD445F01005ECE7E90601D46FF024
:102A500000476C280AD04C2814D0682815D06A2862
:102A60000DD074281CD07A281AD01DE062690B980A
:102A7000012190476C2802D045F0040514E045F090
:102A800002050DE045F020050AE062690B9801217E
:102A90009047682802D045F0080505E045F4006538
:102AA00062690B9801219047C4E9015765283DD020
:102AB00019DC58287AD00CDC452837D004DC2528CE
:102AC00026D041289ED131E046282FD0472899D1E1
:102AD0002CE05B2877D0612828D063287CD064283C
:102AE00023D15AE0F6E06F2848D008DC66281DD0D4
:102AF00067281BD0692821D06E2816D127E07028BE
:102B000045D0732868D0752847D078280DD14DE07E
:102B1000A1690D988847252805463FF469AFE1690A
:102B20000D9888476D1C3FF46AAFD8E00D99234695
:102B30006A466FF00100AFF30080C5E045F0400049
:102B400023464FF000026060A80736D43EE0E80755
:102B50007FF447AF2068011D21600068290501D579
:102B600006701BE7290701D5068017E7A90703D5DB
:102B7000F117C0E9006111E706600FE745F040007A
:102B800023464FF008026060A80716D41EE040F606
:102B90000E0125EA0100606016E045F04000234682
:102BA0004FF00A026060A80707D40FE045F040002C
:102BB0006060A80708D5234610220D996FF0010028
:102BC000AFF3008080E007E0102223460D996FF0FC
:102BD0000100FDF74DFF77E04FF0000963284F46F5
:102BE000C8464B46CB4602D05B2806D038E0E80604
:102BF00001D40120A060012732E06269D4F80CB052
:102C00000B98012190475E2807D14FF001094946F2
:102C10006269D4F80CB00B989047216939B900214A
:102C20000A4603AB43F82120491C0829FADBD8B334
:102C3000216949B308F1010862690B9801219047A5
:102C40005D28F4D1B9F1000F09D0002003A951F893
:102C50002020D24341F82020401C0828F7DB03AB9A
:102C60002069002820794FEA40701ED05B4622463A
:102C7000CDF80080CDE901970D9900286FF0010093
:102C800020DAAFF300801FE0C11703AA00EBD16187
:102C90004B1121F01F0102EB8302411A136801203E
:102CA000884003431360C7E719E00D9922460028C6
:102CB0006FF00100009702DAAFF3008004E0AFF399
:102CC000008001E0AFF3008000280ADA401C06D142
:102CD0000C9820B14FF0FF300FB0BDE8F08F504698
:102CE000FAE7E90701D10AF1010A064400200C9035
:102CF00054E60000CCCCCC0C2DE9F04114460F4634
:102D0000064600F14C0528460EF02EFF0848784490
:102D1000A0610848784422463946E0613046FFF712
:102D200069FA044628460EF045FF2046BDE8F081CA
:102D30007B0F01007BF6FFFFCA68431C0FD00D4BD1
:102D40001A420CD1D3070AD081F825004B680B63D7
:102D500000238B6012F0C06F0B6003D004E04FF0D3
:102D6000FF30704742F00072034B1A40034B1A4386
:102D7000CA60704780200800BFFFDFFF00104800D6
:102D80002DE9F041044617460D4602F14C008046FD
:102D90000EF0EAFE012D264616DD384610F076FFCD
:102DA000411C0FD0C0B20A2804F8010B02D06D1EDE
:102DB000012DF2DC0020207040460EF0FBFE304674
:102DC000BDE8F081B44201D10026F5E7387B00066A
:102DD000F0D50026EEE72DE9FF4F06461C468B4650
:102DE00081B003F14C0000900EF0BEFEBBF1000F6D
:102DF00006D003992768002528460BFB01F963E0FC
:102E000000247AE0002F61DCE06948453FDABAF13E
:102E1000000F3CD0207B800601D5A06A04E0A169A8
:102E2000606808442169401A2246A9EB05018046E2
:102E30003046FFF7D1FA002812DD8044A8F10101E5
:102E40000644A161226916F8011C0027054411708F
:102E50002169491CE1626160E16841F40031E1608F
:102E6000411C03D010B1207B400642D52046FFF71D
:102E7000CEFAC4F8188020696060E062E0682760DC
:102E800020F40030E060E0694042A06018E048456E
:102E900003DAE06840F40000E0602046FFF7CBFA78
:102EA000E16821F40001E160411C08D0811C0AD0D6
:102EB0002768002807DB6D1C06F8010B19E0276066
:102EC000B5FBFBF419E00120824612E0A9EB0500F6
:102ED000B846B84200DA8046304642466168FEF79E
:102EE000D5F86168A7EB0807464401EB08004544A4
:102EF00060604D4586DB2760039C00980EF05AFE0B
:102F000005B02046BDE8F08F2DE9F05F0E46804603
:102F10001C46924602FB06F503F14C0083460EF078
:102F200023FE16B3A768002041E0002F41DCE069D2
:102F3000A8421CDAB9F1000F19D0224629464046B2
:102F4000FEF7C6FE08B1A76029E0E06810F4C06F84
:102F500001D0002008E022696168891AE269511AEB
:102F6000C003A16001D44842A060544618E0A842C2
:102F700003DAE06840F40000E060214698F80000C1
:102F8000FFF747FBE16821F40001E160411C06D036
:102F9000A76800280ADB6D1E08F1010818E000246C
:102FA00058460EF007FE2046BDE8F09F01208146FE
:102FB0000EE0AF423E4600DD2E4641463246606896
:102FC000FEF764F86068BF1BAD1B3044B04460601E
:102FD000002DAADCA760C8E72DE9F0470746134893
:102FE00081460EF0C1FD124C40F2022817E094F821
:102FF0005000C00710D0BC420ED004F14C0528464A
:103000000EF0B2FDE66828460EF0D4FD38EA060060
:1030100002D12046FDF7F6FE206D20F00104002CC1
:10302000E5D148460EF0C6FDBDE8F08768060020F1
:10303000E8800120002801D0FFF730BC7047000075
:1030400010B5014602A000F01DF8012010BD0000DF
:1030500053494752545245443A2052656469726557
:1030600063743A2063616E2774206F70656E3A2036
:103070000000000010B500F01FF8BDE81040FFF799
:10308000D9BF704770B505460C460A2000E06D1C9C
:103090000EF082FE35B128780028F8D102E0641CD9
:1030A0000EF07AFE14B120780028F8D1BDE8704007
:1030B0000A200EF071BE000010B5012805D00021D5
:1030C00003A0FFF7DFFF012010BD09A1F8E7000012
:1030D00053494752544D454D3A204F7574206F6601
:1030E0002068656170206D656D6F72790000000069
:1030F0003A2048656170206D656D6F727920636F4D
:1031000072727570746564005FEA400C08BF91F0DC
:10311000000F4FEA8C234FEAC12243EA51514FEA94
:103120001C5018BF00F5F0404FEA300018BF41F0C6
:1031300000415FEA6C5C00F02980BCF1FF3F08BFF2
:1031400040F080407047130C06BF12044FF0100C83
:103150004FF0000C130E04BF12020CF1080C130FF9
:1031600004BF12010CF1040C930F04BF92000CF188
:10317000020CD30F04BF52000CF1010C11464FF0AA
:103180000002A0F11F00A0EB0C00704711F0004FEF
:1031900008BF704731F000413FF4D5AF0B0C06BFBC
:1031A00009044FF0100C4FF0000C0B0E04BF090285
:1031B0000CF1080C0B0F04BF09010CF1040C8B0F70
:1031C00004BF89000CF1020CCB0F04BF49000CF1C5
:1031D000010CCCF12003A0EB0C0022FA03F302FA5D
:1031E0000CF241EA030100F10100704720F07F4C2E
:1031F00080EA030023F07F47ACEB070303F57C5321
:1032000000F0004003F1FF032DE980494FEA154B20
:1032100009B44FEA144325EA0B4E24EA03480FF29F
:10322000042606EB132749083E785FEA320203FBC7
:103230000667C7F5000707FB06F64FEA54374FEA63
:10324000D64606F1020607FB066CCCF1005C4FEA9D
:103250001C472CEA074C07FB06F40CFB06F504EBB5
:1032600015464FEA961634BF00204FF000404FEA53
:10327000D13706FB07FC4FEA1C4C0CFB0BF7D21BAB
:1032800003FB0CF761EB07010CFB0EF7B0EB0740FB
:1032900072EB17420CFB08F734BFA2EB0742B2EB0C
:1032A000074261EB17414FEA0C444FEA910706FBD6
:1032B00007FC4FEA1C4C0CFB0BF7B0EBC74072EB62
:1032C000573203FB0CF734BFA2EBC742B2EBC74245
:1032D00061EB57310CFB0EF7B0EBC70072EB577286
:1032E0000CFB08F734BFA2EBC702B2EBC70261EBDD
:1032F0005771039F4FEA816141EA921104EBCC04BC
:103300004FEAD1374FEA826206FB07FC42EA90128D
:103310004FEA80604FEA1C4C0CFB0BF7D21B03FBFF
:103320000CF761EB07010CFB0EF7B0EB074072EBFB
:1033300017420CFB08F734BFA2EB0742B2EB07427F
:1033400061EB17414FEA8C554FEA910704EB9C243F
:1033500006FB07FC4FEA1C4C0CFB0BF7B0EBC7401D
:1033600072EB573203FB0CF734BFA2EBC742B2EB50
:10337000C74261EB57310CFB0EF7B0EBC70072EBA5
:1033800057720CFB08F734BFA2EBC702B2EBC702BF
:1033900061EB577115EB4C254FEA816141EA9211BF
:1033A0004FEA82624FEAD13742EA901206FB07FCED
:1033B00044F100044FEA80604FEA1C4C0CFB0BF711
:1033C000D21B03FB0CF761EB07010CFB0EF7B0EB14
:1033D000074072EB17420CFB08F734BFA2EB074221
:1033E000B2EB074261EB174115EB1C154FEA813137
:1033F00041EA92414FEA823242EA90424FEA8030FB
:103400004FEA0C7644F1000448EA03434EEA0B48C5
:103410004FF0000EB2EB080C71EB030724BF6246BD
:1034200039464EEB0E0E4FF0000B00185241494149
:103430004BEB0B0BB2EB080C71EB03077BF1000BB2
:1034400024BF624639464EEB0E0E4FF0000B0018BB
:10345000524149414BEB0B0BB2EB080C71EB0307EC
:103460007BF1000B24BF624639464EEB0E0E51EA4B
:10347000020718BF46F0010616EB0E7655F1000262
:1034800054F1000103D5BDE88901BDE80088BDE81D
:103490008901BDE80048B619524141EB0101A3F191
:1034A0000103704780807F7E7D7C7B7A7978777698
:1034B00076757473727171706F6E6E6D6C6C6B6A11
:1034C0006A696868676666656464636362616160AF
:1034D000605F5F5E5E5D5D5C5C5B5B5A5A5959582C
:1034E0005857575656555555545453535252525196
:1034F000515050504F4F4F4E4E4D4D4D4C4C4C4BEC
:103500004B4B4A4A4A494949484848474747474632
:10351000464645454544444444434343434242426E
:1035200042414141002B26D4770021D01CB54FEAFF
:10353000370703B44FF010004FF010014FF00000B8
:103540000FBCBDE810400BF1010BBBF1010F08BF30
:103550005FEA170722BF12F1010211F101014FF0DA
:10356000004143F1000300F0004043EA00007047CF
:10357000F9D35708DAE746EA064613F1400F4FEA57
:1035800016461FDD13F1200FDFBF16430A46002148
:1035900020335B42C8D0C3F1200746EA064602FA50
:1035A00007F74FEA164646EA0706C3F1200722FA54
:1035B00003F201FA07F721FA03F14FF0000342EAA0
:1035C0000702B1E746EA020646EA06464FEA164611
:1035D00046EA0106BCBF46EA0646360C4FF0000339
:1035E0004FF000024FF000019EE72DE9C0489346DE
:1035F00030B491E8380007C831EA400C48BF34EADB
:10360000430C03D5FFF7F2FDFFF78CFFF0BCBDE8DC
:1036100000882DE9C048934630B491E8380007C8C7
:1036200010F0804F08BF13F0804F03D100F005F871
:10363000FFF778FFF0BCBDE8008820F07F4780EA04
:10364000030023F07F4C07EB0C03A3F57C5300F041
:103650000040A3F1FE0392F0000F00F0B38095F05C
:10366000000F00F077802DE901494FEA11404FEA41
:10367000144621EA004800FB06FC24EA064708FB42
:1036800006F607FB08F800FB07F718EB06484CEBBB
:10369000164C4FEA124B18EB07484FEA15464CEB15
:1036A000174022EA0B4E0BFB06FC25EA06470EFBF1
:1036B00006F607FB0EFE0BFB07F71EEB064E4CEB68
:1036C000164C4FF000061EEB074E4CEB174B18EB59
:1036D0000B0840F1000018EB0E0B58EB000840F10E
:1036E00000008F1A4FF000013CBFC943661B14BF96
:1036F000B5EB040C00213CBFC943F61B4FEA17444D
:103700004EEA8E0E27EA04454FEA1C4704FB076287
:103710002CEA074C05FB07F70CFB05F604FB0CFC39
:1037200016EB074642EB174216EB0C4642EB1C42E7
:103730001BEB060658EB0202414146EA9E0601D504
:10374000BDE80189B619524141EB0101A3F1010322
:10375000BDE801894FEA14454FEA114724EA0546BE
:1037600021EA074C05FB07F406FB07F70CFB06F103
:1037700005FB0CFC11EB074144EB17444FEA1247E1
:1037800011EB0C4144EB1C4422EA074C05FB07F209
:1037900006FB07F70CFB06F605FB0CFC16EB0746D1
:1037A00042EB174216EB0C4642EB1C456A1854F1EB
:1037B000000148BF7047B619524141EB0101A3F126
:1037C0000103704795F0000F37D04FEA11424FEADE
:1037D000144721EA024624EA074C02FB07F106FBE4
:1037E00007F70CFB06F402FB0CFC14EB074441EB5F
:1037F00017414FEA154714EB0C4441EB1C4125EAF5
:10380000074C02FB07F506FB07F70CFB06F602FB6D
:103810000CFC16EB074645EB174516EB0C4645EB43
:103820001C42121951F1000148BF7047B6195241AC
:1038300041EB0101A3F1010370474FEA14454FEA40
:10384000114724EA054621EA074C05FB07F106FB70
:1038500007F70CFB06F24FF0000605FB0CFC12EB21
:10386000074241EB174112EB0C4251EB1C4148BFA0
:103870007047921841EB0101A3F10103704700006A
:103880000000000070B52348007D00F0040010B96E
:103890004FF0FF3070BD00241F48056800201E490E
:1038A00008601D481038006820F009001A491039D6
:1038B00008601A4802F0CEFA00B1641E184802F0FF
:1038C000C9FA08B14FF0FF3402E0134844300068F1
:1038D00011480C3000680028F7D10E48406820F0ED
:1038E00001000C4948600846406820F00800486024
:1038F0000846406820F0400048600846406820F0D4
:103900008000486007480449091F0860081D0560D9
:103910002046BFE7286901203C2C0140686801204F
:10392000C8680120FF07400070B504460020074921
:103930000870074908702046FDF789FB05460548D1
:10394000294642692046904770BD0000DA050020F4
:10395000DB0500207894020810B502A0FCF73EFEBB
:1039600010BD00004552524F523A204275732066F6
:1039700061756C74210000002DE9F04186B00546A8
:103980000E4614462888664931F8100005902888AC
:10399000644931F810000490022C03D10A200590EC
:1039A00064200490BDF81000BDF81410411A288856
:1039B0005D4A32F81000401E91FBF0F087B2012002
:1039C0000390032C1DD101215848A0F84E10072167
:1039D000A0F850100621A0F844100C205349A1F87B
:1039E000420001215148A0F852101121A0F85410B2
:1039F0001221A0F848102321A0F8461006B0BDE817
:103A0000F0814B48142303AA04A9009005A807F0ED
:103A10001FFABDF80C0004EB440101EBC401434A5A
:103A200002EB41010882BDF81000BDF81410401AE5
:103A3000BDF80C1090FBF1F004EB440101EBC40164
:103A400002EB41014882002004EB440101EBC40178
:103A500002EB410108753088BDF81410401A90FB44
:103A6000F7F01FFA80F84146002011F053FC03469E
:103A700028882D4A32F81000401E81B2184612F0F4
:103A800060FC80462888401E0B2101FB00802949EC
:103A900031F8100004EB440101EBC401234A22F881
:103AA00011000120039004EB440000EBC400114618
:103AB00031F810000290002001901D48142303AA41
:103AC00002A9009001A807F0C3F9BDF80C0000B2EC
:103AD00004EB440101EBC401144A02EB410188816B
:103AE00004EB440000EBC400114631F81000BDF8AF
:103AF0000410401ABDF80C1090FBF1F000B204EB7A
:103B0000440101EBC40102EB4101C881002004EB38
:103B1000440101EBC40102EB4101487500BF6DE7B0
:103B2000B6000020CC000020E20000204607002064
:103B3000D4010020F80000207FB506460D4614464B
:103B40000120039004EB440000EBC400234901EB87
:103B50004000C088029004EB440000EBC40001EB7D
:103B60004000808801901E48142303AA01A90090F8
:103B700002A807F06DF9BDF80C0004EB440101EB5D
:103B8000C401164A02EB41010882BDF80400BDF8E9
:103B90000810401ABDF80C1090FBF1F004EB440142
:103BA00001EBC40102EB41014882002004EB440117
:103BB00001EBC40102EB41010875288804EB4401C4
:103BC00001EBC40102EB4101098A90FBF1F081B2E3
:103BD0000448C180298881817FBD000046070020FC
:103BE000D4010020CC0600207FB506460D461446C1
:103BF0000120039004EB440000EBC400264931F897
:103C00001000029004EB440000EBC40001EB400004
:103C1000408801902148142303AA02A9009001A81A
:103C200007F016F9BDF80C0000B204EB440101EBFB
:103C3000C401194A02EB4101888104EB440000EB06
:103C4000C400114631F81000BDF80410401ABDF848
:103C50000C1090FBF1F000B204EB440101EBC40145
:103C600002EB4101C881002004EB440101EBC401D7
:103C700002EB41014875288804EB440101EBC401C3
:103C800002EB4101B1F90C1090FBF1F081B2044854
:103C900001812988C1817FBD46070020D401002011
:103CA000CC0600200EB54FF0FF34002032490870DA
:103CB000324908703249087001220421314802F06B
:103CC000F9FD31A008F03EFB182201210A200CF07A
:103CD00051FE0446401C78B1182C0DD1002204215D
:103CE000284802F0E7FD4FF480612A48006812F08E
:103CF000BBFD01202149087027480078002817D013
:103D000000202549087025A008F01CFB28A008F019
:103D100019FB2FA008F016FB35A008F013FB3AA002
:103D200008F010FB3FA008F00DFB17A0FFF7FCFD0B
:103D300021E040F6B8313D48006812F0F3FC8DE810
:103D400007000098402802D10DF018F810E0009804
:103D500010280DD1019D012D02D0022D06D102E0C7
:103D60000DF020F902E00DF047F800BF00BF00BFE2
:103D700012F0B4FD00BFDCE7C90500206A00002096
:103D8000690000200018024041542B4346554E3D27
:103D9000310D0A0060050020DC05002041542B5342
:103DA0002E535349445458543D200D0A000000003E
:103DB00041542B532E534346473D776966695F77DD
:103DC00070615F70736B5F746578742C200D0A00EE
:103DD00041542B532E534346473D776966695F70C4
:103DE0007269765F6D6F64652C320D0A0000000009
:103DF00041542B532E534346473D776966695F6DA7
:103E00006F64652C310D0A0041542B532E534346E9
:103E1000473D69705F7573655F646863702C310D31
:103E20000A000000415426570D0A000084050020B6
:103E300001460548007D00F0020010B94FF0FF3048
:103E400070476FF00300FBE7286901202DE9F04F70
:103E500087B005460E4617461C464FF00008C1467F
:103E600034B1012C1BD0022C2BD0032C4DD13AE0C5
:103E7000012004EB440101EBC401C64A02EB4101FD
:103E8000488104EB440101EBC40102EB41010881CC
:103E90002888012802D001202880804635E00120B2
:103EA00004EB440101EBC401BA4A02EB4101488131
:103EB000062004EB440101EBC40102EB410108813F
:103EC00023E0012004EB440101EBC401B14A02EB01
:103ED00041014881032004EB440101EBC40102EBE2
:103EE0004101088111E0062004EB440101EBC4010B
:103EF000A84A02EB410148810A2004EB440101EB8E
:103F0000C40102EB4101088100BF00BF5CB32888F7
:103F100004EB440101EBC4019E4A02EB41014989D3
:103F200088420ADA04EB440000EBC400114601EBBE
:103F30004000408928804FF00108288804EB4401A4
:103F400001EBC401934A02EB4101098988420ADD71
:103F500004EB440000EBC400114601EB4000008973
:103F600028804FF00108B8F1000F04D028888A4952
:103F700088804FF001092888884931F810000690A0
:103F80002888874931F810000590BDF81400BDF865
:103F90001810411A2888834A32F81000401E91FBFD
:103FA000F0F01FFA80FA022C03D10A200690642058
:103FB00005904FF0000B3088BDF81810884204DAE5
:103FC000BDF8180030804FF0010B3088BDF8141098
:103FD000884204DDBDF8140030804FF0010BBBF1C6
:103FE000000F46D0012004906F48142304AA05A9AD
:103FF000009006A806F02CFFBDF8100004EB440169
:1040000001EBC401634A02EB41010882BDF81400D0
:10401000BDF81810401ABDF8101090FBF1F004EB39
:10402000440101EBC40102EB41014882BDF81800D4
:1040300004EB440101EBC40102EB4101C880BDF86F
:10404000140004EB440101EBC40102EB4101888040
:10405000308804EB440101EBC40102EB4101098A01
:1040600090FBF1F081B24C48C180318881814FF0E2
:1040700001093088BDF81810401A90FBFAF080B2A0
:1040800003900020039911F045F903462888454A1A
:1040900032F81000401E81B2184612F052F9039017
:1040A0002888401E0B22039902FB00103F4931F87B
:1040B000100004EB440101EBC401364A22F8110060
:1040C000388804EB440101EBC40132F81110884236
:1040D0005BDD04EB440000EBC400114631F8100036
:1040E00038800120049004EB440000EBC40031F858
:1040F00010000290002001902B48142304AA02A96A
:10410000009001A806F0A4FEBDF8100000B204EB78
:10411000440101EBC4011F4A02EB4101888104EB19
:10412000440000EBC400114631F81000BDF8101037
:1041300090FBF1F000B204EB440101EBC40102EB8F
:104140004101C881002004EB440101EBC40102EBF2
:1041500041014880BDF8080004EB440101EBC401B3
:1041600022F81100388804EB440101EBC40102EB92
:104170004101B1F90C1090FBF1F081B206480181C8
:104180003988C1814FF0010900BF484607B0BDE83A
:10419000F08F000046070020CC060020B60000206B
:1041A000CC000020E2000020D4010020F800002014
:1041B00010B5034606243048A0F84C400A24A0F865
:1041C0004A401C88B0F84C00844203DA2A48B0F810
:1041D0004C0018801C882848B0F84A00844203DD4F
:1041E0002548B0F84A0018801888244CA080108810
:1041F0000D2801DD0D2010801088062801DA062028
:10420000108001241C48A0F84E400724A0F850401C
:104210000624A0F844400D20174CA4F8420014884E
:104220001548B0F94E0094FBF0F084B213480481B5
:104230001488C48110884FF4B46460434FF4FA7456
:1042400090FBF4F0088001240B48A0F852401124A0
:10425000A0F854401224A0F848402324A0F8464077
:104260000C88B0F8520094FBF0F084B20348C4808C
:104270000C888481012010BD46070020CC06002058
:104280002DE9F04186B080460C466848007D00F07C
:10429000020020B94FF0FF3006B0BDE8F081B8F160
:1042A0000E0F75D2DFE808F0BC0734455EBCBC8356
:1042B000BCBC92BC96A527465D48874200D300BF90
:1042C0005B483844401EB0FBF7F6022E01D20026B0
:1042D00000E0B61EFF2E00D9FF265648006840F2C7
:1042E000FF41884340F48070304352490860B01C5D
:1042F0004F49B1FBF0F7B42500E06D1E002DFCD155
:104300004A48007D40F00400484908753846C3E734
:1043100014B1012C08D106E04648006820F4005092
:104320004449086003E002E06FF00300B4E700BF17
:1043300079E01CB1012C03D1122504E0022502E032
:104340006FF00300A8E700BF042001900295012050
:104350000390032004900C20059001A9364802F038
:104360009BF960E024B1012C09D0022C1AD110E095
:104370003048006820F4C0502E49086015E02D48F0
:10438000006820F4C05040F400602A4908600CE046
:1043900046E02848006820F4C05040F48050254989
:1043A000086002E06FF0030076E700BF3BE034B145
:1043B0002048006820F400701E49086005E01D4890
:1043C000006840F400701B4908602CE01948203058
:1043D000046028E01548406820F040001349486018
:1043E00014483830006840F48000124938310860C1
:1043F00019E034B10D48007D40F080000B4908758C
:104400000DE00A48007D20F0800008490875094841
:104410002830006820F4007006492831086002E066
:104420006FF0030038E700BF002035E7286901205E
:10443000006CDC02042C0140000C024000B593B07B
:1044400000BF002001902848006840F00100264984
:1044500008600846006800F00100019000BF00BF3E
:1044600014210EA8FCF7B3FE20200E9002200F901E
:10447000002010901190012012900EA91B4802F00C
:104480000BF9142109A8FCF7A2FE4AF210400B9088
:104490000320099000200C900A900D901C2102A886
:1044A000FCF795FE702002900020039004900420F9
:1044B0000690142209A90E48FCF72DFE4FF080400B
:1044C0000B49091F0860084603F088FB002202A977
:1044D0000748001F03F0FEFA00210548001F03F003
:1044E00099FB13B000BD00004038024000000240BC
:1044F000F81F00200020044908704AF210400349C8
:1045000009684863704700003E000020F41F002047
:1045100001200149087070473E0000200146C1EBB0
:104520000112C2EBC2024FF6FF7303EA82004AF2A5
:104530001042904200DD10464AF21042121A024B1D
:104540001B685A6370470000F41F00202DE9F043F8
:1045500087B081464FF00008142206A94FF470601E
:1045600006F0B6FEA1480188022012F089F98DE814
:10457000070040280ED09D480188012012F080F9E4
:1045800003AB07C3402805D01422994806990DF0C3
:1045900077FF02E007B0BDE8F08395484188954871
:1045A00090ED000AF2EE040A20EE200ABCEEC00AEA
:1045B00010EE100A80B281420ED08E4890ED000AB3
:1045C000F2EE040A20EE200ABCEEC00A10EE100A39
:1045D000874948804FF0010885480188864890ED5A
:1045E000000AF2EE040A20EE200ABCEEC00A10EE29
:1045F000100A80B281420ED07F4890ED000AF2EEA0
:10460000040A20EE200ABCEEC00A10EE100A784917
:1046100008804FF0010876488188784890ED000ABC
:10462000F2EE040A20EE200ABCEEC00A10EE100AD8
:1046300080B281420ED0714890ED000AF2EE040A79
:1046400020EE200ABCEEC00A10EE100A68498880ED
:104650004FF001086648C188694890ED000AF2EE03
:10466000040A20EE200ABCEEC00A10EE100A80B246
:1046700081420ED0624890ED000AF2EE040A20EE6C
:10468000200ABCEEC00A10EE100A5949C8804FF04B
:104690000108574801895B4890ED000AF2EE040AD0
:1046A00020EE200ABCEEC00A10EE100A80B2814251
:1046B0000ED0544890ED000AF2EE040A20EE200AD3
:1046C000BCEEC00A10EE100A494908814FF00108FB
:1046D000474841894C4890ED000AF2EE040A20EE6A
:1046E000200ABCEEC00A10EE100A80B281420ED041
:1046F000454890ED000AF2EE040A20EE200ABCEED6
:10470000C00A10EE100A3A4948814FF001083F48AC
:1047100090ED000A3B48D0ED000AB4EEE00AF1EE5D
:1047200010FA01D2012400E000243148008AA0429E
:1047300003D02F4804824FF00108344890ED000A5E
:104740003148D0ED000AB4EEE00AF1EE10FA01DBD8
:10475000012500E000252648408AA84203D02448CD
:1047600045824FF001082A4890ED000A2348D0ED19
:10477000000AB4EEE00AF1EE10FA01DD012600E0D5
:1047800000261B48C089B04203D01948C6814FF0AB
:104790000108012C0FD0012D0DD166B11C4890ED00
:1047A000000A1548D0ED000AB4EEE00AF1EE10FA66
:1047B00001D2012700E000270D488089B84203D0CC
:1047C0000B4887814FF00108B8F1000F0CD014227C
:1047D00007494FF470600CF049FF0448018802203B
:1047E00012F04EF803AB07C300BFD3E61000002061
:1047F000100A0020200000201C00002024000020BF
:104800002800002040000020440000205400002028
:1048100050000020F0B5034600250C4609E0C4F323
:104820000D00064E375C28466E1CB5B21F54601C46
:1048300084B29542F3DB0120F0BD0000B0480020B7
:1048400010B5024624E016480088C0F30D00154B51
:10485000185C0A2806D012480088C0F30D00185CC6
:104860000D2806D10E480068401C0D4B1860012031
:1048700010BD0B480088C0F30D000A4B1B5C0C8870
:10488000601C0880135506480068401C044B1860E3
:1048900003480068044B1B689842D4D30020E7E724
:1048A00004060020B04800200806002010B53A2079
:1048B00002F0E2F9014801F067FB10BD406A0120F7
:1048C00010B53B2002F0D8F9014801F05DFB10BDA6
:1048D0006868012010B5452002F0CEF9014801F0CA
:1048E00053FB10BDC868012010B5462002F0C4F982
:1048F000014801F049FB10BDE0690120014608783C
:1049000010381823B0FBF3F20848805CC865032A0E
:1049100005D908686FF30900001D886503E0086881
:104920006FF309008865886D7047000017950208CD
:10493000014600208A6A8B6903BB32B1012A0CD080
:10494000022A10D0032A17D115E0CB6A03F0807336
:10495000B3F1807F00D101200FE0CB6AB3F1C07FBB
:1049600000D1012009E0CB6A03F08073B3F1807FAE
:1049700000D1012001E000E000BF35E08B69B3F514
:10498000005F1BD132B1012A06D0022A0CD0032AC3
:1049900012D10BE0012010E0CB6A03F08073B3F179
:1049A000807F00D1012008E0012006E0CB6AB3F14E
:1049B000C07F00D1012000E000BF15E032B1012A24
:1049C00005D0022A04D0032A0CD103E000BF00BFA7
:1049D000012008E0CB6A03F08073B3F1807F00D13F
:1049E000012000E000BF00BF704730B504682468B4
:1049F00024F4802405682C60046863608468402C7B
:104A000004D10468A2600468E16003E00468A16066
:104A10000468E26030BD000010B500201149087044
:104A2000114820218269114890470F48202142698E
:104A30000F4890474FF47A710A480BF085FF002425
:104A400010200BE00949095CFF2904D14FF4004113
:104A500041EA640400E06410411CC8B22028F1DB84
:104A6000204610BD9C050020B0940208E41E0020E2
:104A7000349002081CB500200190F02000901E48E0
:104A80004FF41651826A012090471B480121826A27
:104A90001520904718480121826A1620904701206E
:104AA00001F059FC002015490870134801214269A2
:104AB0006846904710480121826901A890474FF449
:104AC0007A710E480BF040FF0B484FF4E131826AD7
:104AD0000120904708480121826A15209047064826
:104AE0000121826A162090479DF80400F02801D029
:104AF00001201CBD0020FCE7B09402089C050020AA
:104B000010B500200849087008481021426908487B
:104B10009047064810218269064890474FF47A7101
:104B200001480BF011FF10BD9C050020B094020855
:104B300024900208E41E0020082814D006DC012876
:104B400010D0022809D0042817D10AE0102810D06C
:104B500020280DD0402810D106E00121084A11700C
:104B60000BE00AE009E008E00121054A117004E0C9
:104B700000BF0121024A117000BF00BF7047000052
:104B80009C0500207047000010B50C480078A0B9C3
:104B900001200A490870002009490968486208484C
:104BA0000068C06840F0010005490968C860044910
:104BB00001220868002109F0ABFA10BD6B0000204B
:104BC000F015002010B52A48007800284FD10120A8
:104BD000274908700020274908602749088027498D
:104BE000096848622649096848620021234803F0A1
:104BF00011F822480068C06840F001001F490968A8
:104C0000C8601F480068C06840F001001C4909687E
:104C1000C8601B480068C06840F002001849096875
:104C2000C8601848007870B908F0E4FE00BF41F28F
:104C3000680015490968C86201461348C16000BF91
:104C400002F0B7FD0DE008F0D5FE00BF40F63400DD
:104C50000D490968C86201460B48C16000BF02F0F7
:104C6000A8FD074901220868002109F051FA10BD8A
:104C70006B00002074000020700000202C16002023
:104C8000F0150020E80100206816002010B5184833
:104C9000007858B30020164908700021154802F02A
:104CA000DFFF154900220868114609F031FA00BFFC
:104CB00011480068006A41F21111084068B90E48B5
:104CC0000068006A8910084038B90B48006800681D
:104CD00020F0010008490968086000BF00224FF475
:104CE0000061064801F0E6FD08F074FE10BD00000A
:104CF0006B0000202C160020F0150020000402405C
:104D000010B500200949087009490870FFF7BEFF77
:104D1000642011F091FC00224FF48041054801F01D
:104D2000C9FD642011F088FC10BD0000A80000201F
:104D30006D0000200014024010B5012001F09EFC1F
:104D400010BD10B54FF4005001F098FC4FF48040B6
:104D500001F094FC4FF4004001F090FC10BD10B540
:104D6000022001F08BFC10BD10B5082001F086FC7C
:104D700010BD10B5102001F081FC10BD08B55649DA
:104D800088420FD100BF002100915449096841F0C9
:104D90000101524A11601146096801F001010091B8
:104DA00000BF97E04E4988420FD100BF002100911B
:104DB0004A49096841F00201484A116011460968F0
:104DC00001F00201009100BF84E0464988420FD102
:104DD00000BF002100914149096841F004013F4AA8
:104DE00011601146096801F00401009100BF71E0F3
:104DF0003D4988420FD100BF002100913749096821
:104E000041F00801354A11601146096801F00801B6
:104E1000009100BF5EE0354988420FD100BF0021FC
:104E200000912E49096841F010012C4A1160114689
:104E3000096801F01001009100BF4BE02C49884245
:104E40000FD100BF002100912449096841F02001E1
:104E5000224A11601146096801F02001009100BF4B
:104E600038E0244988420FD100BF002100911B493E
:104E7000096841F04001194A11601146096801F0C2
:104E80004001009100BF25E01B4988420FD100BFBF
:104E9000002100911149096841F080010F4A116019
:104EA0001146096801F08001009100BF12E013492A
:104EB00088420FD100BF002100910849096841F4E0
:104EC0008071064A11601146096801F480710091F1
:104ED00000BF00BF08BD00000000024030380240A3
:104EE0000004024000080240000C02400010024092
:104EF0000014024000180240001C02400020024042
:104F000008B5564988420FD100BF0021009154498D
:104F1000096841F00101524A11601146096801F027
:104F20000101009100BF97E04E4988420FD100BFB8
:104F3000002100914A49096841F00201484A116084
:104F40001146096801F00201009100BF84E0464962
:104F500088420FD100BF002100914149096841F00A
:104F600004013F4A11601146096801F004010091F3
:104F700000BF71E03D4988420FD100BF0021009180
:104F80003749096841F00801354A1160114609683E
:104F900001F00801009100BF5EE0354988420FD161
:104FA00000BF002100912E49096841F010012C4AF0
:104FB00011601146096801F01001009100BF4BE03B
:104FC0002C4988420FD100BF002100912449096873
:104FD00041F02001224A11601146096801F02001C8
:104FE000009100BF38E0244988420FD100BF002162
:104FF00000911B49096841F04001194A11601146AE
:10500000096801F04001009100BF25E01B4988427A
:105010000FD100BF002100911149096841F08001C2
:105020000F4A11601146096801F08001009100BF2C
:1050300012E0134988420FD100BF002100910849B6
:10504000096841F48071064A11601146096801F44B
:105050008071009100BF00BF08BD00000000024049
:10506000303802400004024000080240000C0240B8
:10507000001002400014024000180240001C0240D0
:105080000020024008B5564988420FD100BF0021D8
:1050900000915449096841F00101524A11601146DA
:1050A000096801F00101009100BF00BF4E4988422C
:1050B0000FD100BF002100914A49096841F0020167
:1050C000484A11601146096801F00201009100BFD1
:1050D00000BF464988420FD100BF002100914149DD
:1050E000096841F004013F4A11601146096801F066
:1050F0000401009100BF00BF3D4988420FD100BFAD
:10510000002100913749096841F00801354A1160D2
:105110001146096801F00801009100BF00BF354940
:1051200088420FD100BF002100912E49096841F04B
:1051300010012C4A11601146096801F0100100911C
:1051400000BF00BF2C4988420FD100BF0021009151
:105150002449096841F02001224A1160114609687A
:1051600001F02001009100BF00BF244988420FD107
:1051700000BF002100911B49096841F04001194A14
:1051800011601146096801F04001009100BF00BFA5
:105190001B4988420FD100BF0021009111490968C5
:1051A00041F080010F4A11601146096801F0800149
:1051B000009100BF00BF134988420FD100BF0021FA
:1051C00000910849096841F48071064A116011464E
:1051D000096801F48071009100BF00BF08BD0000A4
:1051E0000000024030380240000402400008024043
:1051F000000C02400010024000140240001802405F
:10520000001C02400020024000BFFEE710B5002253
:1052100001B909E0012901D10A0205E0022901D101
:105220000A0201E04FF44072114B1B6823F44073F3
:105230000F4C236023461B681343236023461B68DF
:1052400023F0F803236023461B68F82494FAA4F49F
:10525000B4FA84F400FA04F444F002042343044C46
:10526000236023461B6843F48033236010BD000095
:10527000103C02401C48006800F40070B0B11A48AD
:10528000006820F400701849086000BF08460068F4
:1052900040F4006008600846006820F40060086080
:1052A00000BF0846006840F4007008600E480068BF
:1052B00000F48060B0B10C48006820F480600A49B6
:1052C000086000BF0846006840F480500860084647
:1052D000006820F48050086000BF0846006840F471
:1052E0008060086070470000003C02400A4A126873
:1052F00022F44072084B1A601A46126842F0040207
:105300001A601A4612684FF4803343EA00231A43A6
:10531000014B1A6070470000103C02402A480068A8
:10532000C0F3001040B12948C06940F0100027497F
:10533000C86110202449086023480068C0F3401069
:1053400040B12248C06940F008002049C8612020CF
:105350001D4908601C480068C0F3801040B11B481C
:10536000C06940F004001949C8614020164908602E
:1053700015480068C0F3C01040B11448C06940F03F
:1053800002001249C86180200F4908600E48006879
:10539000C0F3002048B10D48C06940F001000B493E
:1053A000C8614FF480700849086007480068C0F37E
:1053B000400040B10548C06940F020000349C86181
:1053C00002200149086070470C3C0240A06A01209D
:1053D00070B50446002500201749C86101F076FA2F
:1053E000054609E0601C38B124B101F06FFA401B9A
:1053F000A04201D9032070BD10480068C0F30040EE
:105400000028EFD10D48006800F0010010B1012024
:105410000A4908600948006800F4F970B0F5F97F9E
:1054200001D1012000E0002018B1FFF777FF012033
:10543000E1E70020DFE70000A06A01200C3C024009
:1054400000B58BB000BF002001903048006840F0EC
:1054500004002E4908600846006800F0040001902E
:1054600000BF00BF00BF00200190081D006840F091
:105470000200091D08600846006800F00200019063
:1054800000BF00BF142106A8FBF7A1FE42F2107076
:10549000089000200690099007900A9002900390CF
:1054A000049005904FF40050029000200390049067
:1054B00007200590142206A91548FBF72CFE154875
:1054C0001349091F0860084602F049F902A910486B
:1054D000001F02F099F90E48001F02F05BF9142238
:1054E00006A90D48FBF717FE0C480B49091F086079
:1054F000084602F034F902A90748001F02F084F9B7
:105500000548001F02F046F90BB000BD40380240CC
:10551000801F002000040140BC1F00200008004044
:105520003EB505460021084607F0D8FA044601209A
:105530001D49888000211C4801814FF47A7094FB3A
:10554000F0F081B2184881814FF47A7094FBF0F149
:1055500000FB114000F57A7081B21348C181002030
:1055600011494880088048841048007800F004FC05
:105570000D4908610D48007800F022FC0A49486195
:10558000002008830021084841838183C1830146AC
:105590004FF480700BF0E6FF05480188022011F0FF
:1055A0006FF98DE807003EBD22070020640000204F
:1055B000100000202DE9F04788B0054600262F4650
:1055C0008748007808F080F88648B0F80890B0F86E
:1055D00002A0242207A94FF4807005F079FE8248CA
:1055E0000188022011F04CF901AB07C340280DD00F
:1055F0007D480188012011F043F904AB07C340281E
:1056000004D0784807990CF0A2FF02E008B0BDE88A
:10561000F0877448B0F8008074487549086001202C
:10562000744908806F484088504500D001266D4A73
:105630005188108907F052FA04466A48408850B9E8
:10564000684880886C49C988884204DD6A48C088F7
:105650006449888001266348408801280AD161484E
:10566000818865480089814204DD634800895D497D
:10567000888001265B48408802280AD159488188E1
:105680005D484089814204DD5B48408955498880F6
:1056900001265448808800EE900AF8EE600AB0EEC9
:1056A000600A07F0A3FB4F48808800EE100AB8EEAE
:1056B000400A524880ED000A4FF47A7094FBF0F0F3
:1056C00081B2484881814FF47A7094FBF0F100FB7D
:1056D000114000F57A7081B24248C1810089484585
:1056E00000D0012600220421454801F0E3F8002003
:1056F0003C490880FEF70CFF3A48008BE8B10122D4
:1057000004213F4801F0D6F8012251033D4801F041
:10571000D1F8012033490880C1033A4801F0C2F8AA
:1057200050B903202F490880002008834B273648B2
:1057300090ED000A07F00CF901262A48008CE8B128
:1057400000212848018400203049087003F042F904
:1057500000224FF400512B4801F0ACF80022202128
:10576000274801F0A7F89FED2A0A07F0F1F800207A
:105770001C4908804927012608F05CFA194800886E
:10578000404500D001261648007800F0F5FA15498A
:10579000096988420CD01248007800F0EDFA1149EE
:1057A00008610F48007800F00BFB0E4948610126A4
:1057B0005EB10C494FF480700BF0D4FE0A480188AA
:1057C000022011F05DF804AB07C3BD4205D026B13D
:1057D00005480188384607F0F9F900BF16E70000D0
:1057E00064000020220700201000002040420F002B
:1057F0007800002072000020AA0000203000002065
:105800000014024000080240540500206C000020F3
:105810000000000070B588B004460025264624220A
:1058200007A94FF4807005F053FD2A480188022033
:1058300011F026F801AB07C340280DD02548018898
:10584000012011F01DF804AB07C3402804D0224802
:1058500007990CF07CFE01E008B070BD512C04D01B
:10586000522C10D0532C1DD11BE01C4890ED000A87
:105870001B48D0ED000AB4EEE00AF1EE10FA00DDAC
:105880004B2601250EE0174890ED000A1648D0ED92
:10589000000AB4EEE00AF1EE10FA00D24B26012520
:1058A00000E000BF00BF5DB10B494FF480700BF00A
:1058B00059FE08480188022010F0E2FF04AB07C33C
:1058C000B44205D025B103480188304607F07EF97F
:1058D00000BFC1E710000020220700205400002074
:1058E00044000020500000202C0000202DE9F04151
:1058F00088B0044600252646242207A94FF480706C
:1059000005F0E6FC9F480188022010F0B9FF01ABCA
:1059100007C3402810D09B480188012010F0B0FF39
:1059200004AB07C3402807D0974807990CF00FFE37
:105930000020964908603CE094480068401C934968
:10594000086008460068022830DD002008609049A1
:1059500008709049087003F03DF8642010F06CFE68
:10596000002220218C4800F0A5FF642010F064FE86
:1059700000224FF40051894800F09CFF642010F091
:105980005BFE00220421844800F094FF492608F0C1
:1059900031F800BF4AF2104081490968C8620146E7
:1059A0007F48C16000BF01F004FF012508B0BDE8D9
:1059B000F08175480788322010F03EFE0122042154
:1059C000754800F077FF492C07DD4F2C05DC0122DC
:1059D0005103724800F06EFF05E000224FF40051C1
:1059E0006E4800F067FF4D2C07DB4F2C05DC0122D1
:1059F0002021694800F05EFF04E000222021664873
:105A000000F058FF4F2C03D101206249087002E0DA
:105A10000020604908705C48408B38B14D26022058
:105A20005949088000215848418301254D2C0CD14B
:105A30000220554908801021574800F033FF20B953
:105A40000320514908804E2601254F48808BC8B15C
:105A50005448007800F090F98046534991ED001ABF
:105A60005249D1ED000A524991ED000A0EF0A6FF0D
:105A7000002145488183012208214E4800F01AFF89
:105A80004F2601254048C08B48B34648007800F0B7
:105A900073F980460EF0C4FF00213B48C183002209
:105AA0000821444800F006FF00203A49087002F03F
:105AB00091FF00224FF40051384800F0FBFE002215
:105AC0002021354800F0F6FE9FED3B0A06F040FF2E
:105AD00000202D4908804926012508F0ABF82A4806
