:020000040801F1
:1000000048650120A5040108CDB30108F97C010869
:10001000A5B301088933010839F801080000000080
:10002000000000000000000000000000750301084F
:1000300009450108000000002D0401089104010891
:10004000BF04010873B40108BF040108BF0401081C
:10005000BF040108BF040108A1460108C546010804
:10006000BF040108CB460108D1460108BF040108BE
:10007000BF040108BF040108BF040108BF04010850
:10008000BF040108BF040108BF040108C933010807
:10009000A5330108B1330108BD330108BF040108CD
:1000A0005DDB010875DB010869DB0108BF0401089D
:1000B000BF040108BF040108BF040108217D010835
:1000C000157D0108BF040108BF040108BF04010831
:1000D000D9BA0108F5E20108BF04010849E30108A3
:1000E000A7460108BF040108BF040108BF040108B6
:1000F000BF040108BF040108BF040108BF040108D0
:10010000BF04010865B80108BF040108BF04010865
:10011000BF040108BF040108BF040108BF040108AF
:10012000BF040108BF040108D1420108E9420108E7
:10013000BF040108BF040108BF040108BF0401088F
:10014000BF040108BF040108BF040108BF0401087F
:10015000BF0401080143010819430108F1E3010844
:10016000BF040108BF040108BF040108BF0401085F
:10017000BF040108BF040108BF040108000000001B
:10018000BF040108BF04010800F002F800F09DF868
:100190000AA090E8000C82448344AAF10107DA45E2
:1001A00001D100F092F8AFF2090EBAE80F0013F097
:1001B000010F18BFFB1A43F00103184780870100A5
:1001C000A08701000A444FF0000C10F8013B13F027
:1001D000070408BF10F8014B1D1108BF10F8015BA0
:1001E000641E05D010F8016B641E01F8016BF9D193
:1001F00013F0080F1EBF10F8014BAD1C0C1B09D1EA
:100200006D1E58BF01F801CBFAD505E014F8016B5B
:1002100001F8016B6D1EF9D59142D6D370470000ED
:100220000023002400250026103A28BF78C1FBD8FF
:10023000520728BF30C148BF0B607047662917F0CE
:100240009884652917F09584672917F092846129AD
:1002500017F09184692900F04D82642900F04A82E8
:10026000752900F047826F2900F0DE82782900F0BE
:1002700003830368DB0928BF41F08001632901F093
:100280002684732901F02B84E32901F036840020B1
:1002900070471FB517F063FC9DE8030001F058FE9E
:1002A00001F039FE04000020002117F061FA401C23
:1002B00060600020002117F045FAE06001F0F8FCD2
:1002C0001FBD10B501F06CFD10BD02F025FA1146FE
:1002D000FFF7DFFF0FB400F00BF80FBC13F0D6FDF3
:1002E00000F0C8FD03B4FFF7ECFF03BC02F00EFA08
:1002F00004B015F05FF80448002115F07FF915F0FF
:100300006BF800F0B7FD0000847D020880F30988D7
:100310007047EFF309807047684680F30988044806
:100320000078C00714BF0220032080F314887047B0
:10033000447D0208DFF818C0EFF305831B0618BFE1
:100340006047EFF31483DB0708BF604700DF7047A7
:10035000A55B0208DFF818C0EFF305831B0618BF82
:100360006047EFF31483DB0708BF604700DF704787
:10037000555E0208EFF30980816911F8021CE1BBA8
:1003800090E80F1010B5E047BDE81040EFF3098C7E
:100390008CE80700214B93E80600914208BF7047A4
:1003A00041B91EF0100F16D11D49086820F0010058
:1003B000086010E01EF0100F06BF2CED108A01201F
:1003C000002081F825002CE9F00FC1F828C00CB4FA
:1003D00016F050F90CBC1A60D2F828C0BCE8F00F37
:1003E00092F8250000280EBF6FF0020E6FF0120E7B
:1003F000BCEC108A8CF30988704710B5094A126862
:10040000914209D8084C54F8214090E80F10A047B9
:10041000EFF3098C8CE80F0010BD0000380E0020AF
:1004200034EF00E0E0320108E032010810B515F0C9
:10043000E5FFBDE81040154B93E80600914208BF68
:100440007047EFF3098C1EF0100F06BF2CED108AD9
:100450000120002081F825002CE9F00FC1F828C008
:100460000CB416F007F90CBC1A60D2F828C0BCE82E
:10047000F00F92F8250000280EBF6FF0020E6FF00B
:10048000120EBCEC108A8CF309887047380E0020DD
:1004900010B516F0B7F9CCE710B515F039F916F02C
:1004A000B1F9C6E70948804709480047FEE7FEE77B
:1004B000FEE7FEE7FEE7FEE7FEE7FEE7FEE7FEE714
:1004C00004480549054A064B7047000005DB010852
:1004D000890101082856012048650120485D012056
:1004E000485D0120004870470050012053EA020C8B
:1004F00000F069802DE9F04B4FF00006002B1FBF84
:10050000B3FA83F503FA05F424FA05F65E4012BF48
:100510001643B2FA82F502FA05F4C5F120051EBFB2
:1005200022FA05FC44EA0C04203556EA044C4FEA52
:10053000144418BF641C4FF000084FF000099042AB
:1005400071EB030C39D3002919BFB1FA81F701FA15
:1005500007F6B0FA80F700FA07F6C7F120071EBFCA
:1005600020FA07FC46EA0C062037B6FBF4FCA7EBA2
:100570000507103F07F01F0BCBF120060CFA0BFB11
:100580002CFA06F644BFB3460026202FA4BF5E46D1
:100590004FF0000B5BEA060C08BF4FF0010B19EBA4
:1005A0000B09ABFB027C48EB0608C01B06FB02CC28
:1005B0000BFB03CC71EB0C01C1E70B460246414635
:1005C0004846BDE8F08B13B54FF000004FF0000136
:1005D000AFF30080BDE81C40704700000FB4044931
:1005E00010B503AA029802F0DBF810BC5DF814FB0A
:1005F000B45001200FB4014610B504AA039802F0CC
:10060000CFF810BC5DF814FB0FB41CB5074B06AA5D
:100610007B4469460090059801F037FA002069464E
:1006200001F046FA1CBC5DF814FB00009D140000AC
:1006300070B5044685690068C10601D5302600E022
:100640002026C00707D070BDD4E90121304690476D
:10065000206A401C20626D1EF6D570BD70B5044640
:1006600085690078C00707D170BDD4E90121202039
:100670009047206A401C20626D1EF6D570BD096847
:100680004A0501D540B27047C905FCD500B2704794
:1006900009684A0501D5C0B27047C905FCD580B2CA
:1006A000704770B50C460546012A05D028788006AB
:1006B00000D5EA69002302E0012305E05B1C9342B8
:1006C00002D2E05C0028F9D1A869E618C01AA86136
:1006D000286A184428622846FFF7AAFF04E0D5E9F3
:1006E000012114F8010B9047B442F8D32846FFF7D4
:1006F000B5FF70BD2DE9F04106460024106875294C
:10070000314616A510D0FFF7BAFF002802DA4042A2
:1007100013A507E031688A0701D512A502E0490751
:1007200004D511A5012401E0FFF7B2FF00210A2240
:1007300006F1240709E0B0FBF2FCB0FBF2F302FB88
:100740001C00303078541846491C0028F3D1234649
:100750002A463046BDE8F04100F0AEBD0000000082
:100760002D0000002B000000200000002DE9FF5F9D
:1007700015468A460446DFF8AC80F8440027D8E9DD
:1007800000103E46CDE9001010E03AF816106A4617
:1007900002A801F071FB411C07D02178890603D51E
:1007A000E269391891420DD80744761C20788006FA
:1007B00002D5E069B84205DDAE42E6DB3AF8160044
:1007C0000028E2D1A069C01BA0612046FFF730FFDE
:1007D000D8E90010CDE90010002017E03AF8181011
:1007E0006A4602A801F048FBB0F1FF3F81460BD0FA
:1007F00000250DF1080B05E0D4E901211BF80500E7
:1008000090476D1C4D45F7D308F10100B04280467A
:10081000E4DB206A384420622046FFF71FFFBDE872
:10082000FF9F00004E7D010070B504462146106810
:10083000FFF72EFF002104F1240505E000F0070278
:100840003032C0086A54491C0028F7D120680023C0
:1008500007A2050707D5800600D421B1E06901236E
:1008600004A2401EE0612046BDE8704000F024BDB7
:10087000000000003000000070B504460D4621461F
:100880001068FFF705FF2188090502D50F4A7A4451
:1008900002E00E4A7A440E32002104F1240305E0FE
:1008A00000F00F060009965D5E54491C0028F7D140
:1008B00020780023000704D5702D02D009B102234F
:1008C00011322046BDE8704000F0F6BC427C0100C9
:1008D0002DE9F05F894604464FF0000ADFF874B155
:1008E000FB44C0F820A02046E1688847002874D067
:1008F000252806D0D4E901219047206A401C2062B7
:10090000F1E700265F462046E16888472028054633
:1009100007DB312D05D2781910F8200C08B10643F9
:10092000F1E7B00701D526F00406C4F81CA00027A3
:10093000C4F818A02A2D09D0284610F09EF938B323
:1009400004EB8708303DC8F8185019E059F8041B2B
:10095000204604EB87029161E1688847012F054634
:1009600018D1E069002820DA26F020061DE0D8F82A
:10097000180000EB800005EB40003038C8F8180084
:100980002046E1688847054610F077F90028EED147
:10099000012F0AD02E2D08D12046E16888477F1C00
:1009A0000546022F46F02006C4DBA069002803DAC2
:1009B000404246F00106A061F00701D026F0100683
:1009C0006C2D0BD0682D09D04C2D39D06A2D35D027
:1009D000742D35D07A2D33D016E038E0E1682F46FB
:1009E00020468847B842054609D16C2F26D04FF4DF
:1009F0008060E168064320468847054604E06C2F86
:100A00001AD04FF4807006430DB3A5F141001928A8
:100A100002D8203546F400664A462946204626601C
:100A20004E46FFF70BFC80B101280BD0F61D26F0D7
:100A3000070000F1080956E74020E4E78020D8E7E6
:100A40000020D6E706F104094DE7284652E7206A60
:100A5000BDE8F09F187C010070B5064600F093FBDE
:100A60000468054630460A22002101F060F82C6037
:100A700070BD00002DE9F041044616460D46476959
:100A8000007B80072ED0384610F04AF950BB3EB3A9
:100A9000012E02D0022E25D104E0204600F066F897
:100AA00005441DE0384610F02FF9E168002841F0B8
:100AB0001001E16005DA204601F072F80120BDE87E
:100AC000F081C9030BD56268E16A914200D81146F2
:100AD000A26911442269891A814200DD0846054451
:100AE000002D01DA0220EAE7E16A6068E2688142EB
:100AF00006D29103E06203D522F4003141F01002E6
:100B0000A6690027AE4213DCE16A814201D90B4697
:100B100000E0034603EB060C2369ACEB030CAC4589
:100B200006DD814201D98C4600E084469C4505D112
:100B3000A760276042F02000A5620DE0AD1BE669CA
:100B4000AE1B8142A66000D90846C01A281A206050
:100B50005819606022F0200003490840E06000203E
:100B600084F84870ABE70000BFCFD7FF10B501464F
:100B7000C268900703D0900607D5886A0AE000F0A3
:100B800002FB01210160881E10BD8B694868184472
:100B90000B69C01A91F848301BB191F84910401AFE
:100BA00010BD1103FCD50028FADD401E10BD01F078
:100BB0006FB82DE9F04704464FF000094FF0FF37BA
:100BC000C568D4E90486A80707D0204601F01CF8C0
:100BD000304610F08DF8002802DA3846BDE8F0877C
:100BE000280502D5404600F050FB4C21204600F07D
:100BF00060FA206D20F0010020654846EEE770B5F0
:100C0000044600F14C05284610F03EF82046FFF758
:100C1000ADFF0446284610F05DF8204670BD000088
:100C200070B505460A4E304610F02EF805F14C041A
:100C3000204610F029F82846FFF7BBFF054620465E
:100C400010F048F8304610F045F8284670BD000016
:100C50006C0E00202DE9F04116460F46054600F1C6
:100C60004C04204610F010F8324639462846FFF76B
:100C700001FF0546204610F02DF82846BDE8F0811A
:100C800070B5044600F14C0528460FF0FDFF207BAF
:100C900000F04004284610F01DF8204670BD00000A
:100CA0002DE9F041044600F14C0738460FF0ECFF07
:100CB000E068810712D0800601D5A66A04E0A16928
:100CC000606808442169461A204600F09DFF002212
:100CD000054631462046FFF7CDFE00E000253846A8
:100CE0000FF0F8FF2846BDE8F0812DE9F04118B17A
:100CF000BDE8F041FFF7D4BF0B4E002530460FF0A2
:100D0000C3FF0A4C6F1E07E02046FFF7C9FF00B182
:100D10003D46206D20F00104002CF5D130460FF047
:100D2000D9FF2846DFE700006C0E0020605001204C
:100D30002DE9F04716468846814602F14C073846B1
:100D40000FF0A2FF3046FFF734FF18F8010B6128BF
:100D50000AD0722802D077283FD102E00125002472
:100D600005E00225042402E0082448F2020518F8F0
:100D7000010B2B2806D0622809D018F8010C742822
:100D80000AD00BE045F0030544F00204EFE745F01C
:100D9000040544F00104EAE744F010044846214603
:100DA0000FF0CAFF411C18D00021316171604FF46F
:100DB0000071F560F1617061200704D530460222B0
:100DC0000021FFF757FE306D40F0010030653846D6
:100DD0000FF080FF3046BDE8F0870026F7E72DE9E9
:100DE000F04115460E460746204C20460FF04CFFBA
:100DF0002A4631463846FFF79BFF054620460FF04E
:100E000069FF2846BDE8F0812DE9F0410E46804695
:100E1000164D28460FF038FF154C206DC10704D041
:100E2000410804D020F00104F7E7224612E05420E4
:100E300000F0F0F9070017D0206D47F001010843DA
:100E400054212065384600F034F907F14C000FF0CA
:100E50002BFF3A4631464046FFF76AFF04462846D4
:100E60000FF038FF2046CDE70024F8E76C0E002095
:100E70006050012010B50446AFF300802046BDE865
:100E80001040FFF72FBA0000014A01F015B800002A
:100E9000680E002030B505460B462A4613F8014B74
:100EA00012F8010B08B1A042F8D01CB1002802D002
:100EB0006D1CF1E7284630BD40EA0103024630B51B
:100EC0009B0710D14FF0013400E008C208C91D1B78
:100ED0009D4315EAC41FF8D013F0FF0102F8011B6F
:100EE0000DD01B0AF8E711F8013B002B02F8013B7B
:100EF00005D011F8013B002B02F8013BF3D130BDC6
:100F00002DE9F041054690460E460020044600E0DB
:100F1000641C44450BD2285D00F0C1F90746305DE2
:100F200000F0BDF9381A02D1295D0029F0D1BDE8E1
:100F3000F08110B5431C02E010F8011B71B181076C
:100F4000FAD14FF0013202C88C1A8C4314EAC21154
:100F5000F9D0C01A0A0603D0C01E10BDC01A10BDB9
:100F60000A0401D0801E10BD0902FCD0401E10BD35
:100F7000032A40F2308010F0030C00F0158011F8C5
:100F8000013BBCF1020F624498BF11F801CB00F89D
:100F9000013B38BF11F8013BA2F1040298BF00F8F1
:100FA00001CB38BF00F8013B11F0030300F02580AE
:100FB000083AC0F0088051F8043B083A51F804CBD5
:100FC000A0E80810F5E7121D5CBF51F8043B40F89B
:100FD000043BAFF30080D20724BF11F8013B11F8A6
:100FE00001CB48BF11F8012B24BF00F8013B00F8EA
:100FF00001CB48BF00F8012B704710B5203AC0F074
:101000000B80B1E81850203AA0E81850B1E8185009
:10101000A0E81850BFF4F5AF5FEA027C24BFB1E846
:101020001850A0E8185044BF18C918C0BDE81040B7
:101030005FEA827C24BF51F8043B40F8043B08BFC0
:101040007047D20728BF31F8023B48BF11F8012B87
:1010500028BF20F8023B48BF00F8012B704702F080
:10106000FF0343EA032242EA024200F002B84FF0D3
:1010700000020429C0F0128010F0030C00F01B8065
:10108000CCF1040CBCF1020F18BF00F8012BA8BF73
:1010900020F8022BA1EB0C0100F00DB85FEAC17C37
:1010A00024BF00F8012B00F8012B48BF00F8012BEA
:1010B00070474FF0000200B513469446964620391B
:1010C00022BFA0E80C50A0E80C50B1F12001BFF401
:1010D000F7AF090728BFA0E80C5048BF0CC05DF867
:1010E00004EB890028BF40F8042B08BF704748BFB5
:1010F00020F8022B11F0804F18BF00F8012B704729
:101100004FF0013C50F8042B51F8043B9A4221D196
:10111000A2EB0C03934313EACC1317D150F8042B22
:1011200051F8043B9A4215D1A2EB0C03934313EA06
:10113000CC130BD150F8042B51F8043B9A4209D13F
:10114000A2EB0C03934313EACC13DBD04FF0000067
:10115000704700BFD01A01BAB1FA81F101F018014D
:1011600022FA01F0CB40C1F12001DBB2C0B2C01ABB
:101170002CFA01F3D11A914311EAC311E6D1704759
:101180007047704770470FF03FBD0B3020F00700ED
:1011900070472DE9F04117460E460446FFF7F5FF6C
:1011A000A042054633D9002F1CBF06F10C000FF0FA
:1011B0006BFD30467468F4B12168A94217D305F17C
:1011C000080291423CBF6168416007D362686119BF
:1011D0004A602268521B0A6041602560002F1CBFD4
:1011E00006F10C000FF076FD201DBDE8F0812046D1
:1011F0006468002CE0D12946304600F095FE0028B6
:10120000D7D1002F1CBF06F10C000FF063FD0020AA
:10121000BDE8F08110B5044600F078FE0168204674
:10122000BDE810400122B4E770B516460D46041F14
:10123000002808BF70BD002E1CBF05F10C000FF088
:1012400023FD2B465868002818BFA04238BF03462C
:10125000F8D31968CA18A24218BF5C6003D122688B
:101260001C461144196021680A19824218BF606047
:1012700004D142686260006808442060002E1CBFF0
:1012800005F10C000FF026FD70BD10B5044600F00E
:101290003DFE01682046BDE810400122C4E710B5BC
:1012A000044600F02BFE0068005DC00602D504F184
:1012B000200010BD204610BD2DE9F0470D4699468F
:1012C0009246044600F124080168880604D5E069C6
:1012D00021F01001216000E00120A84201DD471B40
:1012E00000E00027A1697A1902EB0900081AA06141
:1012F0002078C00602D42046FFF79AF9002608E0BD
:10130000D4E901211AF806009047206A401C761C97
:1013100020624E45F4DB2078C0060AD52046FFF750
:1013200087F906E0D4E9012130209047206A401C6B
:101330002062381EA7F10107F4DC07E0D4E901219F
:1013400018F805009047206A401C2062281EA5F16D
:101350000105F3DC2046FFF781F92078000602D56D
:101360000220BDE8F0870120FBE770472DE9FF4F21
:101370000C461E464FF0FF378BB0D2E90001DDF876
:1013800060800A908A46C1F30A5505B93D4600219E
:1013900008464FF00000BAF1000F00F4400005DAF3
:1013A00000EB80004FF4400101EA50004FEA9059F1
:1013B000B9F1010F00DDB9460A9850EA4A000ED093
:1013C00044F61050A5F2FF3545432F14B8F1000F35
:1013D0001ED07542291E1EDDC9F100021CE0B8F1C5
:1013E000010F4FF0000001D0302103E0F24305E08F
:1013F0002154401CB042FBDB304600220021215426
:101400000B99C1F80880C1E900200FB0BDE8F08F4A
:10141000BD1B6D1CDEE74A4600DA694206A800F0F3
:10142000A5FE06AB93E8070003AB83E80700504630
:101430000A9901F099FB8DE80700A0F500501F38CC
:1014400000900398002D09DD42F21F014A4608442E
:1014500003A90390684601F0F8FD08E0A0F50050EC
:101460004A461F3803A90390684601F002FE8DE842
:1014700007000004000C03D04FF0FF30410800E0EB
:101480001046B8F1000F03D00022009215461EE06E
:10149000751E05D400F094FD303262556D1EF9D5ED
:1014A000B3460122084302D000227F1C04E02078CA
:1014B000302801D100227F1E002A099786D01DE026
:1014C000112D07DA00F07CFD303262556D1C50EAB8
:1014D0000102F5D1084302D00098C8B10EE0002106
:1014E000681E05E0235C625C63542254401E491C64
:1014F0008142F7DBAB46A81B401E0990002004F890
:101500000B000B98099AC0F80880C0E9002B7CE713
:1015100011264FF0000859E72DE9F04F88460446A0
:10152000D21D22F0070191B0D1E90001CDE90A01F5
:101530000FF0BEF902460B98C00F01D02D2007E036
:101540002068810701D52B2002E0202101EAC0009C
:10155000032A099001D0072A05DB034641462046AD
:1015600000F074FD0BE12078800601D5E06900E011
:101570000620B8F1650F814606D0B8F1660F18D085
:10158000B8F1670F70D131E00020B9F1110F009070
:1015900001DB112301E009F101030AAA01A90CA84A
:1015A000FFF7E4FEDDE90C70002609F10105834632
:1015B00047E001204B4600904FF000470AAA01A9DE
:1015C0000CA8FFF7D3FEDDE90DB00C995D460026AF
:1015D00010B909F101000D18B9EB050003D4C0F1F1
:1015E000FF3609F10105A5EB09002BE0B9F1010F68
:1015F00001DA4FF001090020B9F1110F00904846BF
:1016000001DD112300E003460AAA01A90CA8FFF797
:10161000ADFEDDE90C704D460026834620780007BC
:101620000AD4AB4500DA5D4601A8012D04DD41195D
:1016300011F8011C302907D04F4502DA17F1040FC9
:1016400004DA012082460FE06D1EEEE7002F02DC77
:10165000ED1B3E4403E0781CA84200DD7D1CB81B56
:1016600000F1010A4FF000472078000703D4AA4593
:1016700001DB4FF0FF3A0021B7F1004F0DF14308B5
:101680008DF8431024D002202B23002F01DA7F4253
:101690002D230A21021EA0F1010000DC5FB197FB9F
:1016A000F1FC97FBF1F201FB1C7C17460CF1300CAE
:1016B00008F801CDEEE7A8F10100037021880905C3
:1016C00001D5452100E06521A0F1010800F8011CC9
:1016D00009980FA9A1EB0807FF1D00B101204119CE
:1016E00001EBEA70A1693844081A401EA061207815
:1016F000C00602D42046FEF79BFF099828B1D4E922
:1017000001219047206A401C20622078C00622D523
:101710002046FEF78DFF1EE0002E04DBB34502DD00
:1017200001A8805D00E03020D4E901219047206AC3
:10173000401C2062761CAAF101005FEA000A0AD16F
:1017400000F0E9FBC0680168405CD4E901219047E2
:10175000206A401C2062281EA5F10105DCDC07E0A0
:10176000D4E9012118F8010B9047206A401C20623F
:10177000381EA7F10107F3DC2046FEF76FFF0320B8
:1017800011B043E62DE9F04F04460D46D21D22F07C
:10179000070089B0D0E90097484639460FF088F82D
:1017A0000246F80F01D02D2307E02068810701D5FC
:1017B0002B2302E0202101EAC0038DF820300BB179
:1017C000012000E00020032A824601D0072A04DB22
:1017D0002946204600F03AFC3FE12078800601D4FB
:1017E0000D2500E0E569C7F30A560D2D49DA002101
:1017F0004FEA175B08464FF00000002F00F440004E
:1018000007DA00EB80004FF4400100EBD07001EAF2
:1018100060008115012901DD4FF0FF3100224FEA00
:10182000850CBCF1180F06D31346ACF118004FF02D
:101830008052C24003E04FF4801323FA0CF30CF102
:101840000C0CBCF1200F04D3ACF1200C09FA0CF005
:1018500001E007FA0CF000294FF0004801DD18B94B
:101860000FE00ED140450CD319EB02095F4121B9BD
:10187000404502D19F4329EA0209BBEB175F00D024
:10188000761C2088000502D57B48784402E07A481F
:101890007844193808AA302302F80A30037C0AF188
:1018A0000101002E0AF1020A53546A4602DC4FF08D
:1018B000300101E04FF031014FF001088DF80010C8
:1018C00002D0A6F2FF3603E059EA470100D06B4E82
:1018D000002D02DC2178090704D54FF002082E21E3
:1018E0008DF80110C44600210BE0C7F303433F010C
:1018F000C35C491C6D1E02F80830052908F1010877
:1019000001DA002DF1DC00210CE000EB1973491C19
:101910001B786D1E082902F808304FEA091908F1F2
:10192000010801DA002DF0DC21688B0602D516E0F3
:10193000A8F10108E04505DD02EB080313F8013CBE
:10194000302BF5D0B8F1000F09DD02EB080313F8D6
:10195000013C2E2B03D1090701D4A8F10108002D69
:1019600005DD3E2102F808106D1E08F10108407CDB
:10197000002E02F8080008F1010804DA2D20764252
:1019800002F8080002E02B2002F808000A214FF4B8
:101990007A70864208F101080BDB96FBF0F33033D6
:1019A00002F8083096FBF0F308F1010800FB13661B
:1019B00001E0642E0CDB642096FBF0F3303302F878
:1019C000083096FBF0F308F1010800FB136601E014
:1019D0000A2E06DB96FBF1F0303002F8080008F121
:1019E000010896FBF1F001FB1060303002F80800AE
:1019F000A16908F1010808EB050202EB0A00081AC8
:101A0000A0612078C00602D42046FEF711FE216AAC
:101A100008AE01EB0A00206204E0D4E9012116F8C7
:101A2000010B9047BAF1010AF7D22078C00602D51F
:101A30002046FEF7FDFD6E4609E016F8010B3E2834
:101A40000FD0D4E901219047206A401C2062B8F1F0
:101A50000108F2D22046FEF701FE09B00320BDE8DE
:101A6000F08F206A2844206203E0D4E9012130206D
:101A700090476D1EEBD3F8E7926C010002FCFFFF6C
:101A800001694A1C02610878704700B58FB0CDE942
:101A900001310021059105497944CDE90310114632
:101AA0006846FEF715FF0FB000BD0000E5FFFFFF21
:101AB0000A6802F8010B0A60704710B5436913B158
:101AC000AFF3008001E0FEF7ECFD012010BD1278BD
:101AD00000F124010A7000224A700122EDE711682A
:101AE0004FF0FF32E9E710B5436913B1AFF300805F
:101AF00001E0FEF73BFE012010BD128800F1240139
:101B000082840022C2840122EDE711684FF0FF3287
:101B1000E9E73A2800D2303820F02002412A01D3E8
:101B2000A2F13700884201D34FF0FF3070472DE912
:101B3000F04791460F4680460446002614F8015BA4
:101B40002DB100F0DBF90068405DC007F6D12B2D08
:101B500002D02D2D18D0641E4A463946204600F08A
:101B6000B5FA27B13968A14201D1C7F800804FF01A
:101B7000020471050BD54042002803DDFFF703FB8B
:101B80000460A007BDE8F08746F48066E4E700281B
:101B9000F8DAFFF7F8FA04606FF00040F2E70000AF
:101BA000C16821F4001141F08001C1600021816011
:101BB000016070472DE9F047814614460E464FF00C
:101BC000FF383248D5685769054209D03846A169BF
:101BD0000FF008F9002811DB2C48C0430540E560F0
:101BE0002B463246494638460FF00BF9A16920F0E2
:101BF0000042B21A11440028A16103D02046FFF729
:101C0000CFFF4046BDE8F08770B504460569C06A5D
:101C10006168884200D80846E16821F42011E1603B
:101C2000C90312D5A84208D02246411B2846FFF717
:101C3000C1FF10B14FF0FF3070BD0020E562C4E974
:101C40000150E06820F48030E060002070BD10B5E5
:101C50000446C06820F02000E060A16AA0698842C4
:101C60000DD02046FFF7D0FFE06820F4405040F050
:101C70001000E060A06AA0612069E062606044F248
:101C80004001E0688843E06010BD000010000200E1
:101C900070B5044600F14C0528460EF0F5FF2046CD
:101CA00010F042FF044628460FF014F8204670BD9D
:101CB00010B565485421FFF7FCF964485421FFF73B
:101CC000F8F963485421FFF7F4F962485E49624A23
:101CD000624B01605D4810605D4A1A60431C0B65F1
:101CE000511C01650120106557484C300EF0DCFF97
:101CF00056484C300EF0D8FF55484C300EF0D4FF0B
:101D000057480EF0D1FF58484F4A56A17844FFF784
:101D100066F820B9544878440A3800F0D1FC544899
:101D20004A4A52A17844FFF75AF820B950487844FB
:101D30000A3800F0C5FC4F48454A4CA17844FFF7EB
:101D40004EF820B94B4878440A3800F0B9FC4023DB
:101D50003D48DC000021224600F07EFC20B14248D4
:101D60007844543800F0ACFC384822464023002127
:101D700000F072FC20B13E487844543800F0A0FCDA
:101D8000334822461023002100F066FC002806D0CC
:101D900038487844BDE81040563800F091BC10BD7A
:101DA0002B482DE9F041006D2D4E20F00104304606
:101DB0000EF06AFF244D4C3528460EF065FF224890
:101DC000FEF7F7FE28460EF085FF2846AFF30080A9
:101DD0001E4D4C3528460EF057FF1C48FEF7E9FE15
:101DE00028460EF077FF2846AFF30080184D4C359B
:101DF00028460EF049FF1648FEF7DBFE28460EF097
:101E000069FF2846AFF3008014E0206D20F0010543
:101E100004F14C0007460EF037FF2046FEF7C9FEDE
:101E200038460EF057FF3846AFF300802046FFF7E4
:101E30002CFA2C46002CE8D130460EF04BFF084817
:101E4000AFF30080BDE8F08160500120B450012064
:101E5000085101205C0E0020600E0020640E00205E
:101E60006C0E0020720000009862010077000000F4
:101E7000876201007762010070B516460C46054680
:101E800000F03CF8036893F80101012806D0FF2C0C
:101E90000FD8185D68B101202C7070BDD3F8070110
:101EA0003246214603F2071303442846BDE870403A
:101EB00018474FF0FF3070BD2DE9F04115460E4632
:101EC000040002D12C6804B90BA4204600F00FFCDA
:101ED0000444207870B127463146384600F0F7FBBD
:101EE0000444207810B1002004F8010B38462C601F
:101EF000BDE8F0810027F9E70000000010B500F010
:101F00000AF8001D10BD00BF6958010010B5FEF7AA
:101F1000E9FA083010BD10B5FEF7E4FA203010BD24
:101F2000704770477047704738B504460A4600202E
:101F30006946AFF30080002808BF38BD024600990B
:101F4000204600F00EFC012038BD012000F0C2BD8B
:101F5000F8B5AFF30080054600200C46102000BF06
:101F60000646A819A0420DD9324669460020AFF3B3
:101F70000080070008BF00F0ADFD0098A04218BF28
:101F80000546C419FFF7C2FF05600746F01D20F0A3
:101F900007004619284600F00AF8B44208BFF8BD09
:101FA000A21B31463868BDE8F84000F0DABB0021DA
:101FB0000160C0E901100C300EF076BE10207047B1
:101FC00030B5B0F10A024FEA900E71F100034EEA0B
:101FD000817EB0EB0E0061EB91014FEA101E4EEADC
:101FE000017E10EB0E0041EB11114FEA102E4EEA6C
:101FF000016E10EB0E0041EB11214FEA104E4EEA3C
:10200000014E10EB0E0041EB1141401841F100016F
:102010004FEAD00040EA41704FEAD10110EB800551
:102020004FEA810444EA907444EB01046D1944EBD7
:102030000404521BA3414FF0000348BF0A3200D5ED
:1020400030BD401C41F1000130BD00002DE9F041E0
:102050001F46044603260168072A01F4006004DBDA
:1020600008B116A505E016A503E008B115A500E026
:1020700015A521F010002060A069C01EA0610FB15D
:10208000401EA0612046FEF7D3FA4FB1D4E90121EA
:1020900038469047206A401C2062C01C206206E03F
:1020A000206AFAE7D4E9012115F8010B9047761E62
:1020B000F8D22046FEF7D2FABDE8F0814E414E003C
:1020C0006E616E00494E4600696E66002DE9F05F54
:1020D000824615468B4600270AF10104B94600786E
:1020E000302801D09DB113E014F8010B01277828A6
:1020F00003D0582801D045B10AE00DB1102D07D109
:10210000002714F8010B102502E0082500E00A253D
:102110000026B0460EE005FB080005FB06F101278E
:102120001FFA80F801EB1046B6F5803F00D3B946A0
:1021300014F8010B2946FFF7ECFC0028EBDABBF1A1
:10214000000F05D00FB1641E00E05446CBF80040EC
:10215000B9F1000F06D0FFF716F802210160C81E82
:10216000BDE8F09F48EA0640FAE700002DE9F04795
:10217000814616468AB0334878440DC88DE80D0074
:1021800030487844801C03AC0DC884E80D0041F64B
:102190009B300844372190FBF1F290FBF1F5A5F15B
:1021A000800501FB12041B3C02D56442012000E0C3
:1021B0000020DFF890A080460027FA44AAF1BE0A6A
:1021C0000DE0E00709D03246684607EB47010AEB0D
:1021D000810100F04EFF8DE8070064107F1C002C89
:1021E000EFD1184F7F44AC3F18E0E80714D007EB5D
:1021F00004100DF1180A90E80E008AE80E00C0687D
:10220000F04201D198190890324606A903A800F0BF
:1022100030FF03AB83E807006D10641C002DE4D190
:1022200032466946B8F1000F03A802D000F00DFF56
:1022300001E000F01EFFC9E90001C9F808200AB05A
:10224000BDE8F0873464010070B50D4601461446C0
:10225000D36850692A460EF0A3FD002807DA411C16
:1022600007D0E16820F0004041F48041E160281A85
:1022700070BD2046FFF794FC4FF0FF3070BDC16881
:102280000022026021F4805141F0400111F4C06F3E
:10229000C16001D08260704702694168891AC269D1
:1022A000891A816070472DE9F0470446C06840F400
:1022B0008000E060010312D520F40020E060810678
:1022C00006D4E26A61688A4200D80A46511A21603F
:1022D00040F40010E06094F82500BDE8F08720F499
:1022E0000010E060800602D52046FFF7B0FCE068F1
:1022F00042F281014FF0FF390140012903D020460D
:10230000FFF74EFCB6E02168002600290ADAC9432F
:1023100040F480502160C4E902606068411C616043
:102320000078DAE744F2400108420CD020F4A040E3
:1023300040F040002660E06021696068401AE16971
:10234000401AA06096E0216991B9C00310D4E069F9
:10235000FEF760FF2061B0B1E06840F4006010F467
:10236000407FE06002D140F48070E06020696060EE
:10237000E068D4F814A0C1061AD5C0030ED52046D3
:10238000FFF742FC14E004F1240020610120E06129
:10239000E06820F4407040F48060E6E721696068FE
:1023A000401AA169014450460EF01CFD0028A6DB2E
:1023B000E068C0032AD56168E06A884200D8084610
:1023C0002169451AE069471B1BD02046D4F81880C4
:1023D000FFF71AFC08EB05015046C4F818800EF010
:1023E00001FD00288BDBE06840F40030E060000273
:1023F00002D5A0692844A061E1692069C91B45187C
:102400000DE02046FFF700FCE769F5E72569616804
:10241000D4E90607491BE56208446560A061E068ED
:1024200020F0100010F4C06FE06002D0204600F0F1
:1024300003FBE06840F48050C4E90260000205D567
:102440002069E06260606FF0010046E7224639468D
:102450002846FFF7F9FE411C0CD02918E16258B15B
:10246000401E2060681C6060E06840F40030E0605E
:10247000287832E7484630E765602046FFF7FFFEE0
:10248000F8E72DE9F04705460C46C86820F420100F
:1024900040F48000C860800602D50846FFF7D7FBED
:1024A000E06841F282014FF0FF390140022903D078
:1024B0002046FFF775FBB5E000F42041B1F5004F71
:1024C0000FD1C00306D56168E06A884200D808468B
:1024D000606006E02069E062606060690EF014FCF4
:1024E000A061A0680022EEB200280DDAE1688B0539
:1024F0000AD4C043A06041F490302260E06060687C
:10250000411C61600670A5E0E0689046226040F4DE
:102510000050E060206968BB60690EF001FC012793
:1025200004F12405A0B1A08910F4407F08D0E0692F
:10253000FEF770FE206118B1E06840F4006016E01C
:10254000E7612561E06820F4407040F480600EE0AF
:10255000E069FEF75FFE00282061F1D0E06840F4FA
:10256000006010F4407FE06002D140F48070E060D1
:1025700020696060E06825696FF0010AC1051FD518
:102580006168E06A884200D80846411B04D02246B0
:102590002846FFF70FFBF0BBE068010203D5E562B8
:1025A000C4E9015854E0691CE1626160E16940F4EA
:1025B0008030491EC4E9021030462E70BDE8F08715
:1025C000010202D500F480320AE06068411C6160BB
:1025D0000670E0680A2E40F48030E06006D00022E9
:1025E000E16A6068814203D90B4602E00122F7E705
:1025F0000346A7895B1B7F0503D4E7699F4200DD83
:10260000E2B1814200D80146E5620F1AC4E90158DF
:10261000002B09DD00E005E0224619462846FFF7B9
:10262000C9FA08B14846C9E747B1A069E5626560E3
:10263000C01BA061E06840F01000E060E0680002AC
:1026400008D56168A069E562491B08446560A0611E
:102650005046B3E73046B1E72DE9F04704461E4641
:1026600090460D46C7684C3081460EF00DFBB8070A
:1026700014D0780212D44046B8F5807F09D0B0F566
:10268000007F06D0B8F5806F08D1012604F124053B
:1026900006E0701E6FF07F41884201D3012409E0FB
:1026A0002561E6616560E06820F4706040EA08003A
:1026B000E060002448460EF00DFB2046BDE8F087A0
:1026C00010B500F0EDF9BDE8104000F0E3B930B509
:1026D00003461D781DB10A4603E0AC4201D1181A29
:1026E00030BD12F8014B002CF7D15B1CF1E730B57F
:1026F00003461D783DB10A4612F8014B1CB1AC42AD
:10270000FAD15B1CF5E7181A30BD0000014918200A
:10271000ABBEFEE7260002007546FDF7E3FEAE46BF
:1027200005006946534620F00700854618B020B5DD
:10273000FDF7C6FEBDE820404FF000064FF0000751
:102740004FF000084FF0000B21F00701AC46ACE859
:10275000C009ACE8C009ACE8C009ACE8C0098D46C6
:10276000704730B404468C464368002B18BF63455D
:1027700038BF1846F8D303681844604507D0C81C12
:1027800020F0070000F1040CACEB0100121A214606
:10279000CCF8002030BC00220CF10400FEF744BD50
:1027A0002DE9F04114460D46074601F14C0630462E
:1027B0000EF06AFA094B7B44224629463846FFF759
:1027C00064F90446287B000601D54FF0FF343046FB
:1027D0000EF080FA2046BDE8F081000009060100F5
:1027E0002DE9F041044617460D4602F14C008046A3
:1027F0000EF04AFA012D264616DD384610F094F9FF
:10280000411C0FD0C0B20A2804F8010B02D06D1E83
:10281000012DF2DC0020207040460EF05BFA3046BD
:10282000BDE8F081B44201D10026F5E7387B00060F
:10283000F0D50026EEE72DE9FF4F06461C468B46F5
:1028400081B003F14C0000900EF01EFABBF1000FB6
:1028500006D003992768002528460BFB01F963E0A1
:1028600000247AE0002F61DCE06948453FDABAF1E4
:10287000000F3CD0207B800601D5A06A04E0A1694E
:10288000606808442169401A2246A9EB0501804688
:102890003046FFF7D9FC002812DD8044A8F1010181
:1028A0000644A161226916F8011C00270544117035
:1028B0002169491CE1626160E16841F40031E16035
:1028C000411C03D010B1207B400642D52046FFF7C3
:1028D000D6FCC4F8188020696060E062E068276078
:1028E00020F40030E060E0694042A06018E0484514
:1028F00003DAE06840F40000E0602046FFF7D3FC14
:10290000E16821F40001E160411C08D0811C0AD07B
:102910002768002807DB6D1C06F8010B19E027600B
:10292000B5FBFBF419E00120824612E0A9EB05009B
:10293000B846B84200DA8046304642466168FEF743
:1029400017FB6168A7EB0807464401EB0800454404
:1029500060604D4586DB2760039C00980EF0BAF955
:1029600005B02046BDE8F08F2DE9F05F0E468046A9
:102970001C46924602FB06F503F14C0083460EF01E
:1029800083F916B3A768002041E0002F41DCE0691D
:10299000A8421CDAB9F1000F19D022462946404658
:1029A000FFF708F908B1A76029E0E06810F4C06FEC
:1029B00001D0002008E022696168891AE269511A91
:1029C000C003A16001D44842A060544618E0A84268
:1029D00003DAE06840F40000E060214698F8000067
:1029E000FFF74FFDE16821F40001E160411C06D0D2
:1029F000A76800280ADB6D1E08F1010818E0002412
:102A000058460EF067F92046BDE8F09F0120814648
:102A10000EE0AF423E4600DD2E464146324660683B
:102A2000FEF7A6FA6068BF1BAD1B3044B04460607F
:102A3000002DAADCA760C8E72DE9F0470746134838
:102A400081460EF021F9124C40F2022817E094F86A
:102A50005000C00710D0BC420ED004F14C052846EF
:102A60000EF012F9E66828460EF034F938EA06004E
:102A700002D12046FEF714F9206D20F00104002C4D
:102A8000E5D148460EF026F9BDE8F0876C0E00202F
:102A900060500120002801D0FFF738BE70470000C9
:102AA00010B5014602A000F01DF8012010BD000085
:102AB00053494752545245443A20526564697265FD
:102AC00063743A2063616E2774206F70656E3A20DC
:102AD0000000000010B500F01FF8BDE81040FFF73F
:102AE000D9BF704770B505460C460A2000E06D1C42
:102AF0000EF0AAF935B128780028F8D102E0641C5C
:102B00000EF0A2F914B120780028F8D1BDE8704089
:102B10000A200EF099B9000010B5012805D0002157
:102B200003A0FFF7DFFF012010BD09A1F8E70000B7
:102B300053494752544D454D3A204F7574206F66A6
:102B40002068656170206D656D6F7279000000000E
:102B50003A2048656170206D656D6F727920636FF2
:102B600072727570746564005FEA400C08BF91F082
:102B7000000F4FEA8C234FEAC12243EA51514FEA3A
:102B80001C5018BF00F5F0404FEA300018BF41F06C
:102B900000415FEA6C5C00F02980BCF1FF3F08BF98
:102BA00040F080407047130C06BF12044FF0100C29
:102BB0004FF0000C130E04BF12020CF1080C130F9F
:102BC00004BF12010CF1040C930F04BF92000CF12E
:102BD000020CD30F04BF52000CF1010C11464FF050
:102BE0000002A0F11F00A0EB0C00704711F0004F95
:102BF00008BF704731F000413FF4D5AF0B0C06BF62
:102C000009044FF0100C4FF0000C0B0E04BF09022A
:102C10000CF1080C0B0F04BF09010CF1040C8B0F15
:102C200004BF89000CF1020CCB0F04BF49000CF16A
:102C3000010CCCF12003A0EB0C0022FA03F302FA02
:102C40000CF241EA030100F10100704720F07F4CD3
:102C500080EA030023F07F47ACEB070303F57C53C6
:102C600000F0004003F1FF032DE980494FEA154BC6
:102C700009B44FEA144325EA0B4E24EA03480FF245
:102C8000042606EB132749083E785FEA320203FB6D
:102C90000667C7F5000707FB06F64FEA54374FEA09
:102CA000D64606F1020607FB066CCCF1005C4FEA43
:102CB0001C472CEA074C07FB06F40CFB06F504EB5B
:102CC00015464FEA961634BF00204FF000404FEAF9
:102CD000D13706FB07FC4FEA1C4C0CFB0BF7D21B51
:102CE00003FB0CF761EB07010CFB0EF7B0EB0740A1
:102CF00072EB17420CFB08F734BFA2EB0742B2EBB2
:102D0000074261EB17414FEA0C444FEA910706FB7B
:102D100007FC4FEA1C4C0CFB0BF7B0EBC74072EB07
:102D2000573203FB0CF734BFA2EBC742B2EBC742EA
:102D300061EB57310CFB0EF7B0EBC70072EB57722B
:102D40000CFB08F734BFA2EBC702B2EBC70261EB82
:102D50005771039F4FEA816141EA921104EBCC0461
:102D60004FEAD1374FEA826206FB07FC42EA901233
:102D70004FEA80604FEA1C4C0CFB0BF7D21B03FBA5
:102D80000CF761EB07010CFB0EF7B0EB074072EBA1
:102D900017420CFB08F734BFA2EB0742B2EB074225
:102DA00061EB17414FEA8C554FEA910704EB9C24E5
:102DB00006FB07FC4FEA1C4C0CFB0BF7B0EBC740C3
:102DC00072EB573203FB0CF734BFA2EBC742B2EBF6
:102DD000C74261EB57310CFB0EF7B0EBC70072EB4B
:102DE00057720CFB08F734BFA2EBC702B2EBC70265
:102DF00061EB577115EB4C254FEA816141EA921165
:102E00004FEA82624FEAD13742EA901206FB07FC92
:102E100044F100044FEA80604FEA1C4C0CFB0BF7B6
:102E2000D21B03FB0CF761EB07010CFB0EF7B0EBB9
:102E3000074072EB17420CFB08F734BFA2EB0742C6
:102E4000B2EB074261EB174115EB1C154FEA8131DC
:102E500041EA92414FEA823242EA90424FEA8030A0
:102E60004FEA0C7644F1000448EA03434EEA0B486B
:102E70004FF0000EB2EB080C71EB030724BF624663
:102E800039464EEB0E0E4FF0000B001852414941EF
:102E90004BEB0B0BB2EB080C71EB03077BF1000B58
:102EA00024BF624639464EEB0E0E4FF0000B001861
:102EB000524149414BEB0B0BB2EB080C71EB030792
:102EC0007BF1000B24BF624639464EEB0E0E51EAF1
:102ED000020718BF46F0010616EB0E7655F1000208
:102EE00054F1000103D5BDE88901BDE80088BDE8C3
:102EF0008901BDE80048B619524141EB0101A3F137
:102F00000103704780807F7E7D7C7B7A797877763D
:102F100076757473727171706F6E6E6D6C6C6B6AB6
:102F20006A69686867666665646463636261616054
:102F3000605F5F5E5E5D5D5C5C5B5B5A5A595958D1
:102F4000585757565655555554545353525252513B
:102F5000515050504F4F4F4E4E4D4D4D4C4C4C4B91
:102F60004B4B4A4A4A4949494848484747474746D8
:102F70004646454545444444444343434342424214
:102F800042414141002B26D4770021D01CB54FEAA5
:102F9000370703B44FF010004FF010014FF000005E
:102FA0000FBCBDE810400BF1010BBBF1010F08BFD6
:102FB0005FEA170722BF12F1010211F101014FF080
:102FC000004143F1000300F0004043EA0000704775
:102FD000F9D35708DAE746EA064613F1400F4FEAFD
:102FE00016461FDD13F1200FDFBF16430A460021EE
:102FF00020335B42C8D0C3F1200746EA064602FAF6
:1030000007F74FEA164646EA0706C3F1200722FAF9
:1030100003F201FA07F721FA03F14FF0000342EA45
:103020000702B1E746EA020646EA06464FEA1646B6
:1030300046EA0106BCBF46EA0646360C4FF00003DE
:103040004FF000024FF000019EE72DE9C048934683
:1030500030B491E8380007C831EA400C48BF34EA80
:10306000430C03D5FFF7F2FDFFF78CFFF0BCBDE882
:1030700000882DE9C048934630B491E8380007C86D
:1030800010F0804F08BF13F0804F03D100F005F817
:10309000FFF778FFF0BCBDE8008820F07F4780EAAA
:1030A000030023F07F4C07EB0C03A3F57C5300F0E7
:1030B0000040A3F1FE0392F0000F00F0B38095F002
:1030C000000F00F077802DE901494FEA11404FEAE7
:1030D000144621EA004800FB06FC24EA064708FBE8
:1030E00006F607FB08F800FB07F718EB06484CEB61
:1030F000164C4FEA124B18EB07484FEA15464CEBBB
:10310000174022EA0B4E0BFB06FC25EA06470EFB96
:1031100006F607FB0EFE0BFB07F71EEB064E4CEB0D
:10312000164C4FF000061EEB074E4CEB174B18EBFE
:103130000B0840F1000018EB0E0B58EB000840F1B3
:1031400000008F1A4FF000013CBFC943661B14BF3B
:10315000B5EB040C00213CBFC943F61B4FEA1744F2
:103160004EEA8E0E27EA04454FEA1C4704FB07622D
:103170002CEA074C05FB07F70CFB05F604FB0CFCDF
:1031800016EB074642EB174216EB0C4642EB1C428D
:103190001BEB060658EB0202414146EA9E0601D5AA
:1031A000BDE80189B619524141EB0101A3F10103C8
:1031B000BDE801894FEA14454FEA114724EA054664
:1031C00021EA074C05FB07F406FB07F70CFB06F1A9
:1031D00005FB0CFC11EB074144EB17444FEA124787
:1031E00011EB0C4144EB1C4422EA074C05FB07F2AF
:1031F00006FB07F70CFB06F605FB0CFC16EB074677
:1032000042EB174216EB0C4642EB1C456A1854F190
:10321000000148BF7047B619524141EB0101A3F1CB
:103220000103704795F0000F37D04FEA11424FEA83
:10323000144721EA024624EA074C02FB07F106FB89
:1032400007F70CFB06F402FB0CFC14EB074441EB04
:1032500017414FEA154714EB0C4441EB1C4125EA9A
:10326000074C02FB07F506FB07F70CFB06F602FB13
:103270000CFC16EB074645EB174516EB0C4645EBE9
:103280001C42121951F1000148BF7047B619524152
:1032900041EB0101A3F1010370474FEA14454FEAE6
:1032A000114724EA054621EA074C05FB07F106FB16
:1032B00007F70CFB06F24FF0000605FB0CFC12EBC7
:1032C000074241EB174112EB0C4251EB1C4148BF46
:1032D0007047921841EB0101A3F101037047000010
:1032E000000000002DE9F0411A4E307D4FF0FF370D
:1032F000400702D43846BDE8F081DFF85C80002446
:10330000D8F80050C8F8004013481038016821F080
:10331000090101600F48C03802F085FC00B13C464D
:103320000C48603802F07FFC00B13C460A490A486C
:1033300044310C3002680AB10A68FBE7706806493C
:1033400020F0C9007060091F04480860C8F80050E8
:103350002046D0E7A03801203C2C0140FF07400068
:1033600010B5074904460020487088702046FDF7D4
:10337000E0FD0146034842692046BDE81040104781
:103380003C0A0020207F020801A0FDF727B90000B9
:103390004552524F523A20427573206661756C74E3
:1033A00021000000014802F021B90000D4B2002041
:1033B000014802F01BB90000D4B20020014802F01D
:1033C00015B90000D4B20020014802F00FB9000086
:1033D000D4B2002038B505460A4604208DF8000016
:1033E0003149104605F0D8FB2F4C083C052847D042
:1033F00006DC052811D2DFE800F0111B252F39006B
:10340000062847D0072808D1274A6B4638320221C0
:10341000284600F0C7F8A06CA06638BD224A6B466B
:1034200028320221284600F0BDF8206BE06538BD47
:103430001D4A6B4610320221284600F0B3F8A069FD
:10344000206538BD184A6B4618320221284600F024
:10345000A9F8206A606538BD134A6B462032022104
:10346000284600F09FF8A06AA06538BD0E4A6B465A
:1034700008320221284600F095F82069E06438BD42
:10348000094A6B4630320221284600F08BF8A06BC7
:10349000206638BD044A6B4638320221284600F0C7
:1034A00081F8206C606638BD0C00002070B50423E4
:1034B0003B4C0D46052859D006DC052814D2DFE820
:1034C00000F014212E3B480006285CD007280BD1C1
:1034D000A16CA06E884207D0314A022148322846AA
:1034E00000F096F8A06CA06670BD216BE06D88427C
:1034F000FAD02B4A02213032284600F089F8206B9E
:10350000E06570BDA169206D8842FAD0244A02218D
:103510001832284600F07CF8A069206570BD216A49
:10352000606D8842FAD01E4A02212032284600F0FF
:103530006FF8206A606570BDA16AA06D8842FAD0FC
:10354000174A02212832284600F062F8A06AA065D6
:1035500070BD2169E06C8842FAD0114A0221103214
:10356000284600F055F82069E06470BDA16B206E1C
:103570008842FAD00A4A02213832284600F048F838
:10358000A06B206670BD216C606E8842FAD0044A40
:1035900002214032284600F03BF8206C606670BD86
:1035A0000400002070B51C4615460346174A01F07A
:1035B0003F01002041EA0321C2E900010421C2E9E0
:1035C000021010611148227829461430FDF7D0FC12
:1035D0000E486421403802F065FA48B9642002F0D0
:1035E0001FFD0A4864220021403802F0B9F908B1F1
:1035F000002070BD05481C3000F11401027C2270CF
:103600002846FDF7B5FC012070BD000014B3002072
:1036100070B51D4601F03F0113460E4C41EA0020F3
:10362000002240F08000C4E900200420C4E9020226
:103630002A46194604F11400FDF79AFC0521A4F16D
:103640004000256102F02EFA08B1002070BD012073
:1036500070BD000014B3002010B54FF4D872036899
:1036600002EB01129B5813F00404436B9C60046846
:10367000436BA45854D0E4085C6003689A58436BC9
:1036800002F00202DA604FF4DA72036802EB011210
:103690009B58446B03F00F03236103689A58436BF4
:1036A000C2F30722DA614FF4DC72036802EB011205
:1036B0009B58446B237503689B58446B1B0A6375C6
:1036C00003689B58446B1B0CA37503689A58436BA3
:1036D000120EDA754FF4DE72036802EB01129B588A
:1036E000446B237603689B58446B1B0A637603681C
:1036F0009B58446B1B0CA37603689A58436B120EBD
:10370000DA762022002901680DD00A6101684A6931
:1037100022F010024A6190F83810222909D021E0E5
:10372000640D1C60A9E7CA6001684A6922F00202C0
:10373000F0E701684A6922F480724A6101684A69C7
:1037400022F400724A6101684A6922F480624A6187
:1037500001684A6922F400624A6101684A6922F4F8
:1037600000424A6190F83810322906D0012180F8D1
:10377000381002F095F9002010BD1221F7E710B5BE
:1037800001684A6922F001024A6190F83810122952
:1037900018D101684A6922F480724A6101684A6955
:1037A00022F400724A6101684A6922F480624A6127
:1037B00001684A6922F400624A6101684A6922F498
:1037C00000424A6190F83810322906D0012180F871
:1037D000381002F027FA002010BD2221F7E7000080
:1037E0002DE9F74F054600884D4986B0144631F85B
:1037F0001000ADF8080028881631022A31F81000B0
:10380000ADF8040005D10A20ADF808006420ADF839
:103810000400DFF80CB1BDF808102A8880B20BF163
:103820002C0B411A3BF812004FF00108401E91FB8F
:10383000F0F03C4E1FFA80FAADF80C80032C5AD001
:103840000BF1F2000090142303AA01A902A807F0CB
:10385000F5FD04EB440101EBC40706EB4704BDF89A
:103860000C002082BDF80420BDF808104FF00009BC
:10387000521A92FBF0F0608284F814900798008846
:10388000411A91FBFAF081B2484610F0FBFB2A88FE
:103890003BF81210491E89B211F007FC0146288836
:1038A0001423401E00EB400202EBC00008440BF161
:1038B000160103AA31F8100026F81700ADF8100021
:1038C00001F1DC00ADF814900090ADF80C8004A973
:1038D00005A807F0B3FDBDF80C00A08136F817105D
:1038E000BDF81420891A91FBF0F0E08184F815905E
:1038F00009B0BDE8F08FA6F84E800721A6F8501059
:103900000621A6F844100C2126F8421F1120A6F823
:10391000108070821220F0802320B080E8E7000041
:103920009A080020821100203FB50120ADF80C005C
:103930000D4602EB420000EBC2011348142300EBDA
:10394000410403AAE088ADF80800A088ADF804009F
:103950000E48009001A902A807F070FDBDF80C0008
:103960002082BDF80410BDF80820891A91FBF0F1FF
:103970006182002121752988B1FBF0F10448C180E2
:10398000298881813FBD000082110020B8090020F4
:10399000D00E0020FFB50120ADF8040002EB42007C
:1039A00000EBC205144F0E4607EB450437F815002F
:1039B000ADF80C006088ADF80800104800901423A2
:1039C00001AA03A902A807F039FDBDF8041008B246
:1039D000A08137F81520BDF80830D21A92FBF1F11A
:1039E000E18100216175318891FBF0F1044801818A
:1039F0003188C181FFBD000082110020B80900207C
:103A0000D00E00202D4800242D4D04702D482C7020
:103A10002D4E047001220421304602F04CFD2BA0F3
:103A200008F0FAFC182201210A200BF05FFF411C6C
:103A30000DD018280BD100220421304602F03BFDA6
:103A400025483115006811F0C1FD01202870234878
:103A50000178002915D0047021A008F0DDFC25A014
:103A600008F0DAFC2BA008F0D7FC32A008F0D4FC58
:103A700036A008F0D1FC3CA008F0CEFC13A0FFF764
:103A80006FFC3B4C4FF47A752946606911F0FCFCE1
:103A9000402802D0102803D00CE00CF0A7F909E070
:103AA000012902D0022905D102E00CF0A5FA01E0BB
:103AB0000CF0CAF811F0C4FDE6E700007C0A002013
:103AC000D2000020D10000200018024041542B43B6
:103AD00046554E3D310D0A00D80900203F0A00200E
:103AE00041542B532E535349445458543D200D0AEE
:103AF0000000000041542B532E534346473D776945
:103B000066695F7770615F70736B5F746578742C42
:103B1000200D0A0041542B532E534346473D7769ED
:103B200066695F707269765F6D6F64652C320D0A2D
:103B30000000000041542B532E534346473D776904
:103B400066695F6D6F64652C310D0A0041542B531B
:103B50002E534346473D69705F7573655F646863C4
:103B6000702C310D0A000000415426570D0A000048
:103B7000EC0900200448007D800702D44FF0FF309C
:103B800070476FF003007047A038012010B54FF464
:103B90000041044802F08AFC08B1002010BD012059
:103BA00010BD0000000802401449052889681CD097
:103BB00006DC052808D2DFE800F0090C0F1215001A
:103BC000062815D0072816D000207047C1F3001032
:103BD0007047C1F340007047C1F380007047C1F3E4
:103BE000C000704701F001007047C1F340107047FA
:103BF000C1F380107047C1F3C0107047040000206B
:103C00002DE9F04F044603EB430000EBC307774870
:103C10000E464FF0000B87B09246D9460A214FF06E
:103C2000010800EB47053BB10622012B0FD0022B08
:103C300012D0032B1DD117E06C484246A0F80A8031
:103C4000A0F808802088012828D0228021E0674839
:103C5000A0F82080C2830CE0644800F12C02A0F898
:103C600036800320108104E06048A0F84C20A0F8C2
:103C70004A1022886889824202D220804FF0010BCC
:103C800022882889824201D9208002E0BBF1000FFE
:103C900004D0574822884FF0010982802088554A75
:103CA000DFF850C132F81000ADF8080022880CF19E
:103CB000160C3CF81220ADF80420121A4D48B4F846
:103CC00000C02C3030F81C00401E92FBF0F01FFAB0
:103CD00080FB022B04D16420ADF80810ADF804007D
:103CE0003288BDF8081000208A4201D231800120BC
:103CF0003288BDF804108A4201D9318000E0F8B161
:103D00003D480090ADF80C80142303AA01A902A835
:103D100007F094FBBDF80C002882BDF80410BDF834
:103D200008204FF001098B1A93FBF0F36B82EA80B5
:103D3000A9803188B1FBF0F12D48C18031888181A3
:103D40003088BDF80810411A91FBFBF081B20020C9
:103D500010F098F9274922882C3131F81210491EA9
:103D600089B211F0A2F901462088204C401E00EBD8
:103D7000400202EBC00008441E49423131F81000F5
:103D800024F81700BAF8001081422BD9AAF80000D5
:103D9000ADF80C8034F81700ADF810000026ADF82F
:103DA000146015480090142303AA04A905A807F07D
:103DB00045FBBDF80C004FF0010901B2A98134F8B0
:103DC0001720B2FBF0F0E8816E80BDF8100024F8F7
:103DD0001700BAF8000090FBF1F105480181BAF82C
:103DE0000010C18107B04846BDE8F08F8211002065
:103DF000D00E00209A080020B8090020F0B5234B0F
:103E000006240A25A3F84C40A3F84A500588062D3D
:103E100001D225460480AEB2B3F84A50AE4200D972
:103E200005801B4D00880D26A88010880D2801D91B
:103E3000168002E0062800D214800120A3F84E006C
:103E40000727A3F85070A3F8444023F8426F148862
:103E500094FBF0F42C811488EC8112884FF4B46444
:103E600062434FF4FA74B2FBF4F20A801882112212
:103E70005A821222DA8023229A800A88B2FBF0F05A
:103E8000E8800888A8810120F0BD00008211002090
:103E9000D00E002030B5494B85B004461A7D9207FC
:103EA00003D44FF0FF3005B030BD454A6FF003003A
:103EB0000E2CF8D2DFE804F0070829314507075A2D
:103EC000070763076670EEE73E480844B0FBF1F071
:103ED000022801D2002003E0801EFF2800D9FF2025
:103EE000116840F2FF44A143014341F48071116025
:103EF0003449491C801CB1FBF0F0B421491EFDD1AE
:103F0000197D41F004011975CDE711B10129CAD11C
:103F100051E0106820F400502FE019B10129C2D1FE
:103F2000122000E002200421CDE9001001200290BF
:103F3000032003900C2004906946234802F0D0F936
:103F400039E049B101290BD00229ACD1106820F425
:103F5000C05040F4805010E0106820F4C0500CE0D5
:103F6000106820F4C05040F4006006E0106811B101
:103F700020F4007001E040F4007010601BE0104875
:103F8000203017E0586820F0400058600C48383066
:103F9000016841F480010DE0187D19B140F0800006
:103FA000187508E020F08000187505482830016871
:103FB00021F400710160002075E70000A0380120A5
:103FC000042C0140FF6BDC02000C024010B52448B9
:103FD00092B00024016841F00101016000681421E1
:103FE00000F00100119007A8FDF763F8202007906A
:103FF0000220CDE908040120CDE90A4007A91948AB
:1040000002F06EF914210CA8FDF753F84AF21040A3
:104010000E900320CDE90C040F941C2168461094E7
:10402000FDF747F87020CDE90004029404200E4CFF
:10403000049014220CA9201DFCF7DFFF4FF08040F4
:104040002060204603F016FC00226946204603F05B
:104050009DFB0021204603F029FC12B010BD00009A
:104060004038024000000240982700200449002008
:10407000087004494AF2104009684863704700001C
:104080009E000020982700200149012008707047F9
:104090009E000020C0EB0010C0EBC0004FF6FF7187
:1040A00001EA80004AF21041884200D90846081A05
:1040B000014909684863704798270020F8B54FF414
:1040C0007066002414226946304607F07DFB654D7A
:1040D0000220298811F086FA40287DD02988012005
:1040E00011F080FA402877D014225F4800990DF033
:1040F00021FA5E48F2EE042A5B4B90ED000A5988E3
:1041000020EE220ABCEEC00A10EE100A80B28142F4
:1041100003D010EE100A0124588055481988D0EDBC
:10412000000A20EEA20ABCEEC00A10EE100A80B20D
:10413000814203D010EE100A012418804D4899885E
:1041400090ED001A21EE220ABCEEC00A10EE100A11
:1041500080B2814203D010EE100A012498804648B4
:10416000D98890ED000A20EE220ABCEEC00A10EEBB
:10417000100A80B2814203D010EE100A0124D880C8
:104180003E481989D0ED001A21EEA20ABCEEC00A01
:1041900010EE100A80B2814203D010EE100A012402
:1041A00018813748598990ED002A22EE220ABCEE88
:1041B000C00A10EE100A80B2814203D010EE100A3D
:1041C000012458812F4890ED000AB4EEE10AF1EE87
:1041D00010FA02D2012201E042E00022198A914243
:1041E00001D01A82012490ED000AB4EEC20AF1EE69
:1041F00010FA01DB012000E00020598A814201D041
:1042000058820124204F97ED000AB4EEC10AF1EE66
:1042100010FA01DD012100E00021B3F80EC08C4549
:1042200001D0D981012452B948B141B197ED000ABA
:10423000B4EEE00AF1EE10FA01D2012000E0002015
:104240009989814201D0988101E0002C08D0142284
:10425000054930460CF090F92988022011F0C2F986
:10426000F8BD0000700000206E11002080000020CA
:104270007C0000208400002088000020A000002096
:10428000A4000020BC000020B800002070B50F4C36
:104290000D4D226A0DE0C2F30D02AA5C0A2A0DD070
:1042A0000D2A0BD00B885E1C0E80C254226A521C51
:1042B0002262636A9A42EED3002070BD206A401CDD
:1042C0002062012070BD0000B84F00203C0A002091
:1042D00010B53A2002F0B0FCBDE81040014801F0F2
:1042E00027BD0000B839012010B53B2002F0A4FC26
:1042F000BDE81040014801F01BBD0000E03701207F
:1043000010B5452002F098FCBDE81040014801F0CE
:104310000FBD00004038012010B5462002F08CFC93
:10432000BDE81040014801F003BD000058390120EC
:1043300001681823CAB2103AB2FBF3F2054B6FF3CF
:104340000901032A9B5CC36500D9091D81650846E4
:1043500070470000BF7F020810B5014600208B693E
:104360008A6A4FF0C07453B1B3F5005F15D072B1D3
:10437000012A0CD0022A0AD0032A09D104E01AB17A
:10438000012A06D0022A03D1C96AC90100D5012039
:1043900010BDC96AA142FAD010BD002AF7D0012A87
:1043A000F2D0022AF3D0032AF3D010BD30B504684E
:1043B000256825F480252560046863608368402BA8
:1043C000036803D099600068C26030BD9A600068DD
:1043D000C16030BD104910B5002008700F4C20217D
:1043E0000F48A2699047626920210E4890474FF418
:1043F0007A7109480BF064FA00201021084ACB02B8
:10440000545CFF2C05D04008491CC9B22029F7D3C1
:1044100010BD43EA5000F7E7110A0020587F020858
:1044200000270020E07B02087CB51D4C0025F02011
:104430008DF800508DF80400A26A4FF41651012047
:1044400090470121A26A152090470121A26A1620F7
:104450009047012001F0E4FD1248057062690121D6
:1044600001A89047A2690121684690474FF47A71EC
:104470000C480BF025FAA26A4FF4E1310120904775
:104480000121A26A152090470121A26A16209047B7
:104490009DF80000F02801D001207CBD00207CBDEB
:1044A000587F0208110A0020094910B50020087041
:1044B000084C1021084862699047A26910210748FA
:1044C0009047BDE810404FF47A7101480BF0F8B9FD
:1044D000110A0020587F0208D07B02080027002024
:1044E0000122084908280CD004DC012809D0022840
:1044F00007D105E0102803D0202801D0402800D1A2
:104500000A707047110A0020704700000D480178BA
:10451000002915D101210C4A0170002010600B4ABE
:1045200010800B4A11700B490A6850620868C26813
:1045300042F00102C26001220868002109F080BB3C
:1045400070470000D3000020DC000020D8000020CD
:10455000100A00200C1E002070B5214801780029A7
:104560003DD101211F4A0170002010601E4A204DDC
:1045700010801E4A117029684862A5F13C04216828
:1045800048620146284603F091F92868C16841F065
:104590000101C1602068C16841F00101C16020686B
:1045A000C16841F00201C16012483C35007888B111
:1045B00009F022F940F634002968C862E8600C4826
:1045C0003C3002F094FF2068BDE8704001220021D9
:1045D00009F036BB09F010F941F26800ECE770BD54
:1045E000D3000020DC000020D8000020100A0020AA
:1045F000481E002098080020164810B501780029B0
:1046000027D00021017014490120087000211348AF
:1046100003F068F9114C00223C3C1146206809F077
:104620000FFB2068016A41F21112114207D1016AA1
:104630009210114203D1016821F0010101600022B2
:104640004FF40061064801F036FFBDE8104009F064
:10465000C1B810BDD3000020100A0020481E002061
:10466000000402400B4910B5002008700A49087088
:10467000FFF7C2FF642010F091FE00224FF480414A
:10468000064801F018FF642010F088FEBDE81040D5
:10469000FFF7ECBCE8000020D50000200014024029
:1046A000012001F011BE10B54FF4005001F00CFED6
:1046B0004FF4804001F008FEBDE810404FF4004088
:1046C00001F002BE022001F0FFBD082001F0FCBD98
:1046D000102001F0F9BD0000324A08B5324990427D
:1046E00007D1086840F001000860086800F0010088
:1046F00009E02E4A904208D1086840F002000860A4
:10470000086800F00200009008BD294A904207D1D5
:10471000086840F004000860086800F00400F2E750
:10472000244A904207D1086840F0080008600868F1
:1047300000F00800E7E7204A904207D1086840F0FF
:1047400010000860086800F01000DCE71B4A904287
:1047500007D1086840F020000860086800F02000D9
:10476000D1E7174A904207D1086840F0400008603E
:10477000086800F04000C6E7124A904207D1086876
:1047800040F080000860086800F08000BBE70E4A37
:104790009042B9D1086840F480700860086800F45D
:1047A0008070B0E700000240303802400004024050
:1047B00000080240000C02400010024000140240B9
:1047C00000180240001C024000200240324A08B596
:1047D0003249904207D1086840F00100086008683B
:1047E00000F0010009E02E4A904208D1086840F02C
:1047F00002000860086800F00200009008BD294A25
:10480000904207D1086840F004000860086800F092
:104810000400F2E7244A904207D1086840F00800FB
:104820000860086800F00800E7E7204A904207D1D6
:10483000086840F010000860086800F01000DCE72D
:104840001B4A904207D1086840F0200008600868C1
:1048500000F02000D1E7174A904207D1086840F0E5
:1048600040000860086800F04000C6E7124A904225
:1048700007D1086840F080000860086800F08000F8
:10488000BBE70E4A9042B9D1086840F480700860D6
:10489000086800F48070B0E7000002403038024041
:1048A0000004024000080240000C024000100240D8
:1048B0000014024000180240001C02400020024088
:1048C000324A08B53249904207D10A6842F00102E3
:1048D0000A600A6802F0010200922E4A904207D153
:1048E0000A6842F002020A600A6802F002020092BC
:1048F000294A904207D10A6842F004020A600A6815
:1049000002F004020092254A904207D10A6842F060
:1049100008020A600A6802F008020092204A9042E7
:1049200007D10A6842F010020A600A6802F0100219
:1049300000921C4A904207D10A6842F020020A60A5
:104940000A6802F020020092174A904207D10A68D2
:1049500042F040020A600A6802F040020092134AE4
:10496000904207D10A6842F080020A600A6802F0A9
:10497000800200920E4A904207D1086840F480708D
:104980000860086800F48070009008BD00000240D4
:10499000303802400004024000080240000C02408F
:1049A000001002400014024000180240001C0240A7
:1049B00000200240002229B101291FD0022920D065
:1049C0004FF4407210490B6823F440730B600B687E
:1049D00013430B600A6822F0F8020A600A68F823A1
:1049E00093FAA3F3B3FA83F3984040F00200024332
:1049F0000A60086840F48030086070474FF48072A5
:104A0000E0E74FF40072DDE7103C02401348016814
:104A100089050FD5016821F400710160016841F436
:104A200000610160016821F400610160016841F4E6
:104A300000710160016849050FD5016821F48061AA
:104A40000160016841F480510160016821F48051E6
:104A50000160016841F4806101607047003C0240E0
:104A600008490A6822F440720A600A6842F00402A7
:104A70000A600A684FF4803343EA002002430A6068
:104A800070470000103C02401F490868C043C2063E
:104A90001E4805D4C26942F01002C26110220A60A9
:104AA0000A68D243920605D4C26942F00802C26184
:104AB00020220A600A68D243520605D4C26942F035
:104AC0000402C26140220A600A68D243120605D479
:104AD000C26942F00202C26180220A600A68D243BF
:104AE000D20506D4C26942F00102C2614FF480725D
:104AF0000A600A68D243920705D4C26942F02002D4
:104B0000C2610220086070470C3C0240183A012044
:104B100070B5134904460020C86101F0D7FC054672
:104B2000104E09E0601C07D024B101F0CFFC401BFF
:104B3000A04201D9032070BD3068C043C003F1D545
:104B40003068C00701D00120306031684FF4F9703F
:104B5000884301D0002070BDFFF796FF012070BD93
:104B6000183A01200C3C024010B526488AB00024B7
:104B7000016841F004010160006800F00400009049
:104B80002048001D016841F0020101600068142105
:104B900000F00200009001A8FCF78BFA42F21070BE
:104BA0000194CDE9030402944FF40050CDE90604CA
:104BB0000720CDE908400594134C142201A9201DBB
:104BC000FCF71BFA11482060204602F067FC06A99A
:104BD000204602F0AEFC204602F07CFC3C3414225D
:104BE00001A9201DFCF709FA09482060204602F0BF
:104BF00055FC06A9204602F09CFC204602F06AFC07
:104C00000AB010BD403802402027002000040140B7
:104C10000008004010B54938062836D800F0D4FB0B
:104C200010B91A490020087019481B4C90ED000A71
:104C30001848D0ED000AB4EEE00AF1EE10FA05DDF6
:104C40000BF032FD2188522007F08EFF134890EDC3
:104C5000000A1348D0ED000AB4EEE00AF1EE10FAB3
:104C600005D20BF021FD2188512007F07DFF0221A4
:104C70000C4801F01BFC002807D10BF015FD218822
:104C8000BDE81040532007F06FBF10BDCC000020DE
:104C9000B80000208800002070000020BC00002028
:104CA000A00000200014024070B50021084607F063
:104CB000C5FE164C01210025A1804FF47A71B0FB8E
:104CC000F1F22581A281B0FBF1F201FB120000F5A7
:104CD0007A70E08165800E4E25806584307800F022
:104CE0009DFB2061307800F0C3FB60612583658304
:104CF000A583E58321464FF480700BF0C3FB054884
:104D00000188BDE87040022010F06CBC2A0F002022
:104D100007000020700000202DE9F84F814605466D
:104D20006B480024007808F0B9FB6A4E24226946DB
:104D3000B6F808A077884FF4807006F045FDDFF8DC
:104D400098810220B8F8001010F04CFC40286ED07A
:104D5000B8F80010012010F045FC402867D030461C
:104D600000990CF03DFC5E49B6F800B05B48086065
:104D70005C49012008807188B94200D00124308943
:104D800007F05CFE07467088574920B1012808D01B
:104D9000022849D009E0B288C88804E0B080012424
:104DA00003E0B28808898242F8D8B08800EE100A81
:104DB000B8EE400A07F086FFB08800EE100A4B48B4
:104DC000B8EE400A80ED000A4FF47A70B7FBF0F1BC
:104DD000B181B7FBF0F100FB117000F57A70F08142
:104DE0003189514500D0012400220421404801F0BE
:104DF00062FB00273780FFF747F9308BDFF8F4A01C
:104E000000B3012204213A4801F055FB012251036D
:104E10005446504601F04FFB01203080C10320462C
:104E200001F044FB20B10CE0B2884889BBE74DE0BB
:104E300003203080304837834B2590ED000A07F07F
:104E40005FFD0124308CC0B12C483784077004F01A
:104E5000EFFA00224FF40051504601F02CFB0022E3
:104E60002021234801F027FB9FED250A07F048FD8C
:104E700037804925012408F061FD3188594500D06B
:104E80000124134F387800F0C9FA3169884209D0FB
:104E9000387800F0C3FA3061387800F0E9FA7061D0
:104EA000012400E04CB10B494FF480700BF0EAFA9A
:104EB000B8F80010022010F095FBA94506D0002C90
:104EC00004D0B8F80010284607F04EFEBDE8F88F71
:104ED000070000202A0F00207000002040420F0031
:104EE000E0000020DA000020EA000020900000200E
:104EF0000014024000080240D8070020D40000201F
:104F0000000000002DE9F843064604464FF480787F
:104F1000002524226946404606F056FC204F022018
:104F2000398810F05FFB40282AD03988012010F022
:104F300059FB402824D01B4800990CF051FB512EFE
:104F400002D0522E14D11DE0174890ED000A1748E8
:104F5000D0ED000AB4EEE00AF1EE10FA1DDC0125F6
:104F6000104940460BF08EFA3988022010F03AFBC7
:104F7000A64205D0002D03D03988204607F0F4FD65
:104F8000BDE8F8830A4890ED000A0A48D0ED000A0F
:104F9000B4EEE00AF1EE10FAE1D24B24DFE70000B4
:104FA000700000202A0F0020BC000020A400002078
:104FB000B80000208C00002010B549380A2812D80B
:104FC00009490020088348838883C8834FF4807090
:104FD0000BF058FA05480188022010F003FBBDE8E9
:104FE00010400BF061BB10BD060F002070000020C8
:104FF0002DE9F04F06462DED028B83B005460024C7
:10500000242269464FF4807006F0DEFBDFF85CB2C4
:105010000220BBF8001010F0E5FADFF854920027E8
:10502000DFF850A2DFF8508240281FD0BBF80010F4
:10503000012010F0D7FA402818D0904800990CF0C1
:10504000CFFAC9F80070DFF83492B9F80000019087
:10505000322010F0A3F901220421504601F02BFA6E
:10506000A6F14A00052839D8012238E0D9F8000015
:10507000401CC9F8000002282BDD8148C9F80070E7
:10508000077088F8007004F0D3F9642010F086F9F6
:10509000002220215446504601F00DFA642010F001
:1050A0007DF900224FF40051764801F004FA6420A3
:1050B00010F074F900220421204601F0FCF908F0F8
:1050C0009BFB71484AF210410268D162C16002F054
:1050D0000EFA03B0BDEC028BBDE8F08F00224FF456
:1050E0000051684801F0E7F9A6F14D00022801D807
:1050F000012200E0002220215E4801F0DCF94F2E61
:105100000ED088F80070B9F81A00022128B14D2598
:10511000A9F80010A9F81A7001244D2E04D00FE050
:10512000012188F80010EEE7A9F80010102151487D
:1051300001F0BCF920B903214E25A9F80010012483
:10514000B9F81C00DFF844A1B8B19AF8000000F0EB
:1051500065F94F4991ED001A4E49D1ED000A4E49CB
:1051600091ED000A0EF074FBA9F81C7001220821D1
:105170004A4801F0A0F94F250124B9F81E009FED1F
:10518000488A28B39AF8000000F048F90EF090FB26
:105190004C46A9F81E7000220821404801F08BF906
:1051A00088F8007004F044F900224FF400513548AB
:1051B00001F081F9002220212E4801F07CF9B0EEA7
:1051C000480A07F09DFB27804925012408F0B6FB1B
:1051D000B9F82000D0B1A9F820704C4688F80070CA
:1051E00004F026F900224FF40051264801F063F93B
:1051F000002220211F4801F05EF9B0EE480A07F0B6
:105200007FFB27804925012408F098FBB9F800109E
:1052100001984F46814200D001249AF8000000F026
:10522000FDF8396988420BD054469AF8000000F026
:10523000F5F83861207800F01BF97861012400E06E
:105240004CB10E494FF480700BF01CF9BBF8001004
:10525000022010F0C7F9AE423FF43BAF002CFBD068
:10526000BBF80010284607F07FFC32E770000020F2
:105270009408002000140240D40000202A0F0020CF
:10528000E800002000080240841E002007000020E3
:1052900098000020940000209000002000000240B0
:1052A000000000000148406870470000947D02083B
:1052B00010B5044607E00CA10D48FBF7E5FD0DA174
:1052C000FBF71EFF40B12146202010F08BF940284B
:1052D000F1D14FF0FF3010BD03A10020FBF7D4FD4A
:1052E000FBF7BAFB00B210BD203A0A0D0000000027
:1052F00038900020444154414C454E0038B50C468E
:10530000054610226946202006F022FA294602208E
:1053100010F068F9402828D02946012010F062F9E1
:10532000402822D0009880790BF088FEA071009868
:1053300040790BF083FE6071009800790BF07EFEDF
:105340002071009880780BF079FEA0700098C078EA
:105350000BF074FEE070009840780BF06FFE607008
:10536000009800780BF06AFE207038BD10B5044636
:1053700007E00CA10D48FBF787FD0DA1FBF7C0FE70
:1053800040B12146202010F02DF94028F1D14FF0F6
:10539000FF3010BD03A10020FBF776FDFBF75CFB9F
:1053A00000B210BD203A0A0D000000003890002025
:1053B00049440000C1EBC10100EB4100014931F853
:1053C000100070477E0A00200020704738B50C4658
:1053D000054602226946032006F0BAF92946022052
:1053E00010F000F940280AD02946012010F0FAF800
:1053F000402804D0009800880CF01BF938BD2046E6
:1054000038BD000003480449008C401CC0F30D0067
:10541000084470473C0A0020B84F00201349052873
:105420001BD006DC05280CD2DFE800F00D0F1113AD
:105430001500062813D0072813D0772813D0FF288B
:1054400000D000207047086B704788697047086A71
:105450007047886A704708697047886B7047086CA6
:105460007047886C7047FF207047000004000020E0
:10547000134905281BD006DC05280CD2DFE800F014
:105480000D0F11131500062813D0072813D0772805
:1054900013D0FF2800D000207047C86A70474869C1
:1054A0007047C8697047486A7047C8687047486B5A
:1054B0007047C86B7047486C7047FF20704700000A
:1054C000040000200148406C704700006038012053
:1054D00070B50C4605466421142010F083F807F0DF
:1054E000EFFC002806D021462846FEF7CFFE002814
:1054F00000D0012070BD0000014800687047000026
:10550000947D0208F0B50A7D01209040344A13686A
:1055100043F001031360136823F47C531360136892
:105520004C6A43EA042313602D4D1C352B688343DA
:105530002B602B4C2B4BCE690C34A6B926688643C6
:1055400026608F894E6867F31F464F6903EBC707D4
:10555000C7F840660F890E6867F31F464F6903EB73
:10556000C707C7F84466CE69012E14D126680643E2
:1055700026600E884C6866F31F444E6903EBC6062E
:10558000C6F840460E89CC6866F31F444E6903EBAB
:10559000C603C3F84446124B8C691B1D002C1C68C3
:1055A00006D004431C600E4B0C69143314B104E0A4
:1055B0008443F7E71C6884431C600C69012C02D10A
:1055C0001C6804431C60096A012902D1296801434F
:1055D0002960106820F0010010600020F0BD00007C
:1055E00000660040006000407047000010B50446AF
:1055F00000684169C943C90714D182685849914379
:1056000068D000218368574A9A4365D00022836896
:105610005548984362D000201143014302D02046F0
:10562000FEF7ADF82068C168406911F0030FC0F3C0
:10563000400004D018B100212046FEF70DF8206884
:105640000169406911F0030FC0F3001004D018B1D4
:1056500001212046FEF700F8206881694269C1F304
:1056600000014369C2F30022C3F3C03329B122B160
:105670001BB1E16B41F00101E1638169C1F34002BB
:1056800041694369C1F34021C3F3C0332AB121B159
:105690001BB1E16B41F00201E16381694269C1F331
:1056A0008001C2F380234269C2F3C03229B123B121
:1056B0001AB1E16B41F00401E163816911F0700FEF
:1056C0000ED000214269C2F3C0234269C2F3C03246
:1056D00041B127E0012195E7012298E701209BE7EE
:1056E0000121EFE7F3B1EAB1816901F070014029CE
:1056F00029D006DC102909D020290BD030290DD162
:105700001DE0502923D0602908D124E0E16B41F04D
:10571000080102E0E16B41F01001E163816921F0D1
:1057200070018161E06B002808D021680420486086
:10573000012084F838002046FFF756FF10BDE16BCA
:1057400041F02001E9E7E16B41F04001E5E7E16B61
:1057500041F08001E1E7E16B41F48071DDE7000099
:105760000300000400030008000003102DE9F041CD
:10577000040004D094F83800002518B107E0012097
:10578000BDE8F08184F83950204600F091F80220FD
:1057900084F838002068016821F002010160206867
:1057A000016841F00101016000F090FE0746032608
:1057B00004E000F08BFEC01B0A2862D82068406815
:1057C000C007F6D020684168C90767D0A1690129E0
:1057D00001683FD021F080010160E0690128206864
:1057E00001683AD021F040010160206A0128206858
:1057F000016835D021F020010160606A012820682D
:10580000016830D021F010010160A06A01282068F1
:1058100001682BD021F008010160E06A01282068AE
:10582000016826D021F004010160D4E90201084397
:10583000D4E90412114308436168491E08432168F2
:10584000C8612068016821F00101016000F03EFE9E
:1058500007461BE041F08001BEE741F04001C3E78D
:1058600041F02001C8E741F01001CDE741F0080107
:10587000D2E741F00401D7E700F028FEC01B0A2858
:1058800004D904F8386F0320657079E72068406810
:10589000C007F1D120684068C00703D0042084F815
:1058A00038006CE7E563012084F83800002067E7E2
:1058B00030B58FB0032002250124CDE90A05CDE9DA
:1058C0000C4009200E900AA9224800F009FD002290
:1058D0001146132001F0D8F9132001F0C7F9002276
:1058E0001146152001F0D0F9152001F0BFF9002272
:1058F0001146142001F0C8F9142001F0B7F9002274
:105900001146162001F0C0F9162001F0AFF9124936
:10591000A1F1400000F15C02C0E90C120F4A002026
:10592000C1E9000204220D61C1E902200C7548752D
:10593000CDE9060403900490CDE90840059000905D
:1059400001900290044869464038FFF7DBFD0FB034
:1059500030BD0000000C024014B300207856341211
:105960002DE9F047044690F8390016460D46012807
:1059700010D04FF0010984F8399094F838001228BB
:105980000BD0222084F8380000F0A0FD07464FF02D
:10599000000812E00220BDE8F0873220F2E7701C18
:1059A0000BD026B100F092FDC01BB04205D90320F8
:1059B00084F8380084F83980EDE72068002D66D03F
:1059C000006910F0030FEAD04FF4D870216800EBA3
:1059D0000510095811F00402616B8A602268616B3E
:1059E000125856D0D2084A6021680858616B00F0FE
:1059F0000200C8604FF4DA70216800EB0510095806
:105A0000626B01F00F01116121680858616BC0F3EE
:105A10000720C8614FF4DC70216800EB05100958BD
:105A2000626B117521680958626B090A517521680A
:105A30000958626B090C917521680858616B000E5A
:105A4000C8754FF4DE70216800EB05100958626BD1
:105A5000117621680958626B090A51762168095844
:105A6000626B090C917621680858616B000EC8764C
:105A70002168202085B1086194F8380032280DD0C3
:105A8000484684F8380084F83980002083E7C068ED
:105A900097E7520D0A60A7E7C860EDE71220F0E72C
:105AA000704700002DE9F05F0E46016804468868E3
:105AB000400105D48868000102D48868C00068D518
:105AC00094F8390001280FD04FF0010884F839808C
:105AD00094F8380022280AD0122084F83800886808
