:020000040801F1
:1000000008610120A5040108A1A20108B57B01082F
:1000100081A20108B9330108B5EE01080000000013
:10002000000000000000000000000000750301084F
:1000300079420108000000002D0401089104010824
:10004000BF0401086BA30108BF040108BF04010835
:10005000BF040108BF040108ED4301081144010871
:10006000BF040108174401081D440108BF0401082A
:10007000BF040108BF040108BF040108BF04010850
:10008000BF040108BF040108BF040108F9330108D7
:10009000D5330108E1330108ED330108BF0401083D
:1000A000E9CC010801CD0108F5CC0108BF04010825
:1000B000BF040108BF040108BF040108BF04010810
:1000C000BF040108BF040108BF040108BF04010800
:1000D00005AB01084DD40108BF04010845D501084E
:1000E000F3430108BF040108BF040108BF0401086D
:1000F000BF040108BF040108BF040108BF040108D0
:10010000BF04010861A70108BF040108BF0401087A
:10011000BF040108BF040108BF040108BF040108AF
:10012000BF040108BF0401088D400108A540010873
:10013000BF040108BF040108BF040108BF0401088F
:10014000BF040108BF040108BF040108BF0401087F
:10015000BF040108BD400108D5400108DDD60108F3
:10016000BF040108BF040108BF040108BF0401085F
:10017000BF040108BF040108BF040108000000001B
:10018000BF040108BF04010800F002F800F09DF868
:100190000AA090E8000C82448344AAF10107DA45E2
:1001A00001D100F092F8AFF2090EBAE80F0013F097
:1001B000010F18BFFB1A43F0010318471C7F010011
:1001C0003C7F01000A444FF0000C10F8013B13F093
:1001D000070408BF10F8014B1D1108BF10F8015BA0
:1001E000641E05D010F8016B641E01F8016BF9D193
:1001F00013F0080F1EBF10F8014BAD1C0C1B09D1EA
:100200006D1E58BF01F801CBFAD505E014F8016B5B
:1002100001F8016B6D1EF9D59142D6D370470000ED
:100220000023002400250026103A28BF78C1FBD8FF
:10023000520728BF30C148BF0B607047662917F0CE
:100240005680652917F05380672917F0508061297F
:1002500017F04F80692900F04D82642900F04A822E
:10026000752900F047826F2900F0DE82782900F0BE
:1002700003830368DB0928BF41F08001632901F093
:100280003284732901F03784E32901F0428400208D
:1002900070471FB517F021F89DE8030001F064FED8
:1002A00001F045FE04000020002116F01FFE401C56
:1002B00060600020002116F003FEE06001F004FD04
:1002C0001FBD10B501F078FD10BD02F031FA1146E6
:1002D000FFF7DFFF0FB400F00BF80FBC13F092F93B
:1002E00000F0C8FD03B4FFF7ECFF03BC02F01AFAFC
:1002F00004B014F063FC0448002114F083FD14F0F2
:100300006FFC00F0B7FD00000075020880F309885B
:100310007047EFF309807047684680F30988044806
:100320000078C00714BF0220032080F314887047B0
:10033000C0740208DFF818C0EFF305831B0618BF6E
:100340006047EFF31483DB0708BF604700DF7047A7
:10035000A1530208DFF818C0EFF305831B0618BF8E
:100360006047EFF31483DB0708BF604700DF704787
:1003700051560208EFF30980816911F8021CE1BBB4
:1003800090E80F1010B5E047BDE81040EFF3098C7E
:100390008CE80700214B93E80600914208BF7047A4
:1003A00041B91EF0100F16D11D49086820F0010058
:1003B000086010E01EF0100F06BF2CED108A01201F
:1003C000002081F825002CE9F00FC1F828C00CB4FA
:1003D00015F04EFD0CBC1A60D2F828C0BCE8F00F36
:1003E00092F8250000280EBF6FF0020E6FF0120E7B
:1003F000BCEC108A8CF30988704710B5094A126862
:10040000914209D8084C54F8214090E80F10A047B9
:10041000EFF3098C8CE80F0010BD0000780A002073
:1004200034EF00E0F8320108F832010810B515F099
:10043000E3FBBDE81040154B93E80600914208BF6E
:100440007047EFF3098C1EF0100F06BF2CED108AD9
:100450000120002081F825002CE9F00FC1F828C008
:100460000CB415F005FD0CBC1A60D2F828C0BCE82D
:10047000F00F92F8250000280EBF6FF0020E6FF00B
:10048000120EBCEC108A8CF309887047780A0020A1
:1004900010B515F0B5FDCCE710B514F035FD15F02D
:1004A000AFFDC6E70948804709480047FEE7FEE779
:1004B000FEE7FEE7FEE7FEE7FEE7FEE7FEE7FEE714
:1004C00004480549054A064B704700008DCC0108D9
:1004D00089010108E8510120086101200859012023
:1004E0000859012000487047D84B012053EA020CFC
:1004F00000F069802DE9F04B4FF00006002B1FBF84
:10050000B3FA83F503FA05F424FA05F65E4012BF48
:100510001643B2FA82F502FA05F4C5F120051EBFB2
:1005200022FA05FC44EA0C04203556EA044C4FEA52
:10053000144418BF641C4FF000084FF000099042AB
:1005400071EB030C39D3002919BFB1FA81F701FA15
:1005500007F6B0FA80F700FA07F6C7F120071EBFCA
:1005600020FA07FC46EA0C062037B6FBF4FCA7EBA2
:100570000507103F07F01F0BCBF120060CFA0BFB11
:100580002CFA06F644BFB3460026202FA4BF5E46D1
:100590004FF0000B5BEA060C08BF4FF0010B19EBA4
:1005A0000B09ABFB027C48EB0608C01B06FB02CC28
:1005B0000BFB03CC71EB0C01C1E70B460246414635
:1005C0004846BDE8F08B13B54FF000004FF0000136
:1005D000AFF30080BDE81C40704700000FB4044931
:1005E00010B503AA029802F0E7F810BC5DF814FBFE
:1005F0008C4C01200FB4014610B504AA039802F0F8
:10060000DBF810BC5DF814FB0FB41CB5074B06AA51
:100610007B4469460090059801F043FA0020694642
:1006200001F052FA1CBC5DF814FB0000B514000088
:1006300070B5044685690068C10601D5302600E022
:100640002026C00707D070BDD4E90121304690476D
:10065000206A401C20626D1EF6D570BD70B5044640
:1006600085690078C00707D170BDD4E90121202039
:100670009047206A401C20626D1EF6D570BD096847
:100680004A0501D540B27047C905FCD500B2704794
:1006900009684A0501D5C0B27047C905FCD580B2CA
:1006A000704770B50C460546012A05D028788006AB
:1006B00000D5EA69002302E0012305E05B1C9342B8
:1006C00002D2E05C0028F9D1A869E618C01AA86136
:1006D000286A184428622846FFF7AAFF04E0D5E9F3
:1006E000012114F8010B9047B442F8D32846FFF7D4
:1006F000B5FF70BD2DE9F04106460024106875294C
:10070000314616A510D0FFF7BAFF002802DA4042A2
:1007100013A507E031688A0701D512A502E0490751
:1007200004D511A5012401E0FFF7B2FF00210A2240
:1007300006F1240709E0B0FBF2FCB0FBF2F302FB88
:100740001C00303078541846491C0028F3D1234649
:100750002A463046BDE8F04100F0B9BD0000000077
:100760002D0000002B000000200000002DE9FF5F9D
:1007700015468A460446DFF8AC80F8440027D8E9DD
:1007800000103E46CDE9001010E03AF816106A4617
:1007900002A801F07DFB411C07D02178890603D512
:1007A000E269391891420DD80744761C20788006FA
:1007B00002D5E069B84205DDAE42E6DB3AF8160044
:1007C0000028E2D1A069C01BA0612046FFF730FFDE
:1007D000D8E90010CDE90010002017E03AF8181011
:1007E0006A4602A801F054FBB0F1FF3F81460BD0EE
:1007F00000250DF1080B05E0D4E901211BF80500E7
:1008000090476D1C4D45F7D308F10100B04280467A
:10081000E4DB206A384420622046FFF71FFFBDE872
:10082000FF9F0000CA74010070B50446214610689D
:10083000FFF72EFF002104F1240505E000F0070278
:100840003032C0086A54491C0028F7D120680023C0
:1008500007A2050707D5800600D421B1E06901236E
:1008600004A2401EE0612046BDE8704000F02FBDAC
:10087000000000003000000070B504460D4621461F
:100880001068FFF705FF2188090502D50F4A7A4451
:1008900002E00E4A7A440E32002104F1240305E0FE
:1008A00000F00F060009965D5E54491C0028F7D140
:1008B00020780023000704D5702D02D009B102234F
:1008C00011322046BDE8704000F001BDBE7301004A
:1008D0002DE9F05F894604464FF0000ADFF874B155
:1008E000FB44C0F820A02046E1688847002874D067
:1008F000252806D0D4E901219047206A401C2062B7
:10090000F1E700265F462046E16888472028054633
:1009100007DB312D05D2781910F8200C08B10643F9
:10092000F1E7B00701D526F00406C4F81CA00027A3
:10093000C4F818A02A2D09D028460FF0FCFD38B3C2
:1009400004EB8708303DC8F8185019E059F8041B2B
:10095000204604EB87029161E1688847012F054634
:1009600018D1E069002820DA26F020061DE0D8F82A
:10097000180000EB800005EB40003038C8F8180084
:100980002046E168884705460FF0D5FD0028EED1E6
:10099000012F0AD02E2D08D12046E16888477F1C00
:1009A0000546022F46F02006C4DBA069002803DAC2
:1009B000404246F00106A061F00701D026F0100683
:1009C0006C2D0BD0682D09D04C2D39D06A2D35D027
:1009D000742D35D07A2D33D016E038E0E1682F46FB
:1009E00020468847B842054609D16C2F26D04FF4DF
:1009F0008060E168064320468847054604E06C2F86
:100A00001AD04FF4807006430DB3A5F141001928A8
:100A100002D8203546F400664A462946204626601C
:100A20004E46FFF70BFC80B101280BD0F61D26F0D7
:100A3000070000F1080956E74020E4E78020D8E7E6
:100A40000020D6E706F104094DE7284652E7206A60
:100A5000BDE8F09F9473010070B5064600F093FB6B
:100A60000468054630460A22002101F06CF82C602B
:100A700070BD00002DE9F041044616460D46476959
:100A8000007B80072ED038460FF0A4FD50BB3EB34C
:100A9000012E02D0022E25D104E0204600F066F897
:100AA00005441DE038460FF08BFDE168002841F059
:100AB0001001E16005DA204601F07EF80120BDE872
:100AC000F081C9030BD56268E16A914200D81146F2
:100AD000A26911442269891A814200DD0846054451
:100AE000002D01DA0220EAE7E16A6068E2688142EB
:100AF00006D29103E06203D522F4003141F01002E6
:100B0000A6690027AE4213DCE16A814201D90B4697
:100B100000E0034603EB060C2369ACEB030CAC4589
:100B200006DD814201D98C4600E084469C4505D112
:100B3000A760276042F02000A5620DE0AD1BE669CA
:100B4000AE1B8142A66000D90846C01A281A206050
:100B50005819606022F0200003490840E06000203E
:100B600084F84870ABE70000BFCFD7FF10B501464F
:100B7000C268900703D0900607D5886A0AE000F0A3
:100B800002FB01210160881E10BD8B694868184472
:100B90000B69C01A91F848301BB191F84910401AFE
:100BA00010BD1103FCD50028FADD401E10BD01F078
:100BB0007BB82DE9F04704464FF000094FF0FF37AE
:100BC000C568D4E90486A80707D0204601F028F8B4
:100BD00030460FF0EBFC002802DA3846BDE8F0871B
:100BE000280502D5404600F050FB4C21204600F07D
:100BF00060FA206D20F0010020654846EEE770B5F0
:100C0000044600F14C0528460FF09CFC2046FFF7F7
:100C1000ADFF044628460FF0BBFC204670BD000027
:100C200070B505460A4E30460FF08CFC05F14C04B9
:100C300020460FF087FC2846FFF7BBFF05462046FD
:100C40000FF0A6FC30460FF0A3FC284670BD000054
:100C5000AC0A00202DE9F04116460F46054600F18A
:100C60004C0420460FF06EFC324639462846FFF70A
:100C700001FF054620460FF08BFC2846BDE8F081B9
:100C800070B5044600F14C0528460FF05BFC207B54
:100C900000F0400428460FF07BFC204670BD0000A9
:100CA0002DE9F041044600F14C0738460FF04AFCAC
:100CB000E068810712D0800601D5A66A04E0A16928
:100CC000606808442169461A204600F0A9FF002206
:100CD000054631462046FFF7CDFE00E000253846A8
:100CE0000FF056FC2846BDE8F0812DE9F04118B11F
:100CF000BDE8F041FFF7D4BF0B4E002530460FF0A2
:100D000021FC0A4C6F1E07E02046FFF7C9FF00B127
:100D10003D46206D20F00104002CF5D130460FF047
:100D200037FC2846DFE70000AC0A0020384C0120E1
:100D30002DE9F04716468846814602F14C073846B1
:100D40000FF000FC3046FFF734FF18F8010B612864
:100D50000AD0722802D077283FD102E00125002472
:100D600005E00225042402E0082448F2020518F8F0
:100D7000010B2B2806D0622809D018F8010C742822
:100D80000AD00BE045F0030544F00204EFE745F01C
:100D9000040544F00104EAE744F010044846214603
:100DA0000FF026FC411C18D00021316171604FF416
:100DB0000071F560F1617061200704D530460222B0
:100DC0000021FFF757FE306D40F0010030653846D6
:100DD0000FF0DEFB3046BDE8F0870026F7E72DE98F
:100DE000F04115460E460746204C20460FF0AAFB60
:100DF0002A4631463846FFF79BFF054620460FF04E
:100E0000C7FB2846BDE8F0812DE9F0410E4680463B
:100E1000164D28460FF096FB154C206DC10704D0E7
:100E2000410804D020F00104F7E7224612E05420E4
:100E300000F0F0F9070017D0206D47F001010843DA
:100E400054212065384600F034F907F14C000FF0CA
:100E500089FB3A4631464046FFF76AFF044628467A
:100E60000FF096FB2046CDE70024F8E7AC0A0020FF
:100E7000384C012010B50446AFF300802046BDE891
:100E80001040FFF72FBA0000014A01F021B800001E
:100E9000A80A002030B505460B462A4613F8014B38
:100EA00012F8010B08B1A042F8D01CB1002802D002
:100EB0006D1CF1E7284630BD40EA0103024630B51B
:100EC0009B0710D14FF0013400E008C208C91D1B78
:100ED0009D4315EAC41FF8D013F0FF0102F8011B6F
:100EE0000DD01B0AF8E711F8013B002B02F8013B7B
:100EF00005D011F8013B002B02F8013BF3D130BDC6
:100F00002DE9F041054690460E460020044600E0DB
:100F1000641C44450BD2285D00F0CCF90746305DD7
:100F200000F0C8F9381A02D1295D0029F0D1BDE8D6
:100F3000F08110B5431C02E010F8011B71B181076C
:100F4000FAD14FF0013202C88C1A8C4314EAC21154
:100F5000F9D0C01A0A0603D0C01E10BDC01A10BDB9
:100F60000A0401D0801E10BD0902FCD0401E10BD35
:100F7000032A40F2308010F0030C00F0158011F8C5
:100F8000013BBCF1020F624498BF11F801CB00F89D
:100F9000013B38BF11F8013BA2F1040298BF00F8F1
:100FA00001CB38BF00F8013B11F0030300F02580AE
:100FB000083AC0F0088051F8043B083A51F804CBD5
:100FC000A0E80810F5E7121D5CBF51F8043B40F89B
:100FD000043BAFF30080D20724BF11F8013B11F8A6
:100FE00001CB48BF11F8012B24BF00F8013B00F8EA
:100FF00001CB48BF00F8012B704710B5203AC0F074
:101000000B80B1E81850203AA0E81850B1E8185009
:10101000A0E81850BFF4F5AF5FEA027C24BFB1E846
:101020001850A0E8185044BF18C918C0BDE81040B7
:101030005FEA827C24BF51F8043B40F8043B08BFC0
:101040007047D20728BF31F8023B48BF11F8012B87
:1010500028BF20F8023B48BF00F8012B704702F080
:10106000FF0343EA032242EA024200F002B84FF0D3
:1010700000020429C0F0128010F0030C00F01B8065
:10108000CCF1040CBCF1020F18BF00F8012BA8BF73
:1010900020F8022BA1EB0C0100F00DB85FEAC17C37
:1010A00024BF00F8012B00F8012B48BF00F8012BEA
:1010B00070474FF0000200B513469446964620391B
:1010C00022BFA0E80C50A0E80C50B1F12001BFF401
:1010D000F7AF090728BFA0E80C5048BF0CC05DF867
:1010E00004EB890028BF40F8042B08BF704748BFB5
:1010F00020F8022B11F0804F18BF00F8012B704729
:101100004FF0013C50F8042B51F8043B9A4221D196
:10111000A2EB0C03934313EACC1317D150F8042B22
:1011200051F8043B9A4215D1A2EB0C03934313EA06
:10113000CC130BD150F8042B51F8043B9A4209D13F
:10114000A2EB0C03934313EACC13DBD04FF0000067
:10115000704700BFD01A01BAB1FA81F101F018014D
:1011600022FA01F0CB40C1F12001DBB2C0B2C01ABB
:101170002CFA01F3D11A914311EAC311E6D1704759
:101180007047704770470FF09DB90B3020F0070093
:1011900070472DE9F04117460E460446FFF7F5FF6C
:1011A000A042054633D9002F1CBF06F10C000FF0FA
:1011B000C9F930467468F4B12168A94217D305F122
:1011C000080291423CBF6168416007D362686119BF
:1011D0004A602268521B0A6041602560002F1CBFD4
:1011E00006F10C000FF0D4F9201DBDE8F081204677
:1011F0006468002CE0D12946304600F0A1FE0028AA
:10120000D7D1002F1CBF06F10C000FF0C1F9002050
:10121000BDE8F08110B5044600F084FE0168204668
:10122000BDE810400122B4E770B516460D46041F14
:10123000002808BF70BD002E1CBF05F10C000FF088
:1012400081F92B465868002818BFA04238BF0346D2
:10125000F8D31968CA18A24218BF5C6003D122688B
:101260001C461144196021680A19824218BF606047
:1012700004D142686260006808442060002E1CBFF0
:1012800005F10C000FF084F970BD10B5044600F0B4
:1012900049FE01682046BDE810400122C4E710B5B0
:1012A000FFF771FF006810BD10B50446FFF76BFF34
:1012B000046010BD10B5044600F02CFE0068005D0F
:1012C000C00602D504F1200010BD204610BD2DE956
:1012D000F0470D4699469246044600F124080168FD
:1012E000880604D5E06921F01001216000E00120AA
:1012F000A84201DD471B00E00027A1697A1902EB33
:101300000900081AA0612078C00602D42046FFF721
:101310008FF9002608E0D4E901211AF80600904769
:10132000206A401C761C20624E45F4DB2078C00603
:101330000AD52046FFF77CF906E0D4E901213020E8
:101340009047206A401C2062381EA7F10107F4DC98
:1013500007E0D4E9012118F805009047206A401CF5
:101360002062281EA5F10105F3DC2046FFF776F97F
:101370002078000602D50220BDE8F0870120FBE7B7
:1013800070472DE9FF4F0C461E464FF0FF378BB0DC
:10139000D2E90001DDF860800A908A46C1F30A555F
:1013A00005B93D46002108464FF00000BAF1000F94
:1013B00000F4400005DA00EB80004FF4400101EA40
:1013C00050004FEA9059B9F1010F00DDB9460A9873
:1013D00050EA4A000ED044F61050A5F2FF354543BE
:1013E0002F14B8F1000F1ED07542291E1EDDC9F161
:1013F00000021CE0B8F1010F4FF0000001D03021D5
:1014000003E0F24305E02154401CB042FBDB3046D0
:101410000022002121540B99C1F80880C1E9002065
:101420000FB0BDE8F08FBD1B6D1CDEE74A4600DA49
:10143000694206A800F0A6FE06AB93E8070003ABDE
:1014400083E8070050460A9901F09AFB8DE80700EF
:10145000A0F500501F3800900398002D09DD42F2DE
:101460001F014A46084403A90390684601F0F9FDAC
:1014700008E0A0F500504A461F3803A903906846CB
:1014800001F003FE8DE807000004000C03D04FF0CC
:10149000FF30410800E01046B8F1000F03D00022F1
:1014A000009215461EE0751E05D400F095FD303201
:1014B00062556D1EF9D5B3460122084302D00022C1
:1014C0007F1C04E02078302801D100227F1E002AF2
:1014D000099786D01DE0112D07DA00F07DFD30322E
:1014E00062556D1C50EA0102F5D1084302D0009804
:1014F000C8B10EE00021681E05E0235C625C635405
:101500002254401E491C8142F7DBAB46A81B401EFB
:101510000990002004F80B000B98099AC0F8088085
:10152000C0E9002B7CE711264FF0000859E72DE9B0
:10153000F04F88460446D21D22F0070191B0D1E950
:101540000001CDE90A010EF0A2FC02460B98C00F83
:1015500001D02D2007E02068810701D52B2002E073
:10156000202101EAC000032A099001D0072A05DBE7
:1015700003464146204600F075FD0BE120788006C9
:1015800001D5E06900E00620B8F1650F814606D07C
:10159000B8F1660F18D0B8F1670F70D131E00020B4
:1015A000B9F1110F009001DB112301E009F10103F2
:1015B0000AAA01A90CA8FFF7E4FEDDE90C700026D9
:1015C00009F10105834647E001204B4600904FF0AA
:1015D00000470AAA01A90CA8FFF7D3FEDDE90DB068
:1015E0000C995D46002610B909F101000D18B9EB00
:1015F000050003D4C0F1FF3609F10105A5EB090090
:101600002BE0B9F1010F01DA4FF001090020B9F127
:10161000110F0090484601DD112300E003460AAA9D
:1016200001A90CA8FFF7ADFEDDE90C704D460026C0
:101630008346207800070AD4AB4500DA5D4601A84E
:10164000012D04DD411911F8011C302907D04F4547
:1016500002DA17F1040F04DA012082460FE06D1E52
:10166000EEE7002F02DCED1B3E4403E0781CA842AD
:1016700000DD7D1CB81B00F1010A4FF00047207807
:10168000000703D4AA4501DB4FF0FF3A0021B7F170
:10169000004F0DF143088DF8431024D002202B2376
:1016A000002F01DA7F422D230A21021EA0F1010042
:1016B00000DC5FB197FBF1FC97FBF1F201FB1C7CB6
:1016C00017460CF1300C08F801CDEEE7A8F1010047
:1016D00003702188090501D5452100E06521A0F1AD
:1016E000010800F8011C09980FA9A1EB0807FF1DCC
:1016F00000B10120411901EBEA70A1693844081AD0
:10170000401EA0612078C00602D42046FEF790FF5C
:10171000099828B1D4E901219047206A401C206231
:101720002078C00622D52046FEF782FF1EE0002E5C
:1017300004DBB34502DD01A8805D00E03020D4E980
:1017400001219047206A401C2062761CAAF101000A
:101750005FEA000A0AD100F0EAFBC0680168405C59
:10176000D4E901219047206A401C2062281EA5F17F
:101770000105DCDC07E0D4E9012118F8010B9047F2
:10178000206A401C2062381EA7F10107F3DC2046C6
:10179000FEF764FF032011B043E600002DE9F04F8F
:1017A00004460D46D21D22F0070089B0D0E900970B
:1017B000484639460EF06BFB0246F80F01D02D2348
:1017C00007E02068810701D52B2302E0202101EAF0
:1017D000C0038DF820300BB1012000E00020032A67
:1017E000824601D0072A04DB2946204600F03AFC55
:1017F0003FE12078800601D40D2500E0E569C7F3BC
:101800000A560D2D49DA00214FEA175B08464FF0C2
:101810000000002F00F4400007DA00EB80004FF4D6
:10182000400100EBD07001EA60008115012901DD63
:101830004FF0FF3100224FEA850CBCF1180F06D3A0
:101840001346ACF118004FF08052C24003E04FF451
:10185000801323FA0CF30CF10C0CBCF1200F04D311
:10186000ACF1200C09FA0CF001E007FA0CF00029A9
:101870004FF0004801DD18B90FE00ED140450CD300
:1018800019EB02095F4121B9404502D19F4329EA82
:101890000209BBEB175F00D0761C2088000502D53B
:1018A0007B48784402E07A487844193808AA302303
:1018B00002F80A30037C0AF10101002E0AF1020A43
:1018C00053546A4602DC4FF0300101E04FF0310121
:1018D0004FF001088DF8001002D0A6F2FF3603E0A9
:1018E00059EA470100D06B4E002D02DC2178090730
:1018F00004D54FF002082E218DF80110C4460021B6
:101900000BE0C7F303433F01C35C491C6D1E02F8A3
:101910000830052908F1010801DA002DF1DC002169
:101920000CE000EB1973491C1B786D1E082902F8A6
:1019300008304FEA091908F1010801DA002DF0DC3E
:1019400021688B0602D516E0A8F10108E04505DD07
:1019500002EB080313F8013C302BF5D0B8F1000F6F
:1019600009DD02EB080313F8013C2E2B03D1090714
:1019700001D4A8F10108002D05DD3E2102F8081070
:101980006D1E08F10108407C002E02F8080008F1E5
:10199000010804DA2D20764202F8080002E02B202C
:1019A00002F808000A214FF47A70864208F1010813
:1019B0000BDB96FBF0F3303302F8083096FBF0F3C4
:1019C00008F1010800FB136601E0642E0CDB6420C3
:1019D00096FBF0F3303302F8083096FBF0F308F191
:1019E000010800FB136601E00A2E06DB96FBF1F00E
:1019F000303002F8080008F1010896FBF1F001FB15
:101A00001060303002F80800A16908F1010808EB05
:101A1000050202EB0A00081AA0612078C00602D471
:101A20002046FEF705FE216A08AE01EB0A0020629F
:101A300004E0D4E9012116F8010B9047BAF1010A3C
:101A4000F7D22078C00602D52046FEF7F1FD6E469B
:101A500009E016F8010B3E280FD0D4E90121904788
:101A6000206A401C2062B8F10108F2D22046FEF73D
:101A7000F5FD09B00320BDE8F08F206A28442062FC
:101A800003E0D4E90121302090476D1EEBD3F8E745
:101A9000F663010002FCFFFF01694A1C026108783D
:101AA000704700B58FB0CDE901310021059105499E
:101AB0007944CDE9031011466846FEF709FF0FB0DF
:101AC00000BD0000E5FFFFFF0A6802F8010B0A6095
:101AD000704710B5436913B1AFF3008001E0FEF722
:101AE000E0FD012010BD127800F124010A700022EF
:101AF0004A700122EDE711684FF0FF32E9E710B5B7
:101B0000436913B1AFF3008001E0FEF72FFE01201F
:101B100010BD128800F1240182840022C2840122B7
:101B2000EDE711684FF0FF32E9E73A2800D230388C
:101B300020F02002412A01D3A2F13700884201D3CC
:101B40004FF0FF3070472DE9F04791460F46804631
:101B50000446002614F8015B2DB100F0DBF90068A3
:101B6000405DC007F6D12B2D02D02D2D18D0641E5C
:101B70004A463946204600F0B5FA27B13968A142F5
:101B800001D1C7F800804FF0020471050BD5404227
:101B9000002803DDFFF7F7FA0460A007BDE8F0872F
:101BA00046F48066E4E70028F8DAFFF7ECFA046010
:101BB0006FF00040F2E70000C16821F4001141F02D
:101BC0008001C16000218160016070472DE9F0470C
:101BD000814614460E464FF0FF383248D5685769A3
:101BE000054209D03846A1690EF064FD002811DBDA
:101BF0002C48C0430540E5602B46324649463846EE
:101C00000EF064FDA16920F00042B21A11440028D0
:101C1000A16103D02046FFF7CFFF4046BDE8F08723
:101C200070B504460569C06A6168884200D80846F4
:101C3000E16821F42011E160C90312D5A84208D05F
:101C40002246411B2846FFF7C1FF10B14FF0FF307D
:101C500070BD0020E562C4E90150E06820F48030E6
:101C6000E060002070BD10B50446C06820F0200080
:101C7000E060A16AA06988420DD02046FFF7D0FF3E
:101C8000E06820F4405040F01000E060A06AA061DD
:101C90002069E062606044F24001E0688843E060EF
:101CA00010BD00001000020070B5044600F14C05A4
:101CB00028460EF047FC204610F00EFB044628464E
:101CC0000EF066FC204670BD10B565485421FFF744
:101CD000F0F964485421FFF7ECF963485421FFF709
:101CE000E8F962485E49624A624B01605D481060F3
:101CF0005D4A1A60431C0B65511C0165012010658B
:101D000057484C300EF02EFC56484C300EF02AFC52
:101D100055484C300EF026FC57480EF023FC58482E
:101D20004F4A56A17844FFF75AF820B954487844EE
:101D30000A3800F0D1FC54484A4A52A17844FFF7CF
:101D40004EF820B9504878440A3800F0C5FC4F4896
:101D5000454A4CA17844FFF742F820B94B487844F3
:101D60000A3800F0B9FC40233D48DC00002122463F
:101D700000F07EFC20B142487844543800F0ACFCBE
:101D8000384822464023002100F072FC20B13E4832
:101D90007844543800F0A0FC334822461023002138
:101DA00000F066FC002806D038487844BDE81040B2
:101DB000563800F091BC10BD2B482DE9F041006D64
:101DC0002D4E20F0010430460EF0BCFB244D4C3566
:101DD00028460EF0B7FB2248FEF7EBFE28460EF031
:101DE000D7FB2846AFF300801E4D4C3528460EF039
:101DF000A9FB1C48FEF7DDFE28460EF0C9FB28466D
:101E0000AFF30080184D4C3528460EF09BFB16486A
:101E1000FEF7CFFE28460EF0BBFB2846AFF300804E
:101E200014E0206D20F0010504F14C0007460EF08F
:101E300089FB2046FEF7BDFE38460EF0A9FB38466A
:101E4000AFF300802046FFF720FA2C46002CE8D1A3
:101E500030460EF09DFB0848AFF30080BDE8F081EE
:101E6000384C01208C4C0120E04C01209C0A0020C1
:101E7000A00A0020A40A0020AC0A00207200000082
:101E8000FC59010077000000EB590100DB5901000B
:101E900070B516460C46054600F03CF8036893F80A
:101EA0000101012806D0FF2C0FD8185D68B1012070
:101EB0002C7070BDD3F807013246214603F2071398
:101EC00003442846BDE8704018474FF0FF3070BD0E
:101ED0002DE9F04115460E46040002D12C6804B9E4
:101EE0000BA4204600F00FFC0444207870B1274674
:101EF0003146384600F0F7FB0444207810B100204A
:101F000004F8010B38462C60BDE8F0810027F9E7A2
:101F10000000000010B500F00AF8001D10BD00BF61
:101F2000CD4F010010B5FEF7DDFA083010BD10B539
:101F3000FEF7D8FA203010BD7047704770477047E1
:101F400038B504460A4600206946AFF300800028F1
:101F500008BF38BD02460099204600F00EFC012063
:101F600038BD012000F0C2BDF8B5AFF300800546D2
:101F700000200C46102000BF0646A819A0420DD92B
:101F8000324669460020AFF30080070008BF00F02A
:101F9000ADFD0098A04218BF0546C419FFF7C2FF67
:101FA00005600746F01D20F007004619284600F09E
:101FB0000AF8B44208BFF8BDA21B31463868BDE834
:101FC000F84000F0DABB00210160C0E901100C30DC
:101FD0000EF0C8BA1020704730B5B0F10A024FEACF
:101FE000900E71F100034EEA817EB0EB0E0061EBC2
:101FF00091014FEA101E4EEA017E10EB0E0041EBFC
:1020000011114FEA102E4EEA016E10EB0E0041EB5B
:1020100011214FEA104E4EEA014E10EB0E0041EB3B
:102020001141401841F100014FEAD00040EA4170EF
:102030004FEAD10110EB80054FEA810444EA907425
:1020400044EB01046D1944EB0404521BA3414FF00F
:10205000000348BF0A3200D530BD401C41F10001E9
:1020600030BD00002DE9F0411F46044603260168FB
:10207000072A01F4006004DB08B116A505E016A5E7
:1020800003E008B115A500E015A521F010002060BF
:10209000A069C01EA0610FB1401EA0612046FEF7DE
:1020A000C7FA4FB1D4E9012138469047206A401C55
:1020B0002062C01C206206E0206AFAE7D4E9012110
:1020C00015F8010B9047761EF8D22046FEF7C6FAA7
:1020D000BDE8F0814E414E006E616E00494E4600F3
:1020E000696E66002DE9F05F824615468B46002733
:1020F0000AF10104B9460078302801D09DB113E0FF
:1021000014F8010B0127782803D0582801D045B1D5
:102110000AE00DB1102D07D1002714F8010B10258E
:1021200002E0082500E00A250026B0460EE005FB87
:10213000080005FB06F101271FFA80F801EB1046A5
:10214000B6F5803F00D3B94614F8010B2946FFF7D6
:10215000ECFC0028EBDABBF1000F05D00FB1641ED8
:1021600000E05446CBF80040B9F1000F06D0FFF76D
:102170000AF802210160C81EBDE8F09F48EA064047
:10218000FAE700002DE9F047814616468AB0334849
:1021900078440DC88DE80D0030487844801C03ACAD
:1021A0000DC884E80D0041F69B300844372190FBB0
:1021B000F1F290FBF1F5A5F1800501FB12041B3C47
:1021C00002D56442012000E00020DFF890A08046A4
:1021D0000027FA44AAF1BE0A0DE0E00709D0324612
:1021E000684607EB47010AEB810100F04EFF8DE8DE
:1021F000070064107F1C002CEFD1184F7F44AC3FC8
:1022000018E0E80714D007EB04100DF1180A90E865
:102210000E008AE80E00C068F04201D198190890BB
:10222000324606A903A800F030FF03AB83E807009D
:102230006D10641C002DE4D132466946B8F1000FE0
:1022400003A802D000F00DFF01E000F01EFFC9E975
:102250000001C9F808200AB0BDE8F087B85B0100AA
:1022600070B50D4601461446D36850692A460EF0F3
:10227000F7F9002807DA411C07D0E16820F0004098
:1022800041F48041E160281A70BD2046FFF794FCBC
:102290004FF0FF3070BDC1680022026021F4805110
:1022A00041F0400111F4C06FC16001D082607047FD
:1022B00002694168891AC269891A816070472DE9EB
:1022C000F0470446C06840F48000E060010312D586
:1022D00020F40020E060810606D4E26A61688A4248
:1022E00000D80A46511A216040F40010E06094F8CA
:1022F0002500BDE8F08720F40010E060800602D5DC
:102300002046FFF7B0FCE06842F281014FF0FF3950
:102310000140012903D02046FFF74EFCB6E02168BA
:10232000002600290ADAC94340F480502160C4E93C
:1023300002606068411C61600078DAE744F24001A5
:1023400008420CD020F4A04040F040002660E0603D
:1023500021696068401AE169401AA06096E021692D
:1023600091B9C00310D4E069FEF754FF2061B0B109
:10237000E06840F4006010F4407FE06002D140F477
:102380008070E06020696060E068D4F814A0C10645
:102390001AD5C0030ED52046FFF742FC14E004F125
:1023A000240020610120E061E06820F4407040F4E6
:1023B0008060E6E721696068401AA16901445046DF
:1023C0000EF078F90028A6DBE068C0032AD5616822
:1023D000E06A884200D808462169451AE069471B2F
:1023E0001BD02046D4F81880FFF71AFC08EB050133
:1023F0005046C4F818800EF05DF900288BDBE068C9
:1024000040F40030E060000202D5A0692844A061D9
:10241000E1692069C91B45180DE02046FFF700FC63
:10242000E769F5E725696168D4E90607491BE562B4
:1024300008446560A061E06820F0100010F4C06FEF
:10244000E06002D0204600F003FBE06840F48050DA
:10245000C4E90260000205D52069E06260606FF0A7
:10246000010046E7224639462846FFF7F9FE411C9F
:102470000CD02918E16258B1401E2060681C6060D1
:10248000E06840F40030E060287832E7484630E702
:1024900065602046FFF7FFFEF8E72DE9F0470546A7
:1024A0000C46C86820F4201040F48000C860800604
:1024B00002D50846FFF7D7FBE06841F282014FF0F2
:1024C000FF390140022903D02046FFF775FBB5E034
:1024D00000F42041B1F5004F0FD1C00306D561686B
:1024E000E06A884200D80846606006E02069E06241
:1024F000606060690EF064F8A061A0680022EEB22E
:1025000000280DDAE1688B050AD4C043A06041F4CD
:1025100090302260E0606068411C61600670A5E058
:10252000E0689046226040F40050E060206968BB9B
:1025300060690EF04FF8012704F12405A0B1A089CD
:1025400010F4407F08D0E069FEF764FE206118B106
:10255000E06840F4006016E0E7612561E06820F47F
:10256000407040F480600EE0E069FEF753FE002802
:102570002061F1D0E06840F4006010F4407FE0603A
:1025800002D140F48070E06020696060E0682569F5
:102590006FF0010AC1051FD56168E06A884200D862
:1025A0000846411B04D022462846FFF70FFBF0BB2C
:1025B000E068010203D5E562C4E9015854E0691CF2
:1025C000E1626160E16940F48030491EC4E90210B3
:1025D00030462E70BDE8F087010202D500F480324B
:1025E0000AE06068411C61600670E0680A2E40F4F1
:1025F0008030E06006D00022E16A6068814203D941
:102600000B4602E00122F7E70346A7895B1B7F0523
:1026100003D4E7699F4200DDE2B1814200D8014660
:10262000E5620F1AC4E90158002B09DD00E005E05E
:10263000224619462846FFF7C9FA08B14846C9E7B5
:1026400047B1A069E5626560C01BA061E06840F029
:102650001000E060E068000208D56168A069E562EA
:10266000491B08446560A0615046B3E73046B1E7B6
:102670002DE9F04704461E4690460D46C7684C308B
:1026800081460DF05FFFB80714D0780212D440469F
:10269000B8F5807F09D0B0F5007F06D0B8F5806F1F
:1026A00008D1012604F1240506E0701E6FF07F4179
:1026B000884201D3012409E02561E6616560E06894
:1026C00020F4706040EA0800E060002448460DF005
:1026D0005FFF2046BDE8F08710B500F0EDF9BDE8DA
:1026E000104000F0E3B930B503461D781DB10A462D
:1026F00003E0AC4201D1181A30BD12F8014B002C96
:10270000F7D15B1CF1E730B503461D783DB10A46B1
:1027100012F8014B1CB1AC42FAD15B1CF5E7181A58
:1027200030BD000001491820ABBEFEE726000200C4
:102730007546FDF7D7FEAE4605006946534620F0C4
:102740000700854618B020B5FDF7BAFEBDE8204069
:102750004FF000064FF000074FF000084FF0000B5D
:1027600021F00701AC46ACE8C009ACE8C009ACE810
:10277000C009ACE8C0098D46704730B404468C46A9
:102780004368002B18BF634538BF1846F8D3036869
:102790001844604507D0C81C20F0070000F1040C65
:1027A000ACEB0100121A2146CCF8002030BC00220C
:1027B0000CF10400FEF738BD2DE9F04114460D463A
:1027C000074601F14C0630460DF0BCFE094B7B4438
:1027D000224629463846FFF764F90446287B00065E
:1027E00001D54FF0FF3430460DF0D2FE2046BDE853
:1027F000F0810000A5FD00002DE9F04104461746D8
:102800000D4602F14C0080460DF09CFE012D26463F
:1028100016DD38460FF060FD411C0FD0C0B20A280B
:1028200004F8010B02D06D1E012DF2DC0020207097
:1028300040460DF0ADFE3046BDE8F081B44201D116
:102840000026F5E7387B0006F0D50026EEE72DE9F7
:10285000FF4F06461C468B4681B003F14C000090AA
:102860000DF070FEBBF1000F06D00399276800251C
:1028700028460BFB01F963E000247AE0002F61DCBD
:10288000E06948453FDABAF1000F3CD0207B800672
:1028900001D5A06A04E0A169606808442169401A72
:1028A0002246A9EB050180463046FFF7D9FC0028F7
:1028B00012DD8044A8F101010644A161226916F8E5
:1028C000011C0027054411702169491CE162616007
:1028D000E16841F40031E160411C03D010B1207B7C
:1028E000400642D52046FFF7D6FCC4F81880206980
:1028F0006060E062E068276020F40030E060E0693A
:102900004042A06018E0484503DAE06840F4000067
:10291000E0602046FFF7D3FCE16821F40001E160AC
:10292000411C08D0811C0AD02768002807DB6D1CD9
:1029300006F8010B19E02760B5FBFBF419E0012054
:10294000824612E0A9EB0500B846B84200DA80469C
:10295000304642466168FEF70BFB6168A7EB08074B
:10296000464401EB0800454460604D4586DB276026
:10297000039C00980DF00CFE05B02046BDE8F08FDA
:102980002DE9F05F0E4680461C46924602FB06F596
:1029900003F14C0083460DF0D5FD16B3A768002067
:1029A00041E0002F41DCE069A8421CDAB9F1000FD8
:1029B00019D0224629464046FFF708F908B1A7601A
:1029C00029E0E06810F4C06F01D0002008E022691F
:1029D0006168891AE269511AC003A16001D44842B2
:1029E000A060544618E0A84203DAE06840F4000012
:1029F000E060214698F80000FFF74FFDE16821F400
:102A00000001E160411C06D0A76800280ADB6D1EAA
:102A100008F1010818E0002458460DF0B9FD2046E1
:102A2000BDE8F09F012081460EE0AF423E4600DD4A
:102A30002E46414632466068FEF79AFA6068BF1B30
:102A4000AD1B3044B0446060002DAADCA760C8E72D
:102A50002DE9F0470746134881460DF073FD124CEF
:102A600040F2022817E094F85000C00710D0BC4292
:102A70000ED004F14C0528460DF064FDE6682846AA
:102A80000DF086FD38EA060002D12046FEF708F96F
:102A9000206D20F00104002CE5D148460DF078FDB2
:102AA000BDE8F087AC0A0020384C0120002801D096
:102AB000FFF738BE7047000010B5014602A000F0D5
:102AC0001DF8012010BD000053494752545245449F
:102AD0003A2052656469726563743A2063616E27B7
:102AE00074206F70656E3A200000000010B500F091
:102AF0001FF8BDE81040FFF7D9BF704770B5054615
:102B00000C460A2000E06D1C0DF022FE35B128783D
:102B10000028F8D102E0641C0DF01AFE14B12078F0
:102B20000028F8D1BDE870400A200DF011BE000069
:102B300010B5012805D0002103A0FFF7DFFF012019
:102B400010BD09A1F8E7000053494752544D454DC7
:102B50003A204F7574206F662068656170206D653E
:102B60006D6F7279000000003A2048656170206D39
:102B7000656D6F727920636F727275707465640031
:102B80005FEA400C08BF91F0000F4FEA8C234FEA38
:102B9000C12243EA51514FEA1C5018BF00F5F040E2
:102BA0004FEA300018BF41F000415FEA6C5C00F072
:102BB0002980BCF1FF3F08BF40F080407047130CF4
:102BC00006BF12044FF0100C4FF0000C130E04BFA0
:102BD00012020CF1080C130F04BF12010CF1040CCB
:102BE000930F04BF92000CF1020CD30F04BF5200EC
:102BF0000CF1010C11464FF00002A0F11F00A0EBF8
:102C00000C00704711F0004F08BF704731F00041D1
:102C10003FF4D5AF0B0C06BF09044FF0100C4FF07A
:102C2000000C0B0E04BF09020CF1080C0B0F04BFC3
:102C300009010CF1040C8B0F04BF89000CF1020C8C
:102C4000CB0F04BF49000CF1010CCCF12003A0EB29
:102C50000C0022FA03F302FA0CF241EA030100F13C
:102C60000100704720F07F4C80EA030023F07F478B
:102C7000ACEB070303F57C5300F0004003F1FF03C6
:102C80002DE980494FEA154B09B44FEA144325EA70
:102C90000B4E24EA03480FF2042606EB13274908DB
:102CA0003E785FEA320203FB0667C7F5000707FBC1
:102CB00006F64FEA54374FEAD64606F1020607FBFE
:102CC000066CCCF1005C4FEA1C472CEA074C07FB72
:102CD00006F40CFB06F504EB15464FEA961634BFD6
:102CE00000204FF000404FEAD13706FB07FC4FEAC7
:102CF0001C4C0CFB0BF7D21B03FB0CF761EB070121
:102D00000CFB0EF7B0EB074072EB17420CFB08F719
:102D100034BFA2EB0742B2EB074261EB17414FEA27
:102D20000C444FEA910706FB07FC4FEA1C4C0CFBD6
:102D30000BF7B0EBC74072EB573203FB0CF734BF15
:102D4000A2EBC742B2EBC74261EB57310CFB0EF767
:102D5000B0EBC70072EB57720CFB08F734BFA2EB65
:102D6000C702B2EBC70261EB5771039F4FEA816163
:102D700041EA921104EBCC044FEAD1374FEA826268
:102D800006FB07FC42EA90124FEA80604FEA1C4CB7
:102D90000CFB0BF7D21B03FB0CF761EB07010CFBE1
:102DA0000EF7B0EB074072EB17420CFB08F734BF8D
:102DB000A2EB0742B2EB074261EB17414FEA8C5599
:102DC0004FEA910704EB9C2406FB07FC4FEA1C4CDE
:102DD0000CFB0BF7B0EBC74072EB573203FB0CF761
:102DE00034BFA2EBC742B2EBC74261EB57310CFBD9
:102DF0000EF7B0EBC70072EB57720CFB08F734BF4D
:102E0000A2EBC702B2EBC70261EB577115EB4C2581
:102E10004FEA816141EA92114FEA82624FEAD1376B
:102E200042EA901206FB07FC44F100044FEA80607E
:102E30004FEA1C4C0CFB0BF7D21B03FB0CF761EBAE
:102E400007010CFB0EF7B0EB074072EB17420CFBCF
:102E500008F734BFA2EB0742B2EB074261EB174120
:102E600015EB1C154FEA813141EA92414FEA82325B
:102E700042EA90424FEA80304FEA0C7644F1000477
:102E800048EA03434EEA0B484FF0000EB2EB080C41
:102E900071EB030724BF624639464EEB0E0E4FF02E
:102EA000000B0018524149414BEB0B0BB2EB080CE5
:102EB00071EB03077BF1000B24BF624639464EEBF2
:102EC0000E0E4FF0000B0018524149414BEB0B0B1B
:102ED000B2EB080C71EB03077BF1000B24BF6246D9
:102EE00039464EEB0E0E51EA020718BF46F00106B6
:102EF00016EB0E7655F1000254F1000103D5BDE842
:102F00008901BDE80088BDE88901BDE80048B6191F
:102F1000524141EB0101A3F10103704780807F7EA4
:102F20007D7C7B7A7978777676757473727171703F
:102F30006F6E6E6D6C6C6B6A6A69686867666665F1
:102F40006464636362616160605F5F5E5E5D5D5C7F
:102F50005C5B5B5A5A5959585857575656555555F0
:102F60005454535352525251515050504F4F4F4E50
:102F70004E4D4D4D4C4C4C4B4B4B4A4A4A4949499E
:102F800048484847474747464646454545444444E0
:102F9000444343434342424242414141002B26D4F1
:102FA000770021D01CB54FEA370703B44FF010006B
:102FB0004FF010014FF000000FBCBDE810400BF1C6
:102FC000010BBBF1010F08BF5FEA170722BF12F127
:102FD000010211F101014FF0004143F1000300F043
:102FE000004043EA00007047F9D35708DAE746EAA1
:102FF000064613F1400F4FEA16461FDD13F1200F6E
:10300000DFBF16430A46002120335B42C8D0C3F11C
:10301000200746EA064602FA07F74FEA164646EA4E
:103020000706C3F1200722FA03F201FA07F721FA93
:1030300003F14FF0000342EA0702B1E746EA020655
:1030400046EA06464FEA164646EA0106BCBF46EA8D
:103050000646360C4FF000034FF000024FF000011F
:103060009EE72DE9C048934630B491E8380007C880
:1030700031EA400C48BF34EA430C03D5FFF7F2FDB8
:10308000FFF78CFFF0BCBDE800882DE9C0489346EF
:1030900030B491E8380007C810F0804F08BF13F033
:1030A000804F03D100F005F8FFF778FFF0BCBDE8D2
:1030B000008820F07F4780EA030023F07F4C07EB75
:1030C0000C03A3F57C5300F00040A3F1FE0392F043
:1030D000000F00F0B38095F0000F00F077802DE92D
:1030E00001494FEA11404FEA144621EA004800FB2B
:1030F00006FC24EA064708FB06F607FB08F800FB77
:1031000007F718EB06484CEB164C4FEA124B18EB3E
:1031100007484FEA15464CEB174022EA0B4E0BFBD3
:1031200006FC25EA06470EFB06F607FB0EFE0BFB28
:1031300007F71EEB064E4CEB164C4FF000061EEB4D
:10314000074E4CEB174B18EB0B0840F1000018EB47
:103150000E0B58EB000840F100008F1A4FF00001F1
:103160003CBFC943661B14BFB5EB040C00213CBF38
:10317000C943F61B4FEA17444EEA8E0E27EA044570
:103180004FEA1C4704FB07622CEA074C05FB07F7D4
:103190000CFB05F604FB0CFC16EB074642EB174252
:1031A00016EB0C4642EB1C421BEB060658EB0202E8
:1031B000414146EA9E0601D5BDE80189B619524152
:1031C00041EB0101A3F10103BDE801894FEA144578
:1031D0004FEA114724EA054621EA074C05FB07F4AC
:1031E00006FB07F70CFB06F105FB0CFC11EB074196
:1031F00044EB17444FEA124711EB0C4144EB1C44DB
:1032000022EA074C05FB07F206FB07F70CFB06F664
:1032100005FB0CFC16EB074642EB174216EB0C467F
:1032200042EB1C456A1854F1000148BF7047B619BB
:10323000524141EB0101A3F10103704795F0000FEA
:1032400037D04FEA11424FEA144721EA024624EAF6
:10325000074C02FB07F106FB07F70CFB06F402FB29
:103260000CFC14EB074441EB17414FEA154714EBF4
:103270000C4441EB1C4125EA074C02FB07F506FB19
:1032800007F70CFB06F602FB0CFC16EB074645EBBA
:10329000174516EB0C4645EB1C42121951F1000183
:1032A00048BF7047B619524141EB0101A3F1010338
:1032B00070474FEA14454FEA114724EA054621EAD0
:1032C000074C05FB07F106FB07F70CFB06F24FF076
:1032D000000605FB0CFC12EB074241EB174112EB19
:1032E0000C4251EB1C4148BF7047921841EB010161
:1032F000A3F1010370470000000000002DE9F04138
:103300001A4F387D10F0040F04BF4FF0FF30BDE8B6
:10331000F0810024164E356834601648016821F0AB
:1033200009010160144802F02AFB002818BF4FF081
:10333000FF34124802F023FB002818BF4FF0FF347F
:103340000F490868002818BF0E4A03D010680B68A0
:10335000002BFBD178680D4920F0C90078600A483D
:10336000086035602046BDE8F08100007834012017
:103370003C2C01402C2C0140B83301201834012092
:10338000482C0140802C0140FF074000382C0140B0
:1033900010B5044606480021417081702046FDF7B3
:1033A000C8FD044A014620465269BDE81040104756
:1033B000100A00209C76020801A0FDF70FB900005A
:1033C0004552524F523A20427573206661756C74B3
:1033D00021000000014801F049BF0000FCAE0020C0
:1033E000014801F043BF0000FCAE0020014801F09D
:1033F0003DBF0000FCAE0020014801F037BF0000D7
:10340000FCAE002070B51646DFF858C001F03F0151
:1034100041EA00200022CCE900200420CCE902028D
:10342000CCF810201C461A7831460CF11400FDF738
:103430009FFD0D4D0D48298802F0BEF928B92A8854
:1034400000210A4802F00EF908B1002070BD0848BA
:1034500000F11401027C22703046FDF789FD012045
:1034600070BD00003CAF002068010020FCAE0020D1
:1034700058AF002010B54FF4D872036802EB011268
:103480009B5813F0040C436BC3F808C0D0F800C07D
:10349000436B5CF802C007BF4FEA5C5CC3F800C036
:1034A0004FEADC0CC3F804C003689A58436B02F07F
:1034B0000202DA604FF4DA72036802EB01129B58E1
:1034C000D0F834C003F00F03CCF8103003689A58DA
:1034D000436BC2F30722DA614FF4DC72036802EB3C
:1034E00001129B58D0F834C08CF8143003689B58F4
:1034F000D0F834C01B0A8CF8153003689B58D0F8FC
:1035000034C01B0C8CF8163003689A58436B120EAB
:10351000DA754FF4DE72036802EB01129B58D0F8A3
:1035200034C08CF8183003689B58D0F834C01B0A9C
:103530008CF8193003689B58D0F834C01B0C8CF8F9
:103540001A3003689A58436B120EDA76202200294B
:1035500001680CBFCA600A6101684A690CBF22F0A9
:10356000020222F010024A6190F83810222918D184
:1035700001684A6922F480724A6101684A6922F44A
:1035800000724A6101684A6922F480624A610168F6
:103590004A6922F400624A6101684A6922F40042E1
:1035A0004A6190F8381032290CBF1221012180F8AD
:1035B000381002F000F9002010BD00002DE9F04F96
:1035C0008B46054600884D4986B0164631F81000F6
:1035D000ADF8080028881631022A31F81000ADF83D
:1035E000040005D10A20ADF808006420ADF80400FD
:1035F000BDF8081080B2401A2988DFF804914FF016
:103600000108404C39F81110ADF80C80491E90FBB0
:10361000F1F087B2032E57D009F1F20A142303AA5E
:1036200001A902A8CDF800A006F07CFE06EB46003A
:1036300000EBC606204604EB4604BDF80C102182C0
:10364000BDF80430BDF808209B1A93FBF1F16182AC
:1036500000212175BBF800309A1A92FBF7F293B261
:103660002A8839F812C0ACF1010C1FFA8CFC6345B2
:1036700088BF6346521E02EB420C0CEBC2021A4496
:10368000214B05460F4633F8122020F81620ADF8DE
:103690001410ADF81020ADF80C80142303AA04A96F
:1036A00005A8CDF800A006F03DFEBDF80C20A281D3
:1036B00035F81600BDF81410401A90FBF2F0E081C6
:1036C000677506B0BDE8F08FA4F84E800720A4F817
:1036D00050000620A4F844000C20A4F84200A4F8EE
:1036E00052801120A4F854001220A4F8480023208E
:1036F000A4F8460006B0BDE8F08F000034000020BA
:1037000060000020420B00207600002030B584B01D
:103710000120ADF80C000D4602EB420000EBC201A7
:103720001348142300EB410403AAE088ADF8080015
:10373000A088ADF804000F48009001A902A806F087
:10374000F1FDBDF80C002082BDF80410BDF8082082
:10375000891A91FBF0F16182002121752988B1FB62
:10376000F0F10548C1802988818104B030BD000096
:10377000420B002052010020100B0020F0B584B055
:103780000120ADF8040002EB420000EBC205154F2A
:103790000E4607EB450437F81500ADF80C006088BD
:1037A000ADF8080010480090142301AA03A902A84C
:1037B00006F0B8FDBDF8040002B2A28137F815107A
:1037C000BDF80830C91A91FBF0F0E0810020607567
:1037D000308890FBF2F1A7F1320001813188C1817C
:1037E00004B0F0BD420B0020520100202C48002400
:1037F0002C4D04702C482C702C4E04700122042196
:10380000304602F04CFE2AA007F0B4FE1822012137
:103810000A200BF09DFBB0F1FF3F0DD018280BD113
:1038200000220421304602F03AFE24483115006897
:1038300011F0D0FA0120287021480178002915D014
:10384000047020A007F096FE23A007F093FE2AA0A4
:1038500007F090FE30A007F08DFE35A007F08AFE3D
:103860003AA007F087FE12A0FFF792FD394C4FF403
:103870007A71606911F00CFA402802D0102803D048
:103880000BE00BF031FE08E0012904D0022908BF4B
:103890000BF054FD01E00BF03BFF11F0D5FAE6E729
:1038A000500A0020CA010020C9010020001802406F
:1038B00041542B4346554E3D310D0A00AC090020C2
:1038C000130A002041542B532E5353494454585447
:1038D0003D200D0A0000000041542B532E53434657
:1038E000473D776966695F7770615F70736B5F747E
:1038F0006578742C200D0A0041542B532E534346F7
:10390000473D776966695F707269765F6D6F646560
:103910002C320D0A0000000041542B532E53434615
:10392000473D776966695F6D6F64652C310D0A00EC
:1039300041542B532E534346473D69705F75736561
:103940005F646863702C310D0A00000041542657F3
:103950000D0A0000C00900200448007D10F0020F8D
:103960000CBF4FF0FF306FF0030070477834012038
:103970002DE9F04F90460E46DFF8D8B103EB430235
:103980000446002102EBC30786B008464FF00A0E3A
:103990004FF001090BEB470543B14FF0060A012B2D
:1039A0002DD0022B31D0032B38D03CE0ABF80A905D
:1039B000ABF808902188012918BFA4F8009003D023
:1039C00065482188818001202188644ADFF890C100
:1039D00032F81110ADF8081022883CF81220ADF82A
:1039E0000420521AB4F800C05E4931F81C10491E78
:1039F00092FBF1F11FFA81FA022B2AD123E0554AFA
:103A0000A2F82090A2F81EA00DE0524A02F12C0C60
:103A1000A2F836900322ACF8082004E04D4AA2F840
:103A20004CA0A2F84AE0B4F800C06A8994453CBFB3
:103A300022800121B4F800C02A8994458CBF2280DD
:103A40000029C1D0BCE74FF06401ADF808E0ADF843
:103A500004103388BDF808204FF0000193423CBFAA
:103A6000328001213388BDF8042093428CBF32801C
:103A700000291FD03C480090ADF80C904FF0140383
:103A800003AA01A902A806F04DFCBDF80C0028828B
:103A9000BDF80410BDF808208B1A93FBF0F36B827D
:103AA000EA80A9803188B1FBF0F12B48C1803188D0
:103AB000818101203188BDF808202A4B891A91FBA9
:103AC000FAF18AB2218833F811305B1E9BB29A4218
:103AD00088BF1A46491E01EB410303EBC1011144A3
:103AE000224A32F811102BF81710B8F800208A4239
:103AF0009CBF06B0BDE8F08FA8F80010ADF80C90A0
:103B00003BF81700ADF810000024ADF8144016483B
:103B10000090142303AA04A905A806F003FCBDF82D
:103B20000C0001B2A9813BF81720B2FBF0F0E8814C
:103B30006C80BDF810002BF81700B8F8000090FB5F
:103B4000F1F105480181B8F80010C18106B00120EB
:103B5000BDE8F08F420B0020100B00203400002045
:103B60004A00002060000020520100207600002062
:103B700070B4294B4FF0060C0A24A3F84CC0A3F8EC
:103B80004A400488062C3CBF6446A0F800C0A5B299
:103B9000B3F84A40A54288BF048000881F4C0D2519
:103BA000A08010880D2888BF158003D8062838BF4C
:103BB000A2F800C00120A3F84E000726A3F8506029
:103BC000A3F844C0A3F84250B2F800C09CFBF0FC3C
:103BD000A4F808C0B2F800C0A4F80EC012884FF4D0
:103BE000B46C02FB0CF24FF4FA7CB2FBFCF20A80DC
:103BF000A3F852001122A3F854201222A3F848205F
:103C00002322A3F846200A88B2FBF0F0E08008885F
:103C1000A08170BC01207047420B0020100B0020D7
:103C20004E4A127D12F0020F04BF4FF0FF30704772
:103C300000B585B00E2851D2DFE800F050072B35D3
:103C40004B50506750507050727F45480844B0FB4D
:103C5000F1F0022838BF002003D3801EFF2888BF60
:103C6000FF2040490A6822F0FF0222F480620243EA
:103C700042F480720A603C49801CB1FBF0F0B42130
:103C8000491EFDD135490A7D42F004020A7505B08E
:103C900000BD11B101294DD020E03248016821F466
:103CA0000051016046E0002908BF022003D001292D
:103CB00008BF122012D10421CDE90010012002908A
:103CC000032003900C2004906946284802F0C8FAAB
:103CD00030E039B101290AD002290FD005B06FF0C8
:103CE000030000BD1F48016821F4C051D9E71D48F9
:103CF000016821F4C05141F40061D2E7194801681C
:103D000021F4C05141F48051CBE7164800290168E5
:103D100014BF21F4007141F40071C2E71448C0E7F8
:103D20000E48416821F0400141601248016841F4A9
:103D30008001016005B0002000BD08480029017D18
:103D40001CBF41F080010175F4D121F080010175A3
:103D50000948016821F40071A3E7000078340120CC
:103D6000FF6BDC02042C0140006CDC02000C024002
:103D7000242C01403C2C01402C2C014010B51E4845
:103D80008EB00024016841F00101016000680994CF
:103D900000F001000C9020200790022008900120E4
:103DA000CDE90A4007A9154802F05AFA0594702097
:103DB0000090042004901248019402940394069405
:103DC00041F26801C467C0F88040C0F88410C0F8B0
:103DD0008840C0F88C40C8060A490860084603F0CD
:103DE0005FFC00226946074803F08CFB0021054870
:103DF00003F072FC0EB010BD4038024000000240DB
:103E000048230020C02300200449002008700449F2
:103E100041F268000968486370470000960100207D
:103E2000C02300200149012008707047960100203E
:103E3000C0EBC00000EB40004FF6FF7101EA40000C
:103E400041F26801884288BF41F26800081A0249BD
:103E50000968486370470000C0230020F8B50024BB
:103E6000142269464FF4706006F022FC654D022072
:103E7000298810F0BBFF402808BFF8BD2988012021
:103E800010F0B4FF402808BFF8BD14225E48009926
:103E90000CF043FF5D48B2EE042A5B4B90ED000A44
:103EA000598820EE020ABCEEC00A10EE100A80B259
:103EB000814203D010EE100A01245880544819881A
:103EC000D0ED000A20EE820ABCEEC00A10EE100A05
:103ED00080B2814203D010EE100A012418804D48B0
:103EE000998890ED001A21EE020ABCEEC00A10EE8D
:103EF000100A80B2814203D010EE100A012498808B
:103F00004548D98890ED000A20EE020ABCEEC00AAE
:103F100010EE100A80B2814203D010EE100A012484
:103F2000D8803E481989D0ED001A21EE820ABCEEF5
:103F3000C00A10EE100A80B2814203D010EE100ABF
:103F4000012418813648598990ED000A20EE022A92
:103F5000BCEEC22A12EE100A80B2814203D012EEE9
:103F6000100A012458812F4890ED002AB4EEE12A6E
:103F7000F1EE10FA34BF01220022198A91421CBFCF
:103F80001A820124D0ED001AF4EEC01AF1EE10FAF4
:103F9000ACBF01210021588A88421CBF59820124EC
:103FA000DFF884C09CED000AB4EEC10AF1EE10FA0D
:103FB000CCBF01200020DE8986421CBFD8810124AD
:103FC00062B9002918BF002808D09CED000AB4EEA1
:103FD000E00AF1EE10FA38BF012000D300209989E1
:103FE000814212BF9881002CF8BD4FF0140206499F
:103FF0004FF470600BF0A0FE2988022010F0F6FE4E
:10400000F8BD000066010020540E00207801002059
:10401000740100207C010020800100209801002014
:104020009C010020B4010020B0010020DFF854C042
:1040300030B4DCE908239A4238BF134C17D2BCF8DD
:104040002020C2F30D02A25C0A2A18BF0D2A11D04B
:104050000B8803F101050D80C254DCF8202002F129
:104060000102CCF82020DCF824309A42E7D330BC9F
:1040700000207047DCF82000401CCCF8200030BC49
:1040800001207047100A0020E04B002010B53A20B4
:1040900002F06CFBBDE81040014801F017BD0000C4
:1040A0009035012010B53B2002F060FBBDE81040C8
:1040B000014801F00BBD0000B833012010B54520C8
:1040C00002F054FBBDE81040014801F0FFBC0000C5
:1040D0001834012010B5462002F048FBBDE810401E
:1040E000014801F0F3BC00003035012070B5174CD9
:1040F00000202070164D20211648AA6990476A6951
:104100002021154890474FF47A7602F0D3F90546FE
:10411000207848B902F0CEF9401BB04204D810F024
:1041200093FE20780028F5D000201021094ACB0208
:1041300012F801C0BCF1FF0F0CBF43EA5000400869
:10414000491CC9B22029F3D370BD0000E509002045
:10415000D4760208282300205C730208F0B583B0EF
:10416000234F0025F0208DF800508DF80400BA6A26
:104170004FF41651012090470121BA6A152090474B
:104180000121BA6A16209047012001F09AFE194CCD
:1041900025707A69012101A89047BA690121684612
:1041A00090474FF47A7602F085F90546207848B9B1
:1041B00002F080F9401BB04204D810F045FE207890
:1041C0000028F5D0BA6A4FF4E1310120904701216F
:1041D000BA6A152090470121BA6A162090479DF8C7
:1041E0000000F02814BF0120002003B0F0BD000043
:1041F000D4760208E509002070B5104C002020702C
:104200000F4D10210F486A699047AA6910210E4886
:1042100090474FF47A7602F04DF905462078002851
:1042200018BF70BD02F046F9401BB04288BF70BD98
:1042300010F00AFE20780028F4D070BDE5090020B7
:10424000D47602084C730208282300200121094A71
:10425000082808BF704705DC012808BF70470228FE
:1042600005D0704710281EBF2028402870471170C5
:1042700070470000E5090020704700000D480178F4
:10428000002918BF70470121017000200A4A106000
:104290000A4A10800A4A11700A490A68506208687E
:1042A000C26842F00102C26001220868002108F0E1
:1042B00091BD0000CB010020D4010020D0010020DE
:1042C000E4090020341A002025480178002918BF8D
:1042D000704770B50121234A017000201060224A06
:1042E000234D1080214A117029684862A5F13C04D1
:1042F00021684862014604F13C0003F0EDF92868AA
:10430000C16841F00101C1602068C16841F001014C
:10431000C1602068C16841F00201C160154804F124
:104320007805007888B108F0A5FA296840F63400CD
:10433000C862E86004F1780002F02EFF2068BDE852
:1043400070400122002108F045BD08F093FA296869
:1043500041F26800C862E860074802F01DFFEDE71F
:10436000CB010020D4010020D0010020E40900206E
:10437000701A002006000020AC1A002016480178B0
:10438000002908BF704710B50021017013490120B2
:1043900008700021124803F0BBF9124C00221146AC
:1043A000206808F017FD2068016A41F211121142DD
:1043B00007D1016A9210114203D1016821F0010175
:1043C000016000224FF40061074802F068F8BDE880
:1043D000104008F03DBA0000CB010020E4090020A5
:1043E000701A0020341A002000040240012001F05D
:1043F0002BBF10B54FF4005001F026FF4FF4804062
:1044000001F022FFBDE810404FF4004001F01CBF56
:10441000022001F019BF082001F016BF102001F0A2
:1044200013BF00003E49A0F1804281B0B2F50032D6
:1044300033D0A0F18042B2F5013236D0A0F18042F3
:10444000B2F5023239D0A0F18042B2F503323CD04D
:10445000A0F18042B2F504323FD0A0F18042B2F523
:10446000053242D0A0F18042B2F5063245D0A0F12B
:104470008042B2F5073248D0A0F18042B2F508324E
:104480001CBF01B07047086840F48070086008687D
:1044900000F48070009001B07047086840F001009F
:1044A0000860086800F0010036E0086840F002008B
:1044B0000860086800F002002EE0086840F0040080
:1044C0000860086800F0040026E0086840F0080072
:1044D0000860086800F008001EE0086840F010005E
:1044E0000860086800F0100016E0086840F020003E
:1044F0000860086800F020000EE0086840F0400006
:104500000860086800F0400006E0086840F080009D
:104510000860086800F08000009001B0704700005B
:10452000303802403E49A0F1804281B0B2F50032FD
:1045300033D0A0F18042B2F5013236D0A0F18042F2
:10454000B2F5023239D0A0F18042B2F503323CD04C
:10455000A0F18042B2F504323FD0A0F18042B2F522
:10456000053242D0A0F18042B2F5063245D0A0F12A
:104570008042B2F5073248D0A0F18042B2F508324D
:104580001CBF01B07047086840F48070086008687C
:1045900000F48070009001B07047086840F001009E
:1045A0000860086800F0010036E0086840F002008A
:1045B0000860086800F002002EE0086840F004007F
:1045C0000860086800F0040026E0086840F0080071
:1045D0000860086800F008001EE0086840F010005D
:1045E0000860086800F0100016E0086840F020003D
:1045F0000860086800F020000EE0086840F0400005
:104600000860086800F0400006E0086840F080009C
:104610000860086800F08000009001B0704700005A
:10462000303802403D49A0F1804281B0B2F50032FD
:1046300007D10A6842F001020A600A6802F001022A
:104640000092A0F18042B2F5013207D10A6842F02F
:1046500002020A600A6802F002020092A0F180429F
:10466000B2F5023207D10A6842F004020A600A6811
:1046700002F004020092A0F18042B2F5033207D1A9
:104680000A6842F008020A600A6802F00802009212
:10469000A0F18042B2F5043207D10A6842F010025C
:1046A0000A600A6802F010020092A0F18042B2F59E
:1046B000053207D10A6842F020020A600A6802F057
:1046C00020020092A0F18042B2F5063207D10A68BA
:1046D00042F040020A600A6802F040020092A0F133
:1046E0008042B2F5073207D10A6842F080020A60C0
:1046F0000A6802F080020092A0F18042B2F508320E
:104700001CBF01B07047086840F4807008600868FA
:1047100000F48070009001B0704700003038024013
:104720001548016811F4007F0FD0016821F4007171
:104730000160016841F400610160016821F40061D9
:104740000160016841F400710160016811F4806F3B
:1047500008BF7047016821F480610160016841F47D
:1047600080510160016821F480510160016841F4C9
:104770008061016070470000003C024020490868E9
:1047800010F0100F1F4805D0C26942F01002C2613C
:1047900010220A600A6812F0200F05D0C26942F0A8
:1047A0000802C26120220A600A6812F0400F05D098
:1047B000C26942F00402C26140220A600A6812F033
:1047C000800F05D0C26942F00202C26180220A60F5
:1047D0000A6812F4807F06D0C26942F00102C26109
:1047E0004FF480720A600A6812F0020F08BF704727
:1047F000C26942F02002C2610220086070470000D6
:104800000C3C0240F035012070B5164904460020EA
:10481000C86101F04FFE144D0646286810F4803F31
:104820000ED0B4F1FF3F07D024B101F043FE801B4E
:10483000A04201D9032070BD286810F4803FF0D158
:10484000286810F0010F1CBF0120286028684FF471
:10485000F97131EA00001CBF002070BDFFF78EFF28
:10486000012070BDF03501200C3C024070B523489A
:1048700086B00025016841F004010160006800F085
:10488000040004901E48016841F0020101600068C4
:104890001C4C00F0020004904FF4005000900720E0
:1048A000CDE90250019542F210766560A560E660A0
:1048B0002561656114482060204602F044FC694689
:1048C000204602F08BFC204602F059FC256465640A
:1048D000A664E564256504F13C010C4808600846BF
:1048E00002F031FC694604F13C0002F077FC04F16F
:1048F0003C0002F044FC06B070BD000040380240AD
:1049000044380240482300200004014000080040D1
:1049100070B50021084607F063F9164C0121002507
:10492000A1804FF47A71B0FBF1F22581A281B0FB36
:10493000F1F201FB120000F57A70E08165800E4E05
:1049400025806584307800F0BFFB2061307800F06E
:10495000DBFB606125836583A583E58321464FF4F6
:1049600080700BF03DF905480188BDE870400220D9
:1049700010F03CBA100C0020C40100206601002099
:104980002DE9F84F0646054673480024007807F0E5
:10499000E5FD724F24226946B7F808A0B7F80280F7
:1049A0004FF4807005F084FEDFF8B4B10220BBF84C
:1049B000001010F01BFA402808BFBDE8F88FBBF8C4
:1049C0000010012010F012FA402808BFBDE8F88F4F
:1049D000624800990CF003FA6349B7F80090614807
:1049E00008606249012008807988414518BF012488
:1049F000388907F0F5F8804678885D4920B10128AC
:104A000009D002280CD00FE0BA88C88882420BD99E
:104A1000B880012408E0BA880889824204D9F7E7FF
:104A2000BA8848898242F3D8B88800EE100AB8EEF6
:104A3000400A07F0FFF9B88800EE100A4D48B8EEBA
:104A4000400A80ED000A4FF47A70B8FBF0F1B981AA
:104A5000B8FBF0F100FB118000F57A70F88138891D
:104A6000504518BF012400220421434801F017FDDE
:104A70004FF00008A7F80080FFF7D4F9388BDFF873
:104A8000FCA0D8B1012204213B4801F008FD01221D
:104A90005103504601F003FD01203880C103504608
:104AA00001F0F8FC48B9032038803548A7F8188091
:104AB0004B2590ED000A06F0E7FF0124388CD8B1B1
:104AC0003048A7F8208080F8008003F077FC0022AF
:104AD0004FF40051504601F0E2FC0022202126480C
:104AE00001F0DDFC9FED280A06F0CEFFA7F800805C
:104AF0004925012407F0C8FF3888484518BF01241C
:104B0000DFF8548098F8000000F0DEFA3969884236
:104B10000BD098F8000000F0D7FA386198F8000040
:104B200000F0F2FA7861012400E04CB10B494FF437
:104B300080700BF055F8BBF80010022010F056F909
:104B4000AE4214BF002CBDE8F88FBBF80010284619
:104B500007F0B6F8BDE8F88FC4010020100C002063
:104B60006601002040420F00D8010020D201002041
:104B7000F6010020880100200014024000080240D5
:104B8000E8080020CC01002000000000F8B506462F
:104B900004460025242269464FF4807005F088FD04
:104BA000204F0220398810F021F9402808BFF8BDB5
:104BB0003988012010F01AF9402808BFF8BD1A48BA
:104BC00000990CF00CF9512E02D0522E1DD013E09A
:104BD000164890ED000A1648D0ED000AB4EEE00A3F
:104BE000F1EE10FA1CDC01250F4928020AF0F8FF4B
:104BF0003988022010F0FAF8A64214BF002DF8BD43
:104C00003988204607F05CF8F8BD0A4890ED000AA4
:104C10000948D0ED000AB4EEE00AF1EE10FAE2D253
:104C20004B24E0E766010020100C0020B4010020B6
:104C30009C010020B0010020840100202DE9F04FEC
:104C400006462DED028B81B00546002424226946DC
:104C50004FF4807005F02CFDDFF870B20220BBF835
:104C6000001010F0C3F8DFF868920027DFF864A2A4
:104C7000DFF86482402822D058460188012010F0D5
:104C8000B5F840281BD0954800990CF0A8F8C9F851
:104C90000070DFF848923220B9F800B00FF082FFC0
:104CA00001220421504601F0FAFBA6F14A00052832
:104CB00041D8012251038A4801F0F1FB41E0D9F8C3
:104CC0000000401CC9F800000228DEBF01B0BDECA6
:104CD000028BBDE8F08F8348C9F80070077088F830
:104CE000007003F06BFB64200FF05CFF00222021BA
:104CF000504601F0D4FB64200FF054FF00224FF423
:104D00000051774801F0CBFB64200FF04BFF0022ED
:104D10000421504601F0C3FB07F0ACFD72484AF293
:104D200010410268D162C16002F036FA01B0BDECF8
:104D3000028BBDE8F08F00224FF40051684801F06B
:104D4000AEFBA6F14D00022805D8012220216148C2
:104D500001F0A5FB04E0002220215E4801F09FFB4A
:104D60004F2E06BF012088F8000088F80070B9F8BF
:104D70001A10022029B14D25A9F80000A9F81A70CF
:104D800001244D2E0BD1A9F800001021514801F04B
:104D900081FB20B903204E25A9F800000124B9F8B1
:104DA0001C00DFF848A1B8B19AF8000000F08CF9B7
:104DB0004F4991ED001A4F49D1ED000A4E4991ED4E
:104DC000000A0EF083F9A9F81C70012208214B4853
:104DD00001F065FB4F250124B9F81E009FED488ABC
:104DE00028B39AF8000000F06FF90EF09FF9A9F8C7
:104DF0001E7000220821414801F051FB88F8007024
:104E000003F0DCFA00224FF40051354801F047FB73
:104E1000002220212F4801F042FBB0EE480A06F0A4
:104E200033FEA9F800704925012407F02DFEB9F8DA
:104E30002000D0B1A9F8207088F8007003F0BEFA05
:104E400000224FF40051264801F029FB00222021C6
:104E5000204801F024FBB0EE480A06F015FEA9F840
:104E600000704925012407F00FFEB9F800005845ED
:104E700018BF01249AF8000000F026F9D9F81010A4
:104E800088420DD09AF8000000F01EF9C9F8100011
:104E90009AF8000000F038F9C9F81400012400E085
:104EA0004CB10E494FF480700AF09AFE0748018811
:104EB00002200FF09BFFAE4218BF002C3FF436AF2C
:104EC00002480188284606F0FBFE2FE76601002015
:104ED000A409002000140240CC010020100C002086
:104EE00000080240F4010020AC1A0020C401002098
:104EF000900100208C010020880100200000024069
:104F0000000000000148406870470000107502086A
:104F100010B5044607E00C490C48FBF7B5FF0CA19F
:104F2000FCF7EEF840B1214620200FF05FFF40284B
:104F3000F1D14FF0FF3010BD03490020FBF7A4FF73
:104F4000FBF78AFD00B210BD44500108608C0020C0
:104F5000444154414C454E0038B50C46054610229C
:104F60006946202005F05CFB294602200FF03EFF39
:104F7000402808BF38BD294601200FF037FF4028E0
:104F800008BF38BD0098817901F00F02090901EBD3
:104F9000810102EB4101A171417901F00F02090980
:104FA00001EB810102EB41016171017901F00F0216
:104FB000090901EB810102EB41012171807800F0C8
:104FC0000F01000900EB800001EB4000A070009889
:104FD000C07800F00F01000900EB800001EB4000F9
:104FE000E0700098407800F00F01000900EB8000AD
:104FF00001EB400060700098007800F00F0100099C
:1050000000EB800001EB4000207038BD10B5044675
:1050100007E00CA10D48FBF737FF0DA1FCF770F876
:1050200040B1214620200FF0E1FE4028F1D14FF0A1
:10503000FF3010BD03A10020FBF726FFFBF70CFD9E
:1050400000B210BD203A0A0D00000000608C002064
:105050004944000010B50C4C0821204601F01AFA12
:1050600001284FF00401204606D001F013FA012870
:105070000CBF0220002010BD01F00CFA012814BF63
:105080000120032010BD00000010024038B50C467E
:10509000054602226946032005F0C2FA294602208D
:1050A0000FF0A4FE40280CD0294601200FF09EFEF0
:1050B000402806D000980088010A41EA002080B20A
:1050C00038BD204638BD0000062810D2DFE800F0C9
:1050D0000306080B0F0D074800687047064800E0FC
:1050E0000648006870470648FBE70648F9E70020D5
:1050F000704700001C000020100000201400002059
:10510000180000200C000020062810D2DFE800F074
:105110000306080B0F0D074800687047064800E0BB
:105120000648006870470648FBE70648F9E7002094
:1051300070470000EC010020E0010020E4010020A5
:10514000E8010020DC0100200148D0F8C4007047CD
:10515000B83301200148006870470000107502084C
:1051600030B4087D012202FA00F03A4A136843F095
:1051700001031360136823F47C531360D2F800C05A
:105180004B6A4CEA03231360DFF8CCC0DCF8003034
:105190008343CCF80030314BCC69D4B91C688443CC
:1051A0001C608D894C6865F31F444D69ED0005F165
:1051B000804505F5C045C5F840460D890C6865F386
:1051C0001F444D69ED0005F1804505F5C045C5F862
:1051D0004446CC69012C1AD11C6804431C600C881D
:1051E0004B6864F31F434C69E40004F1804404F508
:1051F000C044C4F840360C89CB6864F31F434C6943
:10520000E40004F1804404F5C044C4F84436144B6F
:105210008C69002C1C680CBF844304431C60114B38
:105220000C6914B91C6884431C600C69012C02D100
:105230001C6804431C60096A012904D1DCF80010D1
:105240000843CCF80000106820F00100106030BC6A
:1052500000207047006600401C6600400C6600405D
:1052600004660040146600407047000070B5016895
:10527000044648694FF0010510F0010F45D08868D9
:10528000724A32EA00000CBF012000208A68704B8D
:1052900033EA02020CBF012200228B68DFF8B4C19E
:1052A0003CEA03030CBF01230023104318432CD016
:1052B0004A69204622F001024A6194F83810122906
:1052C00018D101684A6922F480724A6101684A690A
:1052D00022F400724A6101684A6922F480624A61DC
:1052E00001684A6922F400624A6101684A6922F44D
:1052F00000424A6190F83810322906BF222180F816
:10530000381080F8385000F039FB2068C1684069D7
:1053100011F0030FC0F3400018BF002804D04FF075
:1053200000012046FEF7A6F820680169406911F0E7
:10533000030FC0F3001018BF002804D04FF0010184
:105340002046FEF797F820688169426911F0010F45
:105350004369C2F30022C3F3C0331CBF002A002BF1
:1053600003D0E16B41F00101E16381694269C1F35E
:1053700040014369C2F34022C3F3C03300291CBF7C
:10538000002A002B03D0E16B41F00201E163816947
:105390004269C1F380014369C2F38022C3F3C03381
:1053A00000291CBF002A002B03D0E16B41F004014F
:1053B000E163816911F0700F0CBF01210021426986
:1053C0004369C2F3C022C3F3C03389BB002A18BFAC
:1053D000002B2DD0816901F07001402904BFE16BE1
:1053E00041F040011FD012DC102904BFE16B41F0F5
:1053F000080118D0202904BFE16B41F0100112D040
:10540000302904BFE16B41F020010CD00CE05029A1
:1054100004BFE16B41F0800105D0602904BFE16B5E
:1054200041F4807100D1E163816921F070018161F3
:10543000E06B002808BF70BD04202168486084F834
:1054400038502046FFF710FF70BD00000300000435
:105450000003000800000310002804BF012070476B
:105460002DE9F041044690F83800002620B984F870
:105470003960204600F09EF8022084F83800206849
:10548000016821F0020101602068016841F001011A
:10549000016001F00FF80546206840684FF00307EF
:1054A00010F0010F09D101F005F8401B0A2862D85D
:1054B0002068406810F0010FF5D02068416811F0B5
:1054C000010F69D0A169012901680CBF41F0800179
:1054D00021F080010160E0690128206801680CBFAB
:1054E00041F0400121F040010160206A012820685C
:1054F00001680CBF41F0200121F020010160606AC9
:105500000128206801680CBF41F0100121F0100152
:105510000160A06A0128206801680CBF41F0080101
:1055200021F008010160E06A0128206801680CBFD1
:1055300041F0040121F004010160D4E902010843B3
:10554000D4E90412114308436168491E08432168E5
:10555000C8612068016821F00101016000F0AAFF24
:1055600005462068406810F0010F10D000F0A2FF3F
:10557000401B0A2806D984F8387084F83960032063
:10558000BDE8F0812068406810F0010FEED120687E
:10559000406810F0010F05D0042084F83800012085
:1055A000BDE8F081E663012084F838000020BDE802
:1055B000F081000030B58FB0032002250124CDE931
:1055C0000A05CDE90C4009200E900AA9214800F0F7
:1055D00047FE00221146132001F0F6F8132001F0D7
:1055E000E3F800221146152001F0EEF8152001F035
:1055F000DBF800221146142001F0E6F8142001F037
:10560000D3F800221146162001F0DEF8162001F032
:10561000CBF81149A1F1400000F15C02C0E90C1285
:105620000E4A0020C1E9000204220D61C1E90220F6
:105630000C754875CDE90604CDE902020590049089
:10564000CDE90002CDE9084069460548FFF788FD2D
:105650000FB030BD000C02403CAF00207856341231
:10566000FCAE00202DE9F047044690F839001646BC
:105670000D46012804BF0220BDE8F0874FF0010865
:1056800084F8398094F8380012280CBF3220222088
:1056900084F8380000F00EFF81462068002D0CBF12
:1056A000C068006910F0030F4FF0000769D04FF495
:1056B000D870216800EB0510095811F00402616BE5
:1056C0008A602268616B125807BF520D0A60D208C7
:1056D0004A6021680858616B00F00200C8604FF40E
:1056E000DA70216800EB05100958626B01F00F01B8
:1056F000116121680858616BC0F30720C8614FF43D
:10570000DC70216800EB05100958626B1175216887
:105710000958626B090A517521680958626B090CB6
:10572000917521680858616B000EC8754FF4DE70E2
:10573000216800EB05100958626B11762168095841
:10574000626B090A517621680958626B090C9176DF
:1057500021680858616B000EC87620202168002D52
:105760000CBFC860086194F83800322806BF1220C8
:1057700084F8380084F8388084F839700020BDE857
:10578000F087B6F1FF3F0DD02EB100F093FEA0EBF5
:105790000900B04206D9032084F8380084F8397033
:1057A000BDE8F0872068002D0CBFC068006910F0CC
:1057B000030FE6D07BE770472DE9F05F02680446EF
:1057C0000E46906810F0806F01BF906810F0006F77
:1057D000906810F0805F7DD094F83900012804BFF4
:1057E0000220BDE8F09F012084F8390094F83800C9
:1057F00022280CBF3220122084F83800906810F064
:10580000806F18BF002571D04FF4C07000EB0510F9
:10581000115801F001011150216B8A68002A6CD0E7
:10582000236853F800C04CEA0202D1F80CC0496862
:105830004CEAC10111431950216B0A7C02F00F029E
:105840000A614FF4C271226801EB0511535823F02D
:105850000F03535022685358D4F830C0DCF810C0FE
:1058600043EA0C035350216B4FF4C47303EB05134D
:105870000A7DD1F8151042EA01212268D150216B2E
:105880004FF4C67303EB05130A7ED1F8191042EAF0
:1058900001212268D15021680A5842F001020A50C1
:1058A00000F008FEDFF8C880DFF8C890DFF8C8A075
:1058B00007464FF0000B5DB32068012D80682DD0A6
:1058C0003AEA000036D0B6F1FF3F2BD03EB100F0EF
:1058D000F1FD01E045E009E0C01BB04222D9032000
:1058E00084F8380084F839B0BDE8F09F906810F073
:1058F000006F14BF0125022586E722681358D1F8EE
:105900000CC0098843EA0C0343EA4151115093E764
:105910002068806838EA0000D5D10BE039EA000041
:10592000D1D107E09DB12068012D806815D03AEAF9
:105930000000C8D194F8380032280CBF2220012082
:1059400084F8380084F839B00020BDE8F09F206862
:10595000806838EA0000B6D1ECE739EA0000B2D13D
:10596000E8E7042084F838000120BDE8F09F00003B
:1059700003000004000300080000031070472DE935
:10598000F0410446866D00F095FD054694F835001B
:105990000027022806D08020606584F8347001203A
:1059A000BDE8F0812068016821F0160101602068DF
:1059B000416921F080014161206C002804BFA06C86
:1059C000002804D02068016821F0080101602068E7
:1059D000016821F0010101602068006810F0010FEA
:1059E00012D000F067FD401B052808D92020606513
:1059F00084F83470032084F83500BDE8F081206815
:105A0000006810F0010FECD194F85C003F2101FA1E
:105A100000F0B06084F83470012084F83500002074
:105A2000BDE8F08190F83510022903D0802141654E
:105A300001207047052180F835100068016821F0C9
:105A40000101016000207047002804BF0120704759
:105A500090F83510022904BF0220704701680A68D7
:105A600022F001020A6001684FF0000CC1F800C08A
:105A70000168C1F804C00168C1F808C00168C1F834
:105A80000CC00168C1F810C0026821215161016891
:105A90000C4BCAB2103AA3FB02320B4B1209032A79
:105AA0009B5CC3656FF3090188BF091D3F229A40C3
:105AB00081658A60C0F854C080F835C080F834C071
:105AC00000207047ABAAAAAA3B7702082DE9F84349
:105AD00004464FF00008CDF8008073484FF416518B
