:020000040801F1
:10000000C88C0120A5040108D99C01084D74010881
:10001000B59C0108D5330108E9F201080000000091
:10002000000000000000000000000000750301084F
:1000300095450108000000002D0401089104010805
:10004000BF040108BF9D0108BF040108BF040108E7
:10005000BF040108BF040108494701086F470108B0
:10006000BF0401087947010883470108BF0401085C
:10007000BF040108BF040108BF040108BF04010850
:10008000BF040108BF040108BF040108BF04010840
:10009000BF040108BF040108BF040108BF04010830
:1000A000A1CB0108C1CB0108B1CB0108BF040108F5
:1000B000BF040108BF040108BF040108BF04010810
:1000C000BF040108BF040108BF040108BF04010800
:1000D000B9A50108EDD40108BF04010865D50108E0
:1000E00053470108BF040108BF040108BF04010809
:1000F000BF040108BF040108BF040108BF040108D0
:10010000BF04010861A20108BF040108BF0401087F
:10011000BF040108BF040108BF040108BF040108AF
:10012000BF040108BF040108BD420108D142010813
:10013000BF040108BF040108BF040108BF0401088F
:10014000BF040108BF040108BF040108BF0401087F
:10015000BF040108E5420108F942010875D601080B
:10016000BF040108BF040108BF040108BF0401085F
:10017000BF040108BF040108BF040108000000001B
:10018000BF040108BF04010800F002F800F09DF868
:100190000AA090E8000C82448344AAF10107DA45E2
:1001A00001D100F092F8AFF2090EBAE80F0013F097
:1001B000010F18BFFB1A43F001031847747E0100BA
:1001C000947E01000A444FF0000C10F8013B13F03C
:1001D000070408BF10F8014B1D1108BF10F8015BA0
:1001E000641E05D010F8016B641E01F8016BF9D193
:1001F00013F0080F1EBF10F8014BAD1C0C1B09D1EA
:100200006D1E58BF01F801CBFAD505E014F8016B5B
:1002100001F8016B6D1EF9D59142D6D370470000ED
:100220000023002400250026103A28BF78C1FBD8FF
:10023000520728BF30C148BF0B607047662917F0CE
:100240008180652917F07E80672917F07B806129FE
:1002500017F07A80692900F04D82642900F04A8203
:10026000752900F047826F2900F0DE82782900F0BE
:1002700005830368DB0928BF41F08001632901F091
:100280003484732901F03984E32901F04484002087
:1002900070471FB517F051F89DE8030001F058FEB4
:1002A00001F039FE04000020002116F0B9FF401CC7
:1002B00060600020002116F09DFFE06001F0F8FC76
:1002C0001FBD10B501F06CFD10BD02F025FA1146FE
:1002D000FFF7DFFF0FB400F00BF80FBC13F0B0FB1B
:1002E00000F0CAFD03B4FFF7ECFF03BC02F00EFA06
:1002F00004B014F04BFE0448002114F06BFF14F01E
:1003000057FE00F0B9FD00004476020880F309882A
:100310007047EFF309807047684680F30988044806
:100320000078C00714BF0220032080F314887047B0
:1003300004760208DFF818C0EFF305831B0618BF28
:100340006047EFF31483DB0708BF604700DF7047A7
:10035000A5570208DFF818C0EFF305831B0618BF86
:100360006047EFF31483DB0708BF604700DF704787
:10037000555A0208EFF30980816911F8021CE1BBAC
:1003800090E80F1010B5E047BDE81040EFF3098C7E
:100390008CE80700214B93E80600914208BF7047A4
:1003A00041B91EF0100F16D11D49086820F0010058
:1003B000086010E01EF0100F06BF2CED108A01201F
:1003C000002081F825002CE9F00FC1F828C00CB4FA
:1003D00015F050FF0CBC1A60D2F828C0BCE8F00F32
:1003E00092F8250000280EBF6FF0020E6FF0120E7B
:1003F000BCEC108A8CF30988704710B5094A126862
:10040000914209D8084C54F8214090E80F10A047B9
:10041000EFF3098C8CE80F0010BD000024050020CC
:1004200034EF00E0FC320108FC32010810B515F091
:10043000E5FDBDE81040154B93E80600914208BF6A
:100440007047EFF3098C1EF0100F06BF2CED108AD9
:100450000120002081F825002CE9F00FC1F828C008
:100460000CB415F007FF0CBC1A60D2F828C0BCE829
:10047000F00F92F8250000280EBF6FF0020E6FF00B
:10048000120EBCEC108A8CF30988704724050020FA
:1004900010B515F0B7FFCCE710B514F02FFF15F02D
:1004A000B1FFC6E70948804709480047FEE7FEE775
:1004B000FEE7FEE7FEE7FEE7FEE7FEE7FEE7FEE714
:1004C00004480549054A064B704700003DCB01082A
:1004D00089010108A87D0120C88C0120C884012061
:1004E000C8840120004870477877012053EA020C45
:1004F00000F069802DE9F04B4FF00006002B1FBF84
:10050000B3FA83F503FA05F424FA05F65E4012BF48
:100510001643B2FA82F502FA05F4C5F120051EBFB2
:1005200022FA05FC44EA0C04203556EA044C4FEA52
:10053000144418BF641C4FF000084FF000099042AB
:1005400071EB030C39D3002919BFB1FA81F701FA15
:1005500007F6B0FA80F700FA07F6C7F120071EBFCA
:1005600020FA07FC46EA0C062037B6FBF4FCA7EBA2
:100570000507103F07F01F0BCBF120060CFA0BFB11
:100580002CFA06F644BFB3460026202FA4BF5E46D1
:100590004FF0000B5BEA060C08BF4FF0010B19EBA4
:1005A0000B09ABFB027C48EB0608C01B06FB02CC28
:1005B0000BFB03CC71EB0C01C1E70B460246414635
:1005C0004846BDE8F08B13B54FF000004FF0000136
:1005D000AFF30080BDE81C40704700000FB4044931
:1005E00010B503AA029802F0DBF810BC5DF814FB0A
:1005F0002C7801200FB4014610B504AA039802F02C
:10060000CFF810BC5DF814FB0FB41CB5074B06AA5D
:100610007B4469460090059801F045FA0020694640
:1006200001F054FA1CBC5DF814FB0000B914000082
:1006300070B5044685690068C10601D5302600E022
:100640002026C00707D070BDD4E90121304690476D
:10065000206A401C20626D1EF6D570BD70B5044640
:1006600085690078C00707D170BDD4E90121202039
:100670009047206A401C20626D1EF6D570BD096847
:100680004A0501D540B27047C905FCD500B2704794
:1006900009684A0501D5C0B27047C905FCD580B2CA
:1006A000704770B50C460546012A05D028788006AB
:1006B00000D5EA69002302E0012305E05B1C9342B8
:1006C00002D2E05C0028F9D1A869E618C01AA86136
:1006D000286A184428622846FFF7AAFF04E0D5E9F3
:1006E000012114F8010B9047B442F8D32846FFF7D4
:1006F000B5FF70BD2DE9F04106460024106875294C
:10070000314616A510D0FFF7BAFF002802DA4042A2
:1007100013A507E031688A0701D512A502E0490751
:1007200004D511A5012401E0FFF7B2FF00210A2240
:1007300006F1240709E0B0FBF2FCB0FBF2F302FB88
:100740001C00303078541846491C0028F3D1234649
:100750002A463046BDE8F04100F0BCBD0000000074
:100760002D0000002B000000200000002DE9FF5F9D
:1007700015468A460446DFF8AC80F8440027D8E9DD
:1007800000103E46CDE9001010E03AF816106A4617
:1007900002A801F071FB411C07D02178890603D51E
:1007A000E269391891420DD80744761C20788006FA
:1007B00002D5E069B84205DDAE42E6DB3AF8160044
:1007C0000028E2D1A069C01BA0612046FFF730FFDE
:1007D000D8E90010CDE90010002017E03AF8181011
:1007E0006A4602A801F048FBB0F1FF3F81460BD0FA
:1007F00000250DF1080B05E0D4E901211BF80500E7
:1008000090476D1C4D45F7D308F10100B04280467A
:10081000E4DB206A384420622046FFF71FFFBDE872
:10082000FF9F00000E76010070B504462146106857
:10083000FFF72EFF002104F1240505E000F0070278
:100840003032C0086A54491C0028F7D120680023C0
:1008500008A2050708D500F02000084304D0E0698D
:10086000012305A2401EE0612046BDE8704000F073
:1008700031BD0000000000003000000070B50446EB
:100880000D4621461068FFF703FF2188090502D5B0
:100890000F4A7A4402E00E4A7A440E32002104F1F3
:1008A000240305E000F00F060009965D5E54491C24
:1008B0000028F7D120780023000704D5702D02D03E
:1008C00009B1022311322046BDE8704000F002BD9C
:1008D000FE7401002DE9F05F894604464FF0000ADE
:1008E000DFF874B1FB44C0F820A02046E1688847D7
:1008F000002874D0252806D0D4E901219047206A29
:10090000401C2062F1E700265F462046E1688847E8
:100910002028054607DB312D05D2781910F8200C68
:1009200008B10643F1E7B00701D526F00406C4F884
:100930001CA00027C4F818A02A2D09D028460FF0C3
:10094000F2FF38B304EB8708303DC8F8185019E0BF
:1009500059F8041B204604EB87029161E16888473F
:10096000012F054618D1E069002820DA26F020067C
:100970001DE0D8F8180000EB800005EB400030388F
:10098000C8F818002046E168884705460FF0CBFFFD
:100990000028EED1012F0AD02E2D08D12046E16883
:1009A00088477F1C0546022F46F02006C4DBA0695D
:1009B000002803DA404246F00106A061F00701D0AA
:1009C00026F010066C2D0BD0682D09D04C2D39D097
:1009D0006A2D35D0742D35D07A2D33D016E038E01D
:1009E000E1682F4620468847B842054609D16C2F5A
:1009F00026D04FF48060E1680643204688470546CC
:100A000004E06C2F1AD04FF4807006430DB3A5F1AB
:100A10004100192802D8203546F400664A46294686
:100A2000204626604E46FFF709FC80B101280BD016
:100A3000F61D26F0070000F1080956E74020E4E71C
:100A40008020D8E70020D6E706F104094DE72846C4
:100A500052E7206ABDE8F09FD474010070B50646E5
:100A600000F09FFB0468054630460A22002101F091
:100A70005EF82C6070BD00002DE9F041044616467A
:100A80000D464769007B80072ED038460FF0B0FF37
:100A900050BB3EB3012E02D0022E25D104E02046E9
:100AA00000F066F805441DE038460FF08CFFE16861
:100AB000002841F01001E16005DA204601F070F8ED
:100AC0000120BDE8F081C9030BD56268E16A91425B
:100AD00000D81146A26911442269891A814200DDB9
:100AE00008460544002D01DA0220EAE7E16A606861
:100AF000E268814206D29103E06203D522F400311C
:100B000041F01002A6690027AE4213DCE16A81427F
:100B100001D90B4600E0034603EB060C2369ACEB5E
:100B2000030CAC4506DD814201D98C4600E08446C9
:100B30009C4505D1A760276042F02000A5620DE02A
:100B4000AD1BE669AE1B8142A66000D90846C01AFB
:100B5000281A20605819606022F0200003490840DC
:100B6000E060002084F84870ABE70000BFCFD7FFFB
:100B700010B50146C268900703D0900607D5886A71
:100B80000AE000F00EFB01210160881E10BD8B6998
:100B9000486818440B69C01A91F848301BB191F8A5
:100BA0004910401A10BD1103FCD50028FADD401E83
:100BB00010BD01F06DB82DE9F04704464FF0000973
:100BC0004FF0FF37C568D4E90486A80707D0204650
:100BD00001F01AF830460FF0E1FE002802DA38463C
:100BE000BDE8F087280502D5404600F05CFB4C21AB
:100BF000204600F06CFA206D20F001002065484688
:100C0000EEE770B5044600F14C0528460FF092FE61
:100C10002046FFF7ADFF044628460FF0B1FE204600
:100C200070BD000070B505460A4E30460FF082FEDA
:100C300005F14C0420460FF07DFE2846FFF7BBFF70
:100C4000054620460FF09CFE30460FF099FE2846E0
:100C500070BD0000580500202DE9F04116460F46F2
:100C6000054600F14C0420460FF064FE324639463A
:100C70002846FFF701FF054620460FF081FE284673
:100C8000BDE8F08170B5044600F14C0528460FF030
:100C900051FE207B00F0400428460FF071FE2046F4
:100CA00070BD00002DE9F041044600F14C073846C4
:100CB0000FF040FEE068810712D0800601D5A66AD9
:100CC00004E0A169606808442169461A204600F0E2
:100CD0009BFF0022054631462046FFF7CDFE00E08F
:100CE000002538460FF04CFE2846BDE8F0812DE97E
:100CF000F04118B1BDE8F041FFF7D4BF0B4E00251D
:100D000030460FF017FE0A4C6F1E07E02046FFF733
:100D1000C9FF00B13D46206D20F00104002CF5D143
:100D200030460FF02DFE2846DFE700005805002072
:100D3000D87701202DE9F04716468846814602F112
:100D40004C0738460FF0F6FD3046FFF734FF18F831
:100D5000010B61280AD0722802D077283FD102E027
:100D60000125002405E00225042402E0082448F2BD
:100D7000020518F8010B2B2806D0622809D018F8B4
:100D8000010C74280AD00BE045F0030544F002047E
:100D9000EFE745F0040544F00104EAE744F01004ED
:100DA000484621460FF036FE411C18D00021316123
:100DB00071604FF40071F560F1617061200704D536
:100DC000304602220021FFF757FE306D40F001004F
:100DD000306538460FF0D4FD3046BDE8F087002678
:100DE000F7E72DE9F04115460E460746204C204610
:100DF0000FF0A0FD2A4631463846FFF79BFF054617
:100E000020460FF0BDFD2846BDE8F0812DE9F041F8
:100E10000E468046164D28460FF08CFD154C206D71
:100E2000C10704D0410804D020F00104F7E72246AE
:100E300012E0542000F0FCF9070017D0206D47F0B5
:100E40000101084354212065384600F040F907F1BC
:100E50004C000FF07FFD3A4631464046FFF76AFFEF
:100E6000044628460FF08CFD2046CDE70024F8E725
:100E700058050020D877012010B50446AFF3008054
:100E80002046BDE81040FFF72DBA0000014A01F0EE
:100E900013B800005405002030B505460B462A461D
:100EA00013F8014B12F8010B08B1A042F8D01CB1A5
:100EB000002802D06D1CF1E7284630BD40EA01034E
:100EC000024630B59B0710D14FF0013400E008C254
:100ED00008C91D1B9D4315EAC41FF8D013F0FF017C
:100EE00002F8011B0DD01B0AF8E711F8013B002B9B
:100EF00002F8013B05D011F8013B002B02F8013B41
:100F0000F3D130BD2DE9F041054690460E46002054
:100F1000044600E0641C44450BD2285D00F0CDF986
:100F20000746305D00F0C9F9381A02D1295D002961
:100F3000F0D1BDE8F08110B5431C02E010F8011BB0
:100F400071B18107FAD14FF0013202C88C1A8C437B
:100F500014EAC211F9D0C01A0A0603D0C01E10BD8F
:100F6000C01A10BD0A0401D0801E10BD0902FCD0B9
:100F7000401E10BD421E12F8013F002BFBD111F89C
:100F8000013B002B02F8013BF9D17047032A40F2E4
:100F9000308010F0030C00F0158011F8013BBCF11B
:100FA000020F624498BF11F801CB00F8013B38BF33
:100FB00011F8013BA2F1040298BF00F801CB38BF41
:100FC00000F8013B11F0030300F02580083AC0F05F
:100FD000088051F8043B083A51F804CBA0E8081007
:100FE000F5E7121D5CBF51F8043B40F8043BAFF33A
:100FF0000080D20724BF11F8013B11F801CB48BF94
:1010000011F8012B24BF00F8013B00F801CB48BFC9
:1010100000F8012B704710B5203AC0F00B80B1E802
:101020001850203AA0E81850B1E81850A0E818501D
:10103000BFF4F5AF5FEA027C24BFB1E81850A0E826
:10104000185044BF18C918C0BDE810405FEA827C40
:1010500024BF51F8043B40F8043B08BF7047D20757
:1010600028BF31F8023B48BF11F8012B28BF20F8F8
:10107000023B48BF00F8012B704702F0FF0343EA30
:10108000032242EA024200F002B84FF000020429B3
:10109000C0F0128010F0030C00F01B80CCF1040CA7
:1010A000BCF1020F18BF00F8012BA8BF20F8022BDB
:1010B000A1EB0C0100F00DB85FEAC17C24BF00F881
:1010C000012B00F8012B48BF00F8012B70474FF0AF
:1010D000000200B5134694469646203922BFA0E888
:1010E0000C50A0E80C50B1F12001BFF4F7AF090794
:1010F00028BFA0E80C5048BF0CC05DF804EB890085
:1011000028BF40F8042B08BF704748BF20F8022BC7
:1011100011F0804F18BF00F8012B70474FF0013CD1
:1011200050F8042B51F8043B9A4221D1A2EB0C0356
:10113000934313EACC1317D150F8042B51F8043B16
:101140009A4215D1A2EB0C03934313EACC130BD1B3
:1011500050F8042B51F8043B9A4209D1A2EB0C033E
:10116000934313EACC13DBD04FF00000704700BF6D
:10117000D01A01BAB1FA81F101F0180122FA01F096
:10118000CB40C1F12001DBB2C0B2C01A2CFA01F38E
:10119000D11A914311EAC311E6D1704770477047E5
:1011A00070470FF087BB0B3020F0070070472DE928
:1011B000F04117460E460446FFF7F5FFA0420546EC
:1011C00033D9002F1CBF06F10C000FF0B3FB3046E3
:1011D0007468F4B12168A94217D305F1080291425D
:1011E0003CBF6168416007D3626861194A60226848
:1011F000521B0A6041602560002F1CBF06F10C00E5
:101200000FF0BEFB201DBDE8F08120466468002C75
:10121000E0D12946304600F087FE0028D7D1002FC4
:101220001CBF06F10C000FF0ABFB0020BDE8F08105
:1012300010B5044600F06AFE01682046BDE8104083
:101240000122B4E770B516460D46041F002808BFFA
:1012500070BD002E1CBF05F10C000FF06BFB2B4680
:101260005868002818BFA04238BF0346F8D3196851
:10127000CA18A24218BF5C6003D122681C46114400
:10128000196021680A19824218BF606004D142685F
:101290006260006808442060002E1CBF05F10C004D
:1012A0000FF06EFB70BD10B5044600F02FFE016814
:1012B0002046BDE810400122C4E710B5044600F006
:1012C0001DFE0068005DC00602D504F1200010BDBF
:1012D000204610BD2DE9F0470D469946924604463A
:1012E00000F124080168880604D5E06921F01001A6
:1012F000216000E00120A84201DD471B00E000273B
:10130000A1697A1902EB0900081AA0612078C006C9
:1013100002D42046FFF78CF9002608E0D4E9012129
:101320001AF806009047206A401C761C20624E4541
:10133000F4DB2078C0060AD52046FFF779F906E0ED
:10134000D4E9012130209047206A401C2062381ED9
:10135000A7F10107F4DC07E0D4E9012118F8050042
:101360009047206A401C2062281EA5F10105F3DC8D
:101370002046FFF773F92078000602D50220BDE869
:10138000F0870120FBE770472DE9FF4F0C461E4612
:101390004FF0FF378BB0D2E90001DDF860800A9092
:1013A0008A46C1F30A5505B93D46002108464FF06B
:1013B0000000BAF1000F00F4400005DA00EB8000F5
:1013C0004FF4400101EA50004FEA9059B9F1010F82
:1013D00000DDB9460A9850EA4A000ED044F6105093
:1013E000A5F2FF3545432F14B8F1000F1ED075420A
:1013F000291E1EDDC9F100021CE0B8F1010F4FF0FB
:10140000000001D0302103E0F24305E02154401CEC
:10141000B042FBDB30460022002121540B99C1F879
:101420000880C1E900200FB0BDE8F08FBD1B6D1C26
:10143000DEE74A4600DA694206A800F097FE06ABEE
:1014400093E8070003AB83E8070050460A9901F0D0
:1014500099FB8DE80700A0F500501F380090039815
:10146000002D09DD42F21F014A46084403A90390FA
:10147000684601F0F8FD08E0A0F500504A461F3824
:1014800003A90390684601F002FE8DE807000004FE
:10149000000C03D04FF0FF30410800E01046B8F1D7
:1014A000000F03D00022009215461EE0751E05D4E1
:1014B00000F086FD303262556D1EF9D5B34601222B
:1014C000084302D000227F1C04E02078302801D19C
:1014D00000227F1E002A099786D01DE0112D07DA11
:1014E00000F06EFD303262556D1C50EA0102F5D1FC
:1014F000084302D00098C8B10EE00021681E05E044
:10150000235C625C63542254401E491C8142F7DB19
:10151000AB46A81B401E0990002004F80B000B9856
:10152000099AC0F80880C0E9002B7CE711264FF02B
:10153000000859E72DE9F04F88460446D21D22F0F5
:10154000070191B0D1E90001CDE90A010EF0F8FFE1
:1015500002460B98C00F01D02D2007E020688107BC
:1015600001D52B2002E0202101EAC000032A0990C6
:1015700001D0072A05DB03464146204600F066FD00
:101580000BE12078800601D5E06900E00620B8F183
:10159000650F814606D0B8F1660F18D0B8F1670F15
:1015A00070D131E00020B9F1110F009001DB11235F
:1015B00001E009F101030AAA01A90CA8FFF7E4FE62
:1015C000DDE90C70002609F10105834647E00120A2
:1015D0004B4600904FF000470AAA01A90CA8FFF75C
:1015E000D3FEDDE90DB00C995D46002610B909F176
:1015F00001000D18B9EB050003D4C0F1FF3609F165
:101600000105A5EB09002BE0B9F1010F01DA4FF05C
:1016100001090020B9F1110F0090484601DD1123A6
:1016200000E003460AAA01A90CA8FFF7ADFEDDE918
:101630000C704D4600268346207800070AD4AB453F
:1016400000DA5D4601A8012D04DD411911F8011CE5
:10165000302907D04F4502DA17F1040F04DA0120D0
:1016600082460FE06D1EEEE7002F02DCED1B3E44CC
:1016700003E0781CA84200DD7D1CB81B00F1010AC4
:101680004FF000472078000703D4AA4501DB4FF054
:10169000FF3A0021B7F1004F0DF143088DF84310D8
:1016A00024D002202B23002F01DA7F422D230A2190
:1016B000021EA0F1010000DC5FB197FBF1FC97FB7B
:1016C000F1F201FB1C7C17460CF1300C08F801CD3F
:1016D000EEE7A8F1010003702188090501D5452135
:1016E00000E06521A0F1010800F8011C09980FA98C
:1016F000A1EB0807FF1D00B10120411901EBEA70C1
:10170000A1693844081A401EA0612078C00602D49E
:101710002046FEF78DFF099828B1D4E901219047B2
:10172000206A401C20622078C00622D52046FEF7A1
:101730007FFF1EE0002E04DBB34502DD01A8805DC3
:1017400000E03020D4E901219047206A401C20624B
:10175000761CAAF101005FEA000A0AD100F0DBFB67
:10176000C0680168405CD4E901219047206A401CB0
:101770002062281EA5F10105DCDC07E0D4E9012187
:1017800018F8010B9047206A401C2062381EA7F110
:101790000107F3DC2046FEF761FF032011B043E6AA
:1017A0002DE9F04F04460D46D21D22F0070089B006
:1017B000D0E90097484639460EF0C2FE0246F80FBF
:1017C00001D02D2307E02068810701D52B2302E0FB
:1017D000202101EAC0038DF820300BB1012000E088
:1017E0000020032A824601D0072A04DB294620462E
:1017F00000F02CFC3FE12078800601D40D2500E0AC
:10180000E569C7F30A560D2D49DA00214FEA175B47
:1018100008464FF00000002F00F4400007DA00EB0C
:1018200080004FF4400100EBD07001EA60008115A8
:10183000012901DD4FF0FF3100224FEA850CBCF198
:10184000180F06D31346ACF118004FF08052C24077
:1018500003E04FF4801323FA0CF30CF10C0CBCF1F1
:10186000200F04D3ACF1200C09FA0CF001E007FAC8
:101870000CF000294FF0004801DD18B90FE00ED13F
:1018800040450CD319EB02095F4121B9404502D113
:101890009F4329EA0209BBEB175F00D0761C208822
:1018A000000502D57B48784402E07A48784419382C
:1018B00008AA302302F80A30037C0AF10101002E45
:1018C0000AF1020A53546A4602DC4FF0300101E08B
:1018D0004FF031014FF001088DF8001002D0A6F250
:1018E000FF3603E059EA470100D06B4E002D02DCC1
:1018F0002178090704D54FF002082E218DF8011038
:10190000C44600210BE0C7F303433F01C35C491CFD
:101910006D1E02F80830052908F1010801DA002DD2
:10192000F1DC00210CE000EB1973491C1B786D1EE3
:10193000082902F808304FEA091908F1010801DA0C
:10194000002DF0DC21688B0602D516E0A8F1010815
:10195000E04505DD02EB080313F8013C302BF5D020
:10196000B8F1000F09DD02EB080313F8013C2E2B40
:1019700003D1090701D4A8F10108002D05DD3E219E
:1019800002F808106D1E08F10108407C002E02F8D4
:10199000080008F1010804DA2D20764202F8080058
:1019A00002E02B2002F808000A214FF47A708642E8
:1019B00008F101080BDB96FBF0F3303302F8083036
:1019C00096FBF0F308F1010800FB136601E0642EBA
:1019D0000CDB642096FBF0F3303302F8083096FB02
:1019E000F0F308F1010800FB136601E00A2E06DBA4
:1019F00096FBF1F0303002F8080008F1010896FB80
:101A0000F1F001FB1060303002F80800A16908F124
:101A1000010808EB050202EB0A00081AA061207811
:101A2000C00602D42046FEF703FE216A08AE01EB91
:101A30000A00206204E0D4E9012116F8010B904766
:101A4000BAF1010AF7D22078C00602D52046FEF787
:101A5000EFFD6E4609E016F8010B3E280FD0D4E9E1
:101A600001219047206A401C2062B8F10108F2D29F
:101A70002046FEF7F3FD09B00320BDE8F08F206A91
:101A80002844206203E0D4E90121302090476D1EF4
:101A9000EBD3F8E73665010002FCFFFF01694A1C41
:101AA00002610878704700B58FB0CDE9013100219F
:101AB000059105497944CDE9031011466846FEF7C2
:101AC00009FF0FB000BD0000E5FFFFFF0A6802F844
:101AD000010B0A60704710B5436913B1AFF3008082
:101AE00001E0FEF7DEFD012010BD127800F12401B7
:101AF0000A7000224A700122EDE711684FF0FF32B0
:101B0000E9E710B5436913B1AFF3008001E0FEF7D8
:101B10002DFE012010BD128800F1240182840022D4
:101B2000C2840122EDE711684FF0FF32E9E72DE9A9
:101B3000F04791460F4680460446002614F8015BA4
:101B40002DB100F0DBF90068405DC007F6D12B2D08
:101B500002D02D2D18D0641E4A463946204600F08A
:101B6000B5FA27B13968A14201D1C7F800804FF01A
:101B7000020471050BD54042002803DDFFF711FB7D
:101B80000460A007BDE8F08746F48066E4E700281B
:101B9000F8DAFFF706FB04606FF00040F2E70000A0
:101BA000C16821F4001141F08001C1600021816011
:101BB000016070472DE9F047814614460E464FF00C
:101BC000FF383248D5685769054209D03846A169BF
:101BD0000EF07FFF002811DB2C48C0430540E56074
:101BE0002B463246494638460EF08DFFA16920F05B
:101BF0000042B21A11440028A16103D02046FFF729
:101C0000CFFF4046BDE8F08770B504460569C06A5D
:101C10006168884200D80846E16821F42011E1603B
:101C2000C90312D5A84208D02246411B2846FFF717
:101C3000C1FF10B14FF0FF3070BD0020E562C4E974
:101C40000150E06820F48030E060002070BD10B5E5
:101C50000446C06820F02000E060A16AA0698842C4
:101C60000DD02046FFF7D0FFE06820F4405040F050
:101C70001000E060A06AA0612069E062606044F248
:101C80004001E0688843E06010BD000010000200E1
:101C900070B5044600F14C0528460EF04BFE204678
:101CA00010F0F0FD044628460EF06AFE204670BD96
:101CB00010B565485421FFF70AFA64485421FFF72C
:101CC00006FA63485421FFF702FA62485E49624A05
:101CD000624B01605D4810605D4A1A60431C0B65F1
:101CE000511C01650120106557484C300EF032FE42
:101CF00056484C300EF02EFE55484C300EF02AFE61
:101D000057480EF027FE58484F4A56A17844FFF72F
:101D100068F820B9544878440A3800F0D1FC544897
:101D20004A4A52A17844FFF75CF820B950487844F9
:101D30000A3800F0C5FC4F48454A4CA17844FFF7EB
:101D400050F820B94B4878440A3800F0B9FC4023D9
:101D50003D48DC000021224600F07EFC20B14248D4
:101D60007844543800F0ACFC384822464023002127
:101D700000F072FC20B13E487844543800F0A0FCDA
:101D8000334822461023002100F066FC002806D0CC
:101D900038487844BDE81040563800F091BC10BD7A
:101DA0002B482DE9F041006D2D4E20F00104304606
:101DB0000EF0C0FD244D4C3528460EF0BBFD2248E8
:101DC000FEF7F9FE28460EF0DBFD2846AFF3008053
:101DD0001E4D4C3528460EF0ADFD1C48FEF7EBFEBF
:101DE00028460EF0CDFD2846AFF30080184D4C3547
:101DF00028460EF09FFD1648FEF7DDFE28460EF041
:101E0000BFFD2846AFF3008014E0206D20F00105EF
:101E100004F14C0007460EF08DFD2046FEF7CBFE88
:101E200038460EF0ADFD3846AFF300802046FFF790
:101E30003AFA2C46002CE8D130460EF0A1FD0848B5
:101E4000AFF30080BDE8F081D87701202C78012025
:101E500080780120480500204C0500205005002016
:101E60005805002072000000585B01007700000058
:101E7000475B0100375B010070B516460C4605460E
:101E800000F03CF8036893F80101012806D0FF2C0C
:101E90000FD8185D68B101202C7070BDD3F8070110
:101EA0003246214603F2071303442846BDE870403A
:101EB00018474FF0FF3070BD2DE9F04115460E4632
:101EC000040002D12C6804B90BA4204600F00FFCDA
:101ED0000444207870B127463146384600F0F7FBBD
:101EE0000444207810B1002004F8010B38462C601F
:101EF000BDE8F0810027F9E70000000010B500F010
:101F00000AF8001D10BD00BF1953010010B5FEF7FF
:101F1000E9FA083010BD10B5FEF7E4FA203010BD24
:101F2000704770477047704738B504460A4600202E
:101F30006946AFF30080002808BF38BD024600990B
:101F4000204600F00EFC012038BD012000F0D0BD7D
:101F5000F8B5AFF30080054600200C46102000BF06
:101F60000646A819A0420DD9324669460020AFF3B3
:101F70000080070008BF00F0BBFD0098A04218BF1A
:101F80000546C419FFF7C2FF05600746F01D20F0A3
:101F900007004619284600F00AF8B44208BFF8BD09
:101FA000A21B31463868BDE8F84000F0DABB0021DA
:101FB0000160C0E901100C300EF0CCBC102070475D
:101FC00030B5B0F10A024FEA900E71F100034EEA0B
:101FD000817EB0EB0E0061EB91014FEA101E4EEADC
:101FE000017E10EB0E0041EB11114FEA102E4EEA6C
:101FF000016E10EB0E0041EB11214FEA104E4EEA3C
:10200000014E10EB0E0041EB1141401841F100016F
:102010004FEAD00040EA41704FEAD10110EB800551
:102020004FEA810444EA907444EB01046D1944EBD7
:102030000404521BA3414FF0000348BF0A3200D5ED
:1020400030BD401C41F1000130BD00002DE9F041E0
:102050001F46044603260168072A01F4006004DBDA
:1020600008B116A505E016A503E008B115A500E026
:1020700015A521F010002060A069C01EA0610FB15D
:10208000401EA0612046FEF7D3FA4FB1D4E90121EA
:1020900038469047206A401C2062C01C206206E03F
:1020A000206AFAE7D4E9012115F8010B9047761E62
:1020B000F8D22046FEF7D2FABDE8F0814E414E003C
:1020C0006E616E00494E4600696E66002DE9F05F54
:1020D000824615468B4600270AF10104B94600786E
:1020E000302801D09DB113E014F8010B01277828A6
:1020F00003D0582801D045B10AE00DB1102D07D109
:10210000002714F8010B102502E0082500E00A253D
:102110000026B0460EE005FB080005FB06F101278E
:102120001FFA80F801EB1046B6F5803F00D3B946A0
:1021300014F8010B294600F053FB0028EBDABBF141
:10214000000F05D00FB1641E00E05446CBF80040EC
:10215000B9F1000F06D0FFF724F802210160C81E74
:10216000BDE8F09F48EA0640FAE700002DE9F04795
:10217000814616468AB0334878440DC88DE80D0074
:1021800030487844801C03AC0DC884E80D0041F64B
:102190009B300844372190FBF1F290FBF1F5A5F15B
:1021A000800501FB12041B3C02D56442012000E0C3
:1021B0000020DFF890A080460027FA44AAF1BE0A6A
:1021C0000DE0E00709D03246684607EB47010AEB0D
:1021D000810100F05CFF8DE8070064107F1C002C7B
:1021E000EFD1184F7F44AC3F18E0E80714D007EB5D
:1021F00004100DF1180A90E80E008AE80E00C0687D
:10220000F04201D198190890324606A903A800F0BF
:102210003EFF03AB83E807006D10641C002DE4D182
:1022200032466946B8F1000F03A802D000F01BFF48
:1022300001E000F02CFFC9E90001C9F808200AB04C
:10224000BDE8F087F45C010070B50D460146144608
:10225000D36850692A460EF013FC002807DA411CA7
:1022600007D0E16820F0004041F48041E160281A85
:1022700070BD2046FFF794FC4FF0FF3070BDC16881
:102280000022026021F4805141F0400111F4C06F3E
:10229000C16001D08260704702694168891AC269D1
:1022A000891A816070472DE9F0470446C06840F400
:1022B0008000E060010312D520F40020E060810678
:1022C00006D4E26A61688A4200D80A46511A21603F
:1022D00040F40010E06094F82500BDE8F08720F499
:1022E0000010E060800602D52046FFF7B0FCE068F1
:1022F00042F281014FF0FF390140012903D020460D
:10230000FFF74EFCB6E02168002600290ADAC9432F
:1023100040F480502160C4E902606068411C616043
:102320000078DAE744F2400108420CD020F4A040E3
:1023300040F040002660E06021696068401AE16971
:10234000401AA06096E0216991B9C00310D4E069F9
:10235000FEF76EFF2061B0B1E06840F4006010F459
:10236000407FE06002D140F48070E06020696060EE
:10237000E068D4F814A0C1061AD5C0030ED52046D3
:10238000FFF742FC14E004F1240020610120E06129
:10239000E06820F4407040F48060E6E721696068FE
:1023A000401AA169014450460EF093FB0028A6DBB9
:1023B000E068C0032AD56168E06A884200D8084610
:1023C0002169451AE069471B1BD02046D4F81880C4
:1023D000FFF71AFC08EB05015046C4F818800EF010
:1023E00078FB00288BDBE06840F40030E0600002FE
:1023F00002D5A0692844A061E1692069C91B45187C
:102400000DE02046FFF700FCE769F5E72569616804
:10241000D4E90607491BE56208446560A061E068ED
:1024200020F0100010F4C06FE06002D0204600F0F1
:1024300011FBE06840F48050C4E90260000205D559
:102440002069E06260606FF0010046E7224639468D
:102450002846FFF7F9FE411C0CD02918E16258B15B
:10246000401E2060681C6060E06840F40030E0605E
:10247000287832E7484630E765602046FFF7FFFEE0
:10248000F8E72DE9F04705460C46C86820F420100F
:1024900040F48000C860800602D50846FFF7D7FBED
:1024A000E06841F282014FF0FF390140022903D078
:1024B0002046FFF775FBB5E000F42041B1F5004F71
:1024C0000FD1C00306D56168E06A884200D808468B
:1024D000606006E02069E062606060690EF073FA97
:1024E000A061A0680022EEB200280DDAE1688B0539
:1024F0000AD4C043A06041F490302260E06060687C
:10250000411C61600670A5E0E0689046226040F4DE
:102510000050E060206968BB60690EF069FA01272D
:1025200004F12405A0B1A08910F4407F08D0E0692F
:10253000FEF77EFE206118B1E06840F4006016E00E
:10254000E7612561E06820F4407040F480600EE0AF
:10255000E069FEF76DFE00282061F1D0E06840F4EC
:10256000006010F4407FE06002D140F48070E060D1
:1025700020696060E06825696FF0010AC1051FD518
:102580006168E06A884200D80846411B04D02246B0
:102590002846FFF70FFBF0BBE068010203D5E562B8
:1025A000C4E9015854E0691CE1626160E16940F4EA
:1025B0008030491EC4E9021030462E70BDE8F08715
:1025C000010202D500F480320AE06068411C6160BB
:1025D0000670E0680A2E40F48030E06006D00022E9
:1025E000E16A6068814203D90B4602E00122F7E705
:1025F0000346A7895B1B7F0503D4E7699F4200DD83
:10260000E2B1814200D80146E5620F1AC4E90158DF
:10261000002B09DD00E005E0224619462846FFF7B9
:10262000C9FA08B14846C9E747B1A069E5626560E3
:10263000C01BA061E06840F01000E060E0680002AC
:1026400008D56168A069E562491B08446560A0611E
:102650005046B3E73046B1E72DE9F04704461E4641
:1026600090460D46C7684C3081460EF063F9B807B6
:1026700014D0780212D44046B8F5807F09D0B0F566
:10268000007F06D0B8F5806F08D1012604F124053B
:1026900006E0701E6FF07F41884201D3012409E0FB
:1026A0002561E6616560E06820F4706040EA08003A
:1026B000E060002448460EF063F92046BDE8F0874C
:1026C00010B500F0FBF9BDE8104000F0F1B930B5ED
:1026D00003461D781DB10A4603E0AC4201D1181A29
:1026E00030BD12F8014B002CF7D15B1CF1E730B57F
:1026F00003461D783DB10A4612F8014B1CB1AC42AD
:10270000FAD15B1CF5E7181A30BD0000014918200A
:10271000ABBEFEE7260002007546FDF7E3FEAE46BF
:1027200005006946534620F00700854618B020B5DD
:10273000FDF7C6FEBDE820404FF000064FF0000751
:102740004FF000084FF0000B21F00701AC46ACE859
:10275000C009ACE8C009ACE8C009ACE8C0098D46C6
:10276000704730B404468C464368002B18BF63455D
:1027700038BF1846F8D303681844604507D0C81C12
:1027800020F0070000F1040CACEB0100121A214606
:10279000CCF8002030BC00220CF10400FEF752BD42
:1027A0002DE9F04114460D46074601F14C0630462E
:1027B0000EF0C0F8094B7B44224629463846FFF705
:1027C00072F90446287B000601D54FF0FF343046ED
:1027D0000EF0D6F82046BDE8F08100006D03010040
:1027E0003A2800D2303820F02002412A01D3A2F149
:1027F0003700884201D34FF0FF3070472DE9F04198
:10280000044617460D4602F14C0080460EF092F841
:10281000012D264616DD384610F034F8411C0FD045
:10282000C0B20A2804F8010B02D06D1E012DF2DCA3
:102830000020207040460EF0A3F83046BDE8F0813D
:10284000B44201D10026F5E7387B0006F0D500261A
:10285000EEE72DE9FF4F06461C468B4681B003F19B
:102860004C0000900EF066F8BBF1000F06D0039903
:102870002768002528460BFB01F963E000247AE075
:10288000002F61DCE06948453FDABAF1000F3CD027
:10289000207B800601D5A06A04E0A1696068084435
:1028A0002169401A2246A9EB050180463046FFF710
:1028B000CBFC002812DD8044A8F101010644A1618F
:1028C000226916F8011C0027054411702169491C72
:1028D000E1626160E16841F40031E160411C03D0D4
:1028E00010B1207B400642D52046FFF7C8FCC4F853
:1028F000188020696060E062E068276020F40030A2
:10290000E060E0694042A06018E0484503DAE06812
:1029100040F40000E0602046FFF7C5FCE16821F4C8
:102920000001E160411C08D0811C0AD02768002802
:1029300007DB6D1C06F8010B19E02760B5FBFBF403
:1029400019E00120824612E0A9EB0500B846B84222
:1029500000DA8046304642466168FEF717FB616840
:10296000A7EB0807464401EB0800454460604D456D
:1029700086DB2760039C00980EF002F805B0204625
:10298000BDE8F08F2DE9F05F0E4680461C4692466A
:1029900002FB06F503F14C0083460DF0CBFF16B3A6
:1029A000A768002041E0002F41DCE069A8421CDA62
:1029B000B9F1000F19D0224629464046FFF7FAF830
:1029C00008B1A76029E0E06810F4C06F01D00020D2
:1029D00008E022696168891AE269511AC003A1609E
:1029E00001D44842A060544618E0A84203DAE068E7
:1029F00040F40000E060214698F80000FFF741FD38
:102A0000E16821F40001E160411C06D0A7680028BC
:102A10000ADB6D1E08F1010818E0002458460DF08D
:102A2000AFFF2046BDE8F09F012081460EE0AF4297
:102A30003E4600DD2E46414632466068FEF7A6FA65
:102A40006068BF1BAD1B3044B0446060002DAADC41
:102A5000A760C8E72DE9F0470746134881460DF007
:102A600069FF124C40F2022817E094F85000C007AA
:102A700010D0BC420ED004F14C0528460DF05AFF90
:102A8000E66828460DF07CFF38EA060002D12046B1
:102A9000FEF708F9206D20F00104002CE5D148462E
:102AA0000DF06EFFBDE8F08758050020D8770120B3
:102AB000002801D0FFF72ABE7047000010B501467C
:102AC00002A000F01DF8012010BD0000534947523C
:102AD000545245443A2052656469726563743A20E1
:102AE00063616E2774206F70656E3A2000000000ED
:102AF00010B500F01FF8BDE81040FFF7D9BF7047D0
:102B000070B505460C460A2000E06D1C0EF02AF850
:102B100035B128780028F8D102E0641C0EF022F8C4
:102B200014B120780028F8D1BDE870400A200EF0DA
:102B300019B8000010B5012805D0002103A0FFF747
:102B4000DFFF012010BD09A1F8E7000053494752FB
:102B5000544D454D3A204F7574206F66206865616D
:102B600070206D656D6F7279000000003A20486535
:102B70006170206D656D6F727920636F7272757010
:102B8000746564005FEA400C08BF91F0000F4FEAE3
:102B90008C234FEAC12243EA51514FEA1C5018BF1F
:102BA00000F5F0404FEA300018BF41F000415FEA05
:102BB0006C5C00F02980BCF1FF3F08BF40F0804012
:102BC0007047130C06BF12044FF0100C4FF0000CAE
:102BD000130E04BF12020CF1080C130F04BF1201F4
:102BE0000CF1040C930F04BF92000CF1020CD30FF4
:102BF00004BF52000CF1010C11464FF00002A0F18D
:102C00001F00A0EB0C00704711F0004F08BF704789
:102C100031F000413FF4D5AF0B0C06BF09044FF073
:102C2000100C4FF0000C0B0E04BF09020CF1080C45
:102C30000B0F04BF09010CF1040C8B0F04BF8900BA
:102C40000CF1020CCB0F04BF49000CF1010CCCF1CC
:102C50002003A0EB0C0022FA03F302FA0CF241EA83
:102C6000030100F10100704720F07F4C80EA03006F
:102C700023F07F47ACEB070303F57C5300F00040E3
:102C800003F1FF032DE980494FEA154B09B44FEAE0
:102C9000144325EA0B4E24EA03480FF2042606EB00
:102CA000132749083E785FEA320203FB0667C7F53F
:102CB000000707FB06F64FEA54374FEAD64606F1FF
:102CC000020607FB066CCCF1005C4FEA1C472CEABD
:102CD000074C07FB06F40CFB06F504EB15464FEA20
:102CE000961634BF00204FF000404FEAD13706FB64
:102CF00007FC4FEA1C4C0CFB0BF7D21B03FB0CF739
:102D000061EB07010CFB0EF7B0EB074072EB1742CB
:102D10000CFB08F734BFA2EB0742B2EB074261EBB2
:102D200017414FEA0C444FEA910706FB07FC4FEAB4
:102D30001C4C0CFB0BF7B0EBC74072EB573203FB9C
:102D40000CF734BFA2EBC742B2EBC74261EB57317D
:102D50000CFB0EF7B0EBC70072EB57720CFB08F7D9
:102D600034BFA2EBC702B2EBC70261EB5771039FFE
:102D70004FEA816141EA921104EBCC044FEAD1376A
:102D80004FEA826206FB07FC42EA90124FEA80603B
:102D90004FEA1C4C0CFB0BF7D21B03FB0CF761EB4F
:102DA00007010CFB0EF7B0EB074072EB17420CFB70
:102DB00008F734BFA2EB0742B2EB074261EB1741C1
:102DC0004FEA8C554FEA910704EB9C2406FB07FC65
:102DD0004FEA1C4C0CFB0BF7B0EBC74072EB5732C1
:102DE00003FB0CF734BFA2EBC742B2EBC74261EB67
:102DF00057310CFB0EF7B0EBC70072EB57720CFBB0
:102E000008F734BFA2EBC702B2EBC70261EB577100
:102E100015EB4C254FEA816141EA92114FEA82623B
:102E20004FEAD13742EA901206FB07FC44F1000456
:102E30004FEA80604FEA1C4C0CFB0BF7D21B03FBE4
:102E40000CF761EB07010CFB0EF7B0EB074072EBE0
:102E500017420CFB08F734BFA2EB0742B2EB074264
:102E600061EB174115EB1C154FEA813141EA9241A4
:102E70004FEA823242EA90424FEA80304FEA0C76C3
:102E800044F1000448EA03434EEA0B484FF0000EB9
:102E9000B2EB080C71EB030724BF624639464EEBD8
:102EA0000E0E4FF0000B0018524149414BEB0B0B3B
:102EB000B2EB080C71EB03077BF1000B24BF6246F9
:102EC00039464EEB0E0E4FF0000B001852414941AF
:102ED0004BEB0B0BB2EB080C71EB03077BF1000B18
:102EE00024BF624639464EEB0E0E51EA020718BF68
:102EF00046F0010616EB0E7655F1000254F1000182
:102F000003D5BDE88901BDE80088BDE88901BDE8B9
:102F10000048B619524141EB0101A3F1010370478A
:102F200080807F7E7D7C7B7A797877767675747306
:102F3000727171706F6E6E6D6C6C6B6A6A696868C5
:102F4000676666656464636362616160605F5F5E5B
:102F50005E5D5D5C5C5B5B5A5A59595858575756D1
:102F60005655555554545353525252515150505036
:102F70004F4F4F4E4E4D4D4D4C4C4C4B4B4B4A4A88
:102F80004A494949484848474747474646464545CC
:102F90004544444444434343434242424241414105
:102FA000002B26D4770021D01CB54FEA370703B495
:102FB0004FF010004FF010014FF000000FBCBDE8C3
:102FC00010400BF1010BBBF1010F08BF5FEA1707BF
:102FD00022BF12F1010211F101014FF0004143F152
:102FE000000300F0004043EA00007047F9D357089F
:102FF000DAE746EA064613F1400F4FEA16461FDDB0
:1030000013F1200FDFBF16430A46002120335B4235
:10301000C8D0C3F1200746EA064602FA07F74FEA8E
:10302000164646EA0706C3F1200722FA03F201FA20
:1030300007F721FA03F14FF0000342EA0702B1E774
:1030400046EA020646EA06464FEA164646EA010600
:10305000BCBF46EA0646360C4FF000034FF00002B4
:103060004FF000019EE72DE9C048934630B491E847
:10307000380007C831EA400C48BF34EA430C03D596
:10308000FFF7F2FDFFF78CFFF0BCBDE800882DE9EB
:10309000C048934630B491E8380007C810F0804F1C
:1030A00008BF13F0804F03D100F005F8FFF778FF59
:1030B000F0BCBDE8008820F07F4780EA030023F0E1
:1030C0007F4C07EB0C03A3F57C5300F00040A3F109
:1030D000FE0392F0000F00F0B38095F0000F00F0B7
:1030E00077802DE901494FEA11404FEA144621EA61
:1030F000004800FB06FC24EA064708FB06F607FB2F
:1031000008F800FB07F718EB06484CEB164C4FEAA3
:10311000124B18EB07484FEA15464CEB174022EAD2
:103120000B4E0BFB06FC25EA06470EFB06F607FBDB
:103130000EFE0BFB07F71EEB064E4CEB164C4FF04A
:1031400000061EEB074E4CEB174B18EB0B0840F13B
:10315000000018EB0E0B58EB000840F100008F1A2E
:103160004FF000013CBFC943661B14BFB5EB040C14
:1031700000213CBFC943F61B4FEA17444EEA8E0EAE
:1031800027EA04454FEA1C4704FB07622CEA074C78
:1031900005FB07F70CFB05F604FB0CFC16EB0746DA
:1031A00042EB174216EB0C4642EB1C421BEB0606A9
:1031B00058EB0202414146EA9E0601D5BDE801896D
:1031C000B619524141EB0101A3F10103BDE80189A8
:1031D0004FEA14454FEA114724EA054621EA074C15
:1031E00005FB07F406FB07F70CFB06F105FB0CFCDF
:1031F00011EB074144EB17444FEA124711EB0C4126
:1032000044EB1C4422EA074C05FB07F206FB07F7D8
:103210000CFB06F605FB0CFC16EB074642EB1742CF
:1032200016EB0C4642EB1C456A1854F1000148BFEE
:103230007047B619524141EB0101A3F101037047F8
:1032400095F0000F37D04FEA11424FEA144721EAB8
:10325000024624EA074C02FB07F106FB07F70CFBCA
:1032600006F402FB0CFC14EB074441EB17414FEA58
:10327000154714EB0C4441EB1C4125EA074C02FBBB
:1032800007F506FB07F70CFB06F602FB0CFC16EB3A
:10329000074645EB174516EB0C4645EB1C42121949
:1032A00051F1000148BF7047B619524141EB01018D
:1032B000A3F1010370474FEA14454FEA114724EA8E
:1032C000054621EA074C05FB07F106FB07F70CFB57
:1032D00006F24FF0000605FB0CFC12EB074241EB37
:1032E000174112EB0C4251EB1C4148BF704792183A
:1032F00041EB0101A3F10103704700000000000051
:1033000070B52348007D00F0040010B94FF0FF3085
:1033100070BD00241F48056800201E4908601D4834
:103320001038006820F009001A49103908601A485E
:1033300001F018FF00B1641E184801F013FF08B136
:103340004FF0FF3402E013484430006811480C305D
:1033500000680028F7D10E48406820F001000C49B1
:1033600048600846406820F0080048600846406809
:1033700020F0400048600846406820F08000486027
:1033800007480449091F0860081D05602046BFE77B
:10339000186001203C2C0140585F0120B85F0120DB
:1033A000FF07400070B50446002007490870074930
:1033B00008702046FDF7BFFD0546054829464269CD
:1033C0002046904770BD0000D6040020D70400209E
:1033D000E077020810B502A0FDF700F910BD00006B
:1033E0004552524F523A20427573206661756C7493
:1033F000210000002DE9F04186B005460E46144636
:103400002888664931F8100005902888644931F809
:1034100010000490022C03D10A200590642004902F
:10342000BDF81000BDF81410411A28885D4A32F822
:103430001000401E91FBF0F087B201200390032C96
:103440001DD101215848A0F84E100721A0F85010B6
:103450000621A0F844100C205349A1F84200012194
:103460005148A0F852101121A0F854101221A0F8D0
:1034700048102321A0F8461006B0BDE8F0814B4863
:10348000142303AA04A9009005A806F069FCBDF85E
:103490000C0004EB440101EBC401434A02EB41017F
:1034A0000882BDF81000BDF81410401ABDF80C10C9
:1034B00090FBF1F004EB440101EBC40102EB41018C
:1034C0004882002004EB440101EBC40102EB4101FE
:1034D00008753088BDF81410401A90FBF7F01FFAF9
:1034E00080F84146002010F0B3FB034628882D4A9F
:1034F00032F81000401E81B2184611F0C0FB804621
:103500002888401E0B2101FB0080294931F810005A
:1035100004EB440101EBC401234A22F8110001200D
:10352000039004EB440000EBC400114631F8100096
:103530000290002001901D48142303AA02A90090C4
:1035400001A806F00DFCBDF80C0000B204EB44012C
:1035500001EBC401144A02EB4101888104EB4400F1
:1035600000EBC400114631F81000BDF80410401AF9
:10357000BDF80C1090FBF1F000B204EB440101EB3C
:10358000C40102EB4101C881002004EB440101EBBE
:10359000C40102EB4101487500BF6DE792000020B5
:1035A000A8000020BE00002012060020B00100206C
:1035B000D40000207FB506460D4614460120039036
:1035C00004EB440000EBC400234901EB4000C08839
:1035D000029004EB440000EBC40001EB4000808843
:1035E00001901E48142303AA01A9009002A806F026
:1035F000B7FBBDF80C0004EB440101EBC401164A13
:1036000002EB41010882BDF80400BDF80810401A21
:10361000BDF80C1090FBF1F004EB440101EBC40188
:1036200002EB41014882002004EB440101EBC4019C
:1036300002EB41010875288804EB440101EBC40149
:1036400002EB4101098A90FBF1F081B20448C1808C
:10365000298881817FBD000012060020B001002072
:10366000BC0500207FB506460D4614460120039098
:1036700004EB440000EBC400264931F8100002902E
:1036800004EB440000EBC40001EB400040880190D3
:103690002148142303AA02A9009001A806F060FBA8
:1036A000BDF80C0000B204EB440101EBC401194A5F
:1036B00002EB4101888104EB440000EBC400114699
:1036C00031F81000BDF80410401ABDF80C1090FB42
:1036D000F1F000B204EB440101EBC40102EB410143
:1036E000C881002004EB440101EBC40102EB41015D
:1036F0004875288804EB440101EBC40102EB410149
:10370000B1F90C1090FBF1F081B2044801812988D5
:10371000C1817FBD12060020B0010020BC05002041
:103720000EB500202349087023490870234908700A
:1037300023A007F077FD27A007F074FD2FA007F066
:1037400071FD36A007F06EFD3AA007F06BFD40A0BA
:1037500007F068FD40A0FFF725FE01220421414843
:1037600002F030FA3CA007F05DFD21E040F6B831F0
:103770003D48006811F074FC8DE80700009840286F
:1037800002D10BF0EBFF10E0009810280DD1019C46
:10379000012C02D0022C06D102E00CF0E9FA02E082
:1037A0000CF04EFA00BF00BF00BF11F035FD00BFA6
:1037B000DCE70000C50400205B0000205A00002068
:1037C00041542B532E535349445458543D4153555F
:1037D000530D0A0041542B532E534346473D7769FE
:1037E00066695F7770615F70736B5F746578742C66
:1037F000686F7374313233340D0A000041542B5317
:103800002E534346473D776966695F707269765FFC
:103810006D6F64652C320D0A0000000041542B537B
:103820002E534346473D776966695F6D6F64652C2B
:10383000310D0A0041542B532E534346473D6970C6
:103840005F7573655F646863702C310D0A0000005A
:10385000415426570D0A000041542B4346554E3D16
:10386000310D0A0000180240880400200146054876
:10387000007D00F0020010B94FF0FF3070476FF08C
:103880000300FBE7186001202DE9F04F87B00546E3
:103890000E4617461C464FF00008C14634B1012CB5
:1038A0001BD0022C2BD0032C4DD13AE0012004EB8D
:1038B000440101EBC401C64A02EB4101488104EB1B
:1038C000440101EBC40102EB410108812888012871
:1038D00002D001202880804635E0012004EB44011D
:1038E00001EBC401BA4A02EB41014881062004EB16
:1038F000440101EBC40102EB4101088123E00120F6
:1039000004EB440101EBC401B14A02EB41014881DF
:10391000032004EB440101EBC40102EB41010881E7
:1039200011E0062004EB440101EBC401A84A02EBBC
:10393000410148810A2004EB440101EBC40102EB80
:103940004101088100BF00BF5CB3288804EB44013B
:1039500001EBC4019E4A02EB4101498988420ADA1F
:1039600004EB440000EBC400114601EB4000408929
:1039700028804FF00108288804EB440101EBC401C2
:10398000934A02EB4101098988420ADD04EB4400B5
:1039900000EBC400114601EB4000008928804FF085
:1039A0000108B8F1000F04D028888A4988804FF0B8
:1039B00001092888884931F810000690288887492D
:1039C00031F810000590BDF81400BDF81810411A28
:1039D0002888834A32F81000401E91FBF0F01FFA4D
:1039E00080FA022C03D10A200690642005904FF043
:1039F000000B3088BDF81810884204DABDF81800B2
:103A000030804FF0010B3088BDF81410884204DD7F
:103A1000BDF8140030804FF0010BBBF1000F46D011
:103A2000012004906F48142304AA05A9009006A859
:103A300006F096F9BDF8100004EB440101EBC40157
:103A4000634A02EB41010882BDF81400BDF818106A
:103A5000401ABDF8101090FBF1F004EB440101EBAB
:103A6000C40102EB41014882BDF8180004EB440197
:103A700001EBC40102EB4101C880BDF8140004EB66
:103A8000440101EBC40102EB41018880308804EB62
:103A9000440101EBC40102EB4101098A90FBF1F002
:103AA00081B24C48C180318881814FF00109308852
:103AB000BDF81810401A90FBFAF080B20390002075
:103AC000039910F0C5F803462888454A32F81000DB
:103AD000401E81B2184611F0D2F803902888401E8B
:103AE0000B22039902FB00103F4931F8100004EB50
:103AF000440101EBC401364A22F81100388804EB76
:103B0000440101EBC40132F8111088425BDD04EB83
:103B1000440000EBC400114631F810003880012049
:103B2000049004EB440000EBC40031F81000029054
:103B3000002001902B48142304AA02A9009001A898
:103B400006F00EF9BDF8100000B204EB440101EBE1
:103B5000C4011F4A02EB4101888104EB440000EBE1
:103B6000C400114631F81000BDF8101090FBF1F0C0
:103B700000B204EB440101EBC40102EB4101C88136
:103B8000002004EB440101EBC40102EB4101488039
:103B9000BDF8080004EB440101EBC40122F8110058
:103BA000388804EB440101EBC40102EB4101B1F997
:103BB0000C1090FBF1F081B2064801813988C18177
:103BC0004FF0010900BF484607B0BDE8F08F000084
:103BD00012060020BC05002092000020A800002052
:103BE000BE000020B0010020D400002010B5034624
:103BF00006243048A0F84C400A24A0F84A401C880B
:103C0000B0F84C00844203DA2A48B0F84C0018801F
:103C10001C882848B0F84A00844203DD2548B0F8E3
:103C20004A0018801888244CA08010880D2801DDD7
:103C30000D2010801088062801DA0620108001244B
:103C40001C48A0F84E400724A0F850400624A0F8D5
:103C500044400D20174CA4F8420014881548B0F9D0
:103C60004E0094FBF0F084B2134804811488C481A0
:103C700010884FF4B46460434FF4FA7490FBF4F08E
:103C8000088001240B48A0F852401124A0F85440A9
:103C90001224A0F848402324A0F846400C88B0F82D
:103CA000520094FBF0F084B20348C4800C888481F5
:103CB000012010BD12060020BC0500202DE9F041B6
:103CC00086B080460C466848007D00F0020020B9AE
:103CD0004FF0FF3006B0BDE8F081B8F10E0F75D29D
:103CE000DFE808F0BC0734455EBCBC83BCBC92BCBA
:103CF00096A527465D48874200D300BF5B483844FD
:103D0000401EB0FBF7F6022E01D2002600E0B61EE0
:103D1000FF2E00D9FF265648006840F2FF41884335
:103D200040F48070304352490860B01C4F49B1FBE9
:103D3000F0F7B42500E06D1E002DFCD14A48007D4F
:103D400040F00400484908753846C3E714B1012C17
:103D500008D106E04648006820F400504449086055
:103D600003E002E06FF00300B4E700BF79E01CB1AC
:103D7000012C03D1122504E0022502E06FF00300BC
:103D8000A8E700BF042001900295012003900320C2
:103D900004900C20059001A9364801F005FE60E072
:103DA00024B1012C09D0022C1AD110E0304800684F
:103DB00020F4C0502E49086015E02D48006820F41A
:103DC000C05040F400602A4908600CE046E02848F2
:103DD000006820F4C05040F480502549086002E09B
:103DE0006FF0030076E700BF3BE034B12048006885
:103DF00020F400701E49086005E01D48006840F48A
:103E000000701B4908602CE019482030046028E04D
:103E10001548406820F04000134948601448383085
:103E2000006840F4800012493831086019E034B16C
:103E30000D48007D40F080000B4908750DE00A48F0
:103E4000007D20F080000849087509482830006886
:103E500020F4007006492831086002E06FF003008A
:103E600038E700BF002035E718600120006CDC0255
:103E7000042C0140000C024000B593B000BF0020AC
:103E800001902848006840F0010026490860084673
:103E9000006800F00100019000BF00BF14210EA8CF
:103EA000FDF715F920200E9002200F9000201090B1
:103EB0001190012012900EA91B4801F075FD1421EC
:103EC00009A8FDF704F94AF210400B90032009906D
:103ED00000200C900A900D901C2102A8FDF7F7F825
:103EE0007020029000200390049004200690142279
:103EF00009A90E48FDF78FF84FF080400B49091FC4
:103F00000860084602F0F2FF002202A90748001FDD
:103F100002F068FF00210548001F03F003F813B00A
:103F200000BD00004038024000000240841800201C
:103F30000020044908704AF21040034909684863A8
:103F4000704700005800002080180020012001491F
:103F500008707047580000200146C1EB0112C2EB07
:103F6000C2024FF6FF7303EA82004AF21042904207
:103F700000DD10464AF21042121A024B1B685A63C7
:103F800070470000801800202DE9F04387B081467B
:103F90004FF00008142206A94FF4706006F008F9EB
:103FA000A1480188022011F009F98DE80700402896
:103FB0000ED09D480188012011F000F903AB07C322
:103FC000402805D01422994806990DF03FF902E0E7
:103FD00007B0BDE8F08395484188954890ED000A08
:103FE000F2EE040A20EE200ABCEEC00A10EE100A1F
:103FF00080B281420ED08E4890ED000AF2EE040AA3
:1040000020EE200ABCEEC00A10EE100A8749488054
:104010004FF0010885480188864890ED000AF2EECD
:10402000040A20EE200ABCEEC00A10EE100A80B28C
:1040300081420ED07F4890ED000AF2EE040A20EE95
:10404000200ABCEEC00A10EE100A784908804FF032
:10405000010876488188784890ED000AF2EE040A5B
:1040600020EE200ABCEEC00A10EE100A80B2814297
:104070000ED0714890ED000AF2EE040A20EE200AFC
:10408000BCEEC00A10EE100A684988804FF00108A3
:104090006648C188694890ED000AF2EE040A20EEF5
:1040A000200ABCEEC00A10EE100A80B281420ED087
:1040B000624890ED000AF2EE040A20EE200ABCEEFF
:1040C000C00A10EE100A5949C8804FF0010857483D
:1040D00001895B4890ED000AF2EE040A20EE200A06
:1040E000BCEEC00A10EE100A80B281420ED05448D5
:1040F00090ED000AF2EE040A20EE200ABCEEC00A9F
:1041000010EE100A494908814FF0010847484189DB
:104110004C4890ED000AF2EE040A20EE200ABCEEB4
:10412000C00A10EE100A80B281420ED0454890EDD0
:10413000000AF2EE040A20EE200ABCEEC00A10EEDD
:10414000100A3A4948814FF001083F4890ED000AB3
:104150003B48D0ED000AB4EEE00AF1EE10FA01D2CD
:10416000012400E000243148008AA04203D02F48F7
:1041700004824FF00108344890ED000A3148D0ED38
:10418000000AB4EEE00AF1EE10FA01DB012500E0CE
:1041900000252648408AA84203D0244845824FF093
:1041A00001082A4890ED000A2348D0ED000AB4EE39
:1041B000E00AF1EE10FA01DD012600E000261B48BE
:1041C000C089B04203D01948C6814FF00108012CC4
:1041D0000FD0012D0DD166B11C4890ED000A154895
:1041E000D0ED000AB4EEE00AF1EE10FA01D2012798
:1041F00000E000270D488089B84203D00B48878132
:104200004FF00108B8F1000F0CD0142207494FF409
:1042100070600CF011F904480188022010F0CEFF04
:1042200003AB07C300BFD3E610000020DC0800206A
:10423000200000201C000020240000202800002076
:104240003000002034000020440000204000002006
:1042500010B5024624E016480088C0F30A00154B4A
:10426000185C0A2806D012480088C0F30A00185CBF
:104270000D2806D10E480068401C0D4B1860012027
:1042800010BD0B480088C0F30A000A4B1B5C0C8869
:10429000601C0880135506480068401C044B1860D9
:1042A00003480068044B1B689842D4D30020E7E71A
:1042B000F4040020D0400020F804002010B53A207B
:1042C00001F062FE014800F0E7FF10BD30610120FF
:1042D00010B53B2001F058FE014800F0DDFF10BD95
:1042E000585F012010B5452001F04EFE014800F056
:1042F000D3FF10BDB85F012010B5462001F044FE89
:10430000014800F0C9FF10BDD060012001460878C7
:1043100010381823B0FBF3F20848805CC865032A04
:1043200005D908686FF30900001D886503E0086877
:104330006FF309008865886D704700007F78020878
:10434000014600208A6A8B6903BB32B1012A0CD076
:10435000022A10D0032A17D115E0CB6A03F080732C
:10436000B3F1807F00D101200FE0CB6AB3F1C07FB1
:1043700000D1012009E0CB6A03F08073B3F1807FA4
:1043800000D1012001E000E000BF35E08B69B3F50A
:10439000005F1BD132B1012A06D0022A0CD0032AB9
:1043A00012D10BE0012010E0CB6A03F08073B3F16F
:1043B000807F00D1012008E0012006E0CB6AB3F144
:1043C000C07F00D1012000E000BF15E032B1012A1A
:1043D00005D0022A04D0032A0CD103E000BF00BF9D
:1043E000012008E0CB6A03F08073B3F1807F00D135
:1043F000012000E000BF00BF704730B504682468AA
:1044000024F4802405682C60046863608468402C70
:1044100004D10468A2600468E16003E00468A1605C
:104420000468E26030BD000010B50020114908703A
:10443000114820218269114890470F482021426984
:104440000F48904700BF0B4800780028FBD000249D
:1044500010200BE00949095CFF2904D14FF4004109
:1044600041EA640400E06410411CC8B22028F1DB7A
:10447000204610BD9804002018780208701700200C
:10448000B07302081CB500200190F02000901E4877
:104490004FF41651826A012090471B480121826A1D
:1044A0001520904718480121826A16209047012064
:1044B00001F0D9F80020154908701348012142691C
:1044C0006846904710480121826901A8904700BFC3
:1044D0000E4800780028FBD00B484FF4E131826A87
:1044E0000120904708480121826A1520904706481C
:1044F0000121826A162090479DF80400F02801D01F
:1045000001201CBD0020FCE7187802089804002058
:1045100010B5002008490870084810214269084871
:1045200090470648102182690648904700BF02481C
:1045300000780028FBD010BD9804002018780208ED
:10454000A073020870170020082814D006DC012888
:1045500010D0022809D0042817D10AE0102810D062
:1045600020280DD0402810D106E00121084A117002
:104570000BE00AE009E008E00121054A117004E0BF
:1045800000BF0121024A117000BF00BF7047000048
:10459000980400207047000010B50C480078A0B9BE
:1045A00001200A4908700020094909684862084842
:1045B0000068C06840F0010005490968C860044906
:1045C00001220868002108F075FB10BD5C00002086
:1045D0007C0E002010B52A48007800284FD1012019
:1045E0002749087000202749086027490880274983
:1045F000096848622649096848620021234802F098
:1046000091FC22480068C06840F001001F49096819
:10461000C8601F480068C06840F001001C49096874
:10462000C8601B480068C06840F00200184909686B
:10463000C8601848007870B908F06CF800BF41F203
:10464000680015490968C86201461348C16000BF87
:1046500002F037FA0DE008F05DF800BF40F63400D4
:104660000D490968C86201460B48C16000BF02F0ED
:1046700028FA074901220868002108F01BFB10BD39
:104680005C0000206400002060000020B80E0020C4
:104690007C0E0020C4010020F40E002010B5184844
:1046A000007858B30020164908700021154802F020
:1046B0005FFC154900220868114608F0FBFA00BFAC
:1046C00011480068006A41F21111084068B90E48AB
:1046D0000068006A8910084038B90B480068006813
:1046E00020F0010008490968086000BF00224FF46B
:1046F0000061064801F066FA07F0FCFF10BD0000FB
:104700005C000020B80E00207C0E00200004024057
:1047100010B500200949087009490870FFF7BEFF6D
:10472000642010F027FC00224FF48041054801F07E
:1047300049FA642010F01EFC10BD0000900000201B
:104740005E0000200014024010B5012001F01EF9A7
:1047500010BD10B54FF4005001F018F94FF480402F
:1047600001F014F94FF4004001F010F910BD10B53C
:10477000022001F00BF910BD10B5082001F006F978
:1047800010BD10B5102001F001F910BD08B5564953
:1047900088420FD100BF002100915449096841F0BF
:1047A0000101524A11601146096801F001010091AE
:1047B00000BF97E04E4988420FD100BF0021009111
:1047C0004A49096841F00201484A116011460968E6
:1047D00001F00201009100BF84E0464988420FD1F8
:1047E00000BF002100914149096841F004013F4A9E
:1047F00011601146096801F00401009100BF71E0E9
:104800003D4988420FD100BF002100913749096816
:1048100041F00801354A11601146096801F00801AC
:10482000009100BF5EE0354988420FD100BF0021F2
:1048300000912E49096841F010012C4A116011467F
:10484000096801F01001009100BF4BE02C4988423B
:104850000FD100BF002100912449096841F02001D7
:10486000224A11601146096801F02001009100BF41
:1048700038E0244988420FD100BF002100911B4934
:10488000096841F04001194A11601146096801F0B8
:104890004001009100BF25E01B4988420FD100BFB5
:1048A000002100911149096841F080010F4A11600F
:1048B0001146096801F08001009100BF12E0134920
:1048C00088420FD100BF002100910849096841F4D6
:1048D0008071064A11601146096801F480710091E7
:1048E00000BF00BF08BD0000000002403038024099
:1048F0000004024000080240000C02400010024088
:104900000014024000180240001C02400020024037
:1049100008B5564988420FD100BF00210091544983
:10492000096841F00101524A11601146096801F01D
:104930000101009100BF97E04E4988420FD100BFAE
:10494000002100914A49096841F00201484A11607A
:104950001146096801F00201009100BF84E0464958
:1049600088420FD100BF002100914149096841F000
:1049700004013F4A11601146096801F004010091E9
:1049800000BF71E03D4988420FD100BF0021009176
:104990003749096841F00801354A11601146096834
:1049A00001F00801009100BF5EE0354988420FD157
:1049B00000BF002100912E49096841F010012C4AE6
:1049C00011601146096801F01001009100BF4BE031
:1049D0002C4988420FD100BF002100912449096869
:1049E00041F02001224A11601146096801F02001BE
:1049F000009100BF38E0244988420FD100BF002158
:104A000000911B49096841F04001194A11601146A3
:104A1000096801F04001009100BF25E01B49884270
:104A20000FD100BF002100911149096841F08001B8
:104A30000F4A11601146096801F08001009100BF22
:104A400012E0134988420FD100BF002100910849AC
:104A5000096841F48071064A11601146096801F441
:104A60008071009100BF00BF08BD0000000002403F
:104A7000303802400004024000080240000C0240AE
:104A8000001002400014024000180240001C0240C6
:104A90000020024008B5564988420FD100BF0021CE
:104AA00000915449096841F00101524A11601146D0
:104AB000096801F00101009100BF00BF4E49884222
:104AC0000FD100BF002100914A49096841F002015D
:104AD000484A11601146096801F00201009100BFC7
:104AE00000BF464988420FD100BF002100914149D3
:104AF000096841F004013F4A11601146096801F05C
:104B00000401009100BF00BF3D4988420FD100BFA2
:104B1000002100913749096841F00801354A1160C8
:104B20001146096801F00801009100BF00BF354936
:104B300088420FD100BF002100912E49096841F041
:104B400010012C4A11601146096801F01001009112
:104B500000BF00BF2C4988420FD100BF0021009147
:104B60002449096841F02001224A11601146096870
:104B700001F02001009100BF00BF244988420FD1FD
:104B800000BF002100911B49096841F04001194A0A
:104B900011601146096801F04001009100BF00BF9B
:104BA0001B4988420FD100BF0021009111490968BB
:104BB00041F080010F4A11601146096801F080013F
:104BC000009100BF00BF134988420FD100BF0021F0
:104BD00000910849096841F48071064A1160114644
:104BE000096801F48071009100BF00BF08BD00009A
:104BF0000000024030380240000402400008024039
:104C0000000C024000100240001402400018024054
:104C1000001C02400020024000BFFEE710B5002249
:104C200001B909E0012901D10A0205E0022901D1F7
:104C30000A0201E04FF44072114B1B6823F44073E9
:104C40000F4C236023461B681343236023461B68D5
:104C500023F0F803236023461B68F82494FAA4F495
:104C6000B4FA84F400FA04F444F002042343044C3C
:104C7000236023461B6843F48033236010BD00008B
:104C8000103C02401C48006800F40070B0B11A48A3
:104C9000006820F400701849086000BF08460068EA
:104CA00040F4006008600846006820F40060086076
:104CB00000BF0846006840F4007008600E480068B5
:104CC00000F48060B0B10C48006820F480600A49AC
:104CD000086000BF0846006840F48050086008463D
:104CE000006820F48050086000BF0846006840F467
:104CF0008060086070470000003C02400A4A126869
:104D000022F44072084B1A601A46126842F00402FC
:104D10001A601A4612684FF4803343EA00231A439C
:104D2000014B1A6070470000103C02402A4800689E
:104D3000C0F3001040B12948C06940F01000274975
:104D4000C86110202449086023480068C0F340105F
:104D500040B12248C06940F008002049C8612020C5
:104D60001D4908601C480068C0F3801040B11B4812
:104D7000C06940F004001949C86140201649086024
:104D800015480068C0F3C01040B11448C06940F035
:104D900002001249C86180200F4908600E4800686F
:104DA000C0F3002048B10D48C06940F001000B4934
:104DB000C8614FF480700849086007480068C0F374
:104DC000400040B10548C06940F020000349C86177
:104DD00002200149086070470C3C024090610120AC
:104DE00070B50446002500201749C86100F0F6FEA2
:104DF000054609E0601C38B124B100F0EFFE401B0D
:104E0000A04201D9032070BD10480068C0F30040E3
:104E10000028EFD10D48006800F0010010B101201A
:104E20000A4908600948006800F4F970B0F5F97F94
:104E300001D1012000E0002018B1FFF777FF012029
:104E4000E1E70020DFE70000906101200C3C024018
:104E500000B58BB000BF002001903048006840F0E2
:104E600004002E4908600846006800F00400019024
:104E700000BF00BF00BF00200190081D006840F087
:104E80000200091D08600846006800F00200019059
:104E900000BF00BF142106A8FCF719F942F21070F8
:104EA000089000200690099007900A9002900390C5
:104EB000049005904FF4005002900020039004905D
:104EC00007200590142206A91548FCF7A4F81548F8
:104ED0001349091F0860084601F0C9FD02A91048DE
:104EE000001F01F019FE0E48001F01F0DBFD142227
:104EF00006A90D48FCF78FF80C480B49091F0860FC
:104F0000084601F0B4FD02A90748001F01F004FEA5
:104F10000548001F01F0C6FD0BB000BD403802403F
:104F20000C18002000040140481800200008004030
:104F30000148006870470000587602087FB50546B2
:104F40000C46102203A9202005F0EEF82946022085
:104F500010F034F98DE8070040282AD029460120B6
:104F600010F02CF98DE80700402822D003998879A9
:104F70000BF0F8FEA071039948790BF0F3FE607115
:104F8000039908790BF0EEFE2071039988780BF0F5
:104F9000E9FEA0700399C8780BF0E4FEE070039975
:104FA00048780BF0DFFE6070039908780BF0DAFEAA
:104FB00020707FBD3EB5044611E00EA10F48FBF7FF
:104FC00065FF05460EA1FCF7A9F840B909A100202C
:104FD000FBF75CFF0546FBF741FD00B23EBD2146F5
:104FE000202010F0EBF88DE807004028E5D14FF0C5
:104FF000FF30F3E7203A0A0D0000000050C2002005
:105000004944000010B508210C4800F0D3FD0128E8
:1050100009D10421094800F0CDFD012801D100206B
:1050200010BD0120FCE70421044800F0C3FD012865
:1050300001D10220F4E70320F2E700000010024053
:105040007FB504460D46022203A9032005F06CF843
:105050002146022010F0B2F88DE8070040280DD05C
:105060002146012010F0AAF88DE80700402805D05D
:10507000039908880CF07CF904B070BD2846FBE762
:1050800003480088401CC0F30A00024908447047E6
:10509000F4040020D0400020014679B1012904D059
:1050A000022905D003290CD105E0074800687047A4
:1050B00006480068FBE706480068F8E7054800680E
:1050C000F5E700BF0020F2E7780000208000002014
:1050D0008800002070000020014679B1012904D029
:1050E000022905D003290CD105E007480068704764
:1050F00006480068FBE706480068F8E705480068CE
:10510000F5E700BF0020F2E7740000207C000020DB
:10511000840000206C0000200148406870470000B7
:10512000186001203EB504460D466421142010F09D
:1051300045F88DE8070006F097FE08B900203EBD4F
:1051400029462046FFF784F808B90020F7E7012038
:10515000F5E7000008B502480068009008BD0000AF
:105160005476020870B50446A56D00F037FD06467A
:1051700094F83500022808D08020606500BF002028
:1051800084F8340000BF012070BD2068006820F062
:105190001600216808602068406920F080002168BE
:1051A0004861206C08B9A06C28B12068006820F024
:1051B0000800216808602068006820F0010021686C
:1051C00008600FE000F00AFD801B05280AD92020A6
:1051D000606500BF002084F8340000BF032084F81D
:1051E0003500D1E72068006800F001000028E9D10F
:1051F00094F85C103F208840A86000BF002084F82D
:10520000340000BF012084F835000020BCE70146CF
:1052100091F83500022803D08020486501207047AE
:10522000052081F835000868006820F001000A6850
:1052300010600020F3E770B504460CB9012070BD82
:1052400094F83500022800D1F9E72068006820F0C2
:10525000010021680860002021680860216848601A
:10526000216888602168C860216808612120216860
:1052700048612046FFF74AF8054694F85C103F2045
:105280008840A8600020606584F8350000BF84F87D
:10529000340000BF00BFD2E7F8B5044600200090FC
:1052A0008D4800684FF41651B0FBF1F7A56D2E68DC
:1052B00094F85C1008208840304098B1206800685D
:1052C00000F0040070B12068006820F0040021683C
:1052D000086094F85C1008208840A860606D40F079
:1052E0000100606594F85C107C488840304068B1EB
:1052F0002068406900F0800040B194F85C10774865
:105300008840A860606D40F00200606594F85C1011
:105310007248C01C8840304070B12068006800F0BE
:10532000020048B194F85C106C48C01C8840A8602A
:10533000606D40F00400606594F85C1010208840B7
:10534000304078B32068006800F0080050B394F84B
:105350005C1010208840A8602068006800F480205D
:1053600080B12068006800F4002028B9206CC8B122
:105370002046216C884715E0A06C98B12046A16CAE
:1053800088470FE02068006800F4807028B9206822
:10539000006820F0080021680860206C10B12046E9
:1053A000216C884794F85C10202088403040002809
:1053B00065D02068006800F0100000285FD094F8E5
:1053C0005C1020208840A86094F83500052828D17A
:1053D0002068006820F01600216808602068406995
:1053E00020F0800021684861206C08B9A06C28B1C9
:1053F0002068006820F008002168086094F85C10BC
:105400003F208840A86000BF002084F8340000BF1F
:10541000012084F83500206D10B12046216D8847A9
:10542000F8BD2068006800F4802080B12068006822
:1054300000F4002028B9606C10B12046616C8847E8
:105440001DE0E06BD8B12046E16B884717E020688B
:10545000006800F4807068B92068006820F01000CF
:105460002168086000BF002084F8340000BF0120DC
:1054700084F83500E06B10B12046E16B8847606D21
:1054800038B3606D00F00100F0B1052084F83500FC
:105490002068006820F001002168086000BF0098C3
:1054A000401C0090B84200D905E02068006800F078
:1054B00001000028F3D100BF00BF002084F83400B1
:1054C00000BF012084F83500E06C10B12046E16C8B
:1054D000884700BFA4E700001405002001008000F9
:1054E0002DE9F0410446002500F078FB074614B989
:1054F0000120BDE8F081606A00B100BF00BF00205C
:1055000084F8340000BF022084F835002068006869
:1055100020F00100216808600AE000F05FFBC01B7A
:10552000052805D920206065032084F83500E0E7D0
:105530002068006800F001000028EED120680568AE
:1055400020480540D4E901010843E1680843216986
:10555000084361690843A1690843E1690843216A76
:1055600008430543606A042803D1D4E90B010843CA
:105570000543206805602068456925F00705606AD5
:105580000543606A04280BD1A06A05432046FEF754
:10559000D7FE28B140206065012084F83500A8E7D7
:1055A000206845612046FEF7B1FE064694F85C107F
:1055B0003F208840B06000206065012084F83500FD
:1055C000002096E73F8010F02DE9F04704460D4695
:1055D00016461F464FF00008D4F8589000BF94F8C4
:1055E0003400012802D10220BDE8F087012084F8B0
:1055F000340000BF94F8350001282BD1022084F834
:105600003500002060653B46324629462046FEF7BD
:10561000F4FE94F85C103F208840C9F80800206828
:10562000006840F01600216808602068406940F07A
:10563000800021684861206C28B12068006840F033
:105640000800216808602068006840F001002168B7
:10565000086006E000BF002084F8340000BF4FF06F
:1056600002084046C0E731B5002400F0B7FA04460E
:1056700000BF00F0B3FA001B00998842F9D338BD8F
:105680002DE9F04104460E460127002500BF2548BC
:10569000007E012802D10220BDE8F08101202149CD
:1056A000087600BF4CF25030FFF79AFB0746002FF8
:1056B00031D1401E3060206801280FD1207C616804
:1056C000FFF71CFB4CF25030FFF78AFB07461648E9
:1056D000006820F00400144908601AE0A56812E090
:1056E000217C2846FFF79AFA4CF25030FFF778FBFE
:1056F00007460D48006820F0FA000B4908600FB11A
:10570000356005E06D1CD4E902100844A842E7D8D2
:1057100000BFFFF7B7FA00BF00200249087600BFBC
:105720003846B9E790610120103C02400348006808
:1057300040F000400149086000207047103C0240E2
:105740000748006800F0004030B1064804490C39B1
:1057500008600548086001E0012070470020FCE770
:10576000103C024023016745AB89EFCDF0B50C46F4
:10577000002500220023002197E0012606FA01F50A
:1057800004EA0502AA427DD106684FEA410C0327CC
:1057900007FA0CF7BE430660CF0800F1200656F862
:1057A00027604F074FEAD76C0F2707FA0CF7BE4365
:1057B0004FEAD10C00F1200747F82C6086684FEAC9
:1057C000410C032707FA0CF7BE43866047680126A1
:1057D0008E40B7434760C6684FEA410C032707FA7B
:1057E0000CF7BE43C660334E8F0856F827308E073D
:1057F000370F0F26BE4033402F4EB04201D1002656
:1058000028E02E4EB04201D1012623E02C4EB042BA
:1058100001D102261EE02B4EB04201D1032619E031
:10582000294EB04201D1042614E0284EB04201D1E5
:1058300005260FE0264EB04201D106260AE0254E8D
:10584000B04201D1072605E0234EB04201D108261F
:1058500000E009268F073F0FBE409E4224D18E07ED
:10586000370F0F2606FA07F3124E8F0856F82760F7
:105870009E43104F4FEA910C47F82C60174E366844
:10588000964300E010E0154F3E603E1D366896439B
:105890003F1D3E603E1D366896433F1D3E603E1DE7
:1058A000366896433F1D3E60491C1029FFF465AFE2
:1058B000F0BD000008380140000002400004024032
:1058C00000080240000C0240001002400014024098
:1058D00000180240001C024000200240003C014031
:1058E00010B50446102C3ED006DC012C30D0022C22
:1058F00029D0082C3CD121E0B4F5804F2DD0B4F54F
:10590000004F35D14FF400411B4800F053F91B48BC
:10591000007890B14FF40041194800F04BF918B9E4
:1059200001201849087008E000201649087000227C
:105930004FF40061144800F045F91AE008211048BE
:1059400000F038F915E002210D4800F033F910E0BD
:1059500001210B4800F02EF90BE04FF4804106487E
:1059600000F028F905E01021054800F023F900E0D7
:1059700000BF00BF10BD00000008024090000020E2
:1059800000140240910000200004024010B50446BB
:1059900004480068204020B1024804602046FFF718
:1059A0009FFF10BD143C0140F8B502460B46002590
:1059B000002400200021E1E0012606FA01F51E681E
:1059C00006EA0504AC4273D15E68022E02D05E681E
:1059D000122E13D1CF0802F1200656F827004E07E9
:1059E000F70E0F26BE40B0434F07FF0E1E69BE40A4
:1059F0003043CF0802F1200646F8270010684F0018
:105A00000326BE40B0431E7906F003064F00BE4099
:105A1000304310605E68012E08D05E68022E05D00B
:105A20005E68112E02D05E68122E13D190684F006E
:105A30000326BE40B0434F00DE68BE403043906056
:105A4000506801268E40B0431E79C6F300168E4082
:105A500030435060D0684F000326BE40B0434F0033
:105A60009E68BE403043D0605E6806F08056B6F156
:105A7000805FA8D100BF00260096424E366846F4EB
:105A80008046404F3E603E46366806F480460096AB
:105A900000BF00BF3C4E8F0856F827008E07370F17
:105AA0000F26BE40B043394EB24202D1002629E053
:105AB00063E0374EB24201D1012623E0354EB242B7
:105AC00001D102261EE0344EB24201D1032619E074
:105AD000324EB24201D1042614E0314EB24201D11D
