:020000040800F2
:1000000068520020550400081D3F0008653B0008A9
:10001000193F0008151E0008F951000800000000F3
:1000200000000000000000000000000025030008A0
:100030003321000800000000DD030008410400082F
:100040006F0400086F0400086F0400086F040008C4
:100050006F0400086F0400086F0400086F040008B4
:100060006F0400086F0400086F0400086F040008A4
:100070006F0400086F0400086F0400086F04000894
:100080006F0400086F0400086F0400086F04000884
:100090006F0400086F0400086F0400086F04000874
:1000A0006F0400086F0400086F0400086F04000864
:1000B0006F0400086F0400086F0400086F04000854
:1000C0006F0400086F0400086F0400086F04000844
:1000D0006F040008554D00086F0400086F04000805
:1000E0006F0400086F0400086F0400086F04000824
:1000F0006F0400086F0400086F0400086F04000814
:100100006F0400088D4100086F0400086F040008A8
:100110006F0400086F0400086F0400086F040008F3
:100120006F0400086F0400086F040008F11F000846
:100130006F0400086F0400086F0400086F040008D3
:100140006F0400086F0400086F0400086F040008C3
:100150006F040008052000086F0400086F04000801
:100160006F0400086F0400086F0400086F040008A3
:100170006F0400086F0400086F040008000000000E
:100180006F0400086F04000800F002F800F075F832
:100190000AA090E8000C82448344AAF10107DA45E2
:1001A00001D100F06AF8AFF2090EBAE80F0013F0BF
:1001B000010F18BFFB1A43F001031847F8B5000000
:1001C00018B600000A444FF0000C10F8013B13F081
:1001D000070408BF10F8014B1D1108BF10F8015BA0
:1001E000641E05D010F8016B641E01F8016BF9D193
:1001F00013F0080F1EBF10F8014BAD1C0C1B09D1EA
:100200006D1E58BF01F801CBFAD505E014F8016B5B
:1002100001F8016B6D1EF9D59142D6D370470000ED
:100220000023002400250026103A28BF78C1FBD8FF
:10023000520728BF30C148BF0B607047642900F0E7
:100240001982732900F06687002070471FB50AF0F5
:10025000A9FF9DE8030001F011F901F0F2F8040094
:10026000002000210AF088FF401C606000F0DEFFE3
:100270001FBD10B501F052F810BD01F0CBFA1146C8
:10028000FFF7E4FF0FB400F00BF80FBC07F0B0FF6E
:1002900000F0E0FC03B4FFF7ECFF03BC01F0B4FA9C
:1002A00004B009F0DDF90448002109F067FA09F00B
:1002B000E9F900F0CFFC000018B2000880F30988CB
:1002C0007047EFF309807047684680F30988044857
:1002D0000078C00714BF0220032080F31488704701
:1002E000D8B10008DFF818C0EFF305831B0618BF6C
:1002F0006047EFF31483DB0708BF604700DF7047F8
:100300006D9D0008DFF818C0EFF305831B0618BFCA
:100310006047EFF31483DB0708BF604700DF7047D7
:10032000519F0008EFF30980816911F8021CE1BBBD
:1003300090E80F1010B5E047BDE81040EFF3098CCE
:100340008CE80700214B93E80600914208BF7047F4
:1003500041B91EF0100F16D11D49086820F00100A8
:10036000086010E01EF0100F06BF2CED108A01206F
:10037000002081F825002CE9F00FC1F828C00CB44A
:100380000AF0AAF90CBC1A60D2F828C0BCE8F00F39
:1003900092F8250000280EBF6FF0020E6FF0120ECB
:1003A000BCEC108A8CF30988704710B5094A1268B2
:1003B000914209D8084C54F8214090E80F10A0470A
:1003C000EFF3098C8CE80F0010BD000080020020C4
:1003D00034EF00E06C1D00086C1D000810B50AF039
:1003E0003FF8BDE81040154B93E80600914208BF66
:1003F0007047EFF3098C1EF0100F06BF2CED108A2A
:100400000120002081F825002CE9F00FC1F828C058
:100410000CB40AF061F90CBC1A60D2F828C0BCE830
:10042000F00F92F8250000280EBF6FF0020E6FF05B
:10043000120EBCEC108A8CF30988704780020020F1
:1004400010B50AF011FACCE710B509F015FA0AF068
:100450000BFAC6E70948804709480047FEE7FEE770
:10046000FEE7FEE7FEE7FEE7FEE7FEE7FEE7FEE764
:1004700004480549054A064B70470000314800080A
:1004800089010008684C002068520020684E002056
:10049000684E0020004870472846002053EA020CAE
:1004A00000F069802DE9F04B4FF00006002B1FBFD4
:1004B000B3FA83F503FA05F424FA05F65E4012BF99
:1004C0001643B2FA82F502FA05F4C5F120051EBF03
:1004D00022FA05FC44EA0C04203556EA044C4FEAA3
:1004E000144418BF641C4FF000084FF000099042FC
:1004F00071EB030C39D3002919BFB1FA81F701FA66
:1005000007F6B0FA80F700FA07F6C7F120071EBF1A
:1005100020FA07FC46EA0C062037B6FBF4FCA7EBF2
:100520000507103F07F01F0BCBF120060CFA0BFB61
:100530002CFA06F644BFB3460026202FA4BF5E4621
:100540004FF0000B5BEA060C08BF4FF0010B19EBF4
:100550000B09ABFB027C48EB0608C01B06FB02CC78
:100560000BFB03CC71EB0C01C1E70B460246414685
:100570004846BDE8F08B13B54FF000004FF0000186
:10058000AFF30080BDE81C40704710B5044600F092
:10059000B5FC0068005D000704D5DF2C02D0A4F193
:1005A000200010BD204610BD0FB4044910B503AAA9
:1005B000029801F079FB10BC5DF814FBDC460020CA
:1005C0000FB4014610B504AA039801F06DFB10BCEE
:1005D0005DF814FB70B5044685690068C10601D555
:1005E000302600E02026C00707D070BDD4E90121E5
:1005F00030469047206A401C20626D1EF6D570BDC3
:1006000070B5044685690078C00707D170BDD4E98C
:10061000012120209047206A401C20626D1EF6D5E3
:1006200070BD70B50C460546012A05D028788006B5
:1006300000D5EA69002302E0012305E05B1C934238
:1006400002D2E05C0028F9D1A869E618C01AA861B6
:10065000286A184428622846FFF7BCFF04E0D5E961
:10066000012114F8010B9047B442F8D32846FFF754
:10067000C7FF70BD2DE9F0410646002410687529BA
:10068000314616A510D0AFF30080002802DA4042B0
:1006900013A507E031688A0701D512A502E04907D2
:1006A00004D511A5012401E0AFF3008000210A2246
:1006B00006F1240709E0B0FBF2FCB0FBF2F302FB09
:1006C0001C00303078541846491C0028F3D12346CA
:1006D0002A463046BDE8F04100F0B1BC0000000001
:1006E0002D0000002B000000200000002DE9F05F2D
:1006F000894604464FF0000ADFF874B1FB44C0F8A5
:1007000020A02046E1688847002874D0252806D01C
:10071000D4E901219047206A401C2062F1E70026BD
:100720005F462046E16888472028054607DB312DD3
:1007300005D2781910F8200C08B10643F1E7B0078C
:1007400001D526F00406C4F81CA00027C4F818A0A0
:100750002A2D09D0284604F0C8FF38B304EB8708D7
:10076000303DC8F8185019E059F8041B204604EB36
:1007700087029161E1688847012F054618D1E06939
:10078000002820DA26F020061DE0D8F8180000EB3B
:10079000800005EB40003038C8F818002046E168BA
:1007A0008847054604F0A1FF0028EED1012F0AD0AA
:1007B0002E2D08D12046E16888477F1C0546022F70
:1007C00046F02006C4DBA069002803DA404246F068
:1007D0000106A061F00701D026F010066C2D0BD0A9
:1007E000682D09D04C2D39D06A2D35D0742D35D0D7
:1007F0007A2D33D016E038E0E1682F46204688474E
:10080000B842054609D16C2F26D04FF48060E168CC
:10081000064320468847054604E06C2F1AD04FF463
:10082000807006430DB3A5F14100192802D8203588
:1008300046F400664A462946204626604E46FFF7A3
:10084000FDFC80B101280BD0F61D26F0070000F159
:10085000080956E74020E4E78020D8E70020D6E7E3
:1008600006F104094DE7284652E7206ABDE8F09FEB
:10087000A0B000002DE9F041044616460D46476938
:10088000007B80072ED0384604F094FF50BB3EB367
:10089000012E02D0022E25D104E0204600F066F899
:1008A00005441DE0384604F070FFE168002841F07F
:1008B0001001E16005DA204600F030FC0120BDE8BF
:1008C000F081C9030BD56268E16A914200D81146F4
:1008D000A26911442269891A814200DD0846054453
:1008E000002D01DA0220EAE7E16A6068E2688142ED
:1008F00006D29103E06203D522F4003141F01002E8
:10090000A6690027AE4213DCE16A814201D90B4699
:1009100000E0034603EB060C2369ACEB030CAC458B
:1009200006DD814201D98C4600E084469C4505D114
:10093000A760276042F02000A5620DE0AD1BE669CC
:10094000AE1B8142A66000D90846C01A281A206052
:100950005819606022F0200003490840E060002040
:1009600084F84870ABE70000BFCFD7FF10B5014651
:10097000C268900703D0900607D5886A0AE000F0A5
:10098000C5FA01210160881E10BD8B6948681844B2
:100990000B69C01A91F848301BB191F84910401A00
:1009A00010BD1103FCD50028FADD401E10BD00F07B
:1009B0002DBC2DE9F04704464FF000094FF0FF37FA
:1009C000C568D4E90486A80707D0204600F0DAFB02
:1009D000304604F0C5FE002802DA3846BDE8F0874C
:1009E000280502D5404600F013FB4C21204600F0BC
:1009F0001AFA206D20F0010020654846EEE770B538
:100A0000044600F14C05284604F076FE2046FFF728
:100A1000ADFF0446284604F095FE204670BD000058
:100A200070B505460A4E304604F066FE05F14C04EA
:100A3000204604F061FE2846FFF7BBFF054620462E
:100A400004F080FE304604F07DFE284670BD0000B4
:100A5000B40200202DE9F04116460F46054600F18C
:100A60004C04204604F048FE324639462846FFF73B
:100A700001FF0546204604F065FE2846BDE8F081EA
:100A80002DE9F041044600F14C07384604F034FEED
:100A9000E068810712D0800601D5A66A04E0A1694A
:100AA000606808442169461A204600F06BFB00226A
:100AB000054631462046FFF7DDFE00E000253846BA
:100AC00004F040FE2846BDE8F0812DE9F04118B160
:100AD000BDE8F041FFF7D4BF0B4E0025304604F0CF
:100AE0000BFE0A4C6F1E07E02046FFF7C9FF00B15E
:100AF0003D46206D20F00104002CF5D1304604F075
:100B000021FE2846DFE70000B402002088460020CE
:100B10002DE9F04716468846814602F14C073846D3
:100B200004F0EAFD3046FFF744FF18F8010B612896
:100B30000AD0722802D077283FD102E00125002494
:100B400005E00225042402E0082448F2020518F812
:100B5000010B2B2806D0622809D018F8010C742844
:100B60000AD00BE045F0030544F00204EFE745F03E
:100B7000040544F00104EAE744F010044846214625
:100B800004F02AFE411C18D00021316171604FF43D
:100B90000071F560F1617061200704D530460222D2
:100BA0000021FFF767FE306D40F0010030653846E8
:100BB00004F0C8FD3046BDE8F0870026F7E72DE9D0
:100BC000F04115460E460746204C204604F094FDA1
:100BD0002A4631463846FFF79BFF0546204604F07B
:100BE000B1FD2846BDE8F0812DE9F0410E46804672
:100BF000164D284604F080FD154C206DC10704D029
:100C0000410804D020F00104F7E7224612E0542006
:100C100000F0C3F9070017D0206D47F00101084329
:100C200054212065384600F0FEF807F14C0004F02E
:100C300073FD3A4631464046FFF76AFF04462846B0
:100C400004F080FD2046CDE70024F8E7B402002040
:100C50008846002010B50446AFF300802046BDE86A
:100C60001040FFF717BB0000014A00F0C3BB0000B3
:100C7000B00200202DE9F041054690460E460020C6
:100C8000044600E0641C44450BD2285D00F0CAF91C
:100C90000746305D00F0C6F9381A02D1295D0029F7
:100CA000F0D1BDE8F08110B5431C02E010F8011B43
:100CB00071B18107FAD14FF0013202C88C1A8C430E
:100CC00014EAC211F9D0C01A0A0603D0C01E10BD22
:100CD000C01A10BD0A0401D0801E10BD0902FCD04C
:100CE000401E10BD032A40F2308010F0030C00F0CB
:100CF000158011F8013BBCF1020F624498BF11F856
:100D000001CB00F8013B38BF11F8013BA2F104020E
:100D100098BF00F801CB38BF00F8013B11F0030386
:100D200000F02580083AC0F0088051F8043B083AEA
:100D300051F804CBA0E80810F5E7121D5CBF51F88C
:100D4000043B40F8043BAFF30080D20724BF11F806
:100D5000013B11F801CB48BF11F8012B24BF00F86B
:100D6000013B00F801CB48BF00F8012B704710B5DC
:100D7000203AC0F00B80B1E81850203AA0E8185093
:100D8000B1E81850A0E81850BFF4F5AF5FEA027C54
:100D900024BFB1E81850A0E8185044BF18C918C0C3
:100DA000BDE810405FEA827C24BF51F8043B40F864
:100DB000043B08BF7047D20728BF31F8023B48BF49
:100DC00011F8012B28BF20F8023B48BF00F8012B87
:100DD000704702F0FF0343EA032242EA024200F0B6
:100DE00002B84FF000020429C0F0128010F0030C8A
:100DF00000F01B80CCF1040CBCF1020F18BF00F80E
:100E0000012BA8BF20F8022BA1EB0C0100F00DB8BC
:100E10005FEAC17C24BF00F8012B00F8012B48BF1A
:100E200000F8012B70474FF0000200B513469446BE
:100E30009646203922BFA0E80C50A0E80C50B1F132
:100E40002001BFF4F7AF090728BFA0E80C5048BF46
:100E50000CC05DF804EB890028BF40F8042B08BFE4
:100E6000704748BF20F8022B11F0804F18BF00F8E0
:100E7000012B70474FF0013C50F8042B51F8043B14
:100E80009A4221D1A2EB0C03934313EACC1317D15E
:100E900050F8042B51F8043B9A4215D1A2EB0C03F5
:100EA000934313EACC130BD150F8042B51F8043BB5
:100EB0009A4209D1A2EB0C03934313EACC13DBD083
:100EC0004FF00000704700BFD01A01BAB1FA81F1AB
:100ED00001F0180122FA01F0CB40C1F12001DBB290
:100EE000C0B2C01A2CFA01F3D11A914311EAC3110E
:100EF000E6D17047704770477047000010B500F0AA
:100F0000A0FA001D10BD00BF71A2000004F0B4BB28
:100F10000B3020F0070070472DE9F04117460E46D0
:100F20000446FFF7F5FFA042054633D9002F1CBF4A
:100F300006F10C0004F0E0FB30467468F4B121685F
:100F4000A94217D305F1080291423CBF6168416094
:100F500007D3626861194A602268521B0A604160C7
:100F60002560002F1CBF06F10C0004F0EBFB201DD8
:100F7000BDE8F08120466468002CE0D12946304667
:100F800000F068FA0028D7D1002F1CBF06F10C0032
:100F900004F0D8FB0020BDE8F08110B5044600F055
:100FA0004BFA01682046BDE810400122B4E770B555
:100FB00016460D46041F002808BF70BD002E1CBF3A
:100FC00005F10C0004F098FB2B465868002818BF68
:100FD000A04238BF0346F8D31968CA18A24218BF06
:100FE0005C6003D122681C461144196021680A190B
:100FF000824218BF606004D14268626000680844A1
:101000002060002E1CBF05F10C0004F09BFB70BD9E
:1010100010B5044600F010FA01682046BDE8104003
:101020000122C4E710B50446FFF768FF0068005DC1
:10103000C00602D504F1200010BD204610BD2DE9E8
:10104000F0470D4699469246044600F1240801688F
:10105000880604D5E06921F01001216000E001203C
:10106000A84201DD471B00E00027A1697A1902EBC5
:101070000900081AA0612078C00602D42046FFF7B4
:10108000A9FA002608E0D4E901211AF806009047E1
:10109000206A401C761C20624E45F4DB2078C00696
:1010A0000AD52046FFF796FA06E0D4E90121302060
:1010B0009047206A401C2062381EA7F10107F4DC2B
:1010C00007E0D4E9012118F805009047206A401C88
:1010D0002062281EA5F10105F3DC2046FFF790FAF7
:1010E0002078000602D50220BDE8F0870120FBE74A
:1010F00010B5436913B1AFF3008001E0FFF791FA37
:10110000012010BD127800F124010A7000224A70FB
:101110000122EDE711684FF0FF32E9E7C16821F4E1
:10112000001141F08001C1600021816001607047C1
:101130002DE9F047814614460E464FF0FF383248FD
:10114000D5685769054209D03846A16904F0A3FB68
:10115000002811DB2C48C0430540E5602B46324691
:101160004946384604F0B1FBA16920F00042B21AAA
:1011700011440028A16103D02046FFF7CFFF40466D
:10118000BDE8F08770B504460569C06A61688842A9
:1011900000D80846E16821F42011E160C90312D5A6
:1011A000A84208D02246411B2846FFF7C1FF10B1D4
:1011B0004FF0FF3070BD0020E562C4E90150E068E7
:1011C00020F48030E060002070BD10B50446C06897
:1011D00020F02000E060A16AA06988420DD020467E
:1011E000FFF7D0FFE06820F4405040F01000E060CE
:1011F000A06AA0612069E062606044F24001E0689A
:101200008843E06010BD00001000020070B5044685
:1012100000F14C05284604F06FFA204606F024F948
:101220000446284604F08EFA204670BD10B5654885
:101230005421FFF7F8FD64485421FFF7F4FD63489B
:101240005421FFF7F0FD62485E49624A624B01603B
:101250005D4810605D4A1A60431C0B65511C0165B6
:101260000120106557484C3004F056FA56484C306F
:1012700004F052FA55484C3004F04EFA574804F046
:101280004BFA58484F4A56A17844FFF798FC20B9CA
:10129000544878440A3800F092FA54484A4A52A115
:1012A0007844FFF78CFC20B9504878440A3800F0A5
:1012B00086FA4F48454A4CA17844FFF780FC20B994
:1012C0004B4878440A3800F07AFA40233D48DC0065
:1012D0000021224600F03FFA20B1424878445438B9
:1012E00000F06DFA384822464023002100F033FA1E
:1012F00020B13E487844543800F061FA3348224621
:101300001023002100F027FA002806D0384878443E
:10131000BDE81040563800F052BA10BD2B482DE9F8
:10132000F041006D2D4E20F00104304604F0E4F948
:10133000244D4C35284604F0DFF92248FFF739FBED
:10134000284604F0FFF92846AFF300801E4D4C35C7
:10135000284604F0D1F91C48FFF72BFB284604F07F
:10136000F1F92846AFF30080184D4C35284604F0BB
:10137000C3F91648FFF71DFB284604F0E3F9284699
:10138000AFF3008014E0206D20F0010504F14C0063
:10139000074604F0B1F92046FFF70BFB384604F08E
:1013A000D1F93846AFF300802046FFF731FE2C46D6
:1013B000002CE8D1304604F0C5F90848AFF30080AE
:1013C000BDE8F08188460020DC4600203047002040
:1013D000A4020020A8020020AC020020B4020020D9
:1013E00072000000F09F000077000000DF9F000007
:1013F000CF9F00002DE9F04115460E46040002D1B2
:101400002C6804B90BA4204600F0F0F904442078BD
:1014100070B127463146384600F0D8F904442078A8
:1014200010B1002004F8010B38462C60BDE8F081B3
:101430000027F9E70000000010B5FFF72BF808308F
:1014400010BD10B5FFF726F8203010BD704770476B
:101450007047704738B504460A4600206946AFF326
:101460000080002808BF38BD02460099204600F0E1
:10147000F6F9012038BD012000F00EBCF8B5AFF33D
:101480000080054600200C46102000BF0646A81923
:10149000A0420DD9324669460020AFF30080070014
:1014A00008BF00F0F9FB0098A04218BF0546C41918
:1014B000FFF7C2FF05600746F01D20F00700461940
:1014C000284600F00AF8B44208BFF8BDA21B314616
:1014D0003868BDE8F84000F0C2B900210160C0E9F9
:1014E00001100C3004F018B91020704701694A1C33
:1014F00002610878704700B58FB0CDE90131002155
:10150000059105497944CDE9031011466846FFF776
:10151000EDF80FB000BD0000E5FFFFFF70B50D4610
:1015200001461446D36850692A4604F08BF9002816
:1015300007DA411C07D0E16820F0004041F4804107
:10154000E160281A70BD2046FFF7E8FD4FF0FF303C
:1015500070BDC1680022026021F4805141F0400159
:1015600011F4C06FC16001D08260704702694168A8
:10157000891AC269891A816070472DE9F0470446CB
:10158000C06840F48000E060010312D520F4002020
:10159000E060810606D4E26A61688A4200D80A46A1
:1015A000511A216040F40010E06094F82500BDE875
:1015B000F08720F40010E060800602D52046FFF797
:1015C00004FEE06842F281014FF0FF390140012939
:1015D00003D02046FFF7A2FDB6E0216800260029CF
:1015E0000ADAC94340F480502160C4E902606068AF
:1015F000411C61600078DAE744F2400108420CD0F7
:1016000020F4A04040F040002660E060216960685E
:10161000401AE169401AA06096E0216991B9C003BF
:1016200010D4E069FFF7B9FC2061B0B1E06840F484
:10163000006010F4407FE06002D140F48070E06010
:1016400020696060E068D4F814A0C1061AD5C00310
:101650000ED52046FFF796FD14E004F1240020612A
:101660000120E061E06820F4407040F48060E6E72B
:1016700021696068401AA1690144504604F00BF9E1
:101680000028A6DBE068C0032AD56168E06A8842CA
:1016900000D808462169451AE069471B1BD020463F
:1016A000D4F81880FFF76EFD08EB05015046C4F82A
:1016B000188004F0F0F800288BDBE06840F400307C
:1016C000E060000202D5A0692844A061E1692069B8
:1016D000C91B45180DE02046FFF754FDE769F5E703
:1016E00025696168D4E90607491BE562084465601D
:1016F000A061E06820F0100010F4C06FE06002D03C
:10170000204600F07BFAE06840F48050C4E90260B3
:10171000000205D52069E06260606FF0010046E7D5
:10172000224639462846FFF7F9FE411C0CD02918FD
:10173000E16258B1401E2060681C6060E06840F4BF
:101740000030E060287832E7484630E765602046A0
:10175000FFF7FFFEF8E72DE9F04704461E469046E6
:101760000D46C7684C30814603F0C6FFB80714D059
:10177000780212D44046B8F5807F09D0B0F5007FDA
:1017800006D0B8F5806F08D1012604F1240506E0E3
:10179000701E6FF07F41884201D3012409E025616A
:1017A000E6616560E06820F4706040EA0800E0608F
:1017B0000024484603F0C6FF2046BDE8F08710B578
:1017C00000F050FABDE8104000F046BA30B50346CC
:1017D0001D781DB10A4603E0AC4201D1181A30BD94
:1017E00012F8014B002CF7D15B1CF1E730B5034632
:1017F0001D783DB10A4612F8014B1CB1AC42FAD13A
:101800005B1CF5E7181A30BD01491820ABBEFEE796
:10181000260002007546FEF73DFEAE46050069460D
:10182000534620F00700854618B020B5FEF720FE8D
:10183000BDE820404FF000064FF000074FF00008D1
:101840004FF0000B21F00701AC46ACE8C009ACE852
:10185000C009ACE8C009ACE8C0098D46704730B497
:1018600004468C464368002B18BF634538BF1846B2
:10187000F8D303681844604507D0C81C20F007005F
:1018800000F1040CACEB0100121A2146CCF8002048
:1018900030BC00220CF10400FFF789BB2DE9F047B2
:1018A00005460C46C86820F4201040F48000C8604B
:1018B000800602D50846FFF788FCE06841F2820105
:1018C0004FF0FF390140022903D02046FFF726FCE4
:1018D000B5E000F42041B1F5004F0FD1C00306D5AB
:1018E0006168E06A884200D80846606006E02069C6
:1018F000E0626060606903F048FFA061A0680022B8
:10190000EEB200280DDAE1688B050AD4C043A0606E
:1019100041F490302260E0606068411C61600670B4
:10192000A5E0E0689046226040F40050E060206945
:1019300068BB606903F03EFF012704F12405A0B1F4
:10194000A08910F4407F08D0E069FFF726FB2061F2
:1019500018B1E06840F4006016E0E7612561E068D6
:1019600020F4407040F480600EE0E069FFF715FB62
:1019700000282061F1D0E06840F4006010F4407F5E
:10198000E06002D140F48070E06020696060E0684F
:1019900025696FF0010AC1051FD56168E06A8842B8
:1019A00000D80846411B04D022462846FFF7C0FB5A
:1019B000F0BBE068010203D5E562C4E9015854E0D8
:1019C000691CE1626160E16940F48030491EC4E94C
:1019D000021030462E70BDE8F087010202D500F4F7
:1019E00080320AE06068411C61600670E0680A2E7F
:1019F00040F48030E06006D00022E16A60688142F5
:101A000003D90B4602E00122F7E70346A7895B1BD7
:101A10007F0503D4E7699F4200DDE2B1814200D82F
:101A20000146E5620F1AC4E90158002B09DD00E008
:101A300005E0224619462846FFF77AFB08B14846DA
:101A4000C9E747B1A069E5626560C01BA061E068B5
:101A500040F01000E060E068000208D56168A0690D
:101A6000E562491B08446560A0615046B3E7304613
:101A7000B1E72DE9F041044617460D4602F14C004E
:101A8000804603F039FE012D264616DD384605F066
:101A9000EBFC411C0FD0C0B20A2804F8010B02D0A5
:101AA0006D1E012DF2DC00202070404603F04AFE3E
:101AB0003046BDE8F081B44201D10026F5E7387B1D
:101AC0000006F0D50026EEE72DE9FF4F06461C463E
:101AD0008B4681B003F14C00009003F00DFEBBF18A
:101AE000000F06D003992768002528460BFB01F953
:101AF00063E000247AE0002F61DCE06948453FDACA
:101B0000BAF1000F3CD0207B800601D5A06A04E02A
:101B1000A169606808442169401A2246A9EB0501C1
:101B200080463046FFF7FAFC002812DD8044A8F119
:101B300001010644A161226916F8011C0027054431
:101B400011702169491CE1626160E16841F4003172
:101B5000E160411C03D010B1207B400642D52046F5
:101B6000FFF7F7FCC4F8188020696060E062E06865
:101B7000276020F40030E060E0694042A06018E097
:101B8000484503DAE06840F40000E0602046FFF7D3
:101B9000F4FCE16821F40001E160411C08D0811CE3
:101BA0000AD02768002807DB6D1C06F8010B19E036
:101BB0002760B5FBFBF419E00120824612E0A9EB97
:101BC0000500B846B84200DA8046304642466168B1
:101BD000FFF788F86168A7EB0807464401EB0800A7
:101BE000454460604D4586DB2760039C009803F008
:101BF000A9FD05B02046BDE8F08F00002DE9F047B3
:101C000007461348814603F077FD124C40F2022844
:101C100017E094F85000C00710D0BC420ED004F179
:101C20004C05284603F068FDE668284603F08AFD67
:101C300038EA060002D12046FEF722FF206D20F090
:101C40000104002CE5D1484603F07CFDBDE8F08797
:101C5000B402002088460020002801D0FFF7D4BD40
:101C60007047000010B5014602A000F03DF80120C9
:101C700010BD000053494752545245443A20526522
:101C80006469726563743A2063616E2774206F70B3
:101C9000656E3A200000000010B500F03FF8BDE886
:101CA0001040FFF7D9BF70472DE9F04114460D46AB
:101CB000074601F14C06304603F01EFD094B7B44FC
:101CC000224629463846FFF716FC0446287B0006C4
:101CD00001D54FF0FF34304603F034FD2046BDE817
:101CE000F0810000695A000070B505460C460A20D4
:101CF00000E06D1C03F018FE35B128780028F8D1FB
:101D000002E0641C03F010FE14B120780028F8D122
:101D1000BDE870400A2003F007BE000010B501289E
:101D200005D0002103A0FFF7DFFF012010BD09A1AE
:101D3000F8E7000053494752544D454D3A204F753E
:101D400074206F662068656170206D656D6F7279B3
:101D5000000000003A2048656170206D656D6F726B
:101D60007920636F72727570746564000000000002
:101D700070B52348007D00F0040010B94FF0FF302B
:101D800070BD00241F48056800201E4908601D48DA
:101D90001038006820F009001A49103908601A4804
:101DA00000F03EFC00B1641E184800F039FC08B198
:101DB0004FF0FF3402E013484430006811480C3003
:101DC00000680028F7D10E48406820F001000C4957
:101DD00048600846406820F00800486008464068AF
:101DE00020F0400048600846406820F080004860CD
:101DF00007480449091F0860081D05602046BFE721
:101E0000203000203C2C0140602F0020C02F0020FB
:101E1000FF07400000BFFEE701460548007D00F0D7
:101E2000020010B94FF0FF3070476FF00300FBE77E
:101E3000203000202DE9F04186B080460C466848ED
:101E4000007D00F0020020B94FF0FF3006B0BDE881
:101E5000F081B8F10E0F75D2DFE808F0BC07344509
:101E60005EBCBC83BCBC92BC96A527465D4887423D
:101E700000D300BF5B483844401EB0FBF7F6022E8B
:101E800001D2002600E0B61EFF2E00D9FF265648DC
:101E9000006840F2FF41884340F48070304352496B
:101EA0000860B01C4F49B1FBF0F7B42500E06D1E8F
:101EB000002DFCD14A48007D40F0040048490875D7
:101EC0003846C3E714B1012C08D106E04648006843
:101ED00020F400504449086003E002E06FF0030082
:101EE000B4E700BF79E01CB1012C03D1122504E056
:101EF000022502E06FF00300A8E700BF0420019074
:101F0000029501200390032004900C20059001A964
:101F1000364800F067FF60E024B1012C09D0022CA4
:101F20001AD110E03048006820F4C0502E490860F3
:101F300015E02D48006820F4C05040F400602A49A4
:101F400008600CE046E02848006820F4C05040F4E7
:101F500080502549086002E06FF0030076E700BF7B
:101F60003BE034B12048006820F400701E4908604E
:101F700005E01D48006840F400701B4908602CE033
:101F800019482030046028E01548406820F04000DF
:101F90001349486014483830006840F48000124902
:101FA0003831086019E034B10D48007D40F0800000
:101FB0000B4908750DE00A48007D20F080000849B3
:101FC000087509482830006820F400700649283157
:101FD000086002E06FF0030038E700BF002035E73B
:101FE00020300020006CDC02042C0140000C024078
:101FF00010B53B2001F08EF8014800F0ABFB10BD9E
:10200000602F002010B5452001F084F8014800F051
:10201000A1FB10BDC02F00200146087810381823FE
:10202000B0FBF3F20848805CC865032A05D908684C
:102030006FF30900001D886503E008686FF309006D
:102040008865886D7047000093B200080146002043
:102050008A6A8B6903BB32B1012A0CD0022A10D0E4
:10206000032A17D115E0CB6A03F08073B3F1807FA8
:1020700000D101200FE0CB6AB3F1C07F00D1012075
:1020800009E0CB6A03F08073B3F1807F00D10120B7
:1020900001E000E000BF35E08B69B3F5005F1BD1C4
:1020A00032B1012A06D0022A0CD0032A12D10BE049
:1020B000012010E0CB6A03F08073B3F1807F00D180
:1020C000012008E0012006E0CB6AB3F1C07F00D117
:1020D000012000E000BF15E032B1012A05D0022A3C
:1020E00004D0032A0CD103E000BF00BF012008E0A8
:1020F000CB6A03F08073B3F1807F00D1012000E050
:1021000000BF00BF704730B50468246824F4802401
:1021100005682C60046863608468402C04D10468FE
:10212000A2600468E16003E00468A1600468E26002
:1021300030BD704708B5564988420FD100BF002115
:1021400000915449096841F00101524A1160114659
:10215000096801F00101009100BF97E04E498842F3
:102160000FD100BF002100914A49096841F00201E6
:10217000484A11601146096801F00201009100BF50
:1021800084E0464988420FD100BF002100914149B7
:10219000096841F004013F4A11601146096801F0E5
:1021A0000401009100BF71E03D4988420FD100BF9A
:1021B000002100913749096841F00801354A116052
:1021C0001146096801F00801009100BF5EE0354941
:1021D00088420FD100BF002100912E49096841F0CB
:1021E00010012C4A11601146096801F0100100919C
:1021F00000BF4BE02C4988420FD100BF0021009165
:102200002449096841F02001224A116011460968F9
:1022100001F02001009100BF38E0244988420FD12D
:1022200000BF002100911B49096841F04001194A93
:1022300011601146096801F04001009100BF25E0DE
:102240001B4988420FD100BF002100911149096844
:1022500041F080010F4A11601146096801F08001C8
:10226000009100BF12E0134988420FD100BF002146
:1022700000910849096841F48071064A11601146CD
:10228000096801F48071009100BF00BF08BD000023
:1022900000000240303802400004024000080240C2
:1022A000000C0240001002400014024000180240DE
:1022B000001C02400020024010B586B004461421E4
:1022C00001A8FEF7B0FD00200190012002900394C8
:1022D0000490022005900020009000BF00F0B2FCA6
:1022E0000028FBD1694601A800F04CFC4CF25030AC
:1022F00000F0EAF800F09CFC009806B010BD00BFAA
:10230000FEE7000010B5002201B909E0012901D162
:102310000A0205E0022901D10A0201E04FF44072ED
:10232000114B1B6823F440730F4C236023461B683A
:102330001343236023461B6823F0F80323602346DE
:102340001B68F82494FAA4F4B4FA84F400FA04F4B0
:1023500044F002042343044C236023461B6843F4E7
:102360008033236010BD0000103C02401C48006810
:1023700000F40070B0B11A48006820F400701849E9
:10238000086000BF0846006840F400600860084626
:10239000006820F40060086000BF0846006840F450
:1023A000007008600E48006800F48060B0B10C480E
:1023B000006820F480600A49086000BF0846006891
:1023C00040F4805008600846006820F4805008609F
:1023D00000BF0846006840F4806008607047000055
:1023E000003C02400A4A126822F44072084B1A600C
:1023F0001A46126842F004021A601A4612684FF434
:10240000803343EA00231A43014B1A6070470000EF
:10241000103C02402A480068C0F3001040B129482F
:10242000C06940F010002749C861102024490860A5
:1024300023480068C0F3401040B12248C06940F012
:1024400008002049C86120201D4908601C48006818
:10245000C0F3801040B11B48C06940F00400194926
:10246000C86140201649086015480068C0F3C010D4
:1024700040B11448C06940F002001249C861802090
:102480000F4908600E480068C0F3002048B10D48AD
:10249000C06940F001000B49C8614FF480700849E1
:1024A000086007480068C0F3400040B10548C069B3
:1024B00040F020000349C8610220014908607047CC
:1024C0000C3C02404030002070B50446002500203E
:1024D0001749C86100F092FD054609E0601C38B15B
:1024E00024B100F08BFD401BA04201D9032070BD38
:1024F00010480068C0F300400028EFD10D48006884
:1025000000F0010010B101200A4908600948006884
:1025100000F4F970B0F5F97F01D1012000E000204E
:1025200018B1FFF777FF0120E1E70020DFE70000A7
:10253000403000200C3C0240014800687047000019
:102540002CB2000838B505460C46102269462020FA
:1025500001F0D0FD2946032007F0DAFB10B3009903
:10256000887903F0D3FAA0710099487903F0CEFA84
:1025700060710099087903F0C9FA20710099887890
:1025800003F0C4FAA0700099C87803F0BFFAE070B5
:102590000099487803F0BAFA60700099087803F05F
:1025A000B5FA207038BD38B504460D46022269469A
:1025B000032001F09FFD2146032007F0A9FB20B175
:1025C0000099088803F02AFD38BD2846FCE7000082
:1025D0000246002100BF0DE0094850F8210090425A
:1025E00007D8074B481C53F82000904201D90846F1
:1025F0007047491C0C29EFDB4FF0FF30F8E7000073
:102600003000002001484068704700002030002062
:1026100008B502480068009008BD000028B2000814
:1026200070B50446A56D00F0E9FC064694F8350047
:10263000022808D08020606500BF002084F83400A4
:1026400000BF012070BD2068006820F016002168DE
:1026500008602068406920F0800021684861206C93
:1026600008B9A06C28B12068006820F00800216833
:1026700008602068006820F00100216808600FE011
:1026800000F0BCFC801B05280AD92020606500BF33
:10269000002084F8340000BF032084F83500D1E71F
:1026A0002068006800F001000028E9D194F85C106F
:1026B0003F208840A86000BF002084F8340000BF9D
:1026C000012084F835000020BCE7014691F8350070
:1026D000022803D08020486501207047052081F83A
:1026E00035000868006820F001000A6810600020CA
:1026F000F3E770B504460CB9012070BD94F83500BD
:10270000022800D1F9E72068006820F00100216864
:10271000086000202168086021684860216888609E
:102720002168C8602168086121202168486120462D
:10273000FFF772FC054694F85C103F208840A860C3
:102740000020606584F8350000BF84F8340000BFC5
:1027500000BFD2E7F8B50446002000908D4800681D
:102760004FF41651B0FBF1F7A56D2E6894F85C108C
:1027700008208840304098B12068006800F00400CC
:1027800070B12068006820F004002168086094F8A7
:102790005C1008208840A860606D40F00100606512
:1027A00094F85C107C488840304068B120684069EB
:1027B00000F0800040B194F85C1077488840A86031
:1027C000606D40F00200606594F85C107248C01CB7
:1027D0008840304070B12068006800F0020048B1C5
:1027E00094F85C106C48C01C8840A860606D40F094
:1027F0000400606594F85C1010208840304078B385
:102800002068006800F0080050B394F85C101020B5
:102810008840A8602068006800F4802080B12068AB
:10282000006800F4002028B9206CC8B12046216C53
:10283000884715E0A06C98B12046A16C88470FE04E
:102840002068006800F4807028B92068006820F0D3
:10285000080021680860206C10B12046216C884770
:1028600094F85C10202088403040002865D0206813
:10287000006800F0100000285FD094F85C10202061
:102880008840A86094F83500052828D120680068A1
:1028900020F01600216808602068406920F0800060
:1028A00021684861206C08B9A06C28B120680068D4
:1028B00020F008002168086094F85C103F208840F0
:1028C000A86000BF002084F8340000BF012084F815
:1028D0003500206D10B12046216D8847F8BD206875
:1028E000006800F4802080B12068006800F40020B7
:1028F00028B9606C10B12046616C88471DE0E06B20
:10290000D8B12046E16B884717E02068006800F4E2
:10291000807068B92068006820F0100021680860A5
:1029200000BF002084F8340000BF012084F8350087
:10293000E06B10B12046E16B8847606D38B3606D85
:1029400000F00100F0B1052084F83500206800682F
:1029500020F001002168086000BF0098401C009032
:10296000B84200D905E02068006800F001000028A6
:10297000F3D100BF00BF002084F8340000BF012065
:1029800084F83500E06C10B12046E16C884700BF48
:10299000A4E7000070020020010080002DE9F04152
:1029A0000446002500F02AFB074614B90120BDE8C3
:1029B000F081606A00B100BF00BF002084F83400DD
:1029C00000BF022084F835002068006820F0010074
:1029D000216808600AE000F011FBC01B052805D93A
:1029E00020206065032084F83500E0E72068006857
:1029F00000F001000028EED120680568204805405D
:102A0000D4E901010843E168084321690843616989
:102A10000843A1690843E1690843216A0843054363
:102A2000606A042803D1D4E90B01084305432068F8
:102A300005602068456925F00705606A0543606AFE
:102A400004280BD1A06A05432046FFF7FFFA28B1FE
:102A500040206065012084F83500A8E720684561C2
:102A60002046FFF7D9FA064694F85C103F208840CC
:102A7000B06000206065012084F83500002096E7F2
:102A80003F8010F02DE9F04704460D4616461F46DC
:102A90004FF00008D4F8589000BF94F83400012893
:102AA00002D10220BDE8F087012084F8340000BF85
:102AB00094F8350001282BD1022084F8350000203D
:102AC00060653B46324629462046FFF71CFB94F8DA
:102AD0005C103F208840C9F808002068006840F07A
:102AE0001600216808602068406940F08000216875
:102AF0004861206C28B12068006840F00800216817
:102B000008602068006840F001002168086006E065
:102B100000BF002084F8340000BF4FF00208404698
:102B2000C0E7000010B54FF0FF300E4908600020EC
:102B30000860401E091D086000200860401E094909
:102B40001039086000200860401E091D0860002040
:102B50000860401E091D08600020086000F086FA29
:102B6000002010BD2038024031B5002400F046FAA4
:102B7000044600BF00F042FA001B00998842F9D3D6
:102B800038BD00002DE9F04104460E46012700251E
:102B900000BF2548007E012802D10220BDE8F08157
:102BA00001202149087600BF4CF25030FFF78CFC21
:102BB0000746002F31D1401E3060206801280FD118
:102BC000207C6168FFF70EFC4CF25030FFF77CFC74
:102BD00007461648006820F00400144908601AE00F
:102BE000A56812E0217C2846FFF78CFB4CF25030A0
:102BF000FFF76AFC07460D48006820F0FA000B4911
:102C000008600FB1356005E06D1CD4E9021008447E
:102C1000A842E7D800BFFFF7A9FB00BF0020024988
:102C2000087600BF3846B9E740300020103C02402B
:102C30000348006840F000400149086000207047E8
:102C4000103C02400748006800F0004030B10648E0
:102C500004490C3908600548086001E0012070470C
:102C60000020FCE7103C024023016745AB89EFCD13
:102C7000F0B50C46002500220023002197E0012634
:102C800006FA01F504EA0502AA427DD106684FEA78
:102C9000410C032707FA0CF7BE430660CF0800F18A
:102CA000200656F827604F074FEAD76C0F2707FA20
:102CB0000CF7BE434FEAD10C00F1200747F82C6017
:102CC00086684FEA410C032707FA0CF7BE4386607B
:102CD000476801268E40B7434760C6684FEA410CFB
:102CE000032707FA0CF7BE43C660334E8F0856F829
:102CF00027308E07370F0F26BE4033402F4EB0428D
:102D000001D1002628E02E4EB04201D1012623E059
:102D10002C4EB04201D102261EE02B4EB04201D112
:102D2000032619E0294EB04201D1042614E0284EB2
:102D3000B04201D105260FE0264EB04201D1062651
:102D40000AE0254EB04201D1072605E0234EB042ED
:102D500001D1082600E009268F073F0FBE409E42A2
:102D600024D18E07370F0F2606FA07F3124E8F086D
:102D700056F827609E43104F4FEA910C47F82C609D
:102D8000174E3668964300E010E0154F3E603E1D3A
:102D9000366896433F1D3E603E1D366896433F1D94
:102DA0003E603E1D366896433F1D3E60491C10291B
:102DB000FFF465AFF0BD000008380140000002409C
:102DC0000004024000080240000C024000100240D3
:102DD0000014024000180240001C02400020024083
:102DE000003C0140F8B502460B46002500240020B7
:102DF0000021E1E0012606FA01F51E6806EA050455
:102E0000AC4273D15E68022E02D05E68122E13D1DE
:102E1000CF0802F1200656F827004E07F70E0F26BE
:102E2000BE40B0434F07FF0E1E69BE403043CF087F
:102E300002F1200646F8270010684F000326BE4026
:102E4000B0431E7906F003064F00BE4030431060C9
:102E50005E68012E08D05E68022E05D05E68112ED5
:102E600002D05E68122E13D190684F000326BE4038
:102E7000B0434F00DE68BE4030439060506801268A
:102E80008E40B0431E79C6F300168E40304350602A
:102E9000D0684F000326BE40B0434F009E68BE403E
:102EA0003043D0605E6806F08056B6F1805FA8D1EE
:102EB00000BF00260096424E366846F48046404FDA
:102EC0003E603E46366806F48046009600BF00BF6E
:102ED0003C4E8F0856F827008E07370F0F26BE404E
:102EE000B043394EB24202D1002629E063E0374EAA
:102EF000B24201D1012623E0354EB24201D1022671
:102F00001EE0344EB24201D1032619E0324EB242E5
:102F100001D1042614E0314EB24201D105260FE062
:102F20002F4EB24201D106260AE02E4EB24201D106
:102F3000072605E02C4EB24201D1082600E0092602
:102F40008F073F0FBE4030431E4E8F0846F82700C4
:102F5000264E3068A0435E6806F48036B6F5803FA2
:102F600000D12043214E3060361D3068A0435E689A
:102F700006F40036B6F5003F00D120431B4E361D47
:102F80003060361D3068A0435E6806F48016B6F5E2
:102F9000801F00D12043154E08363060361D306842
:102FA000A0435E6806F40016B6F5001F00D120436A
:102FB0000E4E0C363060491C1029FFF41BAFF8BDD3
:102FC000443802400838014000000240000402403A
:102FD00000080240000C02400010024000140240B1
:102FE00000180240001C024000200240003C01404A
:102FF00001480068000C7047002004E001480068A8
:10300000704700008802002010B50D48006840F4A9
:1030100000700B4908600846006840F48060086052
:103020000846006840F480700860032000F0E4F86F
:103030000F2000F007F800F033F8002010BD00006A
:10304000003C024070B50446074800684FF47A71AE
:10305000B0FBF1F5284600F025FC00222146501E69
:1030600000F08CF8002070BD7002002010B54FF405
:10307000C0610948FFF7FCFD0848006820F0010026
:103080000649086005481430006820F01000034924
:103090001431086010BD00000000024030380240CA
:1030A00000B587B000BF002001901848006840F0CC
:1030B0000100164908600846006800F00100019010
:1030C00000BF00BF142102A8FDF7ADFE4FF48060E1
:1030D00002900220039000200490059007200690A3
:1030E00002A90B48FFF77EFE4FF400700290022009
:1030F000039001200490002005900720069002A96B
:103100000348FFF76FFE07B000BD000030380240F3
:103110000000024010B501460846002807DB00F019
:103120001F0301229A40034B440943F8242000BFA7
:1031300010BD000080E200E010B5014608460028FE
:1031400007DB00F01F0301229A40034B440943F8B8
:10315000242000BF10BD000080E100E001460846C9
:10316000002809DB00F01F0301229A4043099B005D
:1031700003F1E023C3F8002100BF70472DE9F05FA1
:1031800080460D461646002702F0F0F807463946FD
:103190002A46334601F00700C0F1070ABAF1040FCE
:1031A00002D94FF0040A01E0C0F1070AD14600F14C
:1031B000040ABAF1070F02D24FF0000A01E0A0F1B1
:1031C000030AD4464FF0010A0AFA09FAAAF1010AE1
:1031D0000AEA020A0AFA0CFA4FF0010B0BFA0CFB8E
:1031E000ABF1010B0BEA030B4AEA0B042146404604
:1031F00002F0C4F8BDE8F09F00BF00F00702064BE4
:1032000019684FF6FF031940044B0B4343EA0221B0
:10321000014B196000BF70470CED00E00000FA059B
:1032200070B504460D4600266D48006800F00F009A
:10323000A84209D26A490D700846006800F00F00E4
:10324000A84201D0012070BD207800F002000228C1
:1032500007D16448006820F0F000A1680843614984
:103260000860207800F00100002877D0606801280D
:1032700007D15C4808380068C0F34040B8B9012065
:10328000E1E76068022802D06068032807D155484A
:1032900008380068C0F3406048B90120D3E75148BE
:1032A00008380068C0F3400008B90120CBE74D485A
:1032B000006820F00300616808434A490860FFF78E
:1032C0009DFE06466068012810D108E0FFF796FED3
:1032D000801B41F28831884201D90320B3E741487D
:1032E000006800F00C000428F0D137E06068022884
:1032F00010D108E0FFF782FE801B41F2883188423E
:1033000001D903209FE73748006800F00C00082827
:10331000F0D123E06068032810D108E0FFF76EFECB
:10332000801B41F28831884201D903208BE72D4868
:10333000006800F00C000C28F0D10FE008E0FFF767
:103340005DFE801B41F28831884201D903207AE773
:103350002448006800F00C000028F0D120480068E4
:1033600000F00F00A84209D91D490D7008460068F9
:1033700000F00F00A84201D0012064E7207800F09F
:103380000400042807D11748006820F4E050E168E1
:10339000084314490860207800F00800082808D184
:1033A0001048006820F46040216940EAC1000D49DE
:1033B000086000F04FF80B49096801F0F001F022B5
:1033C00092FAA2F2B2FA82F2D140074A515CC840A6
:1033D000064908600F20FFF735FE002033E70000A4
:1033E000003C0240083802409BB2000870020020F6
:1033F00001480068704700007002002000B5FFF728
:10340000F7FF0749096801F4E0514FF4E05292FADE
:10341000A2F2B2FA82F2D140024A515CC84000BD29
:10342000083802409BB2000800B5FFF7E1FF0749EA
:10343000096801F460414FF4604292FAA2F2B2FAD4
:1034400082F2D140024A515CC84000BD08380240B7
:103450009BB2000870B50021002200230020274CF9
:10346000246804F00C0424B1042C04D0082C41D1AD
:1034700003E0234840E023483EE0204C241F24681A
:1034800004F03F011D4C241F246804F4800484B11F
:103490001C4CB4FBF1F5194C241F246847F6C07688
:1034A000344096FAA6F6B6FA86F6F44005FB04F226
:1034B0000FE0134CB4FBF1F5104C241F246847F6C1
:1034C000C076344096FAA6F6B6FA86F6F44005FBC6
:1034D00004F20A4C241F246804F440344FF44035AD
:1034E00095FAA5F5B5FA85F5EC40641C6300B2FBCE
:1034F000F3F001E0024800BF00BF70BD0838024091
:103500000024F40040787D0138B504460025207879
:1035100000F00100002848D0DE48006800F00C00F0
:1035200004280DD0DB48006800F00C00082811D1F9
:10353000D848001F006800F48000B0F5800F09D162
:10354000D44808380068C0F3404070B3606860BB7E
:10355000012038BD2079CF49891F0870606890B17B
:10356000FFF74CFD054606E0FFF748FD401B6428C9
:1035700001D90320EDE7C74808380068C0F3404090
:103580000028F1D011E0FFF739FD054606E0FFF70E
:1035900035FD401B642801D90320DAE7BD4808380F
:1035A0000068C0F340400028F1D1207800F002000C
:1035B000022869D1B748006800F00C0058B1B5483E
:1035C000006800F00C00082821D1B248001F0068F4
:1035D00000F48000D8B9AF4808380068C0F3400054
:1035E00020B1E068012801D00120B2E7A9480838DD
:1035F000006820F0F800F82292FAA2F2B2FA82F201
:10360000216991400843A349083908603CE0E0681B
:1036100028B30120A0490860FFF7F0FC054606E04A
:10362000FFF7ECFC401B022801D9032091E79948E1
:1036300008380068C0F340000028F1D095480838E9
:10364000006820F0F800F82292FAA2F2B2FA82F2B0
:103650002169914008438F490839086014E000202F
:103660008D490860FFF7CAFC054606E0FFF7C6FC77
:10367000401B022801D903206BE786480838006800
:10368000C0F340000028F1D1207800F0080008289D
:103690002CD16069A8B1012080490860FFF7AEFC19
:1036A000054606E0FFF7AAFC401B022801D90320CB
:1036B0004FE778486C300068C0F340000028F1D034
:1036C00014E0002075490860FFF798FC054606E005
:1036D000FFF794FC401B022801D9032039E76D480D
:1036E0006C300068C0F340000028F1D1207800F071
:1036F0000400042857D100BF0020009065483830EE
:10370000006840F08050634938310860084600681E
:1037100000F08050009000BF00BF6148006840F496
:1037200080705F490860FFF769FC054606E0FFF717
:1037300065FC401B022801D903200AE758480068AD
:1037400000F480700028F2D0207A52496831087065
:10375000A068A0B1FFF752FC054608E0FFF74EFC59
:10376000401B41F28831884201D90320F1E64948E3
:1037700068300068C0F340000028EFD013E0FFF786
:103780003DFC054608E0FFF739FC401B41F288315B
:10379000884201D90320DCE63E4868300068C0F367
:1037A00040000028EFD1A069F0B33A48006800F06B
:1037B0000C00082869D0A069022850D100203649A1
:1037C0000866FFF71BFC054606E0FFF717FC401BE9
:1037D000022801D90320BCE62E4808380068C0F34F
:1037E00040600028F1D1D4E90701084347F6C072D0
:1037F00092FAA2F2B2FA82F2616A9140084301227F
:10380000A16AC2EB51014FF4403292FAA2F2B2FA2D
:1038100082F2914008434FF0706292FAA2F2B2FA3B
:1038200082F2E16A914000E031E008431949091F42
:103830000860012018490866FFF7E0FB054606E02E
:10384000FFF7DCFB401B022801D9032081E6114869
:1038500008380068C0F340600028F1D017E000206D
:103860000D490866FFF7CAFB054606E0FFF7C6FBF1
:10387000401B022801D903206BE60648083800687F
:10388000C0F340600028F1D101E0012061E6002092
:103890005FE600000838024000004742800E4742C1
:1038A0000070004070B504462546681EB0F1807F68
:1038B00001D301200FE0681E4FF0E02148610F2185
:1038C0004FF0FF3001F05AFD00204FF0E0218861F9
:1038D00007200861002070BD0021C163704700000F
:1038E0002DE9F0470446206805682068C66820680E
:1038F00047694FF00008C14605F00F08B8F1000F06
:103900000AD105F0200038B106F0200020B1204691
:1039100000F0EAFFBDE8F087B8F1000F6CD040F28C
:1039200001103840002867D005F0010030B106F4DE
:10393000807018B1E06B40F00100E06305F0040016
:1039400030B107F0010018B1E06B40F00200E06315
:1039500005F0020030B107F0010018B1E06B40F053
:103960000400E06305F0080030B107F0010018B171
:10397000E06B40F00800E063E06B00283BD005F00E
:10398000200028B106F0200010B1204600F0ACFF66
:1039900020684069C0F38019E06B00F0080010B99E
:1039A000B9F1000F22D0204600F07EFF2068406968
:1039B00000F04000B0B12068406920F0400021686C
:1039C0004861606B50B11748616B0865606BFEF72A
:1039D0007CFE80B1606B016D88470CE02046FFF7EC
:1039E0007BFF08E02046FFF777FF04E02046FFF763
:1039F00073FF0020E0638DE705F0800030B106F032
:103A0000800018B1204601F071F983E705F040000D
:103A100030B106F0400018B1204600F055FF79E7BC
:103A200000BF77E79548000810B504460CB901209F
:103A300010BDA06900B100E000BF94F8390028B9BA
:103A4000002084F83800204600F027F8242084F86D
:103A500039002068C06820F400502168C860204602
:103A600000F090FF2068006920F490402168086110
:103A70002068406920F02A00216848612068C068F9
:103A800040F400502168C8600020E063202084F8E2
:103A9000390084F83A000020CAE7704710B50346A1
:103AA00001B10AB9012010BD00BF93F83800012808
:103AB00001D10220F7E7012083F8380000BF9962A6
:103AC0009A85DA850020D863222083F83A0000BF67
:103AD000002083F8380000BF1868C06840F4807088
:103AE0001C68E0601868406940F001001C68606173
:103AF0001868C06840F020001C68E0600020D2E731
:103B000010B50446012006F0E7F810BD10B50346D5
:103B100001B10AB9012010BD00BF93F83800012897
:103B200001D10220F7E7012083F8380000BF1962B5
:103B30009A84DA840020D863212083F8390000BFFA
:103B4000002083F8380000BF1868C06840F080008B
:103B50001C68E0600020DEE710B50446022006F095
:103B6000BBF810BD00BFFEE74FF0FF300549096804
:103B7000054A914204D0034908681146014A116080
:103B8000704700006C020020A55AA55A0A4909682E
:103B900001F0010171B108498039096801F00101A2
:103BA00041B100BF4FF0604109680029FAD04FF0E1
:103BB0006042107070470000800E00E010B50021D8
:103BC000064805F0DBFD064908600846006810B9A4
:103BD0004FF0FF3010BD0020FCE70000B0B100083E
:103BE0004002002010B586B004466348007D00F016
:103BF000010010B1002006B010BD6048FEF79AFA2F
:103C00005F48FEF797FA04200190022002900120FD
:103C10000390032004900C20059001A95848FFF759
:103C2000E1F84FF4805001900220029000200390B0
:103C3000032004900C20059001A95048FFF7D2F80A
:103C40004FF4807001900220029001200390032025
:103C500004900C20059001A94848FFF7C3F84FF4E1
:103C600060600190022002900120039003200490E4
:103C70000C20059001A94148FFF7B4F841480068BD
:103C800040F480403F4908603F48006840F0010030
:103C90003D49086000BF3C48006800F4807000287F
:103CA000F9D000BF0020009036481438006840F476
:103CB00080003449143908600846006800F4800028
:103CC000009000BF00BF3148314908604FF00060EC
:103CD000486000212E488160C1604FF4806101611D
:103CE00089004161890081612021C1610021016257
:103CF00004214162032181624FF40001C1628910F5
:103D00000163FEF74BFE10B14FF0FF3073E71F4821
:103D10004830204908604FF00060486040211D484D
:103D200081600021C1604FF48061016189004161BF
:103D3000890081612021C161002101620421416269
:103D4000032181624FF40001C16289100163FEF713
:103D500025FE10B14FF0FF304DE70F480C49C86306
:103D600020210548FDF75FF803480460012002495F
:103D7000087500203FE700002030002000080240C6
:103D8000000C024044380240203801405864024090
:103D9000602F0020C02F0020B940000800B589B076
:103DA00000BF002001901948006840F0100017493A
:103DB00008600846006800F01000019000BF00BFD6
:103DC0001C2102A8FDF72FF84FF416500290002096
:103DD0000390049005900C20069000200790089016
:103DE0001C2202A90A48FCF7C2FF0A480849091F19
:103DF00008600846FFF718FE002201212520FFF782
:103E0000BDF92520FFF7AAF909B000BD44380240EA
:103E1000380600200010014070B5FEF783FE1049FF
:103E2000C86880470F48006805F0CAFC72B60E48A3
:103E30000E49086062B60C4800680D490840B0F1B0
:103E4000005F0CD1084845682C46002080F3148898
:103E500000BF0549086880F3088800BFA04770BD0F
:103E600030B20008400200200000010808ED00E028
:103E70000000FE2F014904F083BC0000A0310020A7
:103E8000204921480088FEF75DFB3AE01F48018881
:103E90001D480088FEF787FB1C49088019491A480D
:103EA0000088FEF74FFB19480088D8B1442802D09B
:103EB00046281DD100E000BF02221549D00201F0C2
:103EC00017FA11480188022005F022FF102211493B
:103ED00041F2100001F0CEF90B480188022005F0F4
:103EE00017FF0BE008480188442000F045FB05E07F
:103EF00005480188442000F03FFB00BF00BF05F0EB
:103F00006BFCC3E7D404002088000020CE00002012
:103F1000740000206400002000BFFEE7704700002E
:103F200038B50446002524B1012C72D0022C71D181
:103F300067E05C48006840F400605A49086000BFD0
:103F400000BF00BF00BF5748006820F4006055491B
:103F500008603120FFF7F0F85348006810B13B20AB
:103F6000FFF7EAF85148006810B14520FFF7E4F880
:103F70004D48006828B14C48FEF7BBFB08B14FF034
:103F8000FF354A48006828B14848FEF7B2FB08B13F
:103F90004FF0FF3543482030006820F4006041496D
:103FA000203108604248406820F0010040494860E4
:103FB0000846406820F0020048600846406820F04B
:103FC000040048600846406820F008004860084641
:103FD000406820F0100048600846406820F020004B
:103FE00048600846406820F0400048600846406845
:103FF00020F0800048600846007D20F0020008752F
:104000004CE02B48007D00F0010020B94FF0FF305C
:1040100038BD40E03EE02648007D00F0020008B1D7
:104020000020F5E700BF002000901E482030006807
:1040300040F400601B49203108600846006800F425
:104040000060009000BF00BF002019498860002177
:104050001748016140F2CF30164908604FF0FF3039
:10406000144918390860032012493C3908603B2084
:10407000FFF774F84520FFF771F83120FFF74AF891
:104080003120FFF76BF80A48007D40F00200084934
:10409000087503E000BF6FF00300B9E700BF2846D2
:1040A000B6E7000024380240602F0020C02F002017
:1040B000203000203C2C014010B5044606484068E2
:1040C00020F00800044948600846006818B1084616
:1040D00001682020884710BD203000200448007D62
:1040E00000F0020010B94FF0FF3070470020FCE7ED
:1040F000203000202DE9F0478046894615461A4CAD
:104100004AF6CC2001F08AFF20800320A070812095
:10411000E07084F8048065710520A0704FF6FF768A
:10412000032707E01048C15D304601F07DFF0646D9
:10413000781C87B2062FF5DB0B498E713012C871DF
:10414000032005F0ADFD082207490848FFF7DEFC13
:1041500005F1080206490548FFF7A0FC0448801D48
:10416000C9F80000BDE8F08774060020340600207E
:10417000740A00200448007D00F0020010B94FF0DE
:10418000FF3070470020FCE7203000202DE9F0418F
:10419000002400269E48056840F20F202840002891
:1041A00046D005F0010090B146F001069948007D27
:1041B00000F0100048B19748406820F00400001D4E
:1041C0009449486044F0100401E045F0400505F0D2
:1041D000020050B146F002068E48406820F02000F0
:1041E00020308C49486044F0800405F0040050B150
:1041F00046F004068748406820F00200801C85498C
:10420000486044F0080405F0080050B146F0080684
:104210008048406820F0100010307E49486044F02B
:10422000400405F4007018B146F4007644F08004B0
:1042300005F04000002851D046F0400644F0040448
:104240007448806818B37348007D00F00800C0B15E
:104250006F48143800686F49896808606C481838DE
:1042600000686C498968486069481C380068694979
:104270008968886066482038006866498968C8602F
:1042800005E0634820380068624989680860614831
:10429000007D00F0200008B35E48007D20F0200083
:1042A0005C4908750846007D00F0800020B1084692
:1042B000806940F4807088615648C06954490C395F
:1042C00008605448806940F00100091D08605148A9
:1042D000406820F0080008304E49486005F0800032
:1042E00018B146F0800644F0040405F4807070B103
:1042F00046F480764748007D00F0400038B94448D5
:104300000830006840F4806041490831086005F4D5
:10431000806098B146F480663E48007D00F0400021
:1043200020B93C48006908B944F0200438480830F6
:10433000006820F4806036490831086005F4800088
:1043400058B146F4800632480830006800F4800016
:104350002F490831086044F480742D48001D066020
:10436000002C53D0E02704EA0700E0B12948406858
:1043700020F00800274948600846006898B104F01A
:10438000800020B108460168802088470BE004F0D7
:10439000400020B11F4801684020884703E01D48C5
:1043A0000168202088471C2704EA0700E0B119486B
:1043B000406820F00100174948600846006898B13D
:1043C00004F0100020B108460168102088470BE077
:1043D00004F0080020B10F4801680820884703E076
:1043E0000C4801680420884704F4807070B10948C3
:1043F000406820F0400040300649486008460068A8
:1044000020B1084601684FF480708847BDE8F0810C
:10441000342C0140203000202DE9F0470546894624
:1044200014461F4604F0030020B11FB96FF00400CA
:10443000BDE8F0874C48007D00F0040010B94FF053
:10444000FF30F5E74848007900F0010010B16FF047
:104450000100EDE74448406820F00100401C42495B
:1044600048600846406820F00200486008464068FE
:1044700020F0040048600846406820F010004860C2
:104480000846406820F0200048600846406820F058
:104490008000486004F0400008B33448066806F421
:1044A000807010B106F40070C8B13048006820F484
:1044B000007040F480702D490860FEF799FF804637
:1044C0002B48B8FBF0F04FF47A7100FB01F801E0E3
:1044D000A8F10108B8F1000FFAD124480660E8B24B
:1044E00040F4806520488760007D20F018001E4958
:1044F000087504F0030030B1012805D0022804D06B
:1045000003280ED104E00FE000BF45F040050BE0AA
:104510001548007D40F008001349087545F0C005B6
:1045200002E04FF0FF3083E700BF04F0080028B13D
:104530000D48007D40F010000B49087504F0200084
:1045400028B10948007D40F0200007490875094856
:104550000649343108600548001DC0F80090001D70
:104560000560002064E7000020300020042C01409A
:10457000404B4C00FF07400038B504460D4620462E
:1045800001F04CFD009002226946032000F036FE47
:104590002946022005F0BCFB38BD00002DE9F0479C
:1045A00007468A46144698461FB1BAF1000F00D05C
:1045B0001CB96FF00400BDE8F0873A48007D00F0B8
:1045C000040010B94FF0FF30F5E736480079C0F32A
:1045D000C00010B16FF00100EDE73248C7600AFB80
:1045E00004F03049086108460669B6F5803F01D3FA
:1045F0004FF6FF762B480069811B2A480161C0688D
:1046000030442849C8604FF0000908F0010038B96B
:104610000846007D40F04000087549F0020905E0B9
:104620002048007D20F040001E49087508F0020077
:1046300008B149F00409B4F5007F01D1092510E063
:10464000B4F5804F02D96FF00300B4E7002505E010
:104650000120A840204000B102E06D1C0E2DF7D3D0
:1046600000BF08F0010048B133460F4A39460F48F1
:10467000FEF708FA60B14FF0FF309CE733463A4648
:1046800009490B48FEF7FEF910B14FF0FF3092E7F1
:104690000448C66149EA051040F0080001498861F4
:1046A000002088E720300020802C0140C02F00200F
:1046B000602F002000B593B000BF00200190294872
:1046C000006840F08050274908600846006800F004
:1046D0008050019000BF00BF00BF00200190224821
:1046E000006840F48040204908600846006800F4F3
:1046F0008040019000BF00BF012002900390022083
:1047000008904105099104210A91A8210B910221E9
:104710000C9104210D9102A8FEF7F6FE08B1FDF7F9
:10472000EEFD0F200E9002200F90002010904FF40D
:10473000A05011904FF48050129005210EA8FEF762
:104740006FFD08B1FDF7DBFDFEF752FC41F2010100
:10475000884205D10548006840F48070034908602C
:1047600013B000BD4038024000700040003C0240E1
:1047700070B500200022022300240221274D2D685D
:1047800005F00C0020B1042806D0082834D107E039
:10479000234D244E356033E0234D224E35602FE00B
:1047A0001E4D2D1F2D68C5F380541C4D2D1F2D68E7
:1047B00005F03F0154B11C4DB5FBF1F5174E361F06
:1047C0003668C6F3881605FB06F209E0144DB5FB02
:1047D000F1F5124E361F3668C6F3881605FB06F251
:1047E0000E4D2D1F2D68C5F301456D1C6B00B2FBEE
:1047F000F3F50C4E356003E0094D0A4E356000BFFD
:1048000000BF064D2D68C5F30315084E705D054DBC
:104810002D68C540034E356070BD00000838024069
:104820000024F4007002002000127A00ABB20008ED
:104830001448006840F4700012490860124800688B
:1048400040F001001049086000200F49083108605D
:104850000D4800680D4908400B4908600C48091DC7
:104860000860081F006820F48020091F08600020ED
:1048700005490C3108604FF000600249803908603A
:104880007047000088ED00E000380240FFFFF6FEB0
:104890001030002470B50546AC6B0020E085E08444
:1048A0002046FFF719F870BD0168C96821F49071BE
:1048B0000268D1600168496921F001010268516113
:1048C000202180F83A10704710B504462068C0686F
:1048D00020F040002168C860202084F8390020467C
:1048E000FFF73AF9002010BD70B5044694F83A007D
:1048F000222844D1A068B0F5805F13D1A56A206951
:1049000040B920684068C0F308002880A06A801C75
:10491000A06219E020684068C0B22880A06A401CEC
:10492000A06211E0206938B920684068C1B2A26A6B
:10493000501CA062117007E02068406800F07F0101
:10494000A26A501CA0621170E08D401E80B2E0850A
:1049500098B92068C06820F490702168C860206809
:10496000406920F0010021684861202084F83A0065
:104970002046FFF7C5F8002070BD0020FCE70220AC
:10498000FAE700002DE9F04104460025206805699A
:1049900025F44055E0680543206805612068C56836
:1049A00049F20C6085432169A068084361690843A6
:1049B000E169084305432068C5602068456925F41E
:1049C0004075A069054320684561E069B0F5004F76
:1049D0007ED1C4492068884203D0C34920688842F8
:1049E0005DD1FEF721FD00EBC00101EB0010616815
:1049F0004900B0FBF1F06421B0FBF1F00601FEF7D5
:104A000013FD00EBC00101EB001061684900B0FB31
:104A1000F1F7FEF709FD00EBC00101EB0010616842
:104A20004900B0FBF1F06421B0FBF1F000EBC001F4
:104A300001EB0010A7EB8000322101EBC0006421E4
:104A4000B0FBF1F000F0F80006EB4006FEF7ECFCDE
:104A500000EBC00101EB001061684900B0FBF1F709
:104A6000FEF7E2FC00EBC00101EB001061684900B9
:104A7000B0FBF1F06421B0FBF1F000EBC00101EB01
:104A80000010A7EB8000322101EBC0006421B0FBD5
:104A9000F1F000F0070030442168886020E1FEF763
:104AA000ADFC00EBC00101EB001061684900B0FBF8
:104AB000F1F06421B0FBF1F00601FEF79FFC00EB82
:104AC000C00101EB001061684900B0FBF1F700E0A4
:104AD00045E0FEF793FC00EBC00101EB00106168BC
:104AE0004900B0FBF1F06421B0FBF1F000EBC00134
:104AF00001EB0010A7EB8000322101EBC000642124
:104B0000B0FBF1F000F0F80006EB4006FEF776FC93
:104B100000EBC00101EB001061684900B0FBF1F748
:104B2000FEF76CFC00EBC00101EB0010616849006E
:104B3000B0FBF1F06421B0FBF1F000EBC00101EB40
:104B40000010A7EB8000322101EBC0006421B0FB14
:104B5000F1F000F00700304421688860C0E061494E
:104B60002068884203D06049206888425CD1FEF703
:104B70005BFC00EBC00101EB001061688900B0FB39
:104B8000F1F6FEF751FC00EBC00101EB001061688B
:104B90008900B0FBF1F06421B0FBF1F000EBC00143
:104BA00001EB0010A6EB8000322101EB0010642124
:104BB000B0FBF1F000F0F006FEF736FC00EBC001B0
:104BC00001EB001061688900B0FBF1F06421B0FBDB
:104BD000F1F006EB0016FEF727FC00EBC00101EB3D
:104BE000001061688900B0FBF1F7FEF71DFC00EBD7
:104BF000C00101EB001061688900B0FBF1F0642195
:104C0000B0FBF1F000EBC00101EB0010A7EB80005E
:104C1000322101EB00106421B0FBF1F000F00F0035
:104C20003044216888605BE0FEF7E8FB00EBC001E0
:104C300001EB001061688900B0FBF1F6FEF7DEFBC6
:104C400000EBC00101EB001061688900B0FBF1F0DE
:104C50006421B0FBF1F000EBC00101EB0010A6EB0A
:104C60008000322101EB00106421B0FBF1F000F074
:104C7000F006FEF7C3FB00EBC00101EB001061681A
:104C80008900B0FBF1F06421B0FBF1F006EB0016F7
:104C9000FEF7B4FB00EBC00101EB00106168890076
:104CA000B0FBF1F7FEF7AAFB00EBC00101EB00102F
:104CB00061688900B0FBF1F06421B0FBF1F000EB1A
:104CC000C00101EB0010A7EB8000322101EB0010C6
:104CD0006421B0FBF1F000F00F00304421688860DF
:104CE000BDE8F0810010014000140140014691F838
:104CF000390021282CD18868B0F5805F0FD10A6A6D
:104D00001088C0F308000B685860086918B9086A71
:104D1000801C086209E0086A401C086205E00B6A12
:104D2000581C086218780B685860C88C401E80B206
:104D3000C88458B90868C06820F080000B68D86043
:104D40000868C06840F040000B68D86000207047D9
:104D50000220FCE710B50248FEF7C2FD10BD0000BE
:104D60003406002010B500200849087504210848C1
:104D7000FDF77EFF4FF488510648FDF779FF4FF4A9
:104D800060610448FDF774FF002010BD2030002052
:104D9000000C02400008024070B5C0B0002400BF03
:104DA00007E01949085DFBF7F0FBC0B20DF80400FD
:104DB000641C1548FBF777FFA042F2D800200DF8DD
:104DC000040012A16846FBF74FFF06460FA1002022
:104DD000FBF74AFF05460E48007880B10DA1284632
:104DE000FCF748F808B900F0D9F80BA12846FCF701
:104DF00041F808B900F012F8FFF70EF801E0FFF7EC
:104E00000BF840B070BD0000C40200202E0000006E
:104E1000500200204845580042494E002DE9F04319
:104E200085B048A14848FBF7DFFE0546002D7DD040
:104E3000022200212846FBF70DFE2846FBF7DFFD86
:104E4000814600264C46DFF804812846FBF7E8FD42
:104E50003CA13D48FBF7C8FE05463DA01022434952
:104E6000009001A8FBF73EFF01A80FC805F0DEFE89
:104E700037A0FBF799FB00203D49087043E040460E
:104E8000FDF7A6FB87B23B48C05D28B93846FDF761
:104E900013FA01203749C855402C16D92B46402219
:104EA00001213548FCF710FE00BFFDF7CBFE0028BE
:104EB000FBD140223049404602F0A2FBFDF7B8FE8C
:104EC00008F14008403C403616E02B4622460121BE
:104ED0002948FCF7F9FD00BFFDF7B4FE0028FBD11F
:104EE000A2B22549404602F08BFBFDF7A1FEA0448B
:104EF000264401201E49087064207043B0FBF9F07D
:104F00001E49088000BF1A4800780028B7D02846FC
:104F1000FBF786FD6420FDF727FE19A01022134938
:104F2000009001A8FBF7DEFE01A800E006E00FC834
:104F300005F07CFE12A0FBF737FB00BF05B0BDE813
:104F4000F083000072000000C4020020000001088D
:104F50004669726D77617265207570646174652051
:104F60007374617274696E670D0A0000D4040020C6
:104F700080000020B8020020C4030020740000203C
:104F80004669726D77617265207570646174652021
:104F9000636F6D706C6574650D0A00002DE9F04F4C
:104FA00087B074A17448FBF71FFE0746002F7DD021
:104FB000022200213846FBF74DFD3846FBF71FFD66
:104FC00006904FF000093846FBF72AFD69A16A48B0
:104FD000FBF70AFE074669A010226F49009002A85D
:104FE000FBF780FE02A80FC805F020FE63A0FBF7C8
:104FF000DBFAA1E04FF0000A8FE03A464FF48071EF
:105000006648FCF736FD04460026B3460221E01D43
:1050100002F072FF80B20590B0460025059878B185
:10502000012870D0042802D0052870D16AE004213C
:1050300004F1090002F060FF00045949086066E0CD
:105040000221601C02F058FF1FFA80F80421E01CC6
:1050500002F052FF5349086051480068096840EA6D
:10506000010B5846FDF7B4FA86B24F4806804F4808
:10507000834512D23846FBF7D3FC4DA01022464997
:10508000009001A8FBF72EFE01A80FC805F0CEFD89
:1050900047A0FBF789FAFEF7BFFE4B48805D38B9A1
:1050A0003046FDF709F90120474900E05EE08855E8
:1050B00000250AE0092101EB45010819022102F04F
:1050C0001BFF42494855681C85B24545F2DB00BFCD
:1050D000FDF7B8FD0028FBD142463C49584602F096
:1050E0008FFAFDF7A5FDC2442046FBF7DCFD8144A5
:1050F000642009FB00F00699B0FBF1F03449088008
:1051000005E000E003E001203249087000BF00BF65
:105110003048007800B108E000BF2F4822490988D4
:1051200050F8210050453FF668AF00BF1E48008888
:10513000401C1D49088000BF2648007800283FF425
:1051400059AF3846FBF76CFC6420FDF70DFD23A03A
:1051500010221149009002A8FBF7C4FD02A80FC855
:1051600005F064FD1DA0FBF71FFA00BF07B0BDE806
:10517000F08F000072000000C40200204669726DCA
:1051800077617265207570646174652073746172F3
:1051900074696E670D0A0000D4040020C403002067
:1051A000780000207C00002076000020000001082C
:1051B0004669726D77617265206F666673657420EB
:1051C0006572726F720D0A00B8020020C4040020DC
:1051D0007400002080000020000000204669726DED
:1051E000776172652075706461746520636F6D709E
:1051F0006C6574650D0A000000BFFEE72DE9F047FD
:10520000804689461446194D4AF6CC2000F006FF28
:105210002880A01CA8708020E87085F80480201DDC
:10522000A87022464946681DFBF75CFD201DA8704A
:105230004FF6FF76032707E00C48C15D304600F0CB
:10524000F3FE0646781C87B2601D8742F4DB074AEE
:1052500016543112A01D1154032004F021FDE21D4B
:1052600002490348FEF752FCBDE8F08774060020AF
:10527000340600202DE9F0478046894614461A4D31
:105280004AF6CC2000F0CAFE2880E01CA8708220DC
:10529000E870404600F0C2FEA880601DA87022465B
:1052A0004946A81DFBF71EFD4FF6FF76032707E0D2
:1052B0000D48C15D304600F0B7FE0646781C87B247
:1052C000A01D8742F4DB084A16543112E01D115428
:1052D000032004F0E5FC04F1080203490348FEF74B
:1052E00015FCBDE8F087000074060020340600209D
:1052F0002DE9F0478046894614461A4D4AF6CC20DF
:1053000000F08CFE2880E01CA8708220E8704046E7
:1053100000F084FEA880601DA87022464946A81DA2
:1053200000F068FE4FF6FF76032707E00D48C15DE9
:10533000304600F079FE0646781C87B2A01D8742F1
:10534000F4DB084A16543112E01D1154032004F016
:10535000A7FC04F1080203490348FEF7D7FBBDE8A8
:10536000F087000074060020340600200248006820
:10537000C0F30220704700000CED00E010B50028DB
:1053800004DB0A07130E054A135406E00A07140E3D
:10539000034A00F00F031B1FD45410BD00E400E0CB
:1053A00018ED00E02DE9F041C10313D520F480355C
:1053B000164F05EBC50657F82600446814B1204681
:1053C00002F029FC284601F045F807EB8601002091
:1053D000088210E0810316D520F400350C49C5EB96
:1053E000C50051F82000446814B1204602F013FCB7
:1053F000284600F07BFF002514B1204602F016FC81
:105400002846BDE8F0810025FAE700006030002062
:10541000F030002070B5C1030FD520F48035144959
:1054200005EBC50051F82000446814B1204602F095
:10543000F2FB284601F0B6F810E0810315D520F400
:1054400000350C49C5EBC50051F82000446814B183
:10545000204602F0E0FB284600F04AFF054614B162
:10546000204602F0E3FB284670BD4FF0FF35FAE717
:1054700060300020F03000202DE9F3410F466946EE
:10548000009802F05DFB4FF0FF36002801DA354648
:1054900030E01B4901EBC005E87940072868446803
:1054A0000FD514B1204602F0B6FB286801F0DAFAF5
:1054B00005463A46009901F00BFCB0B945F4803539
:1054C00014E014B1204602F0A6FB286800F015FF96
:1054D00005463A46009900F017FF70B1094AC5EB3E
:1054E000C50102EB810100208881354614B12046B8
:1054F00002F09CFB2846BDE8FC8145F40035F5E749
:10550000DCB20008F03000202DE9F04116465FEAD9
:1055100001084FF0000542F0004431D0C10311D51D
:1055200020F48037184907EBC70051F82000456880
:1055300015B1284602F06FFB32464146384601F06D
:10554000ABFC12E0810317D520F400370F49C7EBFD
:10555000C70051F82000456815B1284602F05BFBF2
:1055600032464146384600F0D1FE002801DA0446B2
:1055700002E001D0A6EB000415B1284602F056FB6C
:105580002046BDE8F081000060300020F0300020AF
:105590002DE9F0410E46C1034FF0FF3510D520F440
:1055A0008037154907EBC70051F82000446814B153
:1055B000204602F030FB3146384601F0F1FC11E0A4
:1055C000810315D520F400370C49C7EBC70051F80B
:1055D0002000446814B1204602F01DFB31463846D5
:1055E00000F096FE00B9002514B1204602F01EFB23
:1055F0002846BDE8F081000060300020F030002037
:105600002DE9F04190460E004FF0FF342DD0C1033C
:1056100012D520F48034164904EBC40051F8200060
:10562000456815B1284602F0F6FA42463146204652
:1056300001F02CFE044614E0810316D520F4003757
:105640000C49C7EBC70051F82000456815B1284642
:1056500002F0E1FA42463146384600F05BFE00B9FE
:10566000002415B1284602F0E1FA2046BDE8F08199
:1056700060300020F0300020074810B5007848B1B5
:1056800005F08EFA30B1054900EB400001EB401007
:10569000603810BD024810BD79020020002D0020A6
:1056A0002846002010B5002A06DA22F00042D21D5A
:1056B00022F00703102203E0D21C22F003030C2285
:1056C00013B19C188C4201D9012010BD0244014441
:1056D0008360C0E90021C91AD018884202D810603E
:1056E0000246F9E70020106010BD30380A2801D2C8
:1056F000012070470020704705490978002905D02E
:1057000000684FF6FF71DFF80CC000DF7047000043
:1057100079020020E9A30008084A10B51169034680
:10572000082900D3FEE7064800EB0110491C186069
:10573000116104F0E5FD012010BD000058020020B9
:10574000E02E002004490978002903D00068DFF822
:105750000CC000DF704700007902002011A3000890
:1057600010B504466FF40040204420B1012804D055
:10577000022806D103E0002010BD0020FCE7002035
:10578000FAE72046FFF70EFEF6E710B504466FF481
:105790000040204420B1012804D0022806D103E0B3
:1057A000002010BD0020FCE70020FAE72046FFF7AC
:1057B00031FEF6E701466FF40040084420B10128AD
:1057C00004D0022806D103E0012070470120FCE745
:1057D0000120FAE70020F8E770B504460D4614B939
:1057E0004FF0FF3070BD20783A281AD10FA1204623
:1057F000FBF740FB10B948F20100F3E70DA120468A
:10580000FBF738FB10B948F20200EBE70BA120468A
:10581000FBF730FB10B948F20300E3E74FF0FF302D
:10582000E0E729462046FFF727FEDBE73A535444DA
:10583000494E00003A5354444F5554003A5354448F
:10584000455252002DE9F04107460E46144698464F
:105850006FF40040384420B1012810D0022814D140
:1058600010E005F04EFA0546002D03DA44F0004042
:10587000BDE8F08106F8015B641E2046F8E74FF0B2
:10588000FF30F5E74FF0FF30F2E722463146384669
:10589000FFF73AFEECE770B504460D466FF40040A2
:1058A000204420B1012805D0022809D105E04FF09D
:1058B000FF3070BD4FF0FF30FBE74FF0FF30F8E7EF
:1058C00029462046FFF764FEF3E72DE9F04107463D
:1058D0000C46154698466FF40040384420B1012824
:1058E00006D002281AD10EE04FF0FF30BDE8F0815B
:1058F00005E014F8016B304605F00BFA6D1E002D23
:10590000F7D10020F2E705E014F8016B304605F00E
:10591000F2F96D1E002DF7D10020E7E72A46214657
:105920003846FFF76DFEE1E700BE7047F8B5064662
:105930004FF0FF3000900C46CD6909E022466946E1
:10594000284600F028F8002809D0009840B16D1CC6
:10595000E06C801CA842F1D8009808B10020F8BD86
:1059600094F8360002F01AFA01462246284600F062
:105970005FF80028F3D0681CE06194F83600032833
:1059800006D1A069401EA061E06840F48070E0602C
:1059900001203560F8BD2DE9F041884605460146F5
:1059A000144602F12C0002F076FA06460146204623
:1059B00000F0FAF9002808D094F83600012806D043
:1059C000022824D0032829D00020BDE8F08105EB6F
:1059D0004500C0F34800B0F5FF7F04D8616E08446D
:1059E00002F07AFA0CE0606E711C90F8FF712046AC
:1059F00000F0DAF90028E8D0606E007847EA00206D
:105A0000E90701D000090FE0C0F30B000CE0616E64
:105A1000280601EBD05002F05FFA05E0616E6806DF
:105A200001EBD05002F05DFAC8F800000120CCE78D
:105A30002DE9F0470D4606460146144602F12C00BA
:105A400002F029FA81460146204600F0ADF900280F
:105A50000BD094F8360029464FF00108012806D0F3
:105A6000022843D0032847D00020BDE8F08706EB8A
:105A70004600C0F34807C5F30B05B7F5FF7F12D802
:105A8000606E384402F028FAF10702D065F31F1067
:105A900002E000F4704028430146606E00EB07000E
:105AA00005F086F82EE0F007606E06D090F8FF1142
:105AB00065F31F1180F8FF1101E080F8FF5184F8B1
:105AC000688009F10101204600F06EF90028CCD071
:105AD000F00703D0616E2809087013E0606E01784A
